{
  "_format": "hh-sol-artifact-1",
  "contractName": "FixedStrategy",
  "sourceName": "contracts/FixedStrategy.sol",
  "abi": [
    {
      "inputs": [
        {
          "internalType": "address",
          "name": "angleVaultAddr",
          "type": "address"
        },
        {
          "internalType": "address",
          "name": "angleStratAddr",
          "type": "address"
        },
        {
          "internalType": "address",
          "name": "oneInchAddr",
          "type": "address"
        },
        {
          "internalType": "address",
          "name": "angleFrontAddr",
          "type": "address"
        },
        {
          "internalType": "address",
          "name": "gaugeAdd",
          "type": "address"
        },
        {
          "internalType": "address",
          "name": "lockToken",
          "type": "address"
        }
      ],
      "stateMutability": "nonpayable",
      "type": "constructor"
    },
    {
      "anonymous": false,
      "inputs": [
        {
          "indexed": false,
          "internalType": "address",
          "name": "compounder",
          "type": "address"
        },
        {
          "indexed": false,
          "internalType": "uint256",
          "name": "amount",
          "type": "uint256"
        }
      ],
      "name": "Compounded",
      "type": "event"
    },
    {
      "anonymous": false,
      "inputs": [
        {
          "indexed": false,
          "internalType": "address",
          "name": "locker",
          "type": "address"
        },
        {
          "indexed": false,
          "internalType": "uint256",
          "name": "amount",
          "type": "uint256"
        }
      ],
      "name": "Deposit",
      "type": "event"
    },
    {
      "anonymous": false,
      "inputs": [
        {
          "indexed": false,
          "internalType": "bool",
          "name": "newState",
          "type": "bool"
        }
      ],
      "name": "EmergencyChanged",
      "type": "event"
    },
    {
      "anonymous": false,
      "inputs": [
        {
          "indexed": false,
          "internalType": "address",
          "name": "locker",
          "type": "address"
        },
        {
          "indexed": false,
          "internalType": "uint256",
          "name": "amount",
          "type": "uint256"
        }
      ],
      "name": "EmergencyWithdraw",
      "type": "event"
    },
    {
      "anonymous": false,
      "inputs": [],
      "name": "Harvested",
      "type": "event"
    },
    {
      "anonymous": false,
      "inputs": [
        {
          "indexed": false,
          "internalType": "uint256",
          "name": "newYield",
          "type": "uint256"
        }
      ],
      "name": "MaxYieldChanged",
      "type": "event"
    },
    {
      "anonymous": false,
      "inputs": [
        {
          "indexed": true,
          "internalType": "address",
          "name": "previousOwner",
          "type": "address"
        },
        {
          "indexed": true,
          "internalType": "address",
          "name": "newOwner",
          "type": "address"
        }
      ],
      "name": "OwnershipTransferred",
      "type": "event"
    },
    {
      "anonymous": false,
      "inputs": [
        {
          "indexed": false,
          "internalType": "address",
          "name": "locker",
          "type": "address"
        },
        {
          "indexed": false,
          "internalType": "uint256",
          "name": "amount",
          "type": "uint256"
        }
      ],
      "name": "Withdraw",
      "type": "event"
    },
    {
      "inputs": [],
      "name": "ANGL",
      "outputs": [
        {
          "internalType": "address",
          "name": "",
          "type": "address"
        }
      ],
      "stateMutability": "view",
      "type": "function"
    },
    {
      "inputs": [],
      "name": "ANGLE_POOL_MANAGER",
      "outputs": [
        {
          "internalType": "address",
          "name": "",
          "type": "address"
        }
      ],
      "stateMutability": "view",
      "type": "function"
    },
    {
      "inputs": [],
      "name": "FRAX",
      "outputs": [
        {
          "internalType": "address",
          "name": "",
          "type": "address"
        }
      ],
      "stateMutability": "view",
      "type": "function"
    },
    {
      "inputs": [],
      "name": "SDT",
      "outputs": [
        {
          "internalType": "address",
          "name": "",
          "type": "address"
        }
      ],
      "stateMutability": "view",
      "type": "function"
    },
    {
      "inputs": [],
      "name": "claim",
      "outputs": [],
      "stateMutability": "nonpayable",
      "type": "function"
    },
    {
      "inputs": [
        {
          "internalType": "bool",
          "name": "isEarn",
          "type": "bool"
        }
      ],
      "name": "comp",
      "outputs": [],
      "stateMutability": "nonpayable",
      "type": "function"
    },
    {
      "inputs": [],
      "name": "currentRatioForUser",
      "outputs": [
        {
          "internalType": "uint256",
          "name": "",
          "type": "uint256"
        }
      ],
      "stateMutability": "view",
      "type": "function"
    },
    {
      "inputs": [
        {
          "internalType": "uint256",
          "name": "amount",
          "type": "uint256"
        }
      ],
      "name": "deposit",
      "outputs": [],
      "stateMutability": "nonpayable",
      "type": "function"
    },
    {
      "inputs": [],
      "name": "emergency",
      "outputs": [
        {
          "internalType": "bool",
          "name": "",
          "type": "bool"
        }
      ],
      "stateMutability": "view",
      "type": "function"
    },
    {
      "inputs": [],
      "name": "emergencyWithdraw",
      "outputs": [],
      "stateMutability": "nonpayable",
      "type": "function"
    },
    {
      "inputs": [
        {
          "internalType": "address",
          "name": "executor",
          "type": "address"
        },
        {
          "internalType": "uint256[]",
          "name": "minReturnAmounts",
          "type": "uint256[]"
        },
        {
          "internalType": "bytes[]",
          "name": "permits",
          "type": "bytes[]"
        },
        {
          "internalType": "bytes[]",
          "name": "datas",
          "type": "bytes[]"
        }
      ],
      "name": "harvest",
      "outputs": [],
      "stateMutability": "nonpayable",
      "type": "function"
    },
    {
      "inputs": [
        {
          "internalType": "address",
          "name": "",
          "type": "address"
        }
      ],
      "name": "initialPPS",
      "outputs": [
        {
          "internalType": "uint256",
          "name": "",
          "type": "uint256"
        }
      ],
      "stateMutability": "view",
      "type": "function"
    },
    {
      "inputs": [
        {
          "internalType": "uint256",
          "name": "amount",
          "type": "uint256"
        }
      ],
      "name": "maxEarningToDate",
      "outputs": [
        {
          "internalType": "uint256",
          "name": "",
          "type": "uint256"
        }
      ],
      "stateMutability": "view",
      "type": "function"
    },
    {
      "inputs": [],
      "name": "maxYield",
      "outputs": [
        {
          "internalType": "uint256",
          "name": "",
          "type": "uint256"
        }
      ],
      "stateMutability": "view",
      "type": "function"
    },
    {
      "inputs": [],
      "name": "owner",
      "outputs": [
        {
          "internalType": "address",
          "name": "",
          "type": "address"
        }
      ],
      "stateMutability": "view",
      "type": "function"
    },
    {
      "inputs": [],
      "name": "pricePerShare",
      "outputs": [
        {
          "internalType": "uint256",
          "name": "",
          "type": "uint256"
        }
      ],
      "stateMutability": "view",
      "type": "function"
    },
    {
      "inputs": [],
      "name": "renounceOwnership",
      "outputs": [],
      "stateMutability": "nonpayable",
      "type": "function"
    },
    {
      "inputs": [
        {
          "internalType": "uint256",
          "name": "",
          "type": "uint256"
        }
      ],
      "name": "rewardTokens",
      "outputs": [
        {
          "internalType": "address",
          "name": "",
          "type": "address"
        }
      ],
      "stateMutability": "view",
      "type": "function"
    },
    {
      "inputs": [
        {
          "internalType": "uint256",
          "name": "newYield",
          "type": "uint256"
        }
      ],
      "name": "setMaxYield",
      "outputs": [],
      "stateMutability": "nonpayable",
      "type": "function"
    },
    {
      "inputs": [
        {
          "internalType": "address",
          "name": "",
          "type": "address"
        }
      ],
      "name": "stakeTimestamps",
      "outputs": [
        {
          "internalType": "uint256",
          "name": "",
          "type": "uint256"
        }
      ],
      "stateMutability": "view",
      "type": "function"
    },
    {
      "inputs": [],
      "name": "toggleEmergency",
      "outputs": [],
      "stateMutability": "nonpayable",
      "type": "function"
    },
    {
      "inputs": [],
      "name": "totalSupply",
      "outputs": [
        {
          "internalType": "uint256",
          "name": "",
          "type": "uint256"
        }
      ],
      "stateMutability": "view",
      "type": "function"
    },
    {
      "inputs": [
        {
          "internalType": "address",
          "name": "newOwner",
          "type": "address"
        }
      ],
      "name": "transferOwnership",
      "outputs": [],
      "stateMutability": "nonpayable",
      "type": "function"
    },
    {
      "inputs": [
        {
          "internalType": "address",
          "name": "",
          "type": "address"
        }
      ],
      "name": "userToShare",
      "outputs": [
        {
          "internalType": "uint256",
          "name": "",
          "type": "uint256"
        }
      ],
      "stateMutability": "view",
      "type": "function"
    },
    {
      "inputs": [
        {
          "internalType": "uint256",
          "name": "shares",
          "type": "uint256"
        }
      ],
      "name": "withdraw",
      "outputs": [],
      "stateMutability": "nonpayable",
      "type": "function"
    }
  ],
  "bytecode": "0x60806040523480156200001157600080fd5b506040516200405238038062004052833981810160405281019062000037919062000415565b620000576200004b620002df60201b60201c565b620002e760201b60201c565b85600360006101000a81548173ffffffffffffffffffffffffffffffffffffffff021916908373ffffffffffffffffffffffffffffffffffffffff16021790555084600460006101000a81548173ffffffffffffffffffffffffffffffffffffffff021916908373ffffffffffffffffffffffffffffffffffffffff16021790555081600560006101000a81548173ffffffffffffffffffffffffffffffffffffffff021916908373ffffffffffffffffffffffffffffffffffffffff16021790555083600160006101000a81548173ffffffffffffffffffffffffffffffffffffffff021916908373ffffffffffffffffffffffffffffffffffffffff16021790555082600260006101000a81548173ffffffffffffffffffffffffffffffffffffffff021916908373ffffffffffffffffffffffffffffffffffffffff16021790555080600660006101000a81548173ffffffffffffffffffffffffffffffffffffffff021916908373ffffffffffffffffffffffffffffffffffffffff160217905550605060078190555060097331429d1856ad1377a8a0079410b297e1a9e214c29080600181540180825580915050600190039060005260206000200160009091909190916101000a81548173ffffffffffffffffffffffffffffffffffffffff021916908373ffffffffffffffffffffffffffffffffffffffff16021790555060097373968b9a57c6e53d41345fd57a6e6ae27d6cdb2f9080600181540180825580915050600190039060005260206000200160009091909190916101000a81548173ffffffffffffffffffffffffffffffffffffffff021916908373ffffffffffffffffffffffffffffffffffffffff160217905550505050505050620004b1565b600033905090565b60008060009054906101000a900473ffffffffffffffffffffffffffffffffffffffff169050816000806101000a81548173ffffffffffffffffffffffffffffffffffffffff021916908373ffffffffffffffffffffffffffffffffffffffff1602179055508173ffffffffffffffffffffffffffffffffffffffff168173ffffffffffffffffffffffffffffffffffffffff167f8be0079c531659141344cd1fd0a4f28419497f9722a3daafe3b4186f6b6457e060405160405180910390a35050565b600080fd5b600073ffffffffffffffffffffffffffffffffffffffff82169050919050565b6000620003dd82620003b0565b9050919050565b620003ef81620003d0565b8114620003fb57600080fd5b50565b6000815190506200040f81620003e4565b92915050565b60008060008060008060c08789031215620004355762000434620003ab565b5b60006200044589828a01620003fe565b96505060206200045889828a01620003fe565b95505060406200046b89828a01620003fe565b94505060606200047e89828a01620003fe565b93505060806200049189828a01620003fe565b92505060a0620004a489828a01620003fe565b9150509295509295509295565b613b9180620004c16000396000f3fe608060405234801561001057600080fd5b50600436106101735760003560e01c80638da5cb5b116100de578063ba32c61911610097578063d64dcde111610071578063d64dcde1146103f0578063db2e21bc14610420578063e16544331461042a578063f2fde38b1461044857610173565b8063ba32c61914610398578063c47b4573146103b6578063caa6fea4146103d257610173565b80638da5cb5b146102d657806399530b06146102f457806399f853a514610312578063a94072b614610342578063b0e4556f1461035e578063b6b55f251461037c57610173565b8063301234e611610130578063301234e614610228578063441822ee146102465780634e71d92d146102625780636d8dea871461026c578063715018a61461029c5780637bb7bed1146102a657610173565b806310698a4a14610178578063147ec25f146101a857806317504e80146101c657806318160ddd146101e45780632d1d2744146102025780632e1a7d4d1461020c575b600080fd5b610192600480360381019061018d9190612b37565b610464565b60405161019f9190612b73565b60405180910390f35b6101b06104fe565b6040516101bd9190612b73565b60405180910390f35b6101ce61061d565b6040516101db9190612bcf565b60405180910390f35b6101ec610635565b6040516101f99190612b73565b60405180910390f35b61020a61063b565b005b61022660048036038101906102219190612b37565b6106b5565b005b610230610c8c565b60405161023d9190612bcf565b60405180910390f35b610260600480360381019061025b9190612c22565b610ca4565b005b61026a610e98565b005b61028660048036038101906102819190612c7b565b610f24565b6040516102939190612b73565b60405180910390f35b6102a4610f3c565b005b6102c060048036038101906102bb9190612b37565b610f50565b6040516102cd9190612bcf565b60405180910390f35b6102de610f8f565b6040516102eb9190612bcf565b60405180910390f35b6102fc610fb8565b6040516103099190612b73565b60405180910390f35b61032c60048036038101906103279190612c7b565b611157565b6040516103399190612b73565b60405180910390f35b61035c60048036038101906103579190612b37565b61116f565b005b6103666111b8565b6040516103739190612bcf565b60405180910390f35b61039660048036038101906103919190612b37565b6111d0565b005b6103a0611425565b6040516103ad9190612bcf565b60405180910390f35b6103d060048036038101906103cb9190612d63565b61143d565b005b6103da611d75565b6040516103e79190612e3b565b60405180910390f35b61040a60048036038101906104059190612c7b565b611d88565b6040516104179190612b73565b60405180910390f35b610428611da0565b005b610432612318565b60405161043f9190612b73565b60405180910390f35b610462600480360381019061045d9190612c7b565b61231e565b005b600080600a60003373ffffffffffffffffffffffffffffffffffffffff1673ffffffffffffffffffffffffffffffffffffffff16815260200190815260200160002054426104b29190612e85565b90506103e86301e13380600754836104ca9190612eb9565b6104d49190612f42565b6103e86104e19190612f73565b846104ec9190612eb9565b6104f69190612f42565b915050919050565b600080600b60003373ffffffffffffffffffffffffffffffffffffffff1673ffffffffffffffffffffffffffffffffffffffff168152602001908152602001600020546103e8600b60003373ffffffffffffffffffffffffffffffffffffffff1673ffffffffffffffffffffffffffffffffffffffff1681526020019081526020016000205461058c610fb8565b6105969190612e85565b6105a09190612eb9565b6105aa9190612f42565b90506000600a60003373ffffffffffffffffffffffffffffffffffffffff1673ffffffffffffffffffffffffffffffffffffffff16815260200190815260200160002054426105f99190612e85565b9050806301e133808361060c9190612eb9565b6106169190612f42565b9250505090565b736b4ee7352406707003bc6f6b96595fd35925af4881565b60085481565b6106436123a2565b600660149054906101000a900460ff1615600660146101000a81548160ff0219169083151502179055507fb7b4acafd2ef8ea4a9b9b341e2cffabb2c5d1de97da9e505b53a164dac9cefe9600660149054906101000a900460ff166040516106ab9190612e3b565b60405180910390a1565b80600c60003373ffffffffffffffffffffffffffffffffffffffff1673ffffffffffffffffffffffffffffffffffffffff168152602001908152602001600020541015610737576040517f08c379a000000000000000000000000000000000000000000000000000000000815260040161072e90613026565b60405180910390fd5b426276a700600a60003373ffffffffffffffffffffffffffffffffffffffff1673ffffffffffffffffffffffffffffffffffffffff168152602001908152602001600020546107869190612f73565b11156107c7576040517f08c379a00000000000000000000000000000000000000000000000000000000081526004016107be90613092565b60405180910390fd5b6000670de0b6b3a76400006107da610fb8565b836107e59190612eb9565b6107ef9190612f42565b905081600c60003373ffffffffffffffffffffffffffffffffffffffff1673ffffffffffffffffffffffffffffffffffffffff16815260200190815260200160002060008282546108409190612e85565b9250508190555081600860008282546108599190612e85565b92505081905550600660009054906101000a900473ffffffffffffffffffffffffffffffffffffffff1673ffffffffffffffffffffffffffffffffffffffff166370a08231306040518263ffffffff1660e01b81526004016108bb9190612bcf565b60206040518083038186803b1580156108d357600080fd5b505afa1580156108e7573d6000803e3d6000fd5b505050506040513d601f19601f8201168201806040525081019061090b91906130c7565b811115610a5557600360009054906101000a900473ffffffffffffffffffffffffffffffffffffffff1673ffffffffffffffffffffffffffffffffffffffff16632e1a7d4d600660009054906101000a900473ffffffffffffffffffffffffffffffffffffffff1673ffffffffffffffffffffffffffffffffffffffff166370a08231306040518263ffffffff1660e01b81526004016109ab9190612bcf565b60206040518083038186803b1580156109c357600080fd5b505afa1580156109d7573d6000803e3d6000fd5b505050506040513d601f19601f820116820180604052508101906109fb91906130c7565b83610a069190612e85565b6040518263ffffffff1660e01b8152600401610a229190612b73565b600060405180830381600087803b158015610a3c57600080fd5b505af1158015610a50573d6000803e3d6000fd5b505050505b6000600c60003373ffffffffffffffffffffffffffffffffffffffff1673ffffffffffffffffffffffffffffffffffffffff168152602001908152602001600020541415610b2457600b60003373ffffffffffffffffffffffffffffffffffffffff1673ffffffffffffffffffffffffffffffffffffffff16815260200190815260200160002060009055600a60003373ffffffffffffffffffffffffffffffffffffffff1673ffffffffffffffffffffffffffffffffffffffff168152602001908152602001600020600090555b600754610b2f6104fe565b10610c02576000610b9c670de0b6b3a7640000600b60003373ffffffffffffffffffffffffffffffffffffffff1673ffffffffffffffffffffffffffffffffffffffff1681526020019081526020016000205485610b8d9190612eb9565b610b979190612f42565b610464565b9050610bfd610ba9610f8f565b8284610bb59190612e85565b600660009054906101000a900473ffffffffffffffffffffffffffffffffffffffff1673ffffffffffffffffffffffffffffffffffffffff166124209092919063ffffffff16565b809150505b610c4f3382600660009054906101000a900473ffffffffffffffffffffffffffffffffffffffff1673ffffffffffffffffffffffffffffffffffffffff166124209092919063ffffffff16565b7f884edad9ce6fa2440d8a54cc123490eb96d2768479d49ff9c7366125a94243643382604051610c809291906130f4565b60405180910390a15050565b7331429d1856ad1377a8a0079410b297e1a9e214c281565b610cac6123a2565b6000600660009054906101000a900473ffffffffffffffffffffffffffffffffffffffff1673ffffffffffffffffffffffffffffffffffffffff166370a08231306040518263ffffffff1660e01b8152600401610d099190612bcf565b60206040518083038186803b158015610d2157600080fd5b505afa158015610d35573d6000803e3d6000fd5b505050506040513d601f19601f82011682018060405250810190610d5991906130c7565b9050610dca600360009054906101000a900473ffffffffffffffffffffffffffffffffffffffff1682600660009054906101000a900473ffffffffffffffffffffffffffffffffffffffff1673ffffffffffffffffffffffffffffffffffffffff166124a69092919063ffffffff16565b600360009054906101000a900473ffffffffffffffffffffffffffffffffffffffff1673ffffffffffffffffffffffffffffffffffffffff16633edd11283083856040518463ffffffff1660e01b8152600401610e299392919061311d565b600060405180830381600087803b158015610e4357600080fd5b505af1158015610e57573d6000803e3d6000fd5b505050507fc16de066392da7e40ceccb739c331fc48a2e76bf147449613c48023d960eec323382604051610e8c9291906130f4565b60405180910390a15050565b610ea06123a2565b600560009054906101000a900473ffffffffffffffffffffffffffffffffffffffff1673ffffffffffffffffffffffffffffffffffffffff1663e6f1daf26040518163ffffffff1660e01b8152600401600060405180830381600087803b158015610f0a57600080fd5b505af1158015610f1e573d6000803e3d6000fd5b50505050565b600c6020528060005260406000206000915090505481565b610f446123a2565b610f4e60006125c7565b565b60098181548110610f6057600080fd5b906000526020600020016000915054906101000a900473ffffffffffffffffffffffffffffffffffffffff1681565b60008060009054906101000a900473ffffffffffffffffffffffffffffffffffffffff16905090565b6000806008541461114857600854670de0b6b3a7640000600660009054906101000a900473ffffffffffffffffffffffffffffffffffffffff1673ffffffffffffffffffffffffffffffffffffffff166370a08231306040518263ffffffff1660e01b815260040161102a9190612bcf565b60206040518083038186803b15801561104257600080fd5b505afa158015611056573d6000803e3d6000fd5b505050506040513d601f19601f8201168201806040525081019061107a91906130c7565b600560009054906101000a900473ffffffffffffffffffffffffffffffffffffffff1673ffffffffffffffffffffffffffffffffffffffff166370a08231306040518263ffffffff1660e01b81526004016110d59190612bcf565b60206040518083038186803b1580156110ed57600080fd5b505afa158015611101573d6000803e3d6000fd5b505050506040513d601f19601f8201168201806040525081019061112591906130c7565b61112f9190612f73565b6111399190612eb9565b6111439190612f42565b611152565b670de0b6b3a76400005b905090565b600a6020528060005260406000206000915090505481565b6111776123a2565b806007819055507f3b3a01f24e8e3bef91ca993c1cd79a3b6f78a26b78a3f0051cf751404dee2832816040516111ad9190612b73565b60405180910390a150565b73853d955acef822db058eb8505911ed77f175b99e81565b6000600b60003373ffffffffffffffffffffffffffffffffffffffff1673ffffffffffffffffffffffffffffffffffffffff1681526020019081526020016000205414611252576040517f08c379a0000000000000000000000000000000000000000000000000000000008152600401611249906131a0565b60405180910390fd5b42600a60003373ffffffffffffffffffffffffffffffffffffffff1673ffffffffffffffffffffffffffffffffffffffff1681526020019081526020016000208190555061129e610fb8565b600b60003373ffffffffffffffffffffffffffffffffffffffff1673ffffffffffffffffffffffffffffffffffffffff16815260200190815260200160002081905550611330333083600660009054906101000a900473ffffffffffffffffffffffffffffffffffffffff1673ffffffffffffffffffffffffffffffffffffffff1661268b909392919063ffffffff16565b611338610fb8565b670de0b6b3a76400008261134c9190612eb9565b6113569190612f42565b600c60003373ffffffffffffffffffffffffffffffffffffffff1673ffffffffffffffffffffffffffffffffffffffff16815260200190815260200160002060008282546113a49190612f73565b925050819055506113b3610fb8565b670de0b6b3a7640000826113c79190612eb9565b6113d19190612f42565b600860008282546113e29190612f73565b925050819055507fe1fffcc4923d04b559f4d29a8bfc6cda04eb5b0d3c460751c2402c5c5cc9109c338260405161141a9291906130f4565b60405180910390a150565b7373968b9a57c6e53d41345fd57a6e6ae27d6cdb2f81565b6114456123a2565b600980549050828290501461148f576040517f08c379a000000000000000000000000000000000000000000000000000000000815260040161148690613232565b60405180910390fd5b60098054905086869050146114d9576040517f08c379a00000000000000000000000000000000000000000000000000000000081526004016114d090613232565b60405180910390fd5b6009805490508484905014611523576040517f08c379a000000000000000000000000000000000000000000000000000000000815260040161151a90613232565b60405180910390fd5b60005b600980549050811015611b015760006009828154811061154957611548613252565b5b9060005260206000200160009054906101000a900473ffffffffffffffffffffffffffffffffffffffff1673ffffffffffffffffffffffffffffffffffffffff166370a08231306040518263ffffffff1660e01b81526004016115ac9190612bcf565b60206040518083038186803b1580156115c457600080fd5b505afa1580156115d8573d6000803e3d6000fd5b505050506040513d601f19601f820116820180604052508101906115fc91906130c7565b141561160757611aee565b611758600160009054906101000a900473ffffffffffffffffffffffffffffffffffffffff166009838154811061164157611640613252565b5b9060005260206000200160009054906101000a900473ffffffffffffffffffffffffffffffffffffffff1673ffffffffffffffffffffffffffffffffffffffff166370a08231306040518263ffffffff1660e01b81526004016116a49190612bcf565b60206040518083038186803b1580156116bc57600080fd5b505afa1580156116d0573d6000803e3d6000fd5b505050506040513d601f19601f820116820180604052508101906116f491906130c7565b6009848154811061170857611707613252565b5b9060005260206000200160009054906101000a900473ffffffffffffffffffffffffffffffffffffffff1673ffffffffffffffffffffffffffffffffffffffff166124a69092919063ffffffff16565b60006040518061010001604052806009848154811061177a57611779613252565b5b9060005260206000200160009054906101000a900473ffffffffffffffffffffffffffffffffffffffff1673ffffffffffffffffffffffffffffffffffffffff16815260200173853d955acef822db058eb8505911ed77f175b99e73ffffffffffffffffffffffffffffffffffffffff1681526020018a73ffffffffffffffffffffffffffffffffffffffff1681526020013073ffffffffffffffffffffffffffffffffffffffff1681526020016009848154811061183c5761183b613252565b5b9060005260206000200160009054906101000a900473ffffffffffffffffffffffffffffffffffffffff1673ffffffffffffffffffffffffffffffffffffffff166370a08231306040518263ffffffff1660e01b815260040161189f9190612bcf565b60206040518083038186803b1580156118b757600080fd5b505afa1580156118cb573d6000803e3d6000fd5b505050506040513d601f19601f820116820180604052508101906118ef91906130c7565b815260200189898581811061190757611906613252565b5b9050602002013581526020016004815260200187878581811061192d5761192c613252565b5b905060200281019061193f9190613290565b8080601f016020809104026020016040519081016040528093929190818152602001838380828437600081840152601f19601f820116905080830192505050505050508152509050600160009054906101000a900473ffffffffffffffffffffffffffffffffffffffff1673ffffffffffffffffffffffffffffffffffffffff16637c0252008a838787878181106119da576119d9613252565b5b90506020028101906119ec9190613290565b6040518563ffffffff1660e01b8152600401611a0b9493929190613539565b606060405180830381600087803b158015611a2557600080fd5b505af1158015611a39573d6000803e3d6000fd5b505050506040513d601f19601f82011682018060405250810190611a5d9190613580565b505050611aec600160009054906101000a900473ffffffffffffffffffffffffffffffffffffffff16600060098581548110611a9c57611a9b613252565b5b9060005260206000200160009054906101000a900473ffffffffffffffffffffffffffffffffffffffff1673ffffffffffffffffffffffffffffffffffffffff166127149092919063ffffffff16565b505b8080611af9906135d3565b915050611526565b50611bff600260009054906101000a900473ffffffffffffffffffffffffffffffffffffffff1673853d955acef822db058eb8505911ed77f175b99e73ffffffffffffffffffffffffffffffffffffffff166370a08231306040518263ffffffff1660e01b8152600401611b759190612bcf565b60206040518083038186803b158015611b8d57600080fd5b505afa158015611ba1573d6000803e3d6000fd5b505050506040513d601f19601f82011682018060405250810190611bc591906130c7565b73853d955acef822db058eb8505911ed77f175b99e73ffffffffffffffffffffffffffffffffffffffff166124a69092919063ffffffff16565b600260009054906101000a900473ffffffffffffffffffffffffffffffffffffffff1673ffffffffffffffffffffffffffffffffffffffff16632e2d298473853d955acef822db058eb8505911ed77f175b99e73ffffffffffffffffffffffffffffffffffffffff166370a08231306040518263ffffffff1660e01b8152600401611c8a9190612bcf565b60206040518083038186803b158015611ca257600080fd5b505afa158015611cb6573d6000803e3d6000fd5b505050506040513d601f19601f82011682018060405250810190611cda91906130c7565b30736b4ee7352406707003bc6f6b96595fd35925af486040518463ffffffff1660e01b8152600401611d0e9392919061363d565b600060405180830381600087803b158015611d2857600080fd5b505af1158015611d3c573d6000803e3d6000fd5b505050507f4d12401e4d6cc642454aedd27a02290e422f28dd21e629634f1beffacb705bf860405160405180910390a150505050505050565b600660149054906101000a900460ff1681565b600b6020528060005260406000206000915090505481565b6000600c60003373ffffffffffffffffffffffffffffffffffffffff1673ffffffffffffffffffffffffffffffffffffffff1681526020019081526020016000205411611e22576040517f08c379a0000000000000000000000000000000000000000000000000000000008152600401611e1990613026565b60405180910390fd5b600660149054906101000a900460ff16611e71576040517f08c379a0000000000000000000000000000000000000000000000000000000008152600401611e68906136c0565b60405180910390fd5b6000670de0b6b3a7640000611e84610fb8565b600c60003373ffffffffffffffffffffffffffffffffffffffff1673ffffffffffffffffffffffffffffffffffffffff16815260200190815260200160002054611ece9190612eb9565b611ed89190612f42565b9050600c60003373ffffffffffffffffffffffffffffffffffffffff1673ffffffffffffffffffffffffffffffffffffffff168152602001908152602001600020600090558060086000828254611f2f9190612e85565b92505081905550600b60003373ffffffffffffffffffffffffffffffffffffffff1673ffffffffffffffffffffffffffffffffffffffff16815260200190815260200160002060009055600a60003373ffffffffffffffffffffffffffffffffffffffff1673ffffffffffffffffffffffffffffffffffffffff16815260200190815260200160002060009055600660009054906101000a900473ffffffffffffffffffffffffffffffffffffffff1673ffffffffffffffffffffffffffffffffffffffff166370a08231306040518263ffffffff1660e01b81526004016120179190612bcf565b60206040518083038186803b15801561202f57600080fd5b505afa158015612043573d6000803e3d6000fd5b505050506040513d601f19601f8201168201806040525081019061206791906130c7565b8111156121b157600360009054906101000a900473ffffffffffffffffffffffffffffffffffffffff1673ffffffffffffffffffffffffffffffffffffffff16632e1a7d4d600660009054906101000a900473ffffffffffffffffffffffffffffffffffffffff1673ffffffffffffffffffffffffffffffffffffffff166370a08231306040518263ffffffff1660e01b81526004016121079190612bcf565b60206040518083038186803b15801561211f57600080fd5b505afa158015612133573d6000803e3d6000fd5b505050506040513d601f19601f8201168201806040525081019061215791906130c7565b836121629190612e85565b6040518263ffffffff1660e01b815260040161217e9190612b73565b600060405180830381600087803b15801561219857600080fd5b505af11580156121ac573d6000803e3d6000fd5b505050505b6007546121bc6104fe565b1061228f576000612229670de0b6b3a7640000600b60003373ffffffffffffffffffffffffffffffffffffffff1673ffffffffffffffffffffffffffffffffffffffff168152602001908152602001600020548461221a9190612eb9565b6122249190612f42565b610464565b905061228a612236610f8f565b82846122429190612e85565b600660009054906101000a900473ffffffffffffffffffffffffffffffffffffffff1673ffffffffffffffffffffffffffffffffffffffff166124209092919063ffffffff16565b809150505b6122dc3382600660009054906101000a900473ffffffffffffffffffffffffffffffffffffffff1673ffffffffffffffffffffffffffffffffffffffff166124209092919063ffffffff16565b7f5fafa99d0643513820be26656b45130b01e1c03062e1266bf36f88cbd3bd9695338260405161230d9291906130f4565b60405180910390a150565b60075481565b6123266123a2565b600073ffffffffffffffffffffffffffffffffffffffff168173ffffffffffffffffffffffffffffffffffffffff161415612396576040517f08c379a000000000000000000000000000000000000000000000000000000000815260040161238d90613752565b60405180910390fd5b61239f816125c7565b50565b6123aa612872565b73ffffffffffffffffffffffffffffffffffffffff166123c8610f8f565b73ffffffffffffffffffffffffffffffffffffffff161461241e576040517f08c379a0000000000000000000000000000000000000000000000000000000008152600401612415906137be565b60405180910390fd5b565b6124a18363a9059cbb60e01b848460405160240161243f9291906130f4565b604051602081830303815290604052907bffffffffffffffffffffffffffffffffffffffffffffffffffffffff19166020820180517bffffffffffffffffffffffffffffffffffffffffffffffffffffffff838183161783525050505061287a565b505050565b6000818473ffffffffffffffffffffffffffffffffffffffff1663dd62ed3e30866040518363ffffffff1660e01b81526004016124e49291906137de565b60206040518083038186803b1580156124fc57600080fd5b505afa158015612510573d6000803e3d6000fd5b505050506040513d601f19601f8201168201806040525081019061253491906130c7565b61253e9190612f73565b90506125c18463095ea7b360e01b858460405160240161255f9291906130f4565b604051602081830303815290604052907bffffffffffffffffffffffffffffffffffffffffffffffffffffffff19166020820180517bffffffffffffffffffffffffffffffffffffffffffffffffffffffff838183161783525050505061287a565b50505050565b60008060009054906101000a900473ffffffffffffffffffffffffffffffffffffffff169050816000806101000a81548173ffffffffffffffffffffffffffffffffffffffff021916908373ffffffffffffffffffffffffffffffffffffffff1602179055508173ffffffffffffffffffffffffffffffffffffffff168173ffffffffffffffffffffffffffffffffffffffff167f8be0079c531659141344cd1fd0a4f28419497f9722a3daafe3b4186f6b6457e060405160405180910390a35050565b61270e846323b872dd60e01b8585856040516024016126ac93929190613807565b604051602081830303815290604052907bffffffffffffffffffffffffffffffffffffffffffffffffffffffff19166020820180517bffffffffffffffffffffffffffffffffffffffffffffffffffffffff838183161783525050505061287a565b50505050565b60008114806127ad575060008373ffffffffffffffffffffffffffffffffffffffff1663dd62ed3e30856040518363ffffffff1660e01b815260040161275b9291906137de565b60206040518083038186803b15801561277357600080fd5b505afa158015612787573d6000803e3d6000fd5b505050506040513d601f19601f820116820180604052508101906127ab91906130c7565b145b6127ec576040517f08c379a00000000000000000000000000000000000000000000000000000000081526004016127e3906138b0565b60405180910390fd5b61286d8363095ea7b360e01b848460405160240161280b9291906130f4565b604051602081830303815290604052907bffffffffffffffffffffffffffffffffffffffffffffffffffffffff19166020820180517bffffffffffffffffffffffffffffffffffffffffffffffffffffffff838183161783525050505061287a565b505050565b600033905090565b60006128dc826040518060400160405280602081526020017f5361666545524332303a206c6f772d6c6576656c2063616c6c206661696c65648152508573ffffffffffffffffffffffffffffffffffffffff166129419092919063ffffffff16565b905060008151111561293c57808060200190518101906128fc91906138e5565b61293b576040517f08c379a000000000000000000000000000000000000000000000000000000000815260040161293290613984565b60405180910390fd5b5b505050565b60606129508484600085612959565b90509392505050565b60608247101561299e576040517f08c379a000000000000000000000000000000000000000000000000000000000815260040161299590613a16565b60405180910390fd5b6129a785612a6d565b6129e6576040517f08c379a00000000000000000000000000000000000000000000000000000000081526004016129dd90613a82565b60405180910390fd5b6000808673ffffffffffffffffffffffffffffffffffffffff168587604051612a0f9190613ade565b60006040518083038185875af1925050503d8060008114612a4c576040519150601f19603f3d011682016040523d82523d6000602084013e612a51565b606091505b5091509150612a61828286612a90565b92505050949350505050565b6000808273ffffffffffffffffffffffffffffffffffffffff163b119050919050565b60608315612aa057829050612af0565b600083511115612ab35782518084602001fd5b816040517f08c379a0000000000000000000000000000000000000000000000000000000008152600401612ae79190613b39565b60405180910390fd5b9392505050565b600080fd5b600080fd5b6000819050919050565b612b1481612b01565b8114612b1f57600080fd5b50565b600081359050612b3181612b0b565b92915050565b600060208284031215612b4d57612b4c612af7565b5b6000612b5b84828501612b22565b91505092915050565b612b6d81612b01565b82525050565b6000602082019050612b886000830184612b64565b92915050565b600073ffffffffffffffffffffffffffffffffffffffff82169050919050565b6000612bb982612b8e565b9050919050565b612bc981612bae565b82525050565b6000602082019050612be46000830184612bc0565b92915050565b60008115159050919050565b612bff81612bea565b8114612c0a57600080fd5b50565b600081359050612c1c81612bf6565b92915050565b600060208284031215612c3857612c37612af7565b5b6000612c4684828501612c0d565b91505092915050565b612c5881612bae565b8114612c6357600080fd5b50565b600081359050612c7581612c4f565b92915050565b600060208284031215612c9157612c90612af7565b5b6000612c9f84828501612c66565b91505092915050565b600080fd5b600080fd5b600080fd5b60008083601f840112612ccd57612ccc612ca8565b5b8235905067ffffffffffffffff811115612cea57612ce9612cad565b5b602083019150836020820283011115612d0657612d05612cb2565b5b9250929050565b60008083601f840112612d2357612d22612ca8565b5b8235905067ffffffffffffffff811115612d4057612d3f612cad565b5b602083019150836020820283011115612d5c57612d5b612cb2565b5b9250929050565b60008060008060008060006080888a031215612d8257612d81612af7565b5b6000612d908a828b01612c66565b975050602088013567ffffffffffffffff811115612db157612db0612afc565b5b612dbd8a828b01612cb7565b9650965050604088013567ffffffffffffffff811115612de057612ddf612afc565b5b612dec8a828b01612d0d565b9450945050606088013567ffffffffffffffff811115612e0f57612e0e612afc565b5b612e1b8a828b01612d0d565b925092505092959891949750929550565b612e3581612bea565b82525050565b6000602082019050612e506000830184612e2c565b92915050565b7f4e487b7100000000000000000000000000000000000000000000000000000000600052601160045260246000fd5b6000612e9082612b01565b9150612e9b83612b01565b925082821015612eae57612ead612e56565b5b828203905092915050565b6000612ec482612b01565b9150612ecf83612b01565b9250817fffffffffffffffffffffffffffffffffffffffffffffffffffffffffffffffff0483118215151615612f0857612f07612e56565b5b828202905092915050565b7f4e487b7100000000000000000000000000000000000000000000000000000000600052601260045260246000fd5b6000612f4d82612b01565b9150612f5883612b01565b925082612f6857612f67612f13565b5b828204905092915050565b6000612f7e82612b01565b9150612f8983612b01565b9250827fffffffffffffffffffffffffffffffffffffffffffffffffffffffffffffffff03821115612fbe57612fbd612e56565b5b828201905092915050565b600082825260208201905092915050565b7f5b77697468647261775d20496e73756666696369656e742062616c616e636521600082015250565b6000613010602083612fc9565b915061301b82612fda565b602082019050919050565b6000602082019050818103600083015261303f81613003565b9050919050565b7f5b77697468647261775d204561726c7920776974686472617721000000000000600082015250565b600061307c601a83612fc9565b915061308782613046565b602082019050919050565b600060208201905081810360008301526130ab8161306f565b9050919050565b6000815190506130c181612b0b565b92915050565b6000602082840312156130dd576130dc612af7565b5b60006130eb848285016130b2565b91505092915050565b60006040820190506131096000830185612bc0565b6131166020830184612b64565b9392505050565b60006060820190506131326000830186612bc0565b61313f6020830185612b64565b61314c6040830184612e2c565b949350505050565b7f5b6465706f7369745d20416c7265616479206c6f636b65642100000000000000600082015250565b600061318a601983612fc9565b915061319582613154565b602082019050919050565b600060208201905081810360008301526131b98161317d565b9050919050565b7f5b686172766573745d20496e617070726f707269617465206461746120616d6f60008201527f756e742e00000000000000000000000000000000000000000000000000000000602082015250565b600061321c602483612fc9565b9150613227826131c0565b604082019050919050565b6000602082019050818103600083015261324b8161320f565b9050919050565b7f4e487b7100000000000000000000000000000000000000000000000000000000600052603260045260246000fd5b600080fd5b600080fd5b600080fd5b600080833560016020038436030381126132ad576132ac613281565b5b80840192508235915067ffffffffffffffff8211156132cf576132ce613286565b5b6020830192506001820236038313156132eb576132ea61328b565b5b509250929050565b6000819050919050565b600061331861331361330e84612b8e565b6132f3565b612b8e565b9050919050565b600061332a826132fd565b9050919050565b600061333c8261331f565b9050919050565b61334c81613331565b82525050565b600061335d8261331f565b9050919050565b61336d81613352565b82525050565b600061337e82612b8e565b9050919050565b61338e81613373565b82525050565b61339d81612b01565b82525050565b600081519050919050565b600082825260208201905092915050565b60005b838110156133dd5780820151818401526020810190506133c2565b838111156133ec576000848401525b50505050565b6000601f19601f8301169050919050565b600061340e826133a3565b61341881856133ae565b93506134288185602086016133bf565b613431816133f2565b840191505092915050565b6000610100830160008301516134556000860182613364565b5060208301516134686020860182613364565b50604083015161347b6040860182613385565b50606083015161348e6060860182613385565b5060808301516134a16080860182613394565b5060a08301516134b460a0860182613394565b5060c08301516134c760c0860182613394565b5060e083015184820360e08601526134df8282613403565b9150508091505092915050565b600082825260208201905092915050565b82818337600083830152505050565b600061351883856134ec565b93506135258385846134fd565b61352e836133f2565b840190509392505050565b600060608201905061354e6000830187613343565b8181036020830152613560818661343c565b9050818103604083015261357581848661350c565b905095945050505050565b60008060006060848603121561359957613598612af7565b5b60006135a7868287016130b2565b93505060206135b8868287016130b2565b92505060406135c9868287016130b2565b9150509250925092565b60006135de82612b01565b91507fffffffffffffffffffffffffffffffffffffffffffffffffffffffffffffffff82141561361157613610612e56565b5b600182019050919050565b60006136278261331f565b9050919050565b6136378161361c565b82525050565b60006060820190506136526000830186612b64565b61365f6020830185612bc0565b61366c604083018461362e565b949350505050565b7f5b77697468647261775d204e6f7420456d657267656e63790000000000000000600082015250565b60006136aa601883612fc9565b91506136b582613674565b602082019050919050565b600060208201905081810360008301526136d98161369d565b9050919050565b7f4f776e61626c653a206e6577206f776e657220697320746865207a65726f206160008201527f6464726573730000000000000000000000000000000000000000000000000000602082015250565b600061373c602683612fc9565b9150613747826136e0565b604082019050919050565b6000602082019050818103600083015261376b8161372f565b9050919050565b7f4f776e61626c653a2063616c6c6572206973206e6f7420746865206f776e6572600082015250565b60006137a8602083612fc9565b91506137b382613772565b602082019050919050565b600060208201905081810360008301526137d78161379b565b9050919050565b60006040820190506137f36000830185612bc0565b6138006020830184612bc0565b9392505050565b600060608201905061381c6000830186612bc0565b6138296020830185612bc0565b6138366040830184612b64565b949350505050565b7f5361666545524332303a20617070726f76652066726f6d206e6f6e2d7a65726f60008201527f20746f206e6f6e2d7a65726f20616c6c6f77616e636500000000000000000000602082015250565b600061389a603683612fc9565b91506138a58261383e565b604082019050919050565b600060208201905081810360008301526138c98161388d565b9050919050565b6000815190506138df81612bf6565b92915050565b6000602082840312156138fb576138fa612af7565b5b6000613909848285016138d0565b91505092915050565b7f5361666545524332303a204552433230206f7065726174696f6e20646964206e60008201527f6f74207375636365656400000000000000000000000000000000000000000000602082015250565b600061396e602a83612fc9565b915061397982613912565b604082019050919050565b6000602082019050818103600083015261399d81613961565b9050919050565b7f416464726573733a20696e73756666696369656e742062616c616e636520666f60008201527f722063616c6c0000000000000000000000000000000000000000000000000000602082015250565b6000613a00602683612fc9565b9150613a0b826139a4565b604082019050919050565b60006020820190508181036000830152613a2f816139f3565b9050919050565b7f416464726573733a2063616c6c20746f206e6f6e2d636f6e7472616374000000600082015250565b6000613a6c601d83612fc9565b9150613a7782613a36565b602082019050919050565b60006020820190508181036000830152613a9b81613a5f565b9050919050565b600081905092915050565b6000613ab8826133a3565b613ac28185613aa2565b9350613ad28185602086016133bf565b80840191505092915050565b6000613aea8284613aad565b915081905092915050565b600081519050919050565b6000613b0b82613af5565b613b158185612fc9565b9350613b258185602086016133bf565b613b2e816133f2565b840191505092915050565b60006020820190508181036000830152613b538184613b00565b90509291505056fea2646970667358221220929718e7bcca38e16a99ea0fe4c8169ca914ccf859040568d1eb55e60f19349164736f6c63430008090033",
  "linkReferences": {},
  "deployedLinkReferences": {}
}