{
  "_format": "hh-sol-artifact-1",
  "contractName": "FixedStrategy",
  "sourceName": "contracts/FixedStrategy.sol",
  "abi": [
    {
      "inputs": [
        {
          "internalType": "address",
          "name": "angleVaultAddr",
          "type": "address"
        },
        {
          "internalType": "address",
          "name": "angleStratAddr",
          "type": "address"
        },
        {
          "internalType": "address",
          "name": "oneInchAddr",
          "type": "address"
        },
        {
          "internalType": "address",
          "name": "angleFrontAddr",
          "type": "address"
        },
        {
          "internalType": "address",
          "name": "gaugeAdd",
          "type": "address"
        },
        {
          "internalType": "address",
          "name": "lockToken",
          "type": "address"
        }
      ],
      "stateMutability": "nonpayable",
      "type": "constructor"
    },
    {
      "anonymous": false,
      "inputs": [
        {
          "indexed": false,
          "internalType": "address",
          "name": "compounder",
          "type": "address"
        },
        {
          "indexed": false,
          "internalType": "uint256",
          "name": "amount",
          "type": "uint256"
        }
      ],
      "name": "Compounded",
      "type": "event"
    },
    {
      "anonymous": false,
      "inputs": [
        {
          "indexed": false,
          "internalType": "address",
          "name": "locker",
          "type": "address"
        },
        {
          "indexed": false,
          "internalType": "uint256",
          "name": "amount",
          "type": "uint256"
        }
      ],
      "name": "Deposit",
      "type": "event"
    },
    {
      "anonymous": false,
      "inputs": [
        {
          "indexed": false,
          "internalType": "bool",
          "name": "newState",
          "type": "bool"
        }
      ],
      "name": "EmergencyChanged",
      "type": "event"
    },
    {
      "anonymous": false,
      "inputs": [
        {
          "indexed": false,
          "internalType": "address",
          "name": "locker",
          "type": "address"
        },
        {
          "indexed": false,
          "internalType": "uint256",
          "name": "amount",
          "type": "uint256"
        }
      ],
      "name": "EmergencyWithdraw",
      "type": "event"
    },
    {
      "anonymous": false,
      "inputs": [],
      "name": "Harvested",
      "type": "event"
    },
    {
      "anonymous": false,
      "inputs": [
        {
          "indexed": false,
          "internalType": "uint256",
          "name": "newYield",
          "type": "uint256"
        }
      ],
      "name": "MaxYieldChanged",
      "type": "event"
    },
    {
      "anonymous": false,
      "inputs": [
        {
          "indexed": true,
          "internalType": "address",
          "name": "previousOwner",
          "type": "address"
        },
        {
          "indexed": true,
          "internalType": "address",
          "name": "newOwner",
          "type": "address"
        }
      ],
      "name": "OwnershipTransferred",
      "type": "event"
    },
    {
      "anonymous": false,
      "inputs": [
        {
          "indexed": false,
          "internalType": "address",
          "name": "locker",
          "type": "address"
        },
        {
          "indexed": false,
          "internalType": "uint256",
          "name": "amount",
          "type": "uint256"
        }
      ],
      "name": "Withdraw",
      "type": "event"
    },
    {
      "inputs": [],
      "name": "ANGL",
      "outputs": [
        {
          "internalType": "address",
          "name": "",
          "type": "address"
        }
      ],
      "stateMutability": "view",
      "type": "function"
    },
    {
      "inputs": [],
      "name": "ANGLE_POOL_MANAGER",
      "outputs": [
        {
          "internalType": "address",
          "name": "",
          "type": "address"
        }
      ],
      "stateMutability": "view",
      "type": "function"
    },
    {
      "inputs": [],
      "name": "FRAX",
      "outputs": [
        {
          "internalType": "address",
          "name": "",
          "type": "address"
        }
      ],
      "stateMutability": "view",
      "type": "function"
    },
    {
      "inputs": [],
      "name": "SDT",
      "outputs": [
        {
          "internalType": "address",
          "name": "",
          "type": "address"
        }
      ],
      "stateMutability": "view",
      "type": "function"
    },
    {
      "inputs": [],
      "name": "claim",
      "outputs": [],
      "stateMutability": "nonpayable",
      "type": "function"
    },
    {
      "inputs": [
        {
          "internalType": "bool",
          "name": "isEarn",
          "type": "bool"
        }
      ],
      "name": "comp",
      "outputs": [],
      "stateMutability": "nonpayable",
      "type": "function"
    },
    {
      "inputs": [],
      "name": "currentRatioForUser",
      "outputs": [
        {
          "internalType": "uint256",
          "name": "",
          "type": "uint256"
        }
      ],
      "stateMutability": "view",
      "type": "function"
    },
    {
      "inputs": [
        {
          "internalType": "uint256",
          "name": "amount",
          "type": "uint256"
        }
      ],
      "name": "deposit",
      "outputs": [],
      "stateMutability": "nonpayable",
      "type": "function"
    },
    {
      "inputs": [],
      "name": "emergency",
      "outputs": [
        {
          "internalType": "bool",
          "name": "",
          "type": "bool"
        }
      ],
      "stateMutability": "view",
      "type": "function"
    },
    {
      "inputs": [],
      "name": "emergencyWithdraw",
      "outputs": [],
      "stateMutability": "nonpayable",
      "type": "function"
    },
    {
      "inputs": [],
      "name": "getBalanceInGauge",
      "outputs": [
        {
          "internalType": "uint256",
          "name": "",
          "type": "uint256"
        }
      ],
      "stateMutability": "view",
      "type": "function"
    },
    {
      "inputs": [
        {
          "internalType": "address",
          "name": "executor",
          "type": "address"
        },
        {
          "internalType": "uint256[]",
          "name": "minReturnAmounts",
          "type": "uint256[]"
        },
        {
          "internalType": "bytes[]",
          "name": "permits",
          "type": "bytes[]"
        },
        {
          "internalType": "bytes[]",
          "name": "datas",
          "type": "bytes[]"
        }
      ],
      "name": "harvest",
      "outputs": [],
      "stateMutability": "nonpayable",
      "type": "function"
    },
    {
      "inputs": [],
      "name": "harvestStake",
      "outputs": [],
      "stateMutability": "nonpayable",
      "type": "function"
    },
    {
      "inputs": [
        {
          "internalType": "address",
          "name": "",
          "type": "address"
        }
      ],
      "name": "initialPPS",
      "outputs": [
        {
          "internalType": "uint256",
          "name": "",
          "type": "uint256"
        }
      ],
      "stateMutability": "view",
      "type": "function"
    },
    {
      "inputs": [
        {
          "internalType": "uint256",
          "name": "shares",
          "type": "uint256"
        }
      ],
      "name": "maxEarningToDate",
      "outputs": [
        {
          "internalType": "uint256",
          "name": "",
          "type": "uint256"
        }
      ],
      "stateMutability": "view",
      "type": "function"
    },
    {
      "inputs": [],
      "name": "maxYield",
      "outputs": [
        {
          "internalType": "uint256",
          "name": "",
          "type": "uint256"
        }
      ],
      "stateMutability": "view",
      "type": "function"
    },
    {
      "inputs": [],
      "name": "owner",
      "outputs": [
        {
          "internalType": "address",
          "name": "",
          "type": "address"
        }
      ],
      "stateMutability": "view",
      "type": "function"
    },
    {
      "inputs": [],
      "name": "pricePerShare",
      "outputs": [
        {
          "internalType": "uint256",
          "name": "",
          "type": "uint256"
        }
      ],
      "stateMutability": "view",
      "type": "function"
    },
    {
      "inputs": [],
      "name": "renounceOwnership",
      "outputs": [],
      "stateMutability": "nonpayable",
      "type": "function"
    },
    {
      "inputs": [
        {
          "internalType": "uint256",
          "name": "",
          "type": "uint256"
        }
      ],
      "name": "rewardTokens",
      "outputs": [
        {
          "internalType": "address",
          "name": "",
          "type": "address"
        }
      ],
      "stateMutability": "view",
      "type": "function"
    },
    {
      "inputs": [
        {
          "internalType": "uint256",
          "name": "newYield",
          "type": "uint256"
        }
      ],
      "name": "setMaxYield",
      "outputs": [],
      "stateMutability": "nonpayable",
      "type": "function"
    },
    {
      "inputs": [
        {
          "internalType": "address",
          "name": "",
          "type": "address"
        }
      ],
      "name": "stakeTimestamps",
      "outputs": [
        {
          "internalType": "uint256",
          "name": "",
          "type": "uint256"
        }
      ],
      "stateMutability": "view",
      "type": "function"
    },
    {
      "inputs": [],
      "name": "toggleEmergency",
      "outputs": [],
      "stateMutability": "nonpayable",
      "type": "function"
    },
    {
      "inputs": [],
      "name": "totalSupply",
      "outputs": [
        {
          "internalType": "uint256",
          "name": "",
          "type": "uint256"
        }
      ],
      "stateMutability": "view",
      "type": "function"
    },
    {
      "inputs": [
        {
          "internalType": "address",
          "name": "newOwner",
          "type": "address"
        }
      ],
      "name": "transferOwnership",
      "outputs": [],
      "stateMutability": "nonpayable",
      "type": "function"
    },
    {
      "inputs": [
        {
          "internalType": "address",
          "name": "",
          "type": "address"
        }
      ],
      "name": "userToShare",
      "outputs": [
        {
          "internalType": "uint256",
          "name": "",
          "type": "uint256"
        }
      ],
      "stateMutability": "view",
      "type": "function"
    },
    {
      "inputs": [
        {
          "internalType": "uint256",
          "name": "shares",
          "type": "uint256"
        }
      ],
      "name": "withdraw",
      "outputs": [],
      "stateMutability": "nonpayable",
      "type": "function"
    }
  ],
  "bytecode": "0x60806040523480156200001157600080fd5b506040516200428f3803806200428f833981810160405281019062000037919062000415565b620000576200004b620002df60201b60201c565b620002e760201b60201c565b85600360006101000a81548173ffffffffffffffffffffffffffffffffffffffff021916908373ffffffffffffffffffffffffffffffffffffffff16021790555084600460006101000a81548173ffffffffffffffffffffffffffffffffffffffff021916908373ffffffffffffffffffffffffffffffffffffffff16021790555081600560006101000a81548173ffffffffffffffffffffffffffffffffffffffff021916908373ffffffffffffffffffffffffffffffffffffffff16021790555083600160006101000a81548173ffffffffffffffffffffffffffffffffffffffff021916908373ffffffffffffffffffffffffffffffffffffffff16021790555082600260006101000a81548173ffffffffffffffffffffffffffffffffffffffff021916908373ffffffffffffffffffffffffffffffffffffffff16021790555080600660006101000a81548173ffffffffffffffffffffffffffffffffffffffff021916908373ffffffffffffffffffffffffffffffffffffffff160217905550605060078190555060097331429d1856ad1377a8a0079410b297e1a9e214c29080600181540180825580915050600190039060005260206000200160009091909190916101000a81548173ffffffffffffffffffffffffffffffffffffffff021916908373ffffffffffffffffffffffffffffffffffffffff16021790555060097373968b9a57c6e53d41345fd57a6e6ae27d6cdb2f9080600181540180825580915050600190039060005260206000200160009091909190916101000a81548173ffffffffffffffffffffffffffffffffffffffff021916908373ffffffffffffffffffffffffffffffffffffffff160217905550505050505050620004b1565b600033905090565b60008060009054906101000a900473ffffffffffffffffffffffffffffffffffffffff169050816000806101000a81548173ffffffffffffffffffffffffffffffffffffffff021916908373ffffffffffffffffffffffffffffffffffffffff1602179055508173ffffffffffffffffffffffffffffffffffffffff168173ffffffffffffffffffffffffffffffffffffffff167f8be0079c531659141344cd1fd0a4f28419497f9722a3daafe3b4186f6b6457e060405160405180910390a35050565b600080fd5b600073ffffffffffffffffffffffffffffffffffffffff82169050919050565b6000620003dd82620003b0565b9050919050565b620003ef81620003d0565b8114620003fb57600080fd5b50565b6000815190506200040f81620003e4565b92915050565b60008060008060008060c08789031215620004355762000434620003ab565b5b60006200044589828a01620003fe565b96505060206200045889828a01620003fe565b95505060406200046b89828a01620003fe565b94505060606200047e89828a01620003fe565b93505060806200049189828a01620003fe565b92505060a0620004a489828a01620003fe565b9150509295509295509295565b613dce80620004c16000396000f3fe608060405234801561001057600080fd5b50600436106101a95760003560e01c80637bb7bed1116100f9578063ba32c61911610097578063d64dcde111610071578063d64dcde11461044e578063db2e21bc1461047e578063e165443314610488578063f2fde38b146104a6576101a9565b8063ba32c619146103f6578063c47b457314610414578063caa6fea414610430576101a9565b806399f853a5116100d357806399f853a514610370578063a94072b6146103a0578063b0e4556f146103bc578063b6b55f25146103da576101a9565b80637bb7bed1146103045780638da5cb5b1461033457806399530b0614610352576101a9565b80632d1d274411610166578063441822ee11610140578063441822ee146102a45780634e71d92d146102c05780636d8dea87146102ca578063715018a6146102fa576101a9565b80632d1d2744146102605780632e1a7d4d1461026a578063301234e614610286576101a9565b8063018e8e84146101ae578063027c4279146101cc57806310698a4a146101d6578063147ec25f1461020657806317504e801461022457806318160ddd14610242575b600080fd5b6101b66104c2565b6040516101c39190612d4d565b60405180910390f35b6101d4610574565b005b6101f060048036038101906101eb9190612d9e565b61062d565b6040516101fd9190612d4d565b60405180910390f35b61020e610728565b60405161021b9190612d4d565b60405180910390f35b61022c610847565b6040516102399190612e0c565b60405180910390f35b61024a61085f565b6040516102579190612d4d565b60405180910390f35b610268610865565b005b610284600480360381019061027f9190612d9e565b6108df565b005b61028e610e59565b60405161029b9190612e0c565b60405180910390f35b6102be60048036038101906102b99190612e5f565b610e71565b005b6102c8611065565b005b6102e460048036038101906102df9190612eb8565b6110f1565b6040516102f19190612d4d565b60405180910390f35b610302611109565b005b61031e60048036038101906103199190612d9e565b61111d565b60405161032b9190612e0c565b60405180910390f35b61033c61115c565b6040516103499190612e0c565b60405180910390f35b61035a611185565b6040516103679190612d4d565b60405180910390f35b61038a60048036038101906103859190612eb8565b611324565b6040516103979190612d4d565b60405180910390f35b6103ba60048036038101906103b59190612d9e565b61133c565b005b6103c4611385565b6040516103d19190612e0c565b60405180910390f35b6103f460048036038101906103ef9190612d9e565b61139d565b005b6103fe611662565b60405161040b9190612e0c565b60405180910390f35b61042e60048036038101906104299190612fa0565b61167a565b005b610438611fb2565b6040516104459190613078565b60405180910390f35b61046860048036038101906104639190612eb8565b611fc5565b6040516104759190612d4d565b60405180910390f35b610486611fdd565b005b610490612555565b60405161049d9190612d4d565b60405180910390f35b6104c060048036038101906104bb9190612eb8565b61255b565b005b6000600560009054906101000a900473ffffffffffffffffffffffffffffffffffffffff1673ffffffffffffffffffffffffffffffffffffffff166370a08231306040518263ffffffff1660e01b815260040161051f9190612e0c565b60206040518083038186803b15801561053757600080fd5b505afa15801561054b573d6000803e3d6000fd5b505050506040513d601f19601f8201168201806040525081019061056f91906130a8565b905090565b61057c6125df565b600460009054906101000a900473ffffffffffffffffffffffffffffffffffffffff1673ffffffffffffffffffffffffffffffffffffffff16631e83409a600660009054906101000a900473ffffffffffffffffffffffffffffffffffffffff166040518263ffffffff1660e01b81526004016105f99190612e0c565b600060405180830381600087803b15801561061357600080fd5b505af1158015610627573d6000803e3d6000fd5b50505050565b600080670de0b6b3a7640000600b60003373ffffffffffffffffffffffffffffffffffffffff1673ffffffffffffffffffffffffffffffffffffffff16815260200190815260200160002054846106849190613104565b61068e919061318d565b90506000600a60003373ffffffffffffffffffffffffffffffffffffffff1673ffffffffffffffffffffffffffffffffffffffff16815260200190815260200160002054426106dd91906131be565b90506103e86301e1338060075483856106f69190613104565b6107009190613104565b61070a919061318d565b610714919061318d565b8261071f91906131f2565b92505050919050565b600080600b60003373ffffffffffffffffffffffffffffffffffffffff1673ffffffffffffffffffffffffffffffffffffffff168152602001908152602001600020546103e8600b60003373ffffffffffffffffffffffffffffffffffffffff1673ffffffffffffffffffffffffffffffffffffffff168152602001908152602001600020546107b6611185565b6107c091906131be565b6107ca9190613104565b6107d4919061318d565b90506000600a60003373ffffffffffffffffffffffffffffffffffffffff1673ffffffffffffffffffffffffffffffffffffffff168152602001908152602001600020544261082391906131be565b9050806301e13380836108369190613104565b610840919061318d565b9250505090565b736b4ee7352406707003bc6f6b96595fd35925af4881565b60085481565b61086d6125df565b600660149054906101000a900460ff1615600660146101000a81548160ff0219169083151502179055507fb7b4acafd2ef8ea4a9b9b341e2cffabb2c5d1de97da9e505b53a164dac9cefe9600660149054906101000a900460ff166040516108d59190613078565b60405180910390a1565b80600c60003373ffffffffffffffffffffffffffffffffffffffff1673ffffffffffffffffffffffffffffffffffffffff168152602001908152602001600020541015610961576040517f08c379a0000000000000000000000000000000000000000000000000000000008152600401610958906132a5565b60405180910390fd5b426276a700600a60003373ffffffffffffffffffffffffffffffffffffffff1673ffffffffffffffffffffffffffffffffffffffff168152602001908152602001600020546109b091906131f2565b11156109f1576040517f08c379a00000000000000000000000000000000000000000000000000000000081526004016109e890613311565b60405180910390fd5b6000670de0b6b3a7640000610a04611185565b83610a0f9190613104565b610a19919061318d565b9050600660009054906101000a900473ffffffffffffffffffffffffffffffffffffffff1673ffffffffffffffffffffffffffffffffffffffff166370a08231306040518263ffffffff1660e01b8152600401610a769190612e0c565b60206040518083038186803b158015610a8e57600080fd5b505afa158015610aa2573d6000803e3d6000fd5b505050506040513d601f19601f82011682018060405250810190610ac691906130a8565b811115610c1057600360009054906101000a900473ffffffffffffffffffffffffffffffffffffffff1673ffffffffffffffffffffffffffffffffffffffff16632e1a7d4d600660009054906101000a900473ffffffffffffffffffffffffffffffffffffffff1673ffffffffffffffffffffffffffffffffffffffff166370a08231306040518263ffffffff1660e01b8152600401610b669190612e0c565b60206040518083038186803b158015610b7e57600080fd5b505afa158015610b92573d6000803e3d6000fd5b505050506040513d601f19601f82011682018060405250810190610bb691906130a8565b83610bc191906131be565b6040518263ffffffff1660e01b8152600401610bdd9190612d4d565b600060405180830381600087803b158015610bf757600080fd5b505af1158015610c0b573d6000803e3d6000fd5b505050505b600754610c1b610728565b10610c91576000610c2b8361062d565b9050610c8c610c3861115c565b8284610c4491906131be565b600660009054906101000a900473ffffffffffffffffffffffffffffffffffffffff1673ffffffffffffffffffffffffffffffffffffffff1661265d9092919063ffffffff16565b809150505b81600c60003373ffffffffffffffffffffffffffffffffffffffff1673ffffffffffffffffffffffffffffffffffffffff1681526020019081526020016000206000828254610ce091906131be565b925050819055508160086000828254610cf991906131be565b925050819055506000600c60003373ffffffffffffffffffffffffffffffffffffffff1673ffffffffffffffffffffffffffffffffffffffff168152602001908152602001600020541415610dcf57600b60003373ffffffffffffffffffffffffffffffffffffffff1673ffffffffffffffffffffffffffffffffffffffff16815260200190815260200160002060009055600a60003373ffffffffffffffffffffffffffffffffffffffff1673ffffffffffffffffffffffffffffffffffffffff168152602001908152602001600020600090555b610e1c3382600660009054906101000a900473ffffffffffffffffffffffffffffffffffffffff1673ffffffffffffffffffffffffffffffffffffffff1661265d9092919063ffffffff16565b7f884edad9ce6fa2440d8a54cc123490eb96d2768479d49ff9c7366125a94243643382604051610e4d929190613331565b60405180910390a15050565b7331429d1856ad1377a8a0079410b297e1a9e214c281565b610e796125df565b6000600660009054906101000a900473ffffffffffffffffffffffffffffffffffffffff1673ffffffffffffffffffffffffffffffffffffffff166370a08231306040518263ffffffff1660e01b8152600401610ed69190612e0c565b60206040518083038186803b158015610eee57600080fd5b505afa158015610f02573d6000803e3d6000fd5b505050506040513d601f19601f82011682018060405250810190610f2691906130a8565b9050610f97600360009054906101000a900473ffffffffffffffffffffffffffffffffffffffff1682600660009054906101000a900473ffffffffffffffffffffffffffffffffffffffff1673ffffffffffffffffffffffffffffffffffffffff166126e39092919063ffffffff16565b600360009054906101000a900473ffffffffffffffffffffffffffffffffffffffff1673ffffffffffffffffffffffffffffffffffffffff16633edd11283083856040518463ffffffff1660e01b8152600401610ff69392919061335a565b600060405180830381600087803b15801561101057600080fd5b505af1158015611024573d6000803e3d6000fd5b505050507fc16de066392da7e40ceccb739c331fc48a2e76bf147449613c48023d960eec323382604051611059929190613331565b60405180910390a15050565b61106d6125df565b600560009054906101000a900473ffffffffffffffffffffffffffffffffffffffff1673ffffffffffffffffffffffffffffffffffffffff1663e6f1daf26040518163ffffffff1660e01b8152600401600060405180830381600087803b1580156110d757600080fd5b505af11580156110eb573d6000803e3d6000fd5b50505050565b600c6020528060005260406000206000915090505481565b6111116125df565b61111b6000612804565b565b6009818154811061112d57600080fd5b906000526020600020016000915054906101000a900473ffffffffffffffffffffffffffffffffffffffff1681565b60008060009054906101000a900473ffffffffffffffffffffffffffffffffffffffff16905090565b6000806008541461131557600854670de0b6b3a7640000600660009054906101000a900473ffffffffffffffffffffffffffffffffffffffff1673ffffffffffffffffffffffffffffffffffffffff166370a08231306040518263ffffffff1660e01b81526004016111f79190612e0c565b60206040518083038186803b15801561120f57600080fd5b505afa158015611223573d6000803e3d6000fd5b505050506040513d601f19601f8201168201806040525081019061124791906130a8565b600560009054906101000a900473ffffffffffffffffffffffffffffffffffffffff1673ffffffffffffffffffffffffffffffffffffffff166370a08231306040518263ffffffff1660e01b81526004016112a29190612e0c565b60206040518083038186803b1580156112ba57600080fd5b505afa1580156112ce573d6000803e3d6000fd5b505050506040513d601f19601f820116820180604052508101906112f291906130a8565b6112fc91906131f2565b6113069190613104565b611310919061318d565b61131f565b670de0b6b3a76400005b905090565b600a6020528060005260406000206000915090505481565b6113446125df565b806007819055507f3b3a01f24e8e3bef91ca993c1cd79a3b6f78a26b78a3f0051cf751404dee28328160405161137a9190612d4d565b60405180910390a150565b73853d955acef822db058eb8505911ed77f175b99e81565b6000600b60003373ffffffffffffffffffffffffffffffffffffffff1673ffffffffffffffffffffffffffffffffffffffff168152602001908152602001600020541461141f576040517f08c379a0000000000000000000000000000000000000000000000000000000008152600401611416906133dd565b60405180910390fd5b42600a60003373ffffffffffffffffffffffffffffffffffffffff1673ffffffffffffffffffffffffffffffffffffffff1681526020019081526020016000208190555061146b611185565b600b60003373ffffffffffffffffffffffffffffffffffffffff1673ffffffffffffffffffffffffffffffffffffffff168152602001908152602001600020819055506114fd333083600660009054906101000a900473ffffffffffffffffffffffffffffffffffffffff1673ffffffffffffffffffffffffffffffffffffffff166128c8909392919063ffffffff16565b600b60003373ffffffffffffffffffffffffffffffffffffffff1673ffffffffffffffffffffffffffffffffffffffff16815260200190815260200160002054670de0b6b3a7640000826115519190613104565b61155b919061318d565b600c60003373ffffffffffffffffffffffffffffffffffffffff1673ffffffffffffffffffffffffffffffffffffffff16815260200190815260200160002060008282546115a991906131f2565b92505081905550600b60003373ffffffffffffffffffffffffffffffffffffffff1673ffffffffffffffffffffffffffffffffffffffff16815260200190815260200160002054670de0b6b3a7640000826116049190613104565b61160e919061318d565b6008600082825461161f91906131f2565b925050819055507fe1fffcc4923d04b559f4d29a8bfc6cda04eb5b0d3c460751c2402c5c5cc9109c3382604051611657929190613331565b60405180910390a150565b7373968b9a57c6e53d41345fd57a6e6ae27d6cdb2f81565b6116826125df565b60098054905082829050146116cc576040517f08c379a00000000000000000000000000000000000000000000000000000000081526004016116c39061346f565b60405180910390fd5b6009805490508686905014611716576040517f08c379a000000000000000000000000000000000000000000000000000000000815260040161170d9061346f565b60405180910390fd5b6009805490508484905014611760576040517f08c379a00000000000000000000000000000000000000000000000000000000081526004016117579061346f565b60405180910390fd5b60005b600980549050811015611d3e576000600982815481106117865761178561348f565b5b9060005260206000200160009054906101000a900473ffffffffffffffffffffffffffffffffffffffff1673ffffffffffffffffffffffffffffffffffffffff166370a08231306040518263ffffffff1660e01b81526004016117e99190612e0c565b60206040518083038186803b15801561180157600080fd5b505afa158015611815573d6000803e3d6000fd5b505050506040513d601f19601f8201168201806040525081019061183991906130a8565b141561184457611d2b565b611995600160009054906101000a900473ffffffffffffffffffffffffffffffffffffffff166009838154811061187e5761187d61348f565b5b9060005260206000200160009054906101000a900473ffffffffffffffffffffffffffffffffffffffff1673ffffffffffffffffffffffffffffffffffffffff166370a08231306040518263ffffffff1660e01b81526004016118e19190612e0c565b60206040518083038186803b1580156118f957600080fd5b505afa15801561190d573d6000803e3d6000fd5b505050506040513d601f19601f8201168201806040525081019061193191906130a8565b600984815481106119455761194461348f565b5b9060005260206000200160009054906101000a900473ffffffffffffffffffffffffffffffffffffffff1673ffffffffffffffffffffffffffffffffffffffff166126e39092919063ffffffff16565b6000604051806101000160405280600984815481106119b7576119b661348f565b5b9060005260206000200160009054906101000a900473ffffffffffffffffffffffffffffffffffffffff1673ffffffffffffffffffffffffffffffffffffffff16815260200173853d955acef822db058eb8505911ed77f175b99e73ffffffffffffffffffffffffffffffffffffffff1681526020018a73ffffffffffffffffffffffffffffffffffffffff1681526020013073ffffffffffffffffffffffffffffffffffffffff16815260200160098481548110611a7957611a7861348f565b5b9060005260206000200160009054906101000a900473ffffffffffffffffffffffffffffffffffffffff1673ffffffffffffffffffffffffffffffffffffffff166370a08231306040518263ffffffff1660e01b8152600401611adc9190612e0c565b60206040518083038186803b158015611af457600080fd5b505afa158015611b08573d6000803e3d6000fd5b505050506040513d601f19601f82011682018060405250810190611b2c91906130a8565b8152602001898985818110611b4457611b4361348f565b5b90506020020135815260200160048152602001878785818110611b6a57611b6961348f565b5b9050602002810190611b7c91906134cd565b8080601f016020809104026020016040519081016040528093929190818152602001838380828437600081840152601f19601f820116905080830192505050505050508152509050600160009054906101000a900473ffffffffffffffffffffffffffffffffffffffff1673ffffffffffffffffffffffffffffffffffffffff16637c0252008a83878787818110611c1757611c1661348f565b5b9050602002810190611c2991906134cd565b6040518563ffffffff1660e01b8152600401611c489493929190613776565b606060405180830381600087803b158015611c6257600080fd5b505af1158015611c76573d6000803e3d6000fd5b505050506040513d601f19601f82011682018060405250810190611c9a91906137bd565b505050611d29600160009054906101000a900473ffffffffffffffffffffffffffffffffffffffff16600060098581548110611cd957611cd861348f565b5b9060005260206000200160009054906101000a900473ffffffffffffffffffffffffffffffffffffffff1673ffffffffffffffffffffffffffffffffffffffff166129519092919063ffffffff16565b505b8080611d3690613810565b915050611763565b50611e3c600260009054906101000a900473ffffffffffffffffffffffffffffffffffffffff1673853d955acef822db058eb8505911ed77f175b99e73ffffffffffffffffffffffffffffffffffffffff166370a08231306040518263ffffffff1660e01b8152600401611db29190612e0c565b60206040518083038186803b158015611dca57600080fd5b505afa158015611dde573d6000803e3d6000fd5b505050506040513d601f19601f82011682018060405250810190611e0291906130a8565b73853d955acef822db058eb8505911ed77f175b99e73ffffffffffffffffffffffffffffffffffffffff166126e39092919063ffffffff16565b600260009054906101000a900473ffffffffffffffffffffffffffffffffffffffff1673ffffffffffffffffffffffffffffffffffffffff16632e2d298473853d955acef822db058eb8505911ed77f175b99e73ffffffffffffffffffffffffffffffffffffffff166370a08231306040518263ffffffff1660e01b8152600401611ec79190612e0c565b60206040518083038186803b158015611edf57600080fd5b505afa158015611ef3573d6000803e3d6000fd5b505050506040513d601f19601f82011682018060405250810190611f1791906130a8565b30736b4ee7352406707003bc6f6b96595fd35925af486040518463ffffffff1660e01b8152600401611f4b9392919061387a565b600060405180830381600087803b158015611f6557600080fd5b505af1158015611f79573d6000803e3d6000fd5b505050507f4d12401e4d6cc642454aedd27a02290e422f28dd21e629634f1beffacb705bf860405160405180910390a150505050505050565b600660149054906101000a900460ff1681565b600b6020528060005260406000206000915090505481565b6000600c60003373ffffffffffffffffffffffffffffffffffffffff1673ffffffffffffffffffffffffffffffffffffffff168152602001908152602001600020541161205f576040517f08c379a0000000000000000000000000000000000000000000000000000000008152600401612056906132a5565b60405180910390fd5b600660149054906101000a900460ff166120ae576040517f08c379a00000000000000000000000000000000000000000000000000000000081526004016120a5906138fd565b60405180910390fd5b6000670de0b6b3a76400006120c1611185565b600c60003373ffffffffffffffffffffffffffffffffffffffff1673ffffffffffffffffffffffffffffffffffffffff1681526020019081526020016000205461210b9190613104565b612115919061318d565b9050600660009054906101000a900473ffffffffffffffffffffffffffffffffffffffff1673ffffffffffffffffffffffffffffffffffffffff166370a08231306040518263ffffffff1660e01b81526004016121729190612e0c565b60206040518083038186803b15801561218a57600080fd5b505afa15801561219e573d6000803e3d6000fd5b505050506040513d601f19601f820116820180604052508101906121c291906130a8565b81111561230c57600360009054906101000a900473ffffffffffffffffffffffffffffffffffffffff1673ffffffffffffffffffffffffffffffffffffffff16632e1a7d4d600660009054906101000a900473ffffffffffffffffffffffffffffffffffffffff1673ffffffffffffffffffffffffffffffffffffffff166370a08231306040518263ffffffff1660e01b81526004016122629190612e0c565b60206040518083038186803b15801561227a57600080fd5b505afa15801561228e573d6000803e3d6000fd5b505050506040513d601f19601f820116820180604052508101906122b291906130a8565b836122bd91906131be565b6040518263ffffffff1660e01b81526004016122d99190612d4d565b600060405180830381600087803b1580156122f357600080fd5b505af1158015612307573d6000803e3d6000fd5b505050505b600754612317610728565b106123ea576000612384670de0b6b3a7640000600b60003373ffffffffffffffffffffffffffffffffffffffff1673ffffffffffffffffffffffffffffffffffffffff16815260200190815260200160002054846123759190613104565b61237f919061318d565b61062d565b90506123e561239161115c565b828461239d91906131be565b600660009054906101000a900473ffffffffffffffffffffffffffffffffffffffff1673ffffffffffffffffffffffffffffffffffffffff1661265d9092919063ffffffff16565b809150505b600c60003373ffffffffffffffffffffffffffffffffffffffff1673ffffffffffffffffffffffffffffffffffffffff16815260200190815260200160002060009055806008600082825461243f91906131be565b92505081905550600b60003373ffffffffffffffffffffffffffffffffffffffff1673ffffffffffffffffffffffffffffffffffffffff16815260200190815260200160002060009055600a60003373ffffffffffffffffffffffffffffffffffffffff1673ffffffffffffffffffffffffffffffffffffffff168152602001908152602001600020600090556125193382600660009054906101000a900473ffffffffffffffffffffffffffffffffffffffff1673ffffffffffffffffffffffffffffffffffffffff1661265d9092919063ffffffff16565b7f5fafa99d0643513820be26656b45130b01e1c03062e1266bf36f88cbd3bd9695338260405161254a929190613331565b60405180910390a150565b60075481565b6125636125df565b600073ffffffffffffffffffffffffffffffffffffffff168173ffffffffffffffffffffffffffffffffffffffff1614156125d3576040517f08c379a00000000000000000000000000000000000000000000000000000000081526004016125ca9061398f565b60405180910390fd5b6125dc81612804565b50565b6125e7612aaf565b73ffffffffffffffffffffffffffffffffffffffff1661260561115c565b73ffffffffffffffffffffffffffffffffffffffff161461265b576040517f08c379a0000000000000000000000000000000000000000000000000000000008152600401612652906139fb565b60405180910390fd5b565b6126de8363a9059cbb60e01b848460405160240161267c929190613331565b604051602081830303815290604052907bffffffffffffffffffffffffffffffffffffffffffffffffffffffff19166020820180517bffffffffffffffffffffffffffffffffffffffffffffffffffffffff8381831617835250505050612ab7565b505050565b6000818473ffffffffffffffffffffffffffffffffffffffff1663dd62ed3e30866040518363ffffffff1660e01b8152600401612721929190613a1b565b60206040518083038186803b15801561273957600080fd5b505afa15801561274d573d6000803e3d6000fd5b505050506040513d601f19601f8201168201806040525081019061277191906130a8565b61277b91906131f2565b90506127fe8463095ea7b360e01b858460405160240161279c929190613331565b604051602081830303815290604052907bffffffffffffffffffffffffffffffffffffffffffffffffffffffff19166020820180517bffffffffffffffffffffffffffffffffffffffffffffffffffffffff8381831617835250505050612ab7565b50505050565b60008060009054906101000a900473ffffffffffffffffffffffffffffffffffffffff169050816000806101000a81548173ffffffffffffffffffffffffffffffffffffffff021916908373ffffffffffffffffffffffffffffffffffffffff1602179055508173ffffffffffffffffffffffffffffffffffffffff168173ffffffffffffffffffffffffffffffffffffffff167f8be0079c531659141344cd1fd0a4f28419497f9722a3daafe3b4186f6b6457e060405160405180910390a35050565b61294b846323b872dd60e01b8585856040516024016128e993929190613a44565b604051602081830303815290604052907bffffffffffffffffffffffffffffffffffffffffffffffffffffffff19166020820180517bffffffffffffffffffffffffffffffffffffffffffffffffffffffff8381831617835250505050612ab7565b50505050565b60008114806129ea575060008373ffffffffffffffffffffffffffffffffffffffff1663dd62ed3e30856040518363ffffffff1660e01b8152600401612998929190613a1b565b60206040518083038186803b1580156129b057600080fd5b505afa1580156129c4573d6000803e3d6000fd5b505050506040513d601f19601f820116820180604052508101906129e891906130a8565b145b612a29576040517f08c379a0000000000000000000000000000000000000000000000000000000008152600401612a2090613aed565b60405180910390fd5b612aaa8363095ea7b360e01b8484604051602401612a48929190613331565b604051602081830303815290604052907bffffffffffffffffffffffffffffffffffffffffffffffffffffffff19166020820180517bffffffffffffffffffffffffffffffffffffffffffffffffffffffff8381831617835250505050612ab7565b505050565b600033905090565b6000612b19826040518060400160405280602081526020017f5361666545524332303a206c6f772d6c6576656c2063616c6c206661696c65648152508573ffffffffffffffffffffffffffffffffffffffff16612b7e9092919063ffffffff16565b9050600081511115612b795780806020019051810190612b399190613b22565b612b78576040517f08c379a0000000000000000000000000000000000000000000000000000000008152600401612b6f90613bc1565b60405180910390fd5b5b505050565b6060612b8d8484600085612b96565b90509392505050565b606082471015612bdb576040517f08c379a0000000000000000000000000000000000000000000000000000000008152600401612bd290613c53565b60405180910390fd5b612be485612caa565b612c23576040517f08c379a0000000000000000000000000000000000000000000000000000000008152600401612c1a90613cbf565b60405180910390fd5b6000808673ffffffffffffffffffffffffffffffffffffffff168587604051612c4c9190613d1b565b60006040518083038185875af1925050503d8060008114612c89576040519150601f19603f3d011682016040523d82523d6000602084013e612c8e565b606091505b5091509150612c9e828286612ccd565b92505050949350505050565b6000808273ffffffffffffffffffffffffffffffffffffffff163b119050919050565b60608315612cdd57829050612d2d565b600083511115612cf05782518084602001fd5b816040517f08c379a0000000000000000000000000000000000000000000000000000000008152600401612d249190613d76565b60405180910390fd5b9392505050565b6000819050919050565b612d4781612d34565b82525050565b6000602082019050612d626000830184612d3e565b92915050565b600080fd5b600080fd5b612d7b81612d34565b8114612d8657600080fd5b50565b600081359050612d9881612d72565b92915050565b600060208284031215612db457612db3612d68565b5b6000612dc284828501612d89565b91505092915050565b600073ffffffffffffffffffffffffffffffffffffffff82169050919050565b6000612df682612dcb565b9050919050565b612e0681612deb565b82525050565b6000602082019050612e216000830184612dfd565b92915050565b60008115159050919050565b612e3c81612e27565b8114612e4757600080fd5b50565b600081359050612e5981612e33565b92915050565b600060208284031215612e7557612e74612d68565b5b6000612e8384828501612e4a565b91505092915050565b612e9581612deb565b8114612ea057600080fd5b50565b600081359050612eb281612e8c565b92915050565b600060208284031215612ece57612ecd612d68565b5b6000612edc84828501612ea3565b91505092915050565b600080fd5b600080fd5b600080fd5b60008083601f840112612f0a57612f09612ee5565b5b8235905067ffffffffffffffff811115612f2757612f26612eea565b5b602083019150836020820283011115612f4357612f42612eef565b5b9250929050565b60008083601f840112612f6057612f5f612ee5565b5b8235905067ffffffffffffffff811115612f7d57612f7c612eea565b5b602083019150836020820283011115612f9957612f98612eef565b5b9250929050565b60008060008060008060006080888a031215612fbf57612fbe612d68565b5b6000612fcd8a828b01612ea3565b975050602088013567ffffffffffffffff811115612fee57612fed612d6d565b5b612ffa8a828b01612ef4565b9650965050604088013567ffffffffffffffff81111561301d5761301c612d6d565b5b6130298a828b01612f4a565b9450945050606088013567ffffffffffffffff81111561304c5761304b612d6d565b5b6130588a828b01612f4a565b925092505092959891949750929550565b61307281612e27565b82525050565b600060208201905061308d6000830184613069565b92915050565b6000815190506130a281612d72565b92915050565b6000602082840312156130be576130bd612d68565b5b60006130cc84828501613093565b91505092915050565b7f4e487b7100000000000000000000000000000000000000000000000000000000600052601160045260246000fd5b600061310f82612d34565b915061311a83612d34565b9250817fffffffffffffffffffffffffffffffffffffffffffffffffffffffffffffffff0483118215151615613153576131526130d5565b5b828202905092915050565b7f4e487b7100000000000000000000000000000000000000000000000000000000600052601260045260246000fd5b600061319882612d34565b91506131a383612d34565b9250826131b3576131b261315e565b5b828204905092915050565b60006131c982612d34565b91506131d483612d34565b9250828210156131e7576131e66130d5565b5b828203905092915050565b60006131fd82612d34565b915061320883612d34565b9250827fffffffffffffffffffffffffffffffffffffffffffffffffffffffffffffffff0382111561323d5761323c6130d5565b5b828201905092915050565b600082825260208201905092915050565b7f5b77697468647261775d20496e73756666696369656e742062616c616e636521600082015250565b600061328f602083613248565b915061329a82613259565b602082019050919050565b600060208201905081810360008301526132be81613282565b9050919050565b7f5b77697468647261775d204561726c7920776974686472617721000000000000600082015250565b60006132fb601a83613248565b9150613306826132c5565b602082019050919050565b6000602082019050818103600083015261332a816132ee565b9050919050565b60006040820190506133466000830185612dfd565b6133536020830184612d3e565b9392505050565b600060608201905061336f6000830186612dfd565b61337c6020830185612d3e565b6133896040830184613069565b949350505050565b7f5b6465706f7369745d20416c7265616479206c6f636b65642100000000000000600082015250565b60006133c7601983613248565b91506133d282613391565b602082019050919050565b600060208201905081810360008301526133f6816133ba565b9050919050565b7f5b686172766573745d20496e617070726f707269617465206461746120616d6f60008201527f756e742e00000000000000000000000000000000000000000000000000000000602082015250565b6000613459602483613248565b9150613464826133fd565b604082019050919050565b600060208201905081810360008301526134888161344c565b9050919050565b7f4e487b7100000000000000000000000000000000000000000000000000000000600052603260045260246000fd5b600080fd5b600080fd5b600080fd5b600080833560016020038436030381126134ea576134e96134be565b5b80840192508235915067ffffffffffffffff82111561350c5761350b6134c3565b5b602083019250600182023603831315613528576135276134c8565b5b509250929050565b6000819050919050565b600061355561355061354b84612dcb565b613530565b612dcb565b9050919050565b60006135678261353a565b9050919050565b60006135798261355c565b9050919050565b6135898161356e565b82525050565b600061359a8261355c565b9050919050565b6135aa8161358f565b82525050565b60006135bb82612dcb565b9050919050565b6135cb816135b0565b82525050565b6135da81612d34565b82525050565b600081519050919050565b600082825260208201905092915050565b60005b8381101561361a5780820151818401526020810190506135ff565b83811115613629576000848401525b50505050565b6000601f19601f8301169050919050565b600061364b826135e0565b61365581856135eb565b93506136658185602086016135fc565b61366e8161362f565b840191505092915050565b60006101008301600083015161369260008601826135a1565b5060208301516136a560208601826135a1565b5060408301516136b860408601826135c2565b5060608301516136cb60608601826135c2565b5060808301516136de60808601826135d1565b5060a08301516136f160a08601826135d1565b5060c083015161370460c08601826135d1565b5060e083015184820360e086015261371c8282613640565b9150508091505092915050565b600082825260208201905092915050565b82818337600083830152505050565b60006137558385613729565b935061376283858461373a565b61376b8361362f565b840190509392505050565b600060608201905061378b6000830187613580565b818103602083015261379d8186613679565b905081810360408301526137b2818486613749565b905095945050505050565b6000806000606084860312156137d6576137d5612d68565b5b60006137e486828701613093565b93505060206137f586828701613093565b925050604061380686828701613093565b9150509250925092565b600061381b82612d34565b91507fffffffffffffffffffffffffffffffffffffffffffffffffffffffffffffffff82141561384e5761384d6130d5565b5b600182019050919050565b60006138648261355c565b9050919050565b61387481613859565b82525050565b600060608201905061388f6000830186612d3e565b61389c6020830185612dfd565b6138a9604083018461386b565b949350505050565b7f5b77697468647261775d204e6f7420456d657267656e63790000000000000000600082015250565b60006138e7601883613248565b91506138f2826138b1565b602082019050919050565b60006020820190508181036000830152613916816138da565b9050919050565b7f4f776e61626c653a206e6577206f776e657220697320746865207a65726f206160008201527f6464726573730000000000000000000000000000000000000000000000000000602082015250565b6000613979602683613248565b91506139848261391d565b604082019050919050565b600060208201905081810360008301526139a88161396c565b9050919050565b7f4f776e61626c653a2063616c6c6572206973206e6f7420746865206f776e6572600082015250565b60006139e5602083613248565b91506139f0826139af565b602082019050919050565b60006020820190508181036000830152613a14816139d8565b9050919050565b6000604082019050613a306000830185612dfd565b613a3d6020830184612dfd565b9392505050565b6000606082019050613a596000830186612dfd565b613a666020830185612dfd565b613a736040830184612d3e565b949350505050565b7f5361666545524332303a20617070726f76652066726f6d206e6f6e2d7a65726f60008201527f20746f206e6f6e2d7a65726f20616c6c6f77616e636500000000000000000000602082015250565b6000613ad7603683613248565b9150613ae282613a7b565b604082019050919050565b60006020820190508181036000830152613b0681613aca565b9050919050565b600081519050613b1c81612e33565b92915050565b600060208284031215613b3857613b37612d68565b5b6000613b4684828501613b0d565b91505092915050565b7f5361666545524332303a204552433230206f7065726174696f6e20646964206e60008201527f6f74207375636365656400000000000000000000000000000000000000000000602082015250565b6000613bab602a83613248565b9150613bb682613b4f565b604082019050919050565b60006020820190508181036000830152613bda81613b9e565b9050919050565b7f416464726573733a20696e73756666696369656e742062616c616e636520666f60008201527f722063616c6c0000000000000000000000000000000000000000000000000000602082015250565b6000613c3d602683613248565b9150613c4882613be1565b604082019050919050565b60006020820190508181036000830152613c6c81613c30565b9050919050565b7f416464726573733a2063616c6c20746f206e6f6e2d636f6e7472616374000000600082015250565b6000613ca9601d83613248565b9150613cb482613c73565b602082019050919050565b60006020820190508181036000830152613cd881613c9c565b9050919050565b600081905092915050565b6000613cf5826135e0565b613cff8185613cdf565b9350613d0f8185602086016135fc565b80840191505092915050565b6000613d278284613cea565b915081905092915050565b600081519050919050565b6000613d4882613d32565b613d528185613248565b9350613d628185602086016135fc565b613d6b8161362f565b840191505092915050565b60006020820190508181036000830152613d908184613d3d565b90509291505056fea264697066735822122071574993d3736d1beca41dbe8c3c784b4e726e3dfc747e6e06b8676b74c1be9564736f6c63430008090033",
  "linkReferences": {},
  "deployedLinkReferences": {}
}