{
  "_format": "hh-sol-artifact-1",
  "contractName": "FixedStrategy",
  "sourceName": "contracts/FixedStrategy.sol",
  "abi": [
    {
      "inputs": [
        {
          "internalType": "address",
          "name": "angleVaultAddr",
          "type": "address"
        },
        {
          "internalType": "address",
          "name": "angleStratAddr",
          "type": "address"
        },
        {
          "internalType": "address",
          "name": "oneInchAddr",
          "type": "address"
        },
        {
          "internalType": "address",
          "name": "angleFrontAddr",
          "type": "address"
        },
        {
          "internalType": "address",
          "name": "gaugeAdd",
          "type": "address"
        },
        {
          "internalType": "address",
          "name": "lockToken",
          "type": "address"
        }
      ],
      "stateMutability": "nonpayable",
      "type": "constructor"
    },
    {
      "anonymous": false,
      "inputs": [
        {
          "indexed": false,
          "internalType": "address",
          "name": "compounder",
          "type": "address"
        },
        {
          "indexed": false,
          "internalType": "uint256",
          "name": "amount",
          "type": "uint256"
        }
      ],
      "name": "Compounded",
      "type": "event"
    },
    {
      "anonymous": false,
      "inputs": [
        {
          "indexed": false,
          "internalType": "address",
          "name": "locker",
          "type": "address"
        },
        {
          "indexed": false,
          "internalType": "uint256",
          "name": "amount",
          "type": "uint256"
        }
      ],
      "name": "Deposit",
      "type": "event"
    },
    {
      "anonymous": false,
      "inputs": [
        {
          "indexed": false,
          "internalType": "bool",
          "name": "newState",
          "type": "bool"
        }
      ],
      "name": "EmergencyChanged",
      "type": "event"
    },
    {
      "anonymous": false,
      "inputs": [
        {
          "indexed": false,
          "internalType": "address",
          "name": "locker",
          "type": "address"
        },
        {
          "indexed": false,
          "internalType": "uint256",
          "name": "amount",
          "type": "uint256"
        }
      ],
      "name": "EmergencyWithdraw",
      "type": "event"
    },
    {
      "anonymous": false,
      "inputs": [],
      "name": "Harvested",
      "type": "event"
    },
    {
      "anonymous": false,
      "inputs": [
        {
          "indexed": false,
          "internalType": "uint256",
          "name": "newYield",
          "type": "uint256"
        }
      ],
      "name": "MaxYieldChanged",
      "type": "event"
    },
    {
      "anonymous": false,
      "inputs": [
        {
          "indexed": true,
          "internalType": "address",
          "name": "previousOwner",
          "type": "address"
        },
        {
          "indexed": true,
          "internalType": "address",
          "name": "newOwner",
          "type": "address"
        }
      ],
      "name": "OwnershipTransferred",
      "type": "event"
    },
    {
      "anonymous": false,
      "inputs": [
        {
          "indexed": false,
          "internalType": "address",
          "name": "locker",
          "type": "address"
        },
        {
          "indexed": false,
          "internalType": "uint256",
          "name": "amount",
          "type": "uint256"
        }
      ],
      "name": "Withdraw",
      "type": "event"
    },
    {
      "inputs": [],
      "name": "ANGL",
      "outputs": [
        {
          "internalType": "address",
          "name": "",
          "type": "address"
        }
      ],
      "stateMutability": "view",
      "type": "function"
    },
    {
      "inputs": [],
      "name": "ANGLE_POOL_MANAGER",
      "outputs": [
        {
          "internalType": "address",
          "name": "",
          "type": "address"
        }
      ],
      "stateMutability": "view",
      "type": "function"
    },
    {
      "inputs": [],
      "name": "FRAX",
      "outputs": [
        {
          "internalType": "address",
          "name": "",
          "type": "address"
        }
      ],
      "stateMutability": "view",
      "type": "function"
    },
    {
      "inputs": [],
      "name": "SDT",
      "outputs": [
        {
          "internalType": "address",
          "name": "",
          "type": "address"
        }
      ],
      "stateMutability": "view",
      "type": "function"
    },
    {
      "inputs": [],
      "name": "claim",
      "outputs": [],
      "stateMutability": "nonpayable",
      "type": "function"
    },
    {
      "inputs": [
        {
          "internalType": "bool",
          "name": "isEarn",
          "type": "bool"
        }
      ],
      "name": "comp",
      "outputs": [],
      "stateMutability": "nonpayable",
      "type": "function"
    },
    {
      "inputs": [],
      "name": "currentRatioForUser",
      "outputs": [
        {
          "internalType": "uint256",
          "name": "",
          "type": "uint256"
        }
      ],
      "stateMutability": "view",
      "type": "function"
    },
    {
      "inputs": [
        {
          "internalType": "uint256",
          "name": "amount",
          "type": "uint256"
        }
      ],
      "name": "deposit",
      "outputs": [],
      "stateMutability": "nonpayable",
      "type": "function"
    },
    {
      "inputs": [],
      "name": "emergencyWithdraw",
      "outputs": [],
      "stateMutability": "nonpayable",
      "type": "function"
    },
    {
      "inputs": [
        {
          "internalType": "address",
          "name": "executor",
          "type": "address"
        },
        {
          "internalType": "uint256[]",
          "name": "minReturnAmounts",
          "type": "uint256[]"
        },
        {
          "internalType": "bytes[]",
          "name": "permits",
          "type": "bytes[]"
        },
        {
          "internalType": "bytes[]",
          "name": "datas",
          "type": "bytes[]"
        }
      ],
      "name": "harvest",
      "outputs": [],
      "stateMutability": "nonpayable",
      "type": "function"
    },
    {
      "inputs": [
        {
          "internalType": "address",
          "name": "",
          "type": "address"
        }
      ],
      "name": "initialPPS",
      "outputs": [
        {
          "internalType": "uint256",
          "name": "",
          "type": "uint256"
        }
      ],
      "stateMutability": "view",
      "type": "function"
    },
    {
      "inputs": [
        {
          "internalType": "uint256",
          "name": "amount",
          "type": "uint256"
        }
      ],
      "name": "maxEarningToDate",
      "outputs": [
        {
          "internalType": "uint256",
          "name": "",
          "type": "uint256"
        }
      ],
      "stateMutability": "view",
      "type": "function"
    },
    {
      "inputs": [],
      "name": "maxYield",
      "outputs": [
        {
          "internalType": "uint256",
          "name": "",
          "type": "uint256"
        }
      ],
      "stateMutability": "view",
      "type": "function"
    },
    {
      "inputs": [],
      "name": "owner",
      "outputs": [
        {
          "internalType": "address",
          "name": "",
          "type": "address"
        }
      ],
      "stateMutability": "view",
      "type": "function"
    },
    {
      "inputs": [],
      "name": "pricePerShare",
      "outputs": [
        {
          "internalType": "uint256",
          "name": "",
          "type": "uint256"
        }
      ],
      "stateMutability": "view",
      "type": "function"
    },
    {
      "inputs": [],
      "name": "renounceOwnership",
      "outputs": [],
      "stateMutability": "nonpayable",
      "type": "function"
    },
    {
      "inputs": [
        {
          "internalType": "uint256",
          "name": "",
          "type": "uint256"
        }
      ],
      "name": "rewardTokens",
      "outputs": [
        {
          "internalType": "address",
          "name": "",
          "type": "address"
        }
      ],
      "stateMutability": "view",
      "type": "function"
    },
    {
      "inputs": [
        {
          "internalType": "uint256",
          "name": "newYield",
          "type": "uint256"
        }
      ],
      "name": "setMaxYield",
      "outputs": [],
      "stateMutability": "nonpayable",
      "type": "function"
    },
    {
      "inputs": [
        {
          "internalType": "address",
          "name": "",
          "type": "address"
        }
      ],
      "name": "stakeTimestamps",
      "outputs": [
        {
          "internalType": "uint256",
          "name": "",
          "type": "uint256"
        }
      ],
      "stateMutability": "view",
      "type": "function"
    },
    {
      "inputs": [],
      "name": "toggleEmergency",
      "outputs": [],
      "stateMutability": "nonpayable",
      "type": "function"
    },
    {
      "inputs": [],
      "name": "totalSupply",
      "outputs": [
        {
          "internalType": "uint256",
          "name": "",
          "type": "uint256"
        }
      ],
      "stateMutability": "view",
      "type": "function"
    },
    {
      "inputs": [
        {
          "internalType": "address",
          "name": "newOwner",
          "type": "address"
        }
      ],
      "name": "transferOwnership",
      "outputs": [],
      "stateMutability": "nonpayable",
      "type": "function"
    },
    {
      "inputs": [
        {
          "internalType": "address",
          "name": "",
          "type": "address"
        }
      ],
      "name": "userToShare",
      "outputs": [
        {
          "internalType": "uint256",
          "name": "",
          "type": "uint256"
        }
      ],
      "stateMutability": "view",
      "type": "function"
    },
    {
      "inputs": [
        {
          "internalType": "uint256",
          "name": "shares",
          "type": "uint256"
        }
      ],
      "name": "withdraw",
      "outputs": [],
      "stateMutability": "nonpayable",
      "type": "function"
    }
  ],
  "bytecode": "0x60806040523480156200001157600080fd5b506040516200400638038062004006833981810160405281019062000037919062000415565b620000576200004b620002df60201b60201c565b620002e760201b60201c565b85600360006101000a81548173ffffffffffffffffffffffffffffffffffffffff021916908373ffffffffffffffffffffffffffffffffffffffff16021790555084600460006101000a81548173ffffffffffffffffffffffffffffffffffffffff021916908373ffffffffffffffffffffffffffffffffffffffff16021790555081600560006101000a81548173ffffffffffffffffffffffffffffffffffffffff021916908373ffffffffffffffffffffffffffffffffffffffff16021790555083600160006101000a81548173ffffffffffffffffffffffffffffffffffffffff021916908373ffffffffffffffffffffffffffffffffffffffff16021790555082600260006101000a81548173ffffffffffffffffffffffffffffffffffffffff021916908373ffffffffffffffffffffffffffffffffffffffff16021790555080600660006101000a81548173ffffffffffffffffffffffffffffffffffffffff021916908373ffffffffffffffffffffffffffffffffffffffff160217905550605060078190555060097331429d1856ad1377a8a0079410b297e1a9e214c29080600181540180825580915050600190039060005260206000200160009091909190916101000a81548173ffffffffffffffffffffffffffffffffffffffff021916908373ffffffffffffffffffffffffffffffffffffffff16021790555060097373968b9a57c6e53d41345fd57a6e6ae27d6cdb2f9080600181540180825580915050600190039060005260206000200160009091909190916101000a81548173ffffffffffffffffffffffffffffffffffffffff021916908373ffffffffffffffffffffffffffffffffffffffff160217905550505050505050620004b1565b600033905090565b60008060009054906101000a900473ffffffffffffffffffffffffffffffffffffffff169050816000806101000a81548173ffffffffffffffffffffffffffffffffffffffff021916908373ffffffffffffffffffffffffffffffffffffffff1602179055508173ffffffffffffffffffffffffffffffffffffffff168173ffffffffffffffffffffffffffffffffffffffff167f8be0079c531659141344cd1fd0a4f28419497f9722a3daafe3b4186f6b6457e060405160405180910390a35050565b600080fd5b600073ffffffffffffffffffffffffffffffffffffffff82169050919050565b6000620003dd82620003b0565b9050919050565b620003ef81620003d0565b8114620003fb57600080fd5b50565b6000815190506200040f81620003e4565b92915050565b60008060008060008060c08789031215620004355762000434620003ab565b5b60006200044589828a01620003fe565b96505060206200045889828a01620003fe565b95505060406200046b89828a01620003fe565b94505060606200047e89828a01620003fe565b93505060806200049189828a01620003fe565b92505060a0620004a489828a01620003fe565b9150509295509295509295565b613b4580620004c16000396000f3fe608060405234801561001057600080fd5b50600436106101585760003560e01c80638da5cb5b116100c3578063ba32c6191161007c578063ba32c6191461037d578063c47b45731461039b578063d64dcde1146103b7578063db2e21bc146103e7578063e1654433146103f1578063f2fde38b1461040f57610158565b80638da5cb5b146102bb57806399530b06146102d957806399f853a5146102f7578063a94072b614610327578063b0e4556f14610343578063b6b55f251461036157610158565b8063301234e611610115578063301234e61461020d578063441822ee1461022b5780634e71d92d146102475780636d8dea8714610251578063715018a6146102815780637bb7bed11461028b57610158565b806310698a4a1461015d578063147ec25f1461018d57806317504e80146101ab57806318160ddd146101c95780632d1d2744146101e75780632e1a7d4d146101f1575b600080fd5b61017760048036038101906101729190612aeb565b61042b565b6040516101849190612b27565b60405180910390f35b6101956104c5565b6040516101a29190612b27565b60405180910390f35b6101b36105e4565b6040516101c09190612b83565b60405180910390f35b6101d16105fc565b6040516101de9190612b27565b60405180910390f35b6101ef610602565b005b61020b60048036038101906102069190612aeb565b61067c565b005b610215610c53565b6040516102229190612b83565b60405180910390f35b61024560048036038101906102409190612bd6565b610c6b565b005b61024f610e5f565b005b61026b60048036038101906102669190612c2f565b610eeb565b6040516102789190612b27565b60405180910390f35b610289610f03565b005b6102a560048036038101906102a09190612aeb565b610f17565b6040516102b29190612b83565b60405180910390f35b6102c3610f56565b6040516102d09190612b83565b60405180910390f35b6102e1610f7f565b6040516102ee9190612b27565b60405180910390f35b610311600480360381019061030c9190612c2f565b61111e565b60405161031e9190612b27565b60405180910390f35b610341600480360381019061033c9190612aeb565b611136565b005b61034b61117f565b6040516103589190612b83565b60405180910390f35b61037b60048036038101906103769190612aeb565b611197565b005b6103856113ec565b6040516103929190612b83565b60405180910390f35b6103b560048036038101906103b09190612d17565b611404565b005b6103d160048036038101906103cc9190612c2f565b611d3c565b6040516103de9190612b27565b60405180910390f35b6103ef611d54565b005b6103f96122cc565b6040516104069190612b27565b60405180910390f35b61042960048036038101906104249190612c2f565b6122d2565b005b600080600a60003373ffffffffffffffffffffffffffffffffffffffff1673ffffffffffffffffffffffffffffffffffffffff16815260200190815260200160002054426104799190612e0f565b90506103e86301e13380600754836104919190612e43565b61049b9190612ecc565b6103e86104a89190612efd565b846104b39190612e43565b6104bd9190612ecc565b915050919050565b600080600b60003373ffffffffffffffffffffffffffffffffffffffff1673ffffffffffffffffffffffffffffffffffffffff168152602001908152602001600020546103e8600b60003373ffffffffffffffffffffffffffffffffffffffff1673ffffffffffffffffffffffffffffffffffffffff16815260200190815260200160002054610553610f7f565b61055d9190612e0f565b6105679190612e43565b6105719190612ecc565b90506000600a60003373ffffffffffffffffffffffffffffffffffffffff1673ffffffffffffffffffffffffffffffffffffffff16815260200190815260200160002054426105c09190612e0f565b9050806301e13380836105d39190612e43565b6105dd9190612ecc565b9250505090565b736b4ee7352406707003bc6f6b96595fd35925af4881565b60085481565b61060a612356565b600660149054906101000a900460ff1615600660146101000a81548160ff0219169083151502179055507fb7b4acafd2ef8ea4a9b9b341e2cffabb2c5d1de97da9e505b53a164dac9cefe9600660149054906101000a900460ff166040516106729190612f62565b60405180910390a1565b80600c60003373ffffffffffffffffffffffffffffffffffffffff1673ffffffffffffffffffffffffffffffffffffffff1681526020019081526020016000205410156106fe576040517f08c379a00000000000000000000000000000000000000000000000000000000081526004016106f590612fda565b60405180910390fd5b426276a700600a60003373ffffffffffffffffffffffffffffffffffffffff1673ffffffffffffffffffffffffffffffffffffffff1681526020019081526020016000205461074d9190612efd565b111561078e576040517f08c379a000000000000000000000000000000000000000000000000000000000815260040161078590613046565b60405180910390fd5b6000670de0b6b3a76400006107a1610f7f565b836107ac9190612e43565b6107b69190612ecc565b905081600c60003373ffffffffffffffffffffffffffffffffffffffff1673ffffffffffffffffffffffffffffffffffffffff16815260200190815260200160002060008282546108079190612e0f565b9250508190555081600860008282546108209190612e0f565b92505081905550600660009054906101000a900473ffffffffffffffffffffffffffffffffffffffff1673ffffffffffffffffffffffffffffffffffffffff166370a08231306040518263ffffffff1660e01b81526004016108829190612b83565b60206040518083038186803b15801561089a57600080fd5b505afa1580156108ae573d6000803e3d6000fd5b505050506040513d601f19601f820116820180604052508101906108d2919061307b565b811115610a1c57600360009054906101000a900473ffffffffffffffffffffffffffffffffffffffff1673ffffffffffffffffffffffffffffffffffffffff16632e1a7d4d600660009054906101000a900473ffffffffffffffffffffffffffffffffffffffff1673ffffffffffffffffffffffffffffffffffffffff166370a08231306040518263ffffffff1660e01b81526004016109729190612b83565b60206040518083038186803b15801561098a57600080fd5b505afa15801561099e573d6000803e3d6000fd5b505050506040513d601f19601f820116820180604052508101906109c2919061307b565b836109cd9190612e0f565b6040518263ffffffff1660e01b81526004016109e99190612b27565b600060405180830381600087803b158015610a0357600080fd5b505af1158015610a17573d6000803e3d6000fd5b505050505b6000600c60003373ffffffffffffffffffffffffffffffffffffffff1673ffffffffffffffffffffffffffffffffffffffff168152602001908152602001600020541415610aeb57600b60003373ffffffffffffffffffffffffffffffffffffffff1673ffffffffffffffffffffffffffffffffffffffff16815260200190815260200160002060009055600a60003373ffffffffffffffffffffffffffffffffffffffff1673ffffffffffffffffffffffffffffffffffffffff168152602001908152602001600020600090555b600754610af66104c5565b10610bc9576000610b63670de0b6b3a7640000600b60003373ffffffffffffffffffffffffffffffffffffffff1673ffffffffffffffffffffffffffffffffffffffff1681526020019081526020016000205485610b549190612e43565b610b5e9190612ecc565b61042b565b9050610bc4610b70610f56565b8284610b7c9190612e0f565b600660009054906101000a900473ffffffffffffffffffffffffffffffffffffffff1673ffffffffffffffffffffffffffffffffffffffff166123d49092919063ffffffff16565b809150505b610c163382600660009054906101000a900473ffffffffffffffffffffffffffffffffffffffff1673ffffffffffffffffffffffffffffffffffffffff166123d49092919063ffffffff16565b7f884edad9ce6fa2440d8a54cc123490eb96d2768479d49ff9c7366125a94243643382604051610c479291906130a8565b60405180910390a15050565b7331429d1856ad1377a8a0079410b297e1a9e214c281565b610c73612356565b6000600660009054906101000a900473ffffffffffffffffffffffffffffffffffffffff1673ffffffffffffffffffffffffffffffffffffffff166370a08231306040518263ffffffff1660e01b8152600401610cd09190612b83565b60206040518083038186803b158015610ce857600080fd5b505afa158015610cfc573d6000803e3d6000fd5b505050506040513d601f19601f82011682018060405250810190610d20919061307b565b9050610d91600360009054906101000a900473ffffffffffffffffffffffffffffffffffffffff1682600660009054906101000a900473ffffffffffffffffffffffffffffffffffffffff1673ffffffffffffffffffffffffffffffffffffffff1661245a9092919063ffffffff16565b600360009054906101000a900473ffffffffffffffffffffffffffffffffffffffff1673ffffffffffffffffffffffffffffffffffffffff16633edd11283083856040518463ffffffff1660e01b8152600401610df0939291906130d1565b600060405180830381600087803b158015610e0a57600080fd5b505af1158015610e1e573d6000803e3d6000fd5b505050507fc16de066392da7e40ceccb739c331fc48a2e76bf147449613c48023d960eec323382604051610e539291906130a8565b60405180910390a15050565b610e67612356565b600560009054906101000a900473ffffffffffffffffffffffffffffffffffffffff1673ffffffffffffffffffffffffffffffffffffffff1663e6f1daf26040518163ffffffff1660e01b8152600401600060405180830381600087803b158015610ed157600080fd5b505af1158015610ee5573d6000803e3d6000fd5b50505050565b600c6020528060005260406000206000915090505481565b610f0b612356565b610f15600061257b565b565b60098181548110610f2757600080fd5b906000526020600020016000915054906101000a900473ffffffffffffffffffffffffffffffffffffffff1681565b60008060009054906101000a900473ffffffffffffffffffffffffffffffffffffffff16905090565b6000806008541461110f57600854670de0b6b3a7640000600660009054906101000a900473ffffffffffffffffffffffffffffffffffffffff1673ffffffffffffffffffffffffffffffffffffffff166370a08231306040518263ffffffff1660e01b8152600401610ff19190612b83565b60206040518083038186803b15801561100957600080fd5b505afa15801561101d573d6000803e3d6000fd5b505050506040513d601f19601f82011682018060405250810190611041919061307b565b600560009054906101000a900473ffffffffffffffffffffffffffffffffffffffff1673ffffffffffffffffffffffffffffffffffffffff166370a08231306040518263ffffffff1660e01b815260040161109c9190612b83565b60206040518083038186803b1580156110b457600080fd5b505afa1580156110c8573d6000803e3d6000fd5b505050506040513d601f19601f820116820180604052508101906110ec919061307b565b6110f69190612efd565b6111009190612e43565b61110a9190612ecc565b611119565b670de0b6b3a76400005b905090565b600a6020528060005260406000206000915090505481565b61113e612356565b806007819055507f3b3a01f24e8e3bef91ca993c1cd79a3b6f78a26b78a3f0051cf751404dee2832816040516111749190612b27565b60405180910390a150565b73853d955acef822db058eb8505911ed77f175b99e81565b6000600b60003373ffffffffffffffffffffffffffffffffffffffff1673ffffffffffffffffffffffffffffffffffffffff1681526020019081526020016000205414611219576040517f08c379a000000000000000000000000000000000000000000000000000000000815260040161121090613154565b60405180910390fd5b42600a60003373ffffffffffffffffffffffffffffffffffffffff1673ffffffffffffffffffffffffffffffffffffffff16815260200190815260200160002081905550611265610f7f565b600b60003373ffffffffffffffffffffffffffffffffffffffff1673ffffffffffffffffffffffffffffffffffffffff168152602001908152602001600020819055506112f7333083600660009054906101000a900473ffffffffffffffffffffffffffffffffffffffff1673ffffffffffffffffffffffffffffffffffffffff1661263f909392919063ffffffff16565b6112ff610f7f565b670de0b6b3a7640000826113139190612e43565b61131d9190612ecc565b600c60003373ffffffffffffffffffffffffffffffffffffffff1673ffffffffffffffffffffffffffffffffffffffff168152602001908152602001600020600082825461136b9190612efd565b9250508190555061137a610f7f565b670de0b6b3a76400008261138e9190612e43565b6113989190612ecc565b600860008282546113a99190612efd565b925050819055507fe1fffcc4923d04b559f4d29a8bfc6cda04eb5b0d3c460751c2402c5c5cc9109c33826040516113e19291906130a8565b60405180910390a150565b7373968b9a57c6e53d41345fd57a6e6ae27d6cdb2f81565b61140c612356565b6009805490508282905014611456576040517f08c379a000000000000000000000000000000000000000000000000000000000815260040161144d906131e6565b60405180910390fd5b60098054905086869050146114a0576040517f08c379a0000000000000000000000000000000000000000000000000000000008152600401611497906131e6565b60405180910390fd5b60098054905084849050146114ea576040517f08c379a00000000000000000000000000000000000000000000000000000000081526004016114e1906131e6565b60405180910390fd5b60005b600980549050811015611ac8576000600982815481106115105761150f613206565b5b9060005260206000200160009054906101000a900473ffffffffffffffffffffffffffffffffffffffff1673ffffffffffffffffffffffffffffffffffffffff166370a08231306040518263ffffffff1660e01b81526004016115739190612b83565b60206040518083038186803b15801561158b57600080fd5b505afa15801561159f573d6000803e3d6000fd5b505050506040513d601f19601f820116820180604052508101906115c3919061307b565b14156115ce57611ab5565b61171f600160009054906101000a900473ffffffffffffffffffffffffffffffffffffffff166009838154811061160857611607613206565b5b9060005260206000200160009054906101000a900473ffffffffffffffffffffffffffffffffffffffff1673ffffffffffffffffffffffffffffffffffffffff166370a08231306040518263ffffffff1660e01b815260040161166b9190612b83565b60206040518083038186803b15801561168357600080fd5b505afa158015611697573d6000803e3d6000fd5b505050506040513d601f19601f820116820180604052508101906116bb919061307b565b600984815481106116cf576116ce613206565b5b9060005260206000200160009054906101000a900473ffffffffffffffffffffffffffffffffffffffff1673ffffffffffffffffffffffffffffffffffffffff1661245a9092919063ffffffff16565b60006040518061010001604052806009848154811061174157611740613206565b5b9060005260206000200160009054906101000a900473ffffffffffffffffffffffffffffffffffffffff1673ffffffffffffffffffffffffffffffffffffffff16815260200173853d955acef822db058eb8505911ed77f175b99e73ffffffffffffffffffffffffffffffffffffffff1681526020018a73ffffffffffffffffffffffffffffffffffffffff1681526020013073ffffffffffffffffffffffffffffffffffffffff1681526020016009848154811061180357611802613206565b5b9060005260206000200160009054906101000a900473ffffffffffffffffffffffffffffffffffffffff1673ffffffffffffffffffffffffffffffffffffffff166370a08231306040518263ffffffff1660e01b81526004016118669190612b83565b60206040518083038186803b15801561187e57600080fd5b505afa158015611892573d6000803e3d6000fd5b505050506040513d601f19601f820116820180604052508101906118b6919061307b565b81526020018989858181106118ce576118cd613206565b5b905060200201358152602001600481526020018787858181106118f4576118f3613206565b5b90506020028101906119069190613244565b8080601f016020809104026020016040519081016040528093929190818152602001838380828437600081840152601f19601f820116905080830192505050505050508152509050600160009054906101000a900473ffffffffffffffffffffffffffffffffffffffff1673ffffffffffffffffffffffffffffffffffffffff16637c0252008a838787878181106119a1576119a0613206565b5b90506020028101906119b39190613244565b6040518563ffffffff1660e01b81526004016119d294939291906134ed565b606060405180830381600087803b1580156119ec57600080fd5b505af1158015611a00573d6000803e3d6000fd5b505050506040513d601f19601f82011682018060405250810190611a249190613534565b505050611ab3600160009054906101000a900473ffffffffffffffffffffffffffffffffffffffff16600060098581548110611a6357611a62613206565b5b9060005260206000200160009054906101000a900473ffffffffffffffffffffffffffffffffffffffff1673ffffffffffffffffffffffffffffffffffffffff166126c89092919063ffffffff16565b505b8080611ac090613587565b9150506114ed565b50611bc6600260009054906101000a900473ffffffffffffffffffffffffffffffffffffffff1673853d955acef822db058eb8505911ed77f175b99e73ffffffffffffffffffffffffffffffffffffffff166370a08231306040518263ffffffff1660e01b8152600401611b3c9190612b83565b60206040518083038186803b158015611b5457600080fd5b505afa158015611b68573d6000803e3d6000fd5b505050506040513d601f19601f82011682018060405250810190611b8c919061307b565b73853d955acef822db058eb8505911ed77f175b99e73ffffffffffffffffffffffffffffffffffffffff1661245a9092919063ffffffff16565b600260009054906101000a900473ffffffffffffffffffffffffffffffffffffffff1673ffffffffffffffffffffffffffffffffffffffff16632e2d298473853d955acef822db058eb8505911ed77f175b99e73ffffffffffffffffffffffffffffffffffffffff166370a08231306040518263ffffffff1660e01b8152600401611c519190612b83565b60206040518083038186803b158015611c6957600080fd5b505afa158015611c7d573d6000803e3d6000fd5b505050506040513d601f19601f82011682018060405250810190611ca1919061307b565b30736b4ee7352406707003bc6f6b96595fd35925af486040518463ffffffff1660e01b8152600401611cd5939291906135f1565b600060405180830381600087803b158015611cef57600080fd5b505af1158015611d03573d6000803e3d6000fd5b505050507f4d12401e4d6cc642454aedd27a02290e422f28dd21e629634f1beffacb705bf860405160405180910390a150505050505050565b600b6020528060005260406000206000915090505481565b6000600c60003373ffffffffffffffffffffffffffffffffffffffff1673ffffffffffffffffffffffffffffffffffffffff1681526020019081526020016000205411611dd6576040517f08c379a0000000000000000000000000000000000000000000000000000000008152600401611dcd90612fda565b60405180910390fd5b600660149054906101000a900460ff16611e25576040517f08c379a0000000000000000000000000000000000000000000000000000000008152600401611e1c90613674565b60405180910390fd5b6000670de0b6b3a7640000611e38610f7f565b600c60003373ffffffffffffffffffffffffffffffffffffffff1673ffffffffffffffffffffffffffffffffffffffff16815260200190815260200160002054611e829190612e43565b611e8c9190612ecc565b9050600c60003373ffffffffffffffffffffffffffffffffffffffff1673ffffffffffffffffffffffffffffffffffffffff168152602001908152602001600020600090558060086000828254611ee39190612e0f565b92505081905550600b60003373ffffffffffffffffffffffffffffffffffffffff1673ffffffffffffffffffffffffffffffffffffffff16815260200190815260200160002060009055600a60003373ffffffffffffffffffffffffffffffffffffffff1673ffffffffffffffffffffffffffffffffffffffff16815260200190815260200160002060009055600660009054906101000a900473ffffffffffffffffffffffffffffffffffffffff1673ffffffffffffffffffffffffffffffffffffffff166370a08231306040518263ffffffff1660e01b8152600401611fcb9190612b83565b60206040518083038186803b158015611fe357600080fd5b505afa158015611ff7573d6000803e3d6000fd5b505050506040513d601f19601f8201168201806040525081019061201b919061307b565b81111561216557600360009054906101000a900473ffffffffffffffffffffffffffffffffffffffff1673ffffffffffffffffffffffffffffffffffffffff16632e1a7d4d600660009054906101000a900473ffffffffffffffffffffffffffffffffffffffff1673ffffffffffffffffffffffffffffffffffffffff166370a08231306040518263ffffffff1660e01b81526004016120bb9190612b83565b60206040518083038186803b1580156120d357600080fd5b505afa1580156120e7573d6000803e3d6000fd5b505050506040513d601f19601f8201168201806040525081019061210b919061307b565b836121169190612e0f565b6040518263ffffffff1660e01b81526004016121329190612b27565b600060405180830381600087803b15801561214c57600080fd5b505af1158015612160573d6000803e3d6000fd5b505050505b6007546121706104c5565b106122435760006121dd670de0b6b3a7640000600b60003373ffffffffffffffffffffffffffffffffffffffff1673ffffffffffffffffffffffffffffffffffffffff16815260200190815260200160002054846121ce9190612e43565b6121d89190612ecc565b61042b565b905061223e6121ea610f56565b82846121f69190612e0f565b600660009054906101000a900473ffffffffffffffffffffffffffffffffffffffff1673ffffffffffffffffffffffffffffffffffffffff166123d49092919063ffffffff16565b809150505b6122903382600660009054906101000a900473ffffffffffffffffffffffffffffffffffffffff1673ffffffffffffffffffffffffffffffffffffffff166123d49092919063ffffffff16565b7f5fafa99d0643513820be26656b45130b01e1c03062e1266bf36f88cbd3bd969533826040516122c19291906130a8565b60405180910390a150565b60075481565b6122da612356565b600073ffffffffffffffffffffffffffffffffffffffff168173ffffffffffffffffffffffffffffffffffffffff16141561234a576040517f08c379a000000000000000000000000000000000000000000000000000000000815260040161234190613706565b60405180910390fd5b6123538161257b565b50565b61235e612826565b73ffffffffffffffffffffffffffffffffffffffff1661237c610f56565b73ffffffffffffffffffffffffffffffffffffffff16146123d2576040517f08c379a00000000000000000000000000000000000000000000000000000000081526004016123c990613772565b60405180910390fd5b565b6124558363a9059cbb60e01b84846040516024016123f39291906130a8565b604051602081830303815290604052907bffffffffffffffffffffffffffffffffffffffffffffffffffffffff19166020820180517bffffffffffffffffffffffffffffffffffffffffffffffffffffffff838183161783525050505061282e565b505050565b6000818473ffffffffffffffffffffffffffffffffffffffff1663dd62ed3e30866040518363ffffffff1660e01b8152600401612498929190613792565b60206040518083038186803b1580156124b057600080fd5b505afa1580156124c4573d6000803e3d6000fd5b505050506040513d601f19601f820116820180604052508101906124e8919061307b565b6124f29190612efd565b90506125758463095ea7b360e01b85846040516024016125139291906130a8565b604051602081830303815290604052907bffffffffffffffffffffffffffffffffffffffffffffffffffffffff19166020820180517bffffffffffffffffffffffffffffffffffffffffffffffffffffffff838183161783525050505061282e565b50505050565b60008060009054906101000a900473ffffffffffffffffffffffffffffffffffffffff169050816000806101000a81548173ffffffffffffffffffffffffffffffffffffffff021916908373ffffffffffffffffffffffffffffffffffffffff1602179055508173ffffffffffffffffffffffffffffffffffffffff168173ffffffffffffffffffffffffffffffffffffffff167f8be0079c531659141344cd1fd0a4f28419497f9722a3daafe3b4186f6b6457e060405160405180910390a35050565b6126c2846323b872dd60e01b858585604051602401612660939291906137bb565b604051602081830303815290604052907bffffffffffffffffffffffffffffffffffffffffffffffffffffffff19166020820180517bffffffffffffffffffffffffffffffffffffffffffffffffffffffff838183161783525050505061282e565b50505050565b6000811480612761575060008373ffffffffffffffffffffffffffffffffffffffff1663dd62ed3e30856040518363ffffffff1660e01b815260040161270f929190613792565b60206040518083038186803b15801561272757600080fd5b505afa15801561273b573d6000803e3d6000fd5b505050506040513d601f19601f8201168201806040525081019061275f919061307b565b145b6127a0576040517f08c379a000000000000000000000000000000000000000000000000000000000815260040161279790613864565b60405180910390fd5b6128218363095ea7b360e01b84846040516024016127bf9291906130a8565b604051602081830303815290604052907bffffffffffffffffffffffffffffffffffffffffffffffffffffffff19166020820180517bffffffffffffffffffffffffffffffffffffffffffffffffffffffff838183161783525050505061282e565b505050565b600033905090565b6000612890826040518060400160405280602081526020017f5361666545524332303a206c6f772d6c6576656c2063616c6c206661696c65648152508573ffffffffffffffffffffffffffffffffffffffff166128f59092919063ffffffff16565b90506000815111156128f057808060200190518101906128b09190613899565b6128ef576040517f08c379a00000000000000000000000000000000000000000000000000000000081526004016128e690613938565b60405180910390fd5b5b505050565b6060612904848460008561290d565b90509392505050565b606082471015612952576040517f08c379a0000000000000000000000000000000000000000000000000000000008152600401612949906139ca565b60405180910390fd5b61295b85612a21565b61299a576040517f08c379a000000000000000000000000000000000000000000000000000000000815260040161299190613a36565b60405180910390fd5b6000808673ffffffffffffffffffffffffffffffffffffffff1685876040516129c39190613a92565b60006040518083038185875af1925050503d8060008114612a00576040519150601f19603f3d011682016040523d82523d6000602084013e612a05565b606091505b5091509150612a15828286612a44565b92505050949350505050565b6000808273ffffffffffffffffffffffffffffffffffffffff163b119050919050565b60608315612a5457829050612aa4565b600083511115612a675782518084602001fd5b816040517f08c379a0000000000000000000000000000000000000000000000000000000008152600401612a9b9190613aed565b60405180910390fd5b9392505050565b600080fd5b600080fd5b6000819050919050565b612ac881612ab5565b8114612ad357600080fd5b50565b600081359050612ae581612abf565b92915050565b600060208284031215612b0157612b00612aab565b5b6000612b0f84828501612ad6565b91505092915050565b612b2181612ab5565b82525050565b6000602082019050612b3c6000830184612b18565b92915050565b600073ffffffffffffffffffffffffffffffffffffffff82169050919050565b6000612b6d82612b42565b9050919050565b612b7d81612b62565b82525050565b6000602082019050612b986000830184612b74565b92915050565b60008115159050919050565b612bb381612b9e565b8114612bbe57600080fd5b50565b600081359050612bd081612baa565b92915050565b600060208284031215612bec57612beb612aab565b5b6000612bfa84828501612bc1565b91505092915050565b612c0c81612b62565b8114612c1757600080fd5b50565b600081359050612c2981612c03565b92915050565b600060208284031215612c4557612c44612aab565b5b6000612c5384828501612c1a565b91505092915050565b600080fd5b600080fd5b600080fd5b60008083601f840112612c8157612c80612c5c565b5b8235905067ffffffffffffffff811115612c9e57612c9d612c61565b5b602083019150836020820283011115612cba57612cb9612c66565b5b9250929050565b60008083601f840112612cd757612cd6612c5c565b5b8235905067ffffffffffffffff811115612cf457612cf3612c61565b5b602083019150836020820283011115612d1057612d0f612c66565b5b9250929050565b60008060008060008060006080888a031215612d3657612d35612aab565b5b6000612d448a828b01612c1a565b975050602088013567ffffffffffffffff811115612d6557612d64612ab0565b5b612d718a828b01612c6b565b9650965050604088013567ffffffffffffffff811115612d9457612d93612ab0565b5b612da08a828b01612cc1565b9450945050606088013567ffffffffffffffff811115612dc357612dc2612ab0565b5b612dcf8a828b01612cc1565b925092505092959891949750929550565b7f4e487b7100000000000000000000000000000000000000000000000000000000600052601160045260246000fd5b6000612e1a82612ab5565b9150612e2583612ab5565b925082821015612e3857612e37612de0565b5b828203905092915050565b6000612e4e82612ab5565b9150612e5983612ab5565b9250817fffffffffffffffffffffffffffffffffffffffffffffffffffffffffffffffff0483118215151615612e9257612e91612de0565b5b828202905092915050565b7f4e487b7100000000000000000000000000000000000000000000000000000000600052601260045260246000fd5b6000612ed782612ab5565b9150612ee283612ab5565b925082612ef257612ef1612e9d565b5b828204905092915050565b6000612f0882612ab5565b9150612f1383612ab5565b9250827fffffffffffffffffffffffffffffffffffffffffffffffffffffffffffffffff03821115612f4857612f47612de0565b5b828201905092915050565b612f5c81612b9e565b82525050565b6000602082019050612f776000830184612f53565b92915050565b600082825260208201905092915050565b7f5b77697468647261775d20496e73756666696369656e742062616c616e636521600082015250565b6000612fc4602083612f7d565b9150612fcf82612f8e565b602082019050919050565b60006020820190508181036000830152612ff381612fb7565b9050919050565b7f5b77697468647261775d204561726c7920776974686472617721000000000000600082015250565b6000613030601a83612f7d565b915061303b82612ffa565b602082019050919050565b6000602082019050818103600083015261305f81613023565b9050919050565b60008151905061307581612abf565b92915050565b60006020828403121561309157613090612aab565b5b600061309f84828501613066565b91505092915050565b60006040820190506130bd6000830185612b74565b6130ca6020830184612b18565b9392505050565b60006060820190506130e66000830186612b74565b6130f36020830185612b18565b6131006040830184612f53565b949350505050565b7f5b6465706f7369745d20416c7265616479206c6f636b65642100000000000000600082015250565b600061313e601983612f7d565b915061314982613108565b602082019050919050565b6000602082019050818103600083015261316d81613131565b9050919050565b7f5b686172766573745d20496e617070726f707269617465206461746120616d6f60008201527f756e742e00000000000000000000000000000000000000000000000000000000602082015250565b60006131d0602483612f7d565b91506131db82613174565b604082019050919050565b600060208201905081810360008301526131ff816131c3565b9050919050565b7f4e487b7100000000000000000000000000000000000000000000000000000000600052603260045260246000fd5b600080fd5b600080fd5b600080fd5b6000808335600160200384360303811261326157613260613235565b5b80840192508235915067ffffffffffffffff8211156132835761328261323a565b5b60208301925060018202360383131561329f5761329e61323f565b5b509250929050565b6000819050919050565b60006132cc6132c76132c284612b42565b6132a7565b612b42565b9050919050565b60006132de826132b1565b9050919050565b60006132f0826132d3565b9050919050565b613300816132e5565b82525050565b6000613311826132d3565b9050919050565b61332181613306565b82525050565b600061333282612b42565b9050919050565b61334281613327565b82525050565b61335181612ab5565b82525050565b600081519050919050565b600082825260208201905092915050565b60005b83811015613391578082015181840152602081019050613376565b838111156133a0576000848401525b50505050565b6000601f19601f8301169050919050565b60006133c282613357565b6133cc8185613362565b93506133dc818560208601613373565b6133e5816133a6565b840191505092915050565b6000610100830160008301516134096000860182613318565b50602083015161341c6020860182613318565b50604083015161342f6040860182613339565b5060608301516134426060860182613339565b5060808301516134556080860182613348565b5060a083015161346860a0860182613348565b5060c083015161347b60c0860182613348565b5060e083015184820360e086015261349382826133b7565b9150508091505092915050565b600082825260208201905092915050565b82818337600083830152505050565b60006134cc83856134a0565b93506134d98385846134b1565b6134e2836133a6565b840190509392505050565b600060608201905061350260008301876132f7565b818103602083015261351481866133f0565b905081810360408301526135298184866134c0565b905095945050505050565b60008060006060848603121561354d5761354c612aab565b5b600061355b86828701613066565b935050602061356c86828701613066565b925050604061357d86828701613066565b9150509250925092565b600061359282612ab5565b91507fffffffffffffffffffffffffffffffffffffffffffffffffffffffffffffffff8214156135c5576135c4612de0565b5b600182019050919050565b60006135db826132d3565b9050919050565b6135eb816135d0565b82525050565b60006060820190506136066000830186612b18565b6136136020830185612b74565b61362060408301846135e2565b949350505050565b7f5b77697468647261775d204e6f7420456d657267656e63790000000000000000600082015250565b600061365e601883612f7d565b915061366982613628565b602082019050919050565b6000602082019050818103600083015261368d81613651565b9050919050565b7f4f776e61626c653a206e6577206f776e657220697320746865207a65726f206160008201527f6464726573730000000000000000000000000000000000000000000000000000602082015250565b60006136f0602683612f7d565b91506136fb82613694565b604082019050919050565b6000602082019050818103600083015261371f816136e3565b9050919050565b7f4f776e61626c653a2063616c6c6572206973206e6f7420746865206f776e6572600082015250565b600061375c602083612f7d565b915061376782613726565b602082019050919050565b6000602082019050818103600083015261378b8161374f565b9050919050565b60006040820190506137a76000830185612b74565b6137b46020830184612b74565b9392505050565b60006060820190506137d06000830186612b74565b6137dd6020830185612b74565b6137ea6040830184612b18565b949350505050565b7f5361666545524332303a20617070726f76652066726f6d206e6f6e2d7a65726f60008201527f20746f206e6f6e2d7a65726f20616c6c6f77616e636500000000000000000000602082015250565b600061384e603683612f7d565b9150613859826137f2565b604082019050919050565b6000602082019050818103600083015261387d81613841565b9050919050565b60008151905061389381612baa565b92915050565b6000602082840312156138af576138ae612aab565b5b60006138bd84828501613884565b91505092915050565b7f5361666545524332303a204552433230206f7065726174696f6e20646964206e60008201527f6f74207375636365656400000000000000000000000000000000000000000000602082015250565b6000613922602a83612f7d565b915061392d826138c6565b604082019050919050565b6000602082019050818103600083015261395181613915565b9050919050565b7f416464726573733a20696e73756666696369656e742062616c616e636520666f60008201527f722063616c6c0000000000000000000000000000000000000000000000000000602082015250565b60006139b4602683612f7d565b91506139bf82613958565b604082019050919050565b600060208201905081810360008301526139e3816139a7565b9050919050565b7f416464726573733a2063616c6c20746f206e6f6e2d636f6e7472616374000000600082015250565b6000613a20601d83612f7d565b9150613a2b826139ea565b602082019050919050565b60006020820190508181036000830152613a4f81613a13565b9050919050565b600081905092915050565b6000613a6c82613357565b613a768185613a56565b9350613a86818560208601613373565b80840191505092915050565b6000613a9e8284613a61565b915081905092915050565b600081519050919050565b6000613abf82613aa9565b613ac98185612f7d565b9350613ad9818560208601613373565b613ae2816133a6565b840191505092915050565b60006020820190508181036000830152613b078184613ab4565b90509291505056fea26469706673582212205bed7103774570651c91ca7eda89ff88b86adb974a6d10420d7b8cb379d693d564736f6c63430008090033",
  "linkReferences": {},
  "deployedLinkReferences": {}
}