{
  "_format": "hh-sol-artifact-1",
  "contractName": "FixedStrategy",
  "sourceName": "contracts/FixedStrategy.sol",
  "abi": [
    {
      "inputs": [
        {
          "internalType": "address",
          "name": "angleVaultAddr",
          "type": "address"
        },
        {
          "internalType": "address",
          "name": "angleStratAddr",
          "type": "address"
        },
        {
          "internalType": "address",
          "name": "oneInchAddr",
          "type": "address"
        },
        {
          "internalType": "address",
          "name": "angleFrontAddr",
          "type": "address"
        },
        {
          "internalType": "address",
          "name": "gaugeAddr",
          "type": "address"
        },
        {
          "internalType": "address",
          "name": "lockTokenAddr",
          "type": "address"
        }
      ],
      "stateMutability": "nonpayable",
      "type": "constructor"
    },
    {
      "anonymous": false,
      "inputs": [
        {
          "indexed": false,
          "internalType": "address",
          "name": "compounder",
          "type": "address"
        },
        {
          "indexed": false,
          "internalType": "uint256",
          "name": "amount",
          "type": "uint256"
        }
      ],
      "name": "Compounded",
      "type": "event"
    },
    {
      "anonymous": false,
      "inputs": [
        {
          "indexed": false,
          "internalType": "address",
          "name": "locker",
          "type": "address"
        },
        {
          "indexed": false,
          "internalType": "uint256",
          "name": "amount",
          "type": "uint256"
        }
      ],
      "name": "Deposit",
      "type": "event"
    },
    {
      "anonymous": false,
      "inputs": [
        {
          "indexed": false,
          "internalType": "bool",
          "name": "newState",
          "type": "bool"
        }
      ],
      "name": "EmergencyChanged",
      "type": "event"
    },
    {
      "anonymous": false,
      "inputs": [
        {
          "indexed": false,
          "internalType": "address",
          "name": "locker",
          "type": "address"
        },
        {
          "indexed": false,
          "internalType": "uint256",
          "name": "amount",
          "type": "uint256"
        }
      ],
      "name": "EmergencyWithdraw",
      "type": "event"
    },
    {
      "anonymous": false,
      "inputs": [],
      "name": "Harvested",
      "type": "event"
    },
    {
      "anonymous": false,
      "inputs": [
        {
          "indexed": false,
          "internalType": "uint256",
          "name": "newYield",
          "type": "uint256"
        }
      ],
      "name": "MaxYieldChanged",
      "type": "event"
    },
    {
      "anonymous": false,
      "inputs": [
        {
          "indexed": true,
          "internalType": "address",
          "name": "previousOwner",
          "type": "address"
        },
        {
          "indexed": true,
          "internalType": "address",
          "name": "newOwner",
          "type": "address"
        }
      ],
      "name": "OwnershipTransferred",
      "type": "event"
    },
    {
      "anonymous": false,
      "inputs": [
        {
          "indexed": false,
          "internalType": "address",
          "name": "locker",
          "type": "address"
        },
        {
          "indexed": false,
          "internalType": "uint256",
          "name": "amount",
          "type": "uint256"
        }
      ],
      "name": "Withdraw",
      "type": "event"
    },
    {
      "stateMutability": "payable",
      "type": "fallback"
    },
    {
      "inputs": [],
      "name": "ANGL",
      "outputs": [
        {
          "internalType": "address",
          "name": "",
          "type": "address"
        }
      ],
      "stateMutability": "view",
      "type": "function"
    },
    {
      "inputs": [],
      "name": "ANGLE_POOL_MANAGER",
      "outputs": [
        {
          "internalType": "address",
          "name": "",
          "type": "address"
        }
      ],
      "stateMutability": "view",
      "type": "function"
    },
    {
      "inputs": [],
      "name": "FRAX",
      "outputs": [
        {
          "internalType": "address",
          "name": "",
          "type": "address"
        }
      ],
      "stateMutability": "view",
      "type": "function"
    },
    {
      "inputs": [],
      "name": "SDT",
      "outputs": [
        {
          "internalType": "address",
          "name": "",
          "type": "address"
        }
      ],
      "stateMutability": "view",
      "type": "function"
    },
    {
      "inputs": [],
      "name": "claim",
      "outputs": [],
      "stateMutability": "nonpayable",
      "type": "function"
    },
    {
      "inputs": [
        {
          "internalType": "bool",
          "name": "isEarn",
          "type": "bool"
        }
      ],
      "name": "comp",
      "outputs": [],
      "stateMutability": "nonpayable",
      "type": "function"
    },
    {
      "inputs": [],
      "name": "currentRatioForUser",
      "outputs": [
        {
          "internalType": "uint256",
          "name": "",
          "type": "uint256"
        }
      ],
      "stateMutability": "view",
      "type": "function"
    },
    {
      "inputs": [
        {
          "internalType": "uint256",
          "name": "amount",
          "type": "uint256"
        }
      ],
      "name": "deposit",
      "outputs": [],
      "stateMutability": "nonpayable",
      "type": "function"
    },
    {
      "inputs": [],
      "name": "emergency",
      "outputs": [
        {
          "internalType": "bool",
          "name": "",
          "type": "bool"
        }
      ],
      "stateMutability": "view",
      "type": "function"
    },
    {
      "inputs": [],
      "name": "emergencyWithdraw",
      "outputs": [],
      "stateMutability": "nonpayable",
      "type": "function"
    },
    {
      "inputs": [],
      "name": "getBalanceInGauge",
      "outputs": [
        {
          "internalType": "uint256",
          "name": "",
          "type": "uint256"
        }
      ],
      "stateMutability": "view",
      "type": "function"
    },
    {
      "inputs": [
        {
          "internalType": "address",
          "name": "executor",
          "type": "address"
        },
        {
          "internalType": "uint256[]",
          "name": "minReturnAmounts",
          "type": "uint256[]"
        },
        {
          "internalType": "bytes[]",
          "name": "permits",
          "type": "bytes[]"
        },
        {
          "internalType": "bytes[]",
          "name": "datas",
          "type": "bytes[]"
        }
      ],
      "name": "harvest",
      "outputs": [],
      "stateMutability": "nonpayable",
      "type": "function"
    },
    {
      "inputs": [],
      "name": "harvestStake",
      "outputs": [],
      "stateMutability": "nonpayable",
      "type": "function"
    },
    {
      "inputs": [
        {
          "internalType": "address",
          "name": "",
          "type": "address"
        }
      ],
      "name": "initialPPS",
      "outputs": [
        {
          "internalType": "uint256",
          "name": "",
          "type": "uint256"
        }
      ],
      "stateMutability": "view",
      "type": "function"
    },
    {
      "inputs": [
        {
          "internalType": "uint256",
          "name": "shares",
          "type": "uint256"
        }
      ],
      "name": "maxEarningToDate",
      "outputs": [
        {
          "internalType": "uint256",
          "name": "",
          "type": "uint256"
        }
      ],
      "stateMutability": "view",
      "type": "function"
    },
    {
      "inputs": [],
      "name": "maxYield",
      "outputs": [
        {
          "internalType": "uint256",
          "name": "",
          "type": "uint256"
        }
      ],
      "stateMutability": "view",
      "type": "function"
    },
    {
      "inputs": [],
      "name": "owner",
      "outputs": [
        {
          "internalType": "address",
          "name": "",
          "type": "address"
        }
      ],
      "stateMutability": "view",
      "type": "function"
    },
    {
      "inputs": [],
      "name": "pricePerShare",
      "outputs": [
        {
          "internalType": "uint256",
          "name": "",
          "type": "uint256"
        }
      ],
      "stateMutability": "view",
      "type": "function"
    },
    {
      "inputs": [],
      "name": "renounceOwnership",
      "outputs": [],
      "stateMutability": "nonpayable",
      "type": "function"
    },
    {
      "inputs": [
        {
          "internalType": "uint256",
          "name": "",
          "type": "uint256"
        }
      ],
      "name": "rewardTokens",
      "outputs": [
        {
          "internalType": "address",
          "name": "",
          "type": "address"
        }
      ],
      "stateMutability": "view",
      "type": "function"
    },
    {
      "inputs": [],
      "name": "rewardTokensLength",
      "outputs": [
        {
          "internalType": "uint256",
          "name": "",
          "type": "uint256"
        }
      ],
      "stateMutability": "view",
      "type": "function"
    },
    {
      "inputs": [
        {
          "internalType": "uint256",
          "name": "newYield",
          "type": "uint256"
        }
      ],
      "name": "setMaxYield",
      "outputs": [],
      "stateMutability": "nonpayable",
      "type": "function"
    },
    {
      "inputs": [
        {
          "internalType": "address",
          "name": "",
          "type": "address"
        }
      ],
      "name": "stakeTimestamps",
      "outputs": [
        {
          "internalType": "uint256",
          "name": "",
          "type": "uint256"
        }
      ],
      "stateMutability": "view",
      "type": "function"
    },
    {
      "inputs": [],
      "name": "toggleEmergency",
      "outputs": [],
      "stateMutability": "nonpayable",
      "type": "function"
    },
    {
      "inputs": [],
      "name": "totalSupply",
      "outputs": [
        {
          "internalType": "uint256",
          "name": "",
          "type": "uint256"
        }
      ],
      "stateMutability": "view",
      "type": "function"
    },
    {
      "inputs": [
        {
          "internalType": "address",
          "name": "newOwner",
          "type": "address"
        }
      ],
      "name": "transferOwnership",
      "outputs": [],
      "stateMutability": "nonpayable",
      "type": "function"
    },
    {
      "inputs": [
        {
          "internalType": "address",
          "name": "",
          "type": "address"
        }
      ],
      "name": "userToShare",
      "outputs": [
        {
          "internalType": "uint256",
          "name": "",
          "type": "uint256"
        }
      ],
      "stateMutability": "view",
      "type": "function"
    },
    {
      "inputs": [
        {
          "internalType": "uint256",
          "name": "shares",
          "type": "uint256"
        }
      ],
      "name": "withdraw",
      "outputs": [],
      "stateMutability": "nonpayable",
      "type": "function"
    },
    {
      "stateMutability": "payable",
      "type": "receive"
    }
  ],
  "bytecode": "0x60806040523480156200001157600080fd5b506040516200451338038062004513833981810160405281019062000037919062000415565b620000576200004b620002df60201b60201c565b620002e760201b60201c565b83600160006101000a81548173ffffffffffffffffffffffffffffffffffffffff021916908373ffffffffffffffffffffffffffffffffffffffff16021790555085600260006101000a81548173ffffffffffffffffffffffffffffffffffffffff021916908373ffffffffffffffffffffffffffffffffffffffff16021790555084600360006101000a81548173ffffffffffffffffffffffffffffffffffffffff021916908373ffffffffffffffffffffffffffffffffffffffff16021790555082600460006101000a81548173ffffffffffffffffffffffffffffffffffffffff021916908373ffffffffffffffffffffffffffffffffffffffff16021790555081600560006101000a81548173ffffffffffffffffffffffffffffffffffffffff021916908373ffffffffffffffffffffffffffffffffffffffff16021790555080600660006101000a81548173ffffffffffffffffffffffffffffffffffffffff021916908373ffffffffffffffffffffffffffffffffffffffff1602179055506050600781905550600c7331429d1856ad1377a8a0079410b297e1a9e214c29080600181540180825580915050600190039060005260206000200160009091909190916101000a81548173ffffffffffffffffffffffffffffffffffffffff021916908373ffffffffffffffffffffffffffffffffffffffff160217905550600c7373968b9a57c6e53d41345fd57a6e6ae27d6cdb2f9080600181540180825580915050600190039060005260206000200160009091909190916101000a81548173ffffffffffffffffffffffffffffffffffffffff021916908373ffffffffffffffffffffffffffffffffffffffff160217905550505050505050620004b1565b600033905090565b60008060009054906101000a900473ffffffffffffffffffffffffffffffffffffffff169050816000806101000a81548173ffffffffffffffffffffffffffffffffffffffff021916908373ffffffffffffffffffffffffffffffffffffffff1602179055508173ffffffffffffffffffffffffffffffffffffffff168173ffffffffffffffffffffffffffffffffffffffff167f8be0079c531659141344cd1fd0a4f28419497f9722a3daafe3b4186f6b6457e060405160405180910390a35050565b600080fd5b600073ffffffffffffffffffffffffffffffffffffffff82169050919050565b6000620003dd82620003b0565b9050919050565b620003ef81620003d0565b8114620003fb57600080fd5b50565b6000815190506200040f81620003e4565b92915050565b60008060008060008060c08789031215620004355762000434620003ab565b5b60006200044589828a01620003fe565b96505060206200045889828a01620003fe565b95505060406200046b89828a01620003fe565b94505060606200047e89828a01620003fe565b93505060806200049189828a01620003fe565b92505060a0620004a489828a01620003fe565b9150509295509295509295565b61405280620004c16000396000f3fe6080604052600436106101bb5760003560e01c80638da5cb5b116100ec578063bf199e621161008a578063d64dcde111610064578063d64dcde1146105c0578063db2e21bc146105fd578063e165443314610614578063f2fde38b1461063f576101c5565b8063bf199e6214610541578063c47b45731461056c578063caa6fea414610595576101c5565b8063a94072b6116100c6578063a94072b614610499578063b0e4556f146104c2578063b6b55f25146104ed578063ba32c61914610516576101c5565b80638da5cb5b1461040657806399530b061461043157806399f853a51461045c576101c5565b80632e1a7d4d116101595780634e71d92d116101335780634e71d92d1461035e5780636d8dea8714610375578063715018a6146103b25780637bb7bed1146103c9576101c5565b80632e1a7d4d146102e1578063301234e61461030a578063441822ee14610335576101c5565b8063147ec25f11610195578063147ec25f1461024957806317504e801461027457806318160ddd1461029f5780632d1d2744146102ca576101c5565b8063018e8e84146101ca578063027c4279146101f557806310698a4a1461020c576101c5565b366101c557600080fd5b600080fd5b3480156101d657600080fd5b506101df610668565b6040516101ec9190612f65565b60405180910390f35b34801561020157600080fd5b5061020a61071a565b005b34801561021857600080fd5b50610233600480360381019061022e9190612fb6565b6107d3565b6040516102409190612f65565b60405180910390f35b34801561025557600080fd5b5061025e6108ce565b60405161026b9190612f65565b60405180910390f35b34801561028057600080fd5b506102896109ed565b6040516102969190613024565b60405180910390f35b3480156102ab57600080fd5b506102b4610a05565b6040516102c19190612f65565b60405180910390f35b3480156102d657600080fd5b506102df610a0b565b005b3480156102ed57600080fd5b5061030860048036038101906103039190612fb6565b610a85565b005b34801561031657600080fd5b5061031f611050565b60405161032c9190613024565b60405180910390f35b34801561034157600080fd5b5061035c60048036038101906103579190613077565b611068565b005b34801561036a57600080fd5b5061037361125c565b005b34801561038157600080fd5b5061039c600480360381019061039791906130d0565b6112e8565b6040516103a99190612f65565b60405180910390f35b3480156103be57600080fd5b506103c7611300565b005b3480156103d557600080fd5b506103f060048036038101906103eb9190612fb6565b611314565b6040516103fd9190613024565b60405180910390f35b34801561041257600080fd5b5061041b611353565b6040516104289190613024565b60405180910390f35b34801561043d57600080fd5b5061044661137c565b6040516104539190612f65565b60405180910390f35b34801561046857600080fd5b50610483600480360381019061047e91906130d0565b61151b565b6040516104909190612f65565b60405180910390f35b3480156104a557600080fd5b506104c060048036038101906104bb9190612fb6565b611533565b005b3480156104ce57600080fd5b506104d761157c565b6040516104e49190613024565b60405180910390f35b3480156104f957600080fd5b50610514600480360381019061050f9190612fb6565b611594565b005b34801561052257600080fd5b5061052b61188b565b6040516105389190613024565b60405180910390f35b34801561054d57600080fd5b506105566118a3565b6040516105639190612f65565b60405180910390f35b34801561057857600080fd5b50610593600480360381019061058e91906131b8565b6118b0565b005b3480156105a157600080fd5b506105aa6121e8565b6040516105b79190613290565b60405180910390f35b3480156105cc57600080fd5b506105e760048036038101906105e291906130d0565b6121fb565b6040516105f49190612f65565b60405180910390f35b34801561060957600080fd5b50610612612213565b005b34801561062057600080fd5b5061062961276d565b6040516106369190612f65565b60405180910390f35b34801561064b57600080fd5b50610666600480360381019061066191906130d0565b612773565b005b6000600560009054906101000a900473ffffffffffffffffffffffffffffffffffffffff1673ffffffffffffffffffffffffffffffffffffffff166370a08231306040518263ffffffff1660e01b81526004016106c59190613024565b60206040518083038186803b1580156106dd57600080fd5b505afa1580156106f1573d6000803e3d6000fd5b505050506040513d601f19601f8201168201806040525081019061071591906132c0565b905090565b6107226127f7565b600360009054906101000a900473ffffffffffffffffffffffffffffffffffffffff1673ffffffffffffffffffffffffffffffffffffffff16631e83409a600660009054906101000a900473ffffffffffffffffffffffffffffffffffffffff166040518263ffffffff1660e01b815260040161079f9190613024565b600060405180830381600087803b1580156107b957600080fd5b505af11580156107cd573d6000803e3d6000fd5b50505050565b600080670de0b6b3a7640000600a60003373ffffffffffffffffffffffffffffffffffffffff1673ffffffffffffffffffffffffffffffffffffffff168152602001908152602001600020548461082a919061331c565b61083491906133a5565b90506000600960003373ffffffffffffffffffffffffffffffffffffffff1673ffffffffffffffffffffffffffffffffffffffff168152602001908152602001600020544261088391906133d6565b90506103e86301e13380600754838561089c919061331c565b6108a6919061331c565b6108b091906133a5565b6108ba91906133a5565b826108c5919061340a565b92505050919050565b600080600a60003373ffffffffffffffffffffffffffffffffffffffff1673ffffffffffffffffffffffffffffffffffffffff168152602001908152602001600020546103e8600a60003373ffffffffffffffffffffffffffffffffffffffff1673ffffffffffffffffffffffffffffffffffffffff1681526020019081526020016000205461095c61137c565b61096691906133d6565b610970919061331c565b61097a91906133a5565b90506000600960003373ffffffffffffffffffffffffffffffffffffffff1673ffffffffffffffffffffffffffffffffffffffff16815260200190815260200160002054426109c991906133d6565b9050806301e13380836109dc919061331c565b6109e691906133a5565b9250505090565b736b4ee7352406707003bc6f6b96595fd35925af4881565b60085481565b610a136127f7565b600660149054906101000a900460ff1615600660146101000a81548160ff0219169083151502179055507fb7b4acafd2ef8ea4a9b9b341e2cffabb2c5d1de97da9e505b53a164dac9cefe9600660149054906101000a900460ff16604051610a7b9190613290565b60405180910390a1565b600660149054906101000a900460ff1615610ad5576040517f08c379a0000000000000000000000000000000000000000000000000000000008152600401610acc906134bd565b60405180910390fd5b80600b60003373ffffffffffffffffffffffffffffffffffffffff1673ffffffffffffffffffffffffffffffffffffffff168152602001908152602001600020541015610b57576040517f08c379a0000000000000000000000000000000000000000000000000000000008152600401610b4e90613529565b60405180910390fd5b426276a700600960003373ffffffffffffffffffffffffffffffffffffffff1673ffffffffffffffffffffffffffffffffffffffff16815260200190815260200160002054610ba6919061340a565b1115610be7576040517f08c379a0000000000000000000000000000000000000000000000000000000008152600401610bde90613595565b60405180910390fd5b6000670de0b6b3a7640000610bfa61137c565b83610c05919061331c565b610c0f91906133a5565b9050600660009054906101000a900473ffffffffffffffffffffffffffffffffffffffff1673ffffffffffffffffffffffffffffffffffffffff166370a08231306040518263ffffffff1660e01b8152600401610c6c9190613024565b60206040518083038186803b158015610c8457600080fd5b505afa158015610c98573d6000803e3d6000fd5b505050506040513d601f19601f82011682018060405250810190610cbc91906132c0565b811115610e0657600260009054906101000a900473ffffffffffffffffffffffffffffffffffffffff1673ffffffffffffffffffffffffffffffffffffffff16632e1a7d4d600660009054906101000a900473ffffffffffffffffffffffffffffffffffffffff1673ffffffffffffffffffffffffffffffffffffffff166370a08231306040518263ffffffff1660e01b8152600401610d5c9190613024565b60206040518083038186803b158015610d7457600080fd5b505afa158015610d88573d6000803e3d6000fd5b505050506040513d601f19601f82011682018060405250810190610dac91906132c0565b83610db791906133d6565b6040518263ffffffff1660e01b8152600401610dd39190612f65565b600060405180830381600087803b158015610ded57600080fd5b505af1158015610e01573d6000803e3d6000fd5b505050505b600754610e116108ce565b1115610e88576000610e22836107d3565b9050610e83610e2f611353565b8284610e3b91906133d6565b600660009054906101000a900473ffffffffffffffffffffffffffffffffffffffff1673ffffffffffffffffffffffffffffffffffffffff166128759092919063ffffffff16565b809150505b81600b60003373ffffffffffffffffffffffffffffffffffffffff1673ffffffffffffffffffffffffffffffffffffffff1681526020019081526020016000206000828254610ed791906133d6565b925050819055508160086000828254610ef091906133d6565b925050819055506000600b60003373ffffffffffffffffffffffffffffffffffffffff1673ffffffffffffffffffffffffffffffffffffffff168152602001908152602001600020541415610fc657600a60003373ffffffffffffffffffffffffffffffffffffffff1673ffffffffffffffffffffffffffffffffffffffff16815260200190815260200160002060009055600960003373ffffffffffffffffffffffffffffffffffffffff1673ffffffffffffffffffffffffffffffffffffffff168152602001908152602001600020600090555b6110133382600660009054906101000a900473ffffffffffffffffffffffffffffffffffffffff1673ffffffffffffffffffffffffffffffffffffffff166128759092919063ffffffff16565b7f884edad9ce6fa2440d8a54cc123490eb96d2768479d49ff9c7366125a942436433826040516110449291906135b5565b60405180910390a15050565b7331429d1856ad1377a8a0079410b297e1a9e214c281565b6110706127f7565b6000600660009054906101000a900473ffffffffffffffffffffffffffffffffffffffff1673ffffffffffffffffffffffffffffffffffffffff166370a08231306040518263ffffffff1660e01b81526004016110cd9190613024565b60206040518083038186803b1580156110e557600080fd5b505afa1580156110f9573d6000803e3d6000fd5b505050506040513d601f19601f8201168201806040525081019061111d91906132c0565b905061118e600260009054906101000a900473ffffffffffffffffffffffffffffffffffffffff1682600660009054906101000a900473ffffffffffffffffffffffffffffffffffffffff1673ffffffffffffffffffffffffffffffffffffffff166128fb9092919063ffffffff16565b600260009054906101000a900473ffffffffffffffffffffffffffffffffffffffff1673ffffffffffffffffffffffffffffffffffffffff16633edd11283083856040518463ffffffff1660e01b81526004016111ed939291906135de565b600060405180830381600087803b15801561120757600080fd5b505af115801561121b573d6000803e3d6000fd5b505050507fc16de066392da7e40ceccb739c331fc48a2e76bf147449613c48023d960eec3233826040516112509291906135b5565b60405180910390a15050565b6112646127f7565b600560009054906101000a900473ffffffffffffffffffffffffffffffffffffffff1673ffffffffffffffffffffffffffffffffffffffff1663e6f1daf26040518163ffffffff1660e01b8152600401600060405180830381600087803b1580156112ce57600080fd5b505af11580156112e2573d6000803e3d6000fd5b50505050565b600b6020528060005260406000206000915090505481565b6113086127f7565b6113126000612a1c565b565b600c818154811061132457600080fd5b906000526020600020016000915054906101000a900473ffffffffffffffffffffffffffffffffffffffff1681565b60008060009054906101000a900473ffffffffffffffffffffffffffffffffffffffff16905090565b6000806008541461150c57600854670de0b6b3a7640000600660009054906101000a900473ffffffffffffffffffffffffffffffffffffffff1673ffffffffffffffffffffffffffffffffffffffff166370a08231306040518263ffffffff1660e01b81526004016113ee9190613024565b60206040518083038186803b15801561140657600080fd5b505afa15801561141a573d6000803e3d6000fd5b505050506040513d601f19601f8201168201806040525081019061143e91906132c0565b600560009054906101000a900473ffffffffffffffffffffffffffffffffffffffff1673ffffffffffffffffffffffffffffffffffffffff166370a08231306040518263ffffffff1660e01b81526004016114999190613024565b60206040518083038186803b1580156114b157600080fd5b505afa1580156114c5573d6000803e3d6000fd5b505050506040513d601f19601f820116820180604052508101906114e991906132c0565b6114f3919061340a565b6114fd919061331c565b61150791906133a5565b611516565b670de0b6b3a76400005b905090565b60096020528060005260406000206000915090505481565b61153b6127f7565b806007819055507f3b3a01f24e8e3bef91ca993c1cd79a3b6f78a26b78a3f0051cf751404dee2832816040516115719190612f65565b60405180910390a150565b73853d955acef822db058eb8505911ed77f175b99e81565b600660149054906101000a900460ff16156115e4576040517f08c379a00000000000000000000000000000000000000000000000000000000081526004016115db906134bd565b60405180910390fd5b6000600a60003373ffffffffffffffffffffffffffffffffffffffff1673ffffffffffffffffffffffffffffffffffffffff1681526020019081526020016000205414611666576040517f08c379a000000000000000000000000000000000000000000000000000000000815260040161165d90613661565b60405180910390fd5b42600960003373ffffffffffffffffffffffffffffffffffffffff1673ffffffffffffffffffffffffffffffffffffffff168152602001908152602001600020819055506116b261137c565b600a60003373ffffffffffffffffffffffffffffffffffffffff1673ffffffffffffffffffffffffffffffffffffffff16815260200190815260200160002081905550611744333083600660009054906101000a900473ffffffffffffffffffffffffffffffffffffffff1673ffffffffffffffffffffffffffffffffffffffff16612ae0909392919063ffffffff16565b600a60003373ffffffffffffffffffffffffffffffffffffffff1673ffffffffffffffffffffffffffffffffffffffff16815260200190815260200160002054670de0b6b3a764000082611798919061331c565b6117a291906133a5565b600b60003373ffffffffffffffffffffffffffffffffffffffff1673ffffffffffffffffffffffffffffffffffffffff16815260200190815260200160002060008282546117f0919061340a565b92505081905550600b60003373ffffffffffffffffffffffffffffffffffffffff1673ffffffffffffffffffffffffffffffffffffffff1681526020019081526020016000205460086000828254611848919061340a565b925050819055507fe1fffcc4923d04b559f4d29a8bfc6cda04eb5b0d3c460751c2402c5c5cc9109c33826040516118809291906135b5565b60405180910390a150565b7373968b9a57c6e53d41345fd57a6e6ae27d6cdb2f81565b6000600c80549050905090565b6118b86127f7565b600c805490508282905014611902576040517f08c379a00000000000000000000000000000000000000000000000000000000081526004016118f9906136f3565b60405180910390fd5b600c80549050868690501461194c576040517f08c379a0000000000000000000000000000000000000000000000000000000008152600401611943906136f3565b60405180910390fd5b600c805490508484905014611996576040517f08c379a000000000000000000000000000000000000000000000000000000000815260040161198d906136f3565b60405180910390fd5b60005b600c80549050811015611f74576000600c82815481106119bc576119bb613713565b5b9060005260206000200160009054906101000a900473ffffffffffffffffffffffffffffffffffffffff1673ffffffffffffffffffffffffffffffffffffffff166370a08231306040518263ffffffff1660e01b8152600401611a1f9190613024565b60206040518083038186803b158015611a3757600080fd5b505afa158015611a4b573d6000803e3d6000fd5b505050506040513d601f19601f82011682018060405250810190611a6f91906132c0565b1415611a7a57611f61565b611bcb600160009054906101000a900473ffffffffffffffffffffffffffffffffffffffff16600c8381548110611ab457611ab3613713565b5b9060005260206000200160009054906101000a900473ffffffffffffffffffffffffffffffffffffffff1673ffffffffffffffffffffffffffffffffffffffff166370a08231306040518263ffffffff1660e01b8152600401611b179190613024565b60206040518083038186803b158015611b2f57600080fd5b505afa158015611b43573d6000803e3d6000fd5b505050506040513d601f19601f82011682018060405250810190611b6791906132c0565b600c8481548110611b7b57611b7a613713565b5b9060005260206000200160009054906101000a900473ffffffffffffffffffffffffffffffffffffffff1673ffffffffffffffffffffffffffffffffffffffff166128fb9092919063ffffffff16565b6000604051806101000160405280600c8481548110611bed57611bec613713565b5b9060005260206000200160009054906101000a900473ffffffffffffffffffffffffffffffffffffffff1673ffffffffffffffffffffffffffffffffffffffff16815260200173853d955acef822db058eb8505911ed77f175b99e73ffffffffffffffffffffffffffffffffffffffff1681526020018a73ffffffffffffffffffffffffffffffffffffffff1681526020013073ffffffffffffffffffffffffffffffffffffffff168152602001600c8481548110611caf57611cae613713565b5b9060005260206000200160009054906101000a900473ffffffffffffffffffffffffffffffffffffffff1673ffffffffffffffffffffffffffffffffffffffff166370a08231306040518263ffffffff1660e01b8152600401611d129190613024565b60206040518083038186803b158015611d2a57600080fd5b505afa158015611d3e573d6000803e3d6000fd5b505050506040513d601f19601f82011682018060405250810190611d6291906132c0565b8152602001898985818110611d7a57611d79613713565b5b90506020020135815260200160048152602001878785818110611da057611d9f613713565b5b9050602002810190611db29190613751565b8080601f016020809104026020016040519081016040528093929190818152602001838380828437600081840152601f19601f820116905080830192505050505050508152509050600160009054906101000a900473ffffffffffffffffffffffffffffffffffffffff1673ffffffffffffffffffffffffffffffffffffffff16637c0252008a83878787818110611e4d57611e4c613713565b5b9050602002810190611e5f9190613751565b6040518563ffffffff1660e01b8152600401611e7e94939291906139fa565b606060405180830381600087803b158015611e9857600080fd5b505af1158015611eac573d6000803e3d6000fd5b505050506040513d601f19601f82011682018060405250810190611ed09190613a41565b505050611f5f600160009054906101000a900473ffffffffffffffffffffffffffffffffffffffff166000600c8581548110611f0f57611f0e613713565b5b9060005260206000200160009054906101000a900473ffffffffffffffffffffffffffffffffffffffff1673ffffffffffffffffffffffffffffffffffffffff16612b699092919063ffffffff16565b505b8080611f6c90613a94565b915050611999565b50612072600460009054906101000a900473ffffffffffffffffffffffffffffffffffffffff1673853d955acef822db058eb8505911ed77f175b99e73ffffffffffffffffffffffffffffffffffffffff166370a08231306040518263ffffffff1660e01b8152600401611fe89190613024565b60206040518083038186803b15801561200057600080fd5b505afa158015612014573d6000803e3d6000fd5b505050506040513d601f19601f8201168201806040525081019061203891906132c0565b73853d955acef822db058eb8505911ed77f175b99e73ffffffffffffffffffffffffffffffffffffffff166128fb9092919063ffffffff16565b600460009054906101000a900473ffffffffffffffffffffffffffffffffffffffff1673ffffffffffffffffffffffffffffffffffffffff16632e2d298473853d955acef822db058eb8505911ed77f175b99e73ffffffffffffffffffffffffffffffffffffffff166370a08231306040518263ffffffff1660e01b81526004016120fd9190613024565b60206040518083038186803b15801561211557600080fd5b505afa158015612129573d6000803e3d6000fd5b505050506040513d601f19601f8201168201806040525081019061214d91906132c0565b30736b4ee7352406707003bc6f6b96595fd35925af486040518463ffffffff1660e01b815260040161218193929190613afe565b600060405180830381600087803b15801561219b57600080fd5b505af11580156121af573d6000803e3d6000fd5b505050507f4d12401e4d6cc642454aedd27a02290e422f28dd21e629634f1beffacb705bf860405160405180910390a150505050505050565b600660149054906101000a900460ff1681565b600a6020528060005260406000206000915090505481565b6000600b60003373ffffffffffffffffffffffffffffffffffffffff1673ffffffffffffffffffffffffffffffffffffffff1681526020019081526020016000205411612295576040517f08c379a000000000000000000000000000000000000000000000000000000000815260040161228c90613529565b60405180910390fd5b600660149054906101000a900460ff166122e4576040517f08c379a00000000000000000000000000000000000000000000000000000000081526004016122db90613b81565b60405180910390fd5b6000670de0b6b3a76400006122f761137c565b600b60003373ffffffffffffffffffffffffffffffffffffffff1673ffffffffffffffffffffffffffffffffffffffff16815260200190815260200160002054612341919061331c565b61234b91906133a5565b9050600660009054906101000a900473ffffffffffffffffffffffffffffffffffffffff1673ffffffffffffffffffffffffffffffffffffffff166370a08231306040518263ffffffff1660e01b81526004016123a89190613024565b60206040518083038186803b1580156123c057600080fd5b505afa1580156123d4573d6000803e3d6000fd5b505050506040513d601f19601f820116820180604052508101906123f891906132c0565b81111561254257600260009054906101000a900473ffffffffffffffffffffffffffffffffffffffff1673ffffffffffffffffffffffffffffffffffffffff16632e1a7d4d600660009054906101000a900473ffffffffffffffffffffffffffffffffffffffff1673ffffffffffffffffffffffffffffffffffffffff166370a08231306040518263ffffffff1660e01b81526004016124989190613024565b60206040518083038186803b1580156124b057600080fd5b505afa1580156124c4573d6000803e3d6000fd5b505050506040513d601f19601f820116820180604052508101906124e891906132c0565b836124f391906133d6565b6040518263ffffffff1660e01b815260040161250f9190612f65565b600060405180830381600087803b15801561252957600080fd5b505af115801561253d573d6000803e3d6000fd5b505050505b60075461254d6108ce565b1061260257600061259c600b60003373ffffffffffffffffffffffffffffffffffffffff1673ffffffffffffffffffffffffffffffffffffffff168152602001908152602001600020546107d3565b90506125fd6125a9611353565b82846125b591906133d6565b600660009054906101000a900473ffffffffffffffffffffffffffffffffffffffff1673ffffffffffffffffffffffffffffffffffffffff166128759092919063ffffffff16565b809150505b600b60003373ffffffffffffffffffffffffffffffffffffffff1673ffffffffffffffffffffffffffffffffffffffff16815260200190815260200160002060009055806008600082825461265791906133d6565b92505081905550600a60003373ffffffffffffffffffffffffffffffffffffffff1673ffffffffffffffffffffffffffffffffffffffff16815260200190815260200160002060009055600960003373ffffffffffffffffffffffffffffffffffffffff1673ffffffffffffffffffffffffffffffffffffffff168152602001908152602001600020600090556127313382600660009054906101000a900473ffffffffffffffffffffffffffffffffffffffff1673ffffffffffffffffffffffffffffffffffffffff166128759092919063ffffffff16565b7f5fafa99d0643513820be26656b45130b01e1c03062e1266bf36f88cbd3bd969533826040516127629291906135b5565b60405180910390a150565b60075481565b61277b6127f7565b600073ffffffffffffffffffffffffffffffffffffffff168173ffffffffffffffffffffffffffffffffffffffff1614156127eb576040517f08c379a00000000000000000000000000000000000000000000000000000000081526004016127e290613c13565b60405180910390fd5b6127f481612a1c565b50565b6127ff612cc7565b73ffffffffffffffffffffffffffffffffffffffff1661281d611353565b73ffffffffffffffffffffffffffffffffffffffff1614612873576040517f08c379a000000000000000000000000000000000000000000000000000000000815260040161286a90613c7f565b60405180910390fd5b565b6128f68363a9059cbb60e01b84846040516024016128949291906135b5565b604051602081830303815290604052907bffffffffffffffffffffffffffffffffffffffffffffffffffffffff19166020820180517bffffffffffffffffffffffffffffffffffffffffffffffffffffffff8381831617835250505050612ccf565b505050565b6000818473ffffffffffffffffffffffffffffffffffffffff1663dd62ed3e30866040518363ffffffff1660e01b8152600401612939929190613c9f565b60206040518083038186803b15801561295157600080fd5b505afa158015612965573d6000803e3d6000fd5b505050506040513d601f19601f8201168201806040525081019061298991906132c0565b612993919061340a565b9050612a168463095ea7b360e01b85846040516024016129b49291906135b5565b604051602081830303815290604052907bffffffffffffffffffffffffffffffffffffffffffffffffffffffff19166020820180517bffffffffffffffffffffffffffffffffffffffffffffffffffffffff8381831617835250505050612ccf565b50505050565b60008060009054906101000a900473ffffffffffffffffffffffffffffffffffffffff169050816000806101000a81548173ffffffffffffffffffffffffffffffffffffffff021916908373ffffffffffffffffffffffffffffffffffffffff1602179055508173ffffffffffffffffffffffffffffffffffffffff168173ffffffffffffffffffffffffffffffffffffffff167f8be0079c531659141344cd1fd0a4f28419497f9722a3daafe3b4186f6b6457e060405160405180910390a35050565b612b63846323b872dd60e01b858585604051602401612b0193929190613cc8565b604051602081830303815290604052907bffffffffffffffffffffffffffffffffffffffffffffffffffffffff19166020820180517bffffffffffffffffffffffffffffffffffffffffffffffffffffffff8381831617835250505050612ccf565b50505050565b6000811480612c02575060008373ffffffffffffffffffffffffffffffffffffffff1663dd62ed3e30856040518363ffffffff1660e01b8152600401612bb0929190613c9f565b60206040518083038186803b158015612bc857600080fd5b505afa158015612bdc573d6000803e3d6000fd5b505050506040513d601f19601f82011682018060405250810190612c0091906132c0565b145b612c41576040517f08c379a0000000000000000000000000000000000000000000000000000000008152600401612c3890613d71565b60405180910390fd5b612cc28363095ea7b360e01b8484604051602401612c609291906135b5565b604051602081830303815290604052907bffffffffffffffffffffffffffffffffffffffffffffffffffffffff19166020820180517bffffffffffffffffffffffffffffffffffffffffffffffffffffffff8381831617835250505050612ccf565b505050565b600033905090565b6000612d31826040518060400160405280602081526020017f5361666545524332303a206c6f772d6c6576656c2063616c6c206661696c65648152508573ffffffffffffffffffffffffffffffffffffffff16612d969092919063ffffffff16565b9050600081511115612d915780806020019051810190612d519190613da6565b612d90576040517f08c379a0000000000000000000000000000000000000000000000000000000008152600401612d8790613e45565b60405180910390fd5b5b505050565b6060612da58484600085612dae565b90509392505050565b606082471015612df3576040517f08c379a0000000000000000000000000000000000000000000000000000000008152600401612dea90613ed7565b60405180910390fd5b612dfc85612ec2565b612e3b576040517f08c379a0000000000000000000000000000000000000000000000000000000008152600401612e3290613f43565b60405180910390fd5b6000808673ffffffffffffffffffffffffffffffffffffffff168587604051612e649190613f9f565b60006040518083038185875af1925050503d8060008114612ea1576040519150601f19603f3d011682016040523d82523d6000602084013e612ea6565b606091505b5091509150612eb6828286612ee5565b92505050949350505050565b6000808273ffffffffffffffffffffffffffffffffffffffff163b119050919050565b60608315612ef557829050612f45565b600083511115612f085782518084602001fd5b816040517f08c379a0000000000000000000000000000000000000000000000000000000008152600401612f3c9190613ffa565b60405180910390fd5b9392505050565b6000819050919050565b612f5f81612f4c565b82525050565b6000602082019050612f7a6000830184612f56565b92915050565b600080fd5b600080fd5b612f9381612f4c565b8114612f9e57600080fd5b50565b600081359050612fb081612f8a565b92915050565b600060208284031215612fcc57612fcb612f80565b5b6000612fda84828501612fa1565b91505092915050565b600073ffffffffffffffffffffffffffffffffffffffff82169050919050565b600061300e82612fe3565b9050919050565b61301e81613003565b82525050565b60006020820190506130396000830184613015565b92915050565b60008115159050919050565b6130548161303f565b811461305f57600080fd5b50565b6000813590506130718161304b565b92915050565b60006020828403121561308d5761308c612f80565b5b600061309b84828501613062565b91505092915050565b6130ad81613003565b81146130b857600080fd5b50565b6000813590506130ca816130a4565b92915050565b6000602082840312156130e6576130e5612f80565b5b60006130f4848285016130bb565b91505092915050565b600080fd5b600080fd5b600080fd5b60008083601f840112613122576131216130fd565b5b8235905067ffffffffffffffff81111561313f5761313e613102565b5b60208301915083602082028301111561315b5761315a613107565b5b9250929050565b60008083601f840112613178576131776130fd565b5b8235905067ffffffffffffffff81111561319557613194613102565b5b6020830191508360208202830111156131b1576131b0613107565b5b9250929050565b60008060008060008060006080888a0312156131d7576131d6612f80565b5b60006131e58a828b016130bb565b975050602088013567ffffffffffffffff81111561320657613205612f85565b5b6132128a828b0161310c565b9650965050604088013567ffffffffffffffff81111561323557613234612f85565b5b6132418a828b01613162565b9450945050606088013567ffffffffffffffff81111561326457613263612f85565b5b6132708a828b01613162565b925092505092959891949750929550565b61328a8161303f565b82525050565b60006020820190506132a56000830184613281565b92915050565b6000815190506132ba81612f8a565b92915050565b6000602082840312156132d6576132d5612f80565b5b60006132e4848285016132ab565b91505092915050565b7f4e487b7100000000000000000000000000000000000000000000000000000000600052601160045260246000fd5b600061332782612f4c565b915061333283612f4c565b9250817fffffffffffffffffffffffffffffffffffffffffffffffffffffffffffffffff048311821515161561336b5761336a6132ed565b5b828202905092915050565b7f4e487b7100000000000000000000000000000000000000000000000000000000600052601260045260246000fd5b60006133b082612f4c565b91506133bb83612f4c565b9250826133cb576133ca613376565b5b828204905092915050565b60006133e182612f4c565b91506133ec83612f4c565b9250828210156133ff576133fe6132ed565b5b828203905092915050565b600061341582612f4c565b915061342083612f4c565b9250827fffffffffffffffffffffffffffffffffffffffffffffffffffffffffffffffff03821115613455576134546132ed565b5b828201905092915050565b600082825260208201905092915050565b7f5b77697468647261775d20456d657267656e6379210000000000000000000000600082015250565b60006134a7601583613460565b91506134b282613471565b602082019050919050565b600060208201905081810360008301526134d68161349a565b9050919050565b7f5b77697468647261775d20496e73756666696369656e742062616c616e636521600082015250565b6000613513602083613460565b915061351e826134dd565b602082019050919050565b6000602082019050818103600083015261354281613506565b9050919050565b7f5b77697468647261775d204561726c7920776974686472617721000000000000600082015250565b600061357f601a83613460565b915061358a82613549565b602082019050919050565b600060208201905081810360008301526135ae81613572565b9050919050565b60006040820190506135ca6000830185613015565b6135d76020830184612f56565b9392505050565b60006060820190506135f36000830186613015565b6136006020830185612f56565b61360d6040830184613281565b949350505050565b7f5b6465706f7369745d20416c7265616479206c6f636b65642100000000000000600082015250565b600061364b601983613460565b915061365682613615565b602082019050919050565b6000602082019050818103600083015261367a8161363e565b9050919050565b7f5b686172766573745d20496e617070726f707269617465206461746120616d6f60008201527f756e742e00000000000000000000000000000000000000000000000000000000602082015250565b60006136dd602483613460565b91506136e882613681565b604082019050919050565b6000602082019050818103600083015261370c816136d0565b9050919050565b7f4e487b7100000000000000000000000000000000000000000000000000000000600052603260045260246000fd5b600080fd5b600080fd5b600080fd5b6000808335600160200384360303811261376e5761376d613742565b5b80840192508235915067ffffffffffffffff8211156137905761378f613747565b5b6020830192506001820236038313156137ac576137ab61374c565b5b509250929050565b6000819050919050565b60006137d96137d46137cf84612fe3565b6137b4565b612fe3565b9050919050565b60006137eb826137be565b9050919050565b60006137fd826137e0565b9050919050565b61380d816137f2565b82525050565b600061381e826137e0565b9050919050565b61382e81613813565b82525050565b600061383f82612fe3565b9050919050565b61384f81613834565b82525050565b61385e81612f4c565b82525050565b600081519050919050565b600082825260208201905092915050565b60005b8381101561389e578082015181840152602081019050613883565b838111156138ad576000848401525b50505050565b6000601f19601f8301169050919050565b60006138cf82613864565b6138d9818561386f565b93506138e9818560208601613880565b6138f2816138b3565b840191505092915050565b6000610100830160008301516139166000860182613825565b5060208301516139296020860182613825565b50604083015161393c6040860182613846565b50606083015161394f6060860182613846565b5060808301516139626080860182613855565b5060a083015161397560a0860182613855565b5060c083015161398860c0860182613855565b5060e083015184820360e08601526139a082826138c4565b9150508091505092915050565b600082825260208201905092915050565b82818337600083830152505050565b60006139d983856139ad565b93506139e68385846139be565b6139ef836138b3565b840190509392505050565b6000606082019050613a0f6000830187613804565b8181036020830152613a2181866138fd565b90508181036040830152613a368184866139cd565b905095945050505050565b600080600060608486031215613a5a57613a59612f80565b5b6000613a68868287016132ab565b9350506020613a79868287016132ab565b9250506040613a8a868287016132ab565b9150509250925092565b6000613a9f82612f4c565b91507fffffffffffffffffffffffffffffffffffffffffffffffffffffffffffffffff821415613ad257613ad16132ed565b5b600182019050919050565b6000613ae8826137e0565b9050919050565b613af881613add565b82525050565b6000606082019050613b136000830186612f56565b613b206020830185613015565b613b2d6040830184613aef565b949350505050565b7f5b77697468647261775d204e6f7420656d657267656e63792100000000000000600082015250565b6000613b6b601983613460565b9150613b7682613b35565b602082019050919050565b60006020820190508181036000830152613b9a81613b5e565b9050919050565b7f4f776e61626c653a206e6577206f776e657220697320746865207a65726f206160008201527f6464726573730000000000000000000000000000000000000000000000000000602082015250565b6000613bfd602683613460565b9150613c0882613ba1565b604082019050919050565b60006020820190508181036000830152613c2c81613bf0565b9050919050565b7f4f776e61626c653a2063616c6c6572206973206e6f7420746865206f776e6572600082015250565b6000613c69602083613460565b9150613c7482613c33565b602082019050919050565b60006020820190508181036000830152613c9881613c5c565b9050919050565b6000604082019050613cb46000830185613015565b613cc16020830184613015565b9392505050565b6000606082019050613cdd6000830186613015565b613cea6020830185613015565b613cf76040830184612f56565b949350505050565b7f5361666545524332303a20617070726f76652066726f6d206e6f6e2d7a65726f60008201527f20746f206e6f6e2d7a65726f20616c6c6f77616e636500000000000000000000602082015250565b6000613d5b603683613460565b9150613d6682613cff565b604082019050919050565b60006020820190508181036000830152613d8a81613d4e565b9050919050565b600081519050613da08161304b565b92915050565b600060208284031215613dbc57613dbb612f80565b5b6000613dca84828501613d91565b91505092915050565b7f5361666545524332303a204552433230206f7065726174696f6e20646964206e60008201527f6f74207375636365656400000000000000000000000000000000000000000000602082015250565b6000613e2f602a83613460565b9150613e3a82613dd3565b604082019050919050565b60006020820190508181036000830152613e5e81613e22565b9050919050565b7f416464726573733a20696e73756666696369656e742062616c616e636520666f60008201527f722063616c6c0000000000000000000000000000000000000000000000000000602082015250565b6000613ec1602683613460565b9150613ecc82613e65565b604082019050919050565b60006020820190508181036000830152613ef081613eb4565b9050919050565b7f416464726573733a2063616c6c20746f206e6f6e2d636f6e7472616374000000600082015250565b6000613f2d601d83613460565b9150613f3882613ef7565b602082019050919050565b60006020820190508181036000830152613f5c81613f20565b9050919050565b600081905092915050565b6000613f7982613864565b613f838185613f63565b9350613f93818560208601613880565b80840191505092915050565b6000613fab8284613f6e565b915081905092915050565b600081519050919050565b6000613fcc82613fb6565b613fd68185613460565b9350613fe6818560208601613880565b613fef816138b3565b840191505092915050565b600060208201905081810360008301526140148184613fc1565b90509291505056fea2646970667358221220a1e484c82ba2411489894b0ed18791285c0fcb2421fbc652d62b188f93f8e5c964736f6c63430008090033",
  "linkReferences": {},
  "deployedLinkReferences": {}
}