{
  "_format": "hh-sol-artifact-1",
  "contractName": "FixedStrategy",
  "sourceName": "contracts/FixedStrategy.sol",
  "abi": [
    {
      "inputs": [
        {
          "internalType": "address",
          "name": "angleVaultAddr",
          "type": "address"
        },
        {
          "internalType": "address",
          "name": "angleStratAddr",
          "type": "address"
        },
        {
          "internalType": "address",
          "name": "lockToken",
          "type": "address"
        }
      ],
      "stateMutability": "nonpayable",
      "type": "constructor"
    },
    {
      "anonymous": false,
      "inputs": [
        {
          "indexed": true,
          "internalType": "address",
          "name": "owner",
          "type": "address"
        },
        {
          "indexed": true,
          "internalType": "address",
          "name": "spender",
          "type": "address"
        },
        {
          "indexed": false,
          "internalType": "uint256",
          "name": "value",
          "type": "uint256"
        }
      ],
      "name": "Approval",
      "type": "event"
    },
    {
      "anonymous": false,
      "inputs": [
        {
          "indexed": false,
          "internalType": "uint256",
          "name": "newFee",
          "type": "uint256"
        }
      ],
      "name": "ClaimerFeeChanged",
      "type": "event"
    },
    {
      "anonymous": false,
      "inputs": [
        {
          "indexed": false,
          "internalType": "address",
          "name": "compounder",
          "type": "address"
        },
        {
          "indexed": false,
          "internalType": "uint256",
          "name": "amount",
          "type": "uint256"
        }
      ],
      "name": "Compounded",
      "type": "event"
    },
    {
      "anonymous": false,
      "inputs": [
        {
          "indexed": false,
          "internalType": "address",
          "name": "locker",
          "type": "address"
        },
        {
          "indexed": false,
          "internalType": "uint256",
          "name": "amount",
          "type": "uint256"
        }
      ],
      "name": "Deposit",
      "type": "event"
    },
    {
      "anonymous": false,
      "inputs": [
        {
          "indexed": false,
          "internalType": "uint256",
          "name": "newYield",
          "type": "uint256"
        }
      ],
      "name": "MaxYieldChanged",
      "type": "event"
    },
    {
      "anonymous": false,
      "inputs": [
        {
          "indexed": true,
          "internalType": "address",
          "name": "previousOwner",
          "type": "address"
        },
        {
          "indexed": true,
          "internalType": "address",
          "name": "newOwner",
          "type": "address"
        }
      ],
      "name": "OwnershipTransferred",
      "type": "event"
    },
    {
      "anonymous": false,
      "inputs": [
        {
          "indexed": true,
          "internalType": "address",
          "name": "from",
          "type": "address"
        },
        {
          "indexed": true,
          "internalType": "address",
          "name": "to",
          "type": "address"
        },
        {
          "indexed": false,
          "internalType": "uint256",
          "name": "value",
          "type": "uint256"
        }
      ],
      "name": "Transfer",
      "type": "event"
    },
    {
      "anonymous": false,
      "inputs": [
        {
          "indexed": false,
          "internalType": "address",
          "name": "locker",
          "type": "address"
        },
        {
          "indexed": false,
          "internalType": "uint256",
          "name": "amount",
          "type": "uint256"
        }
      ],
      "name": "Withdraw",
      "type": "event"
    },
    {
      "inputs": [],
      "name": "ANGL",
      "outputs": [
        {
          "internalType": "address",
          "name": "",
          "type": "address"
        }
      ],
      "stateMutability": "view",
      "type": "function"
    },
    {
      "inputs": [],
      "name": "SDT",
      "outputs": [
        {
          "internalType": "address",
          "name": "",
          "type": "address"
        }
      ],
      "stateMutability": "view",
      "type": "function"
    },
    {
      "inputs": [
        {
          "internalType": "address",
          "name": "owner",
          "type": "address"
        },
        {
          "internalType": "address",
          "name": "spender",
          "type": "address"
        }
      ],
      "name": "allowance",
      "outputs": [
        {
          "internalType": "uint256",
          "name": "",
          "type": "uint256"
        }
      ],
      "stateMutability": "view",
      "type": "function"
    },
    {
      "inputs": [
        {
          "internalType": "address",
          "name": "spender",
          "type": "address"
        },
        {
          "internalType": "uint256",
          "name": "amount",
          "type": "uint256"
        }
      ],
      "name": "approve",
      "outputs": [
        {
          "internalType": "bool",
          "name": "",
          "type": "bool"
        }
      ],
      "stateMutability": "nonpayable",
      "type": "function"
    },
    {
      "inputs": [
        {
          "internalType": "address",
          "name": "account",
          "type": "address"
        }
      ],
      "name": "balanceOf",
      "outputs": [
        {
          "internalType": "uint256",
          "name": "",
          "type": "uint256"
        }
      ],
      "stateMutability": "view",
      "type": "function"
    },
    {
      "inputs": [],
      "name": "claimerFee",
      "outputs": [
        {
          "internalType": "uint256",
          "name": "",
          "type": "uint256"
        }
      ],
      "stateMutability": "view",
      "type": "function"
    },
    {
      "inputs": [],
      "name": "collectedFee",
      "outputs": [
        {
          "internalType": "uint256",
          "name": "",
          "type": "uint256"
        }
      ],
      "stateMutability": "view",
      "type": "function"
    },
    {
      "inputs": [],
      "name": "comp",
      "outputs": [],
      "stateMutability": "nonpayable",
      "type": "function"
    },
    {
      "inputs": [],
      "name": "currentRatioForUser",
      "outputs": [
        {
          "internalType": "uint256",
          "name": "",
          "type": "uint256"
        }
      ],
      "stateMutability": "view",
      "type": "function"
    },
    {
      "inputs": [],
      "name": "decimals",
      "outputs": [
        {
          "internalType": "uint8",
          "name": "",
          "type": "uint8"
        }
      ],
      "stateMutability": "view",
      "type": "function"
    },
    {
      "inputs": [
        {
          "internalType": "address",
          "name": "spender",
          "type": "address"
        },
        {
          "internalType": "uint256",
          "name": "subtractedValue",
          "type": "uint256"
        }
      ],
      "name": "decreaseAllowance",
      "outputs": [
        {
          "internalType": "bool",
          "name": "",
          "type": "bool"
        }
      ],
      "stateMutability": "nonpayable",
      "type": "function"
    },
    {
      "inputs": [
        {
          "internalType": "uint256",
          "name": "amount",
          "type": "uint256"
        },
        {
          "internalType": "bool",
          "name": "earnFSD",
          "type": "bool"
        },
        {
          "internalType": "bool",
          "name": "earnFT",
          "type": "bool"
        }
      ],
      "name": "deposit",
      "outputs": [],
      "stateMutability": "nonpayable",
      "type": "function"
    },
    {
      "inputs": [],
      "name": "harvest",
      "outputs": [],
      "stateMutability": "nonpayable",
      "type": "function"
    },
    {
      "inputs": [
        {
          "internalType": "address",
          "name": "spender",
          "type": "address"
        },
        {
          "internalType": "uint256",
          "name": "addedValue",
          "type": "uint256"
        }
      ],
      "name": "increaseAllowance",
      "outputs": [
        {
          "internalType": "bool",
          "name": "",
          "type": "bool"
        }
      ],
      "stateMutability": "nonpayable",
      "type": "function"
    },
    {
      "inputs": [
        {
          "internalType": "uint256",
          "name": "amount",
          "type": "uint256"
        }
      ],
      "name": "maxEarningToDate",
      "outputs": [
        {
          "internalType": "uint256",
          "name": "",
          "type": "uint256"
        }
      ],
      "stateMutability": "view",
      "type": "function"
    },
    {
      "inputs": [],
      "name": "maxYield",
      "outputs": [
        {
          "internalType": "uint256",
          "name": "",
          "type": "uint256"
        }
      ],
      "stateMutability": "view",
      "type": "function"
    },
    {
      "inputs": [],
      "name": "name",
      "outputs": [
        {
          "internalType": "string",
          "name": "",
          "type": "string"
        }
      ],
      "stateMutability": "view",
      "type": "function"
    },
    {
      "inputs": [],
      "name": "owner",
      "outputs": [
        {
          "internalType": "address",
          "name": "",
          "type": "address"
        }
      ],
      "stateMutability": "view",
      "type": "function"
    },
    {
      "inputs": [],
      "name": "pricePerShare",
      "outputs": [
        {
          "internalType": "uint256",
          "name": "",
          "type": "uint256"
        }
      ],
      "stateMutability": "view",
      "type": "function"
    },
    {
      "inputs": [],
      "name": "renounceOwnership",
      "outputs": [],
      "stateMutability": "nonpayable",
      "type": "function"
    },
    {
      "inputs": [
        {
          "internalType": "uint256",
          "name": "",
          "type": "uint256"
        }
      ],
      "name": "rewardTokens",
      "outputs": [
        {
          "internalType": "address",
          "name": "",
          "type": "address"
        }
      ],
      "stateMutability": "view",
      "type": "function"
    },
    {
      "inputs": [
        {
          "internalType": "uint256",
          "name": "newFee",
          "type": "uint256"
        }
      ],
      "name": "setFee",
      "outputs": [],
      "stateMutability": "nonpayable",
      "type": "function"
    },
    {
      "inputs": [
        {
          "internalType": "uint256",
          "name": "newYield",
          "type": "uint256"
        }
      ],
      "name": "setMaxYield",
      "outputs": [],
      "stateMutability": "nonpayable",
      "type": "function"
    },
    {
      "inputs": [],
      "name": "symbol",
      "outputs": [
        {
          "internalType": "string",
          "name": "",
          "type": "string"
        }
      ],
      "stateMutability": "view",
      "type": "function"
    },
    {
      "inputs": [],
      "name": "totalSupply",
      "outputs": [
        {
          "internalType": "uint256",
          "name": "",
          "type": "uint256"
        }
      ],
      "stateMutability": "view",
      "type": "function"
    },
    {
      "inputs": [
        {
          "internalType": "address",
          "name": "to",
          "type": "address"
        },
        {
          "internalType": "uint256",
          "name": "amount",
          "type": "uint256"
        }
      ],
      "name": "transfer",
      "outputs": [
        {
          "internalType": "bool",
          "name": "",
          "type": "bool"
        }
      ],
      "stateMutability": "nonpayable",
      "type": "function"
    },
    {
      "inputs": [
        {
          "internalType": "address",
          "name": "from",
          "type": "address"
        },
        {
          "internalType": "address",
          "name": "to",
          "type": "address"
        },
        {
          "internalType": "uint256",
          "name": "amount",
          "type": "uint256"
        }
      ],
      "name": "transferFrom",
      "outputs": [
        {
          "internalType": "bool",
          "name": "",
          "type": "bool"
        }
      ],
      "stateMutability": "nonpayable",
      "type": "function"
    },
    {
      "inputs": [
        {
          "internalType": "address",
          "name": "newOwner",
          "type": "address"
        }
      ],
      "name": "transferOwnership",
      "outputs": [],
      "stateMutability": "nonpayable",
      "type": "function"
    },
    {
      "inputs": [
        {
          "internalType": "uint256",
          "name": "shares",
          "type": "uint256"
        }
      ],
      "name": "withdraw",
      "outputs": [],
      "stateMutability": "nonpayable",
      "type": "function"
    }
  ],
  "bytecode": "0x60806040523480156200001157600080fd5b5060405162003e1538038062003e158339818101604052810190620000379190620004a9565b6040518060400160405280601081526020017f73616e465241585f4555525f46535452000000000000000000000000000000008152506040518060400160405280600681526020017f53464553545200000000000000000000000000000000000000000000000000008152508160039080519060200190620000bb9291906200038f565b508060049080519060200190620000d49291906200038f565b505050620000f7620000eb620002c160201b60201c565b620002c960201b60201c565b82600660006101000a81548173ffffffffffffffffffffffffffffffffffffffff021916908373ffffffffffffffffffffffffffffffffffffffff16021790555081600760006101000a81548173ffffffffffffffffffffffffffffffffffffffff021916908373ffffffffffffffffffffffffffffffffffffffff16021790555080600860006101000a81548173ffffffffffffffffffffffffffffffffffffffff021916908373ffffffffffffffffffffffffffffffffffffffff160217905550600a6009819055506050600b81905550600c7331429d1856ad1377a8a0079410b297e1a9e214c29080600181540180825580915050600190039060005260206000200160009091909190916101000a81548173ffffffffffffffffffffffffffffffffffffffff021916908373ffffffffffffffffffffffffffffffffffffffff160217905550600c7373968b9a57c6e53d41345fd57a6e6ae27d6cdb2f9080600181540180825580915050600190039060005260206000200160009091909190916101000a81548173ffffffffffffffffffffffffffffffffffffffff021916908373ffffffffffffffffffffffffffffffffffffffff1602179055505050506200056a565b600033905090565b6000600560009054906101000a900473ffffffffffffffffffffffffffffffffffffffff16905081600560006101000a81548173ffffffffffffffffffffffffffffffffffffffff021916908373ffffffffffffffffffffffffffffffffffffffff1602179055508173ffffffffffffffffffffffffffffffffffffffff168173ffffffffffffffffffffffffffffffffffffffff167f8be0079c531659141344cd1fd0a4f28419497f9722a3daafe3b4186f6b6457e060405160405180910390a35050565b8280546200039d9062000534565b90600052602060002090601f016020900481019282620003c157600085556200040d565b82601f10620003dc57805160ff19168380011785556200040d565b828001600101855582156200040d579182015b828111156200040c578251825591602001919060010190620003ef565b5b5090506200041c919062000420565b5090565b5b808211156200043b57600081600090555060010162000421565b5090565b600080fd5b600073ffffffffffffffffffffffffffffffffffffffff82169050919050565b6000620004718262000444565b9050919050565b620004838162000464565b81146200048f57600080fd5b50565b600081519050620004a38162000478565b92915050565b600080600060608486031215620004c557620004c46200043f565b5b6000620004d58682870162000492565b9350506020620004e88682870162000492565b9250506040620004fb8682870162000492565b9150509250925092565b7f4e487b7100000000000000000000000000000000000000000000000000000000600052602260045260246000fd5b600060028204905060018216806200054d57607f821691505b6020821081141562000564576200056362000505565b5b50919050565b61389b806200057a6000396000f3fe608060405234801561001057600080fd5b50600436106101cf5760003560e01c8063715018a611610104578063a9059cbb116100a2578063e165443311610071578063e165443314610520578063e811f50a1461053e578063f2fde38b1461055c578063fc0f372e14610578576101cf565b8063a9059cbb14610486578063a94072b6146104b6578063ba32c619146104d2578063dd62ed3e146104f0576101cf565b806395d89b41116100de57806395d89b41146103fe57806395fb5f831461041c57806399530b0614610438578063a457c2d714610456576101cf565b8063715018a6146103a65780637bb7bed1146103b05780638da5cb5b146103e0576101cf565b80632e1a7d4d11610171578063395093511161014b57806339509351146103205780634641257d1461035057806369fe0e2d1461035a57806370a0823114610376576101cf565b80632e1a7d4d146102c8578063301234e6146102e4578063313ce56714610302576101cf565b8063109d0af8116101ad578063109d0af814610252578063147ec25f1461025c57806318160ddd1461027a57806323b872dd14610298576101cf565b806306fdde03146101d4578063095ea7b3146101f257806310698a4a14610222575b600080fd5b6101dc610596565b6040516101e9919061288d565b60405180910390f35b61020c60048036038101906102079190612948565b610628565b60405161021991906129a3565b60405180910390f35b61023c600480360381019061023791906129be565b61064b565b60405161024991906129fa565b60405180910390f35b61025a6106e5565b005b6102646108de565b60405161027191906129fa565b60405180910390f35b6102826109fd565b60405161028f91906129fa565b60405180910390f35b6102b260048036038101906102ad9190612a15565b610a07565b6040516102bf91906129a3565b60405180910390f35b6102e260048036038101906102dd91906129be565b610a36565b005b6102ec610f54565b6040516102f99190612a77565b60405180910390f35b61030a610f6c565b6040516103179190612aae565b60405180910390f35b61033a60048036038101906103359190612948565b610f75565b60405161034791906129a3565b60405180910390f35b610358610fac565b005b610374600480360381019061036f91906129be565b611065565b005b610390600480360381019061038b9190612ac9565b6110ae565b60405161039d91906129fa565b60405180910390f35b6103ae6110f6565b005b6103ca60048036038101906103c591906129be565b61110a565b6040516103d79190612a77565b60405180910390f35b6103e8611149565b6040516103f59190612a77565b60405180910390f35b610406611173565b604051610413919061288d565b60405180910390f35b61043660048036038101906104319190612b22565b611205565b005b6104406116d6565b60405161044d91906129fa565b60405180910390f35b610470600480360381019061046b9190612948565b6117ca565b60405161047d91906129a3565b60405180910390f35b6104a0600480360381019061049b9190612948565b611841565b6040516104ad91906129a3565b60405180910390f35b6104d060048036038101906104cb91906129be565b611864565b005b6104da6118ad565b6040516104e79190612a77565b60405180910390f35b61050a60048036038101906105059190612b75565b6118c5565b60405161051791906129fa565b60405180910390f35b61052861194c565b60405161053591906129fa565b60405180910390f35b610546611952565b60405161055391906129fa565b60405180910390f35b61057660048036038101906105719190612ac9565b611958565b005b6105806119dc565b60405161058d91906129fa565b60405180910390f35b6060600380546105a590612be4565b80601f01602080910402602001604051908101604052809291908181526020018280546105d190612be4565b801561061e5780601f106105f35761010080835404028352916020019161061e565b820191906000526020600020905b81548152906001019060200180831161060157829003601f168201915b5050505050905090565b6000806106336119e2565b90506106408185856119ea565b600191505092915050565b600080600d60003373ffffffffffffffffffffffffffffffffffffffff1673ffffffffffffffffffffffffffffffffffffffff16815260200190815260200160002054426106999190612c45565b90506103e86301e13380600b54836106b19190612c79565b6106bb9190612d02565b6103e86106c89190612d33565b846106d39190612c79565b6106dd9190612d02565b915050919050565b6000600a54600860009054906101000a900473ffffffffffffffffffffffffffffffffffffffff1673ffffffffffffffffffffffffffffffffffffffff166370a08231306040518263ffffffff1660e01b81526004016107459190612a77565b60206040518083038186803b15801561075d57600080fd5b505afa158015610771573d6000803e3d6000fd5b505050506040513d601f19601f820116820180604052508101906107959190612d9e565b61079f9190612c45565b9050610810600660009054906101000a900473ffffffffffffffffffffffffffffffffffffffff1682600860009054906101000a900473ffffffffffffffffffffffffffffffffffffffff1673ffffffffffffffffffffffffffffffffffffffff16611bb59092919063ffffffff16565b600660009054906101000a900473ffffffffffffffffffffffffffffffffffffffff1673ffffffffffffffffffffffffffffffffffffffff16633edd1128308360006040518463ffffffff1660e01b815260040161087093929190612dcb565b600060405180830381600087803b15801561088a57600080fd5b505af115801561089e573d6000803e3d6000fd5b505050507fc16de066392da7e40ceccb739c331fc48a2e76bf147449613c48023d960eec3233826040516108d3929190612e02565b60405180910390a150565b600080600e60003373ffffffffffffffffffffffffffffffffffffffff1673ffffffffffffffffffffffffffffffffffffffff168152602001908152602001600020546103e8600e60003373ffffffffffffffffffffffffffffffffffffffff1673ffffffffffffffffffffffffffffffffffffffff1681526020019081526020016000205461096c6116d6565b6109769190612c45565b6109809190612c79565b61098a9190612d02565b90506000600d60003373ffffffffffffffffffffffffffffffffffffffff1673ffffffffffffffffffffffffffffffffffffffff16815260200190815260200160002054426109d99190612c45565b9050806301e13380836109ec9190612c79565b6109f69190612d02565b9250505090565b6000600254905090565b600080610a126119e2565b9050610a1f858285611cd6565b610a2a858585611d62565b60019150509392505050565b80610a40336110ae565b1015610a81576040517f08c379a0000000000000000000000000000000000000000000000000000000008152600401610a7890612e77565b60405180910390fd5b426276a700600d60003373ffffffffffffffffffffffffffffffffffffffff1673ffffffffffffffffffffffffffffffffffffffff16815260200190815260200160002054610ad09190612d33565b1115610b11576040517f08c379a0000000000000000000000000000000000000000000000000000000008152600401610b0890612ee3565b60405180910390fd5b6000670de0b6b3a7640000610b246116d6565b83610b2f9190612c79565b610b399190612d02565b9050610b453383611fe3565b600860009054906101000a900473ffffffffffffffffffffffffffffffffffffffff1673ffffffffffffffffffffffffffffffffffffffff166370a08231306040518263ffffffff1660e01b8152600401610ba09190612a77565b60206040518083038186803b158015610bb857600080fd5b505afa158015610bcc573d6000803e3d6000fd5b505050506040513d601f19601f82011682018060405250810190610bf09190612d9e565b600a5482610bfe9190612d33565b1115610d5457600660009054906101000a900473ffffffffffffffffffffffffffffffffffffffff1673ffffffffffffffffffffffffffffffffffffffff16632e1a7d4d600860009054906101000a900473ffffffffffffffffffffffffffffffffffffffff1673ffffffffffffffffffffffffffffffffffffffff166370a08231306040518263ffffffff1660e01b8152600401610c9d9190612a77565b60206040518083038186803b158015610cb557600080fd5b505afa158015610cc9573d6000803e3d6000fd5b505050506040513d601f19601f82011682018060405250810190610ced9190612d9e565b600a5484610cfb9190612d33565b610d059190612c45565b6040518263ffffffff1660e01b8152600401610d2191906129fa565b600060405180830381600087803b158015610d3b57600080fd5b505af1158015610d4f573d6000803e3d6000fd5b505050505b6000610d5f336110ae565b1415610dec57600e60003373ffffffffffffffffffffffffffffffffffffffff1673ffffffffffffffffffffffffffffffffffffffff16815260200190815260200160002060009055600d60003373ffffffffffffffffffffffffffffffffffffffff1673ffffffffffffffffffffffffffffffffffffffff168152602001908152602001600020600090555b600b54610df76108de565b10610eca576000610e64670de0b6b3a7640000600e60003373ffffffffffffffffffffffffffffffffffffffff1673ffffffffffffffffffffffffffffffffffffffff1681526020019081526020016000205485610e559190612c79565b610e5f9190612d02565b61064b565b9050610ec5610e71611149565b8284610e7d9190612c45565b600860009054906101000a900473ffffffffffffffffffffffffffffffffffffffff1673ffffffffffffffffffffffffffffffffffffffff166121ba9092919063ffffffff16565b809150505b610f173382600860009054906101000a900473ffffffffffffffffffffffffffffffffffffffff1673ffffffffffffffffffffffffffffffffffffffff166121ba9092919063ffffffff16565b7f884edad9ce6fa2440d8a54cc123490eb96d2768479d49ff9c7366125a94243643382604051610f48929190612e02565b60405180910390a15050565b7331429d1856ad1377a8a0079410b297e1a9e214c281565b60006012905090565b600080610f806119e2565b9050610fa1818585610f9285896118c5565b610f9c9190612d33565b6119ea565b600191505092915050565b610fb4612240565b600760009054906101000a900473ffffffffffffffffffffffffffffffffffffffff1673ffffffffffffffffffffffffffffffffffffffff16631e83409a600860009054906101000a900473ffffffffffffffffffffffffffffffffffffffff166040518263ffffffff1660e01b81526004016110319190612a77565b600060405180830381600087803b15801561104b57600080fd5b505af115801561105f573d6000803e3d6000fd5b50505050565b61106d612240565b806009819055507fcdb95355a2178e520d4232e16a2ca9c27252a8e39c5faa6e70ca8dc32c8c174c816040516110a391906129fa565b60405180910390a150565b60008060008373ffffffffffffffffffffffffffffffffffffffff1673ffffffffffffffffffffffffffffffffffffffff168152602001908152602001600020549050919050565b6110fe612240565b61110860006122be565b565b600c818154811061111a57600080fd5b906000526020600020016000915054906101000a900473ffffffffffffffffffffffffffffffffffffffff1681565b6000600560009054906101000a900473ffffffffffffffffffffffffffffffffffffffff16905090565b60606004805461118290612be4565b80601f01602080910402602001604051908101604052809291908181526020018280546111ae90612be4565b80156111fb5780601f106111d0576101008083540402835291602001916111fb565b820191906000526020600020905b8154815290600101906020018083116111de57829003601f168201915b5050505050905090565b6000600e60003373ffffffffffffffffffffffffffffffffffffffff1673ffffffffffffffffffffffffffffffffffffffff1681526020019081526020016000205414611287576040517f08c379a000000000000000000000000000000000000000000000000000000000815260040161127e90612f4f565b60405180910390fd5b42600d60003373ffffffffffffffffffffffffffffffffffffffff1673ffffffffffffffffffffffffffffffffffffffff168152602001908152602001600020819055506112d36116d6565b600e60003373ffffffffffffffffffffffffffffffffffffffff1673ffffffffffffffffffffffffffffffffffffffff16815260200190815260200160002081905550611365333085600860009054906101000a900473ffffffffffffffffffffffffffffffffffffffff1673ffffffffffffffffffffffffffffffffffffffff16612384909392919063ffffffff16565b6113d4600660009054906101000a900473ffffffffffffffffffffffffffffffffffffffff1684600860009054906101000a900473ffffffffffffffffffffffffffffffffffffffff1673ffffffffffffffffffffffffffffffffffffffff16611bb59092919063ffffffff16565b80611425576000612710600954856113ec9190612c79565b6113f69190612d02565b905080846114049190612c45565b935080600a60008282546114189190612d33565b925050819055505061143e565b600a54836114339190612d33565b92506000600a819055505b6000600660009054906101000a900473ffffffffffffffffffffffffffffffffffffffff1673ffffffffffffffffffffffffffffffffffffffff166370a08231306040518263ffffffff1660e01b815260040161149b9190612a77565b60206040518083038186803b1580156114b357600080fd5b505afa1580156114c7573d6000803e3d6000fd5b505050506040513d601f19601f820116820180604052508101906114eb9190612d9e565b9050600660009054906101000a900473ffffffffffffffffffffffffffffffffffffffff1673ffffffffffffffffffffffffffffffffffffffff16633edd11283086866040518463ffffffff1660e01b815260040161154c93929190612dcb565b600060405180830381600087803b15801561156657600080fd5b505af115801561157a573d6000803e3d6000fd5b50505050600081600660009054906101000a900473ffffffffffffffffffffffffffffffffffffffff1673ffffffffffffffffffffffffffffffffffffffff166370a08231306040518263ffffffff1660e01b81526004016115dc9190612a77565b60206040518083038186803b1580156115f457600080fd5b505afa158015611608573d6000803e3d6000fd5b505050506040513d601f19601f8201168201806040525081019061162c9190612d9e565b6116369190612c45565b905060006116426109fd565b141561165757611652338261240d565b611687565b611686336116636116d6565b670de0b6b3a7640000846116779190612c79565b6116819190612d02565b61240d565b5b8215611696576116956106e5565b5b7fe1fffcc4923d04b559f4d29a8bfc6cda04eb5b0d3c460751c2402c5c5cc9109c33866040516116c7929190612e02565b60405180910390a15050505050565b6000806116e16109fd565b146117bb576116ee6109fd565b670de0b6b3a7640000600660009054906101000a900473ffffffffffffffffffffffffffffffffffffffff1673ffffffffffffffffffffffffffffffffffffffff166370a08231306040518263ffffffff1660e01b81526004016117529190612a77565b60206040518083038186803b15801561176a57600080fd5b505afa15801561177e573d6000803e3d6000fd5b505050506040513d601f19601f820116820180604052508101906117a29190612d9e565b6117ac9190612c79565b6117b69190612d02565b6117c5565b670de0b6b3a76400005b905090565b6000806117d56119e2565b905060006117e382866118c5565b905083811015611828576040517f08c379a000000000000000000000000000000000000000000000000000000000815260040161181f90612fe1565b60405180910390fd5b61183582868684036119ea565b60019250505092915050565b60008061184c6119e2565b9050611859818585611d62565b600191505092915050565b61186c612240565b80600b819055507f3b3a01f24e8e3bef91ca993c1cd79a3b6f78a26b78a3f0051cf751404dee2832816040516118a291906129fa565b60405180910390a150565b7373968b9a57c6e53d41345fd57a6e6ae27d6cdb2f81565b6000600160008473ffffffffffffffffffffffffffffffffffffffff1673ffffffffffffffffffffffffffffffffffffffff16815260200190815260200160002060008373ffffffffffffffffffffffffffffffffffffffff1673ffffffffffffffffffffffffffffffffffffffff16815260200190815260200160002054905092915050565b600b5481565b600a5481565b611960612240565b600073ffffffffffffffffffffffffffffffffffffffff168173ffffffffffffffffffffffffffffffffffffffff1614156119d0576040517f08c379a00000000000000000000000000000000000000000000000000000000081526004016119c790613073565b60405180910390fd5b6119d9816122be565b50565b60095481565b600033905090565b600073ffffffffffffffffffffffffffffffffffffffff168373ffffffffffffffffffffffffffffffffffffffff161415611a5a576040517f08c379a0000000000000000000000000000000000000000000000000000000008152600401611a5190613105565b60405180910390fd5b600073ffffffffffffffffffffffffffffffffffffffff168273ffffffffffffffffffffffffffffffffffffffff161415611aca576040517f08c379a0000000000000000000000000000000000000000000000000000000008152600401611ac190613197565b60405180910390fd5b80600160008573ffffffffffffffffffffffffffffffffffffffff1673ffffffffffffffffffffffffffffffffffffffff16815260200190815260200160002060008473ffffffffffffffffffffffffffffffffffffffff1673ffffffffffffffffffffffffffffffffffffffff168152602001908152602001600020819055508173ffffffffffffffffffffffffffffffffffffffff168373ffffffffffffffffffffffffffffffffffffffff167f8c5be1e5ebec7d5bd14f71427d1e84f3dd0314c0f7b2291e5b200ac8c7c3b92583604051611ba891906129fa565b60405180910390a3505050565b6000818473ffffffffffffffffffffffffffffffffffffffff1663dd62ed3e30866040518363ffffffff1660e01b8152600401611bf39291906131b7565b60206040518083038186803b158015611c0b57600080fd5b505afa158015611c1f573d6000803e3d6000fd5b505050506040513d601f19601f82011682018060405250810190611c439190612d9e565b611c4d9190612d33565b9050611cd08463095ea7b360e01b8584604051602401611c6e929190612e02565b604051602081830303815290604052907bffffffffffffffffffffffffffffffffffffffffffffffffffffffff19166020820180517bffffffffffffffffffffffffffffffffffffffffffffffffffffffff838183161783525050505061256d565b50505050565b6000611ce284846118c5565b90507fffffffffffffffffffffffffffffffffffffffffffffffffffffffffffffffff8114611d5c5781811015611d4e576040517f08c379a0000000000000000000000000000000000000000000000000000000008152600401611d459061322c565b60405180910390fd5b611d5b84848484036119ea565b5b50505050565b600073ffffffffffffffffffffffffffffffffffffffff168373ffffffffffffffffffffffffffffffffffffffff161415611dd2576040517f08c379a0000000000000000000000000000000000000000000000000000000008152600401611dc9906132be565b60405180910390fd5b600073ffffffffffffffffffffffffffffffffffffffff168273ffffffffffffffffffffffffffffffffffffffff161415611e42576040517f08c379a0000000000000000000000000000000000000000000000000000000008152600401611e3990613350565b60405180910390fd5b611e4d838383612634565b60008060008573ffffffffffffffffffffffffffffffffffffffff1673ffffffffffffffffffffffffffffffffffffffff16815260200190815260200160002054905081811015611ed3576040517f08c379a0000000000000000000000000000000000000000000000000000000008152600401611eca906133e2565b60405180910390fd5b8181036000808673ffffffffffffffffffffffffffffffffffffffff1673ffffffffffffffffffffffffffffffffffffffff16815260200190815260200160002081905550816000808573ffffffffffffffffffffffffffffffffffffffff1673ffffffffffffffffffffffffffffffffffffffff1681526020019081526020016000206000828254611f669190612d33565b925050819055508273ffffffffffffffffffffffffffffffffffffffff168473ffffffffffffffffffffffffffffffffffffffff167fddf252ad1be2c89b69c2b068fc378daa952ba7f163c4a11628f55a4df523b3ef84604051611fca91906129fa565b60405180910390a3611fdd848484612639565b50505050565b600073ffffffffffffffffffffffffffffffffffffffff168273ffffffffffffffffffffffffffffffffffffffff161415612053576040517f08c379a000000000000000000000000000000000000000000000000000000000815260040161204a90613474565b60405180910390fd5b61205f82600083612634565b60008060008473ffffffffffffffffffffffffffffffffffffffff1673ffffffffffffffffffffffffffffffffffffffff168152602001908152602001600020549050818110156120e5576040517f08c379a00000000000000000000000000000000000000000000000000000000081526004016120dc90613506565b60405180910390fd5b8181036000808573ffffffffffffffffffffffffffffffffffffffff1673ffffffffffffffffffffffffffffffffffffffff16815260200190815260200160002081905550816002600082825461213c9190612c45565b92505081905550600073ffffffffffffffffffffffffffffffffffffffff168373ffffffffffffffffffffffffffffffffffffffff167fddf252ad1be2c89b69c2b068fc378daa952ba7f163c4a11628f55a4df523b3ef846040516121a191906129fa565b60405180910390a36121b583600084612639565b505050565b61223b8363a9059cbb60e01b84846040516024016121d9929190612e02565b604051602081830303815290604052907bffffffffffffffffffffffffffffffffffffffffffffffffffffffff19166020820180517bffffffffffffffffffffffffffffffffffffffffffffffffffffffff838183161783525050505061256d565b505050565b6122486119e2565b73ffffffffffffffffffffffffffffffffffffffff16612266611149565b73ffffffffffffffffffffffffffffffffffffffff16146122bc576040517f08c379a00000000000000000000000000000000000000000000000000000000081526004016122b390613572565b60405180910390fd5b565b6000600560009054906101000a900473ffffffffffffffffffffffffffffffffffffffff16905081600560006101000a81548173ffffffffffffffffffffffffffffffffffffffff021916908373ffffffffffffffffffffffffffffffffffffffff1602179055508173ffffffffffffffffffffffffffffffffffffffff168173ffffffffffffffffffffffffffffffffffffffff167f8be0079c531659141344cd1fd0a4f28419497f9722a3daafe3b4186f6b6457e060405160405180910390a35050565b612407846323b872dd60e01b8585856040516024016123a593929190613592565b604051602081830303815290604052907bffffffffffffffffffffffffffffffffffffffffffffffffffffffff19166020820180517bffffffffffffffffffffffffffffffffffffffffffffffffffffffff838183161783525050505061256d565b50505050565b600073ffffffffffffffffffffffffffffffffffffffff168273ffffffffffffffffffffffffffffffffffffffff16141561247d576040517f08c379a000000000000000000000000000000000000000000000000000000000815260040161247490613615565b60405180910390fd5b61248960008383612634565b806002600082825461249b9190612d33565b92505081905550806000808473ffffffffffffffffffffffffffffffffffffffff1673ffffffffffffffffffffffffffffffffffffffff16815260200190815260200160002060008282546124f09190612d33565b925050819055508173ffffffffffffffffffffffffffffffffffffffff16600073ffffffffffffffffffffffffffffffffffffffff167fddf252ad1be2c89b69c2b068fc378daa952ba7f163c4a11628f55a4df523b3ef8360405161255591906129fa565b60405180910390a361256960008383612639565b5050565b60006125cf826040518060400160405280602081526020017f5361666545524332303a206c6f772d6c6576656c2063616c6c206661696c65648152508573ffffffffffffffffffffffffffffffffffffffff1661263e9092919063ffffffff16565b905060008151111561262f57808060200190518101906125ef919061364a565b61262e576040517f08c379a0000000000000000000000000000000000000000000000000000000008152600401612625906136e9565b60405180910390fd5b5b505050565b505050565b505050565b606061264d8484600085612656565b90509392505050565b60608247101561269b576040517f08c379a00000000000000000000000000000000000000000000000000000000081526004016126929061377b565b60405180910390fd5b6126a48561276a565b6126e3576040517f08c379a00000000000000000000000000000000000000000000000000000000081526004016126da906137e7565b60405180910390fd5b6000808673ffffffffffffffffffffffffffffffffffffffff16858760405161270c919061384e565b60006040518083038185875af1925050503d8060008114612749576040519150601f19603f3d011682016040523d82523d6000602084013e61274e565b606091505b509150915061275e82828661278d565b92505050949350505050565b6000808273ffffffffffffffffffffffffffffffffffffffff163b119050919050565b6060831561279d578290506127ed565b6000835111156127b05782518084602001fd5b816040517f08c379a00000000000000000000000000000000000000000000000000000000081526004016127e4919061288d565b60405180910390fd5b9392505050565b600081519050919050565b600082825260208201905092915050565b60005b8381101561282e578082015181840152602081019050612813565b8381111561283d576000848401525b50505050565b6000601f19601f8301169050919050565b600061285f826127f4565b61286981856127ff565b9350612879818560208601612810565b61288281612843565b840191505092915050565b600060208201905081810360008301526128a78184612854565b905092915050565b600080fd5b600073ffffffffffffffffffffffffffffffffffffffff82169050919050565b60006128df826128b4565b9050919050565b6128ef816128d4565b81146128fa57600080fd5b50565b60008135905061290c816128e6565b92915050565b6000819050919050565b61292581612912565b811461293057600080fd5b50565b6000813590506129428161291c565b92915050565b6000806040838503121561295f5761295e6128af565b5b600061296d858286016128fd565b925050602061297e85828601612933565b9150509250929050565b60008115159050919050565b61299d81612988565b82525050565b60006020820190506129b86000830184612994565b92915050565b6000602082840312156129d4576129d36128af565b5b60006129e284828501612933565b91505092915050565b6129f481612912565b82525050565b6000602082019050612a0f60008301846129eb565b92915050565b600080600060608486031215612a2e57612a2d6128af565b5b6000612a3c868287016128fd565b9350506020612a4d868287016128fd565b9250506040612a5e86828701612933565b9150509250925092565b612a71816128d4565b82525050565b6000602082019050612a8c6000830184612a68565b92915050565b600060ff82169050919050565b612aa881612a92565b82525050565b6000602082019050612ac36000830184612a9f565b92915050565b600060208284031215612adf57612ade6128af565b5b6000612aed848285016128fd565b91505092915050565b612aff81612988565b8114612b0a57600080fd5b50565b600081359050612b1c81612af6565b92915050565b600080600060608486031215612b3b57612b3a6128af565b5b6000612b4986828701612933565b9350506020612b5a86828701612b0d565b9250506040612b6b86828701612b0d565b9150509250925092565b60008060408385031215612b8c57612b8b6128af565b5b6000612b9a858286016128fd565b9250506020612bab858286016128fd565b9150509250929050565b7f4e487b7100000000000000000000000000000000000000000000000000000000600052602260045260246000fd5b60006002820490506001821680612bfc57607f821691505b60208210811415612c1057612c0f612bb5565b5b50919050565b7f4e487b7100000000000000000000000000000000000000000000000000000000600052601160045260246000fd5b6000612c5082612912565b9150612c5b83612912565b925082821015612c6e57612c6d612c16565b5b828203905092915050565b6000612c8482612912565b9150612c8f83612912565b9250817fffffffffffffffffffffffffffffffffffffffffffffffffffffffffffffffff0483118215151615612cc857612cc7612c16565b5b828202905092915050565b7f4e487b7100000000000000000000000000000000000000000000000000000000600052601260045260246000fd5b6000612d0d82612912565b9150612d1883612912565b925082612d2857612d27612cd3565b5b828204905092915050565b6000612d3e82612912565b9150612d4983612912565b9250827fffffffffffffffffffffffffffffffffffffffffffffffffffffffffffffffff03821115612d7e57612d7d612c16565b5b828201905092915050565b600081519050612d988161291c565b92915050565b600060208284031215612db457612db36128af565b5b6000612dc284828501612d89565b91505092915050565b6000606082019050612de06000830186612a68565b612ded60208301856129eb565b612dfa6040830184612994565b949350505050565b6000604082019050612e176000830185612a68565b612e2460208301846129eb565b9392505050565b7f5b77697468647261775d20496e73756666696369656e742062616c616e636521600082015250565b6000612e616020836127ff565b9150612e6c82612e2b565b602082019050919050565b60006020820190508181036000830152612e9081612e54565b9050919050565b7f5b77697468647261775d204561726c7920776974686472617721000000000000600082015250565b6000612ecd601a836127ff565b9150612ed882612e97565b602082019050919050565b60006020820190508181036000830152612efc81612ec0565b9050919050565b7f5b6465706f7369745d20416c7265616479206c6f636b65642100000000000000600082015250565b6000612f396019836127ff565b9150612f4482612f03565b602082019050919050565b60006020820190508181036000830152612f6881612f2c565b9050919050565b7f45524332303a2064656372656173656420616c6c6f77616e63652062656c6f7760008201527f207a65726f000000000000000000000000000000000000000000000000000000602082015250565b6000612fcb6025836127ff565b9150612fd682612f6f565b604082019050919050565b60006020820190508181036000830152612ffa81612fbe565b9050919050565b7f4f776e61626c653a206e6577206f776e657220697320746865207a65726f206160008201527f6464726573730000000000000000000000000000000000000000000000000000602082015250565b600061305d6026836127ff565b915061306882613001565b604082019050919050565b6000602082019050818103600083015261308c81613050565b9050919050565b7f45524332303a20617070726f76652066726f6d20746865207a65726f2061646460008201527f7265737300000000000000000000000000000000000000000000000000000000602082015250565b60006130ef6024836127ff565b91506130fa82613093565b604082019050919050565b6000602082019050818103600083015261311e816130e2565b9050919050565b7f45524332303a20617070726f766520746f20746865207a65726f20616464726560008201527f7373000000000000000000000000000000000000000000000000000000000000602082015250565b60006131816022836127ff565b915061318c82613125565b604082019050919050565b600060208201905081810360008301526131b081613174565b9050919050565b60006040820190506131cc6000830185612a68565b6131d96020830184612a68565b9392505050565b7f45524332303a20696e73756666696369656e7420616c6c6f77616e6365000000600082015250565b6000613216601d836127ff565b9150613221826131e0565b602082019050919050565b6000602082019050818103600083015261324581613209565b9050919050565b7f45524332303a207472616e736665722066726f6d20746865207a65726f20616460008201527f6472657373000000000000000000000000000000000000000000000000000000602082015250565b60006132a86025836127ff565b91506132b38261324c565b604082019050919050565b600060208201905081810360008301526132d78161329b565b9050919050565b7f45524332303a207472616e7366657220746f20746865207a65726f206164647260008201527f6573730000000000000000000000000000000000000000000000000000000000602082015250565b600061333a6023836127ff565b9150613345826132de565b604082019050919050565b600060208201905081810360008301526133698161332d565b9050919050565b7f45524332303a207472616e7366657220616d6f756e742065786365656473206260008201527f616c616e63650000000000000000000000000000000000000000000000000000602082015250565b60006133cc6026836127ff565b91506133d782613370565b604082019050919050565b600060208201905081810360008301526133fb816133bf565b9050919050565b7f45524332303a206275726e2066726f6d20746865207a65726f2061646472657360008201527f7300000000000000000000000000000000000000000000000000000000000000602082015250565b600061345e6021836127ff565b915061346982613402565b604082019050919050565b6000602082019050818103600083015261348d81613451565b9050919050565b7f45524332303a206275726e20616d6f756e7420657863656564732062616c616e60008201527f6365000000000000000000000000000000000000000000000000000000000000602082015250565b60006134f06022836127ff565b91506134fb82613494565b604082019050919050565b6000602082019050818103600083015261351f816134e3565b9050919050565b7f4f776e61626c653a2063616c6c6572206973206e6f7420746865206f776e6572600082015250565b600061355c6020836127ff565b915061356782613526565b602082019050919050565b6000602082019050818103600083015261358b8161354f565b9050919050565b60006060820190506135a76000830186612a68565b6135b46020830185612a68565b6135c160408301846129eb565b949350505050565b7f45524332303a206d696e7420746f20746865207a65726f206164647265737300600082015250565b60006135ff601f836127ff565b915061360a826135c9565b602082019050919050565b6000602082019050818103600083015261362e816135f2565b9050919050565b60008151905061364481612af6565b92915050565b6000602082840312156136605761365f6128af565b5b600061366e84828501613635565b91505092915050565b7f5361666545524332303a204552433230206f7065726174696f6e20646964206e60008201527f6f74207375636365656400000000000000000000000000000000000000000000602082015250565b60006136d3602a836127ff565b91506136de82613677565b604082019050919050565b60006020820190508181036000830152613702816136c6565b9050919050565b7f416464726573733a20696e73756666696369656e742062616c616e636520666f60008201527f722063616c6c0000000000000000000000000000000000000000000000000000602082015250565b60006137656026836127ff565b915061377082613709565b604082019050919050565b6000602082019050818103600083015261379481613758565b9050919050565b7f416464726573733a2063616c6c20746f206e6f6e2d636f6e7472616374000000600082015250565b60006137d1601d836127ff565b91506137dc8261379b565b602082019050919050565b60006020820190508181036000830152613800816137c4565b9050919050565b600081519050919050565b600081905092915050565b600061382882613807565b6138328185613812565b9350613842818560208601612810565b80840191505092915050565b600061385a828461381d565b91508190509291505056fea2646970667358221220380e17248778514e92bca484f75062abf3c8084de785a9c9168672227b52cdee64736f6c63430008090033",
  "linkReferences": {},
  "deployedLinkReferences": {}
}