{
  "_format": "hh-sol-artifact-1",
  "contractName": "FixedStrategy",
  "sourceName": "contracts/FixedStrategy.sol",
  "abi": [
    {
      "inputs": [
        {
          "internalType": "address",
          "name": "angleVaultAddr",
          "type": "address"
        },
        {
          "internalType": "address",
          "name": "angleStratAddr",
          "type": "address"
        },
        {
          "internalType": "address",
          "name": "lockToken",
          "type": "address"
        }
      ],
      "stateMutability": "nonpayable",
      "type": "constructor"
    },
    {
      "anonymous": false,
      "inputs": [
        {
          "indexed": true,
          "internalType": "address",
          "name": "owner",
          "type": "address"
        },
        {
          "indexed": true,
          "internalType": "address",
          "name": "spender",
          "type": "address"
        },
        {
          "indexed": false,
          "internalType": "uint256",
          "name": "value",
          "type": "uint256"
        }
      ],
      "name": "Approval",
      "type": "event"
    },
    {
      "anonymous": false,
      "inputs": [
        {
          "indexed": true,
          "internalType": "address",
          "name": "previousOwner",
          "type": "address"
        },
        {
          "indexed": true,
          "internalType": "address",
          "name": "newOwner",
          "type": "address"
        }
      ],
      "name": "OwnershipTransferred",
      "type": "event"
    },
    {
      "anonymous": false,
      "inputs": [
        {
          "indexed": true,
          "internalType": "address",
          "name": "from",
          "type": "address"
        },
        {
          "indexed": true,
          "internalType": "address",
          "name": "to",
          "type": "address"
        },
        {
          "indexed": false,
          "internalType": "uint256",
          "name": "value",
          "type": "uint256"
        }
      ],
      "name": "Transfer",
      "type": "event"
    },
    {
      "inputs": [],
      "name": "ANGL",
      "outputs": [
        {
          "internalType": "address",
          "name": "",
          "type": "address"
        }
      ],
      "stateMutability": "view",
      "type": "function"
    },
    {
      "inputs": [],
      "name": "SDT",
      "outputs": [
        {
          "internalType": "address",
          "name": "",
          "type": "address"
        }
      ],
      "stateMutability": "view",
      "type": "function"
    },
    {
      "inputs": [
        {
          "internalType": "address",
          "name": "owner",
          "type": "address"
        },
        {
          "internalType": "address",
          "name": "spender",
          "type": "address"
        }
      ],
      "name": "allowance",
      "outputs": [
        {
          "internalType": "uint256",
          "name": "",
          "type": "uint256"
        }
      ],
      "stateMutability": "view",
      "type": "function"
    },
    {
      "inputs": [
        {
          "internalType": "address",
          "name": "spender",
          "type": "address"
        },
        {
          "internalType": "uint256",
          "name": "amount",
          "type": "uint256"
        }
      ],
      "name": "approve",
      "outputs": [
        {
          "internalType": "bool",
          "name": "",
          "type": "bool"
        }
      ],
      "stateMutability": "nonpayable",
      "type": "function"
    },
    {
      "inputs": [
        {
          "internalType": "address",
          "name": "account",
          "type": "address"
        }
      ],
      "name": "balanceOf",
      "outputs": [
        {
          "internalType": "uint256",
          "name": "",
          "type": "uint256"
        }
      ],
      "stateMutability": "view",
      "type": "function"
    },
    {
      "inputs": [],
      "name": "claimerFee",
      "outputs": [
        {
          "internalType": "uint256",
          "name": "",
          "type": "uint256"
        }
      ],
      "stateMutability": "view",
      "type": "function"
    },
    {
      "inputs": [],
      "name": "collectedFee",
      "outputs": [
        {
          "internalType": "uint256",
          "name": "",
          "type": "uint256"
        }
      ],
      "stateMutability": "view",
      "type": "function"
    },
    {
      "inputs": [],
      "name": "currentRatioForUser",
      "outputs": [
        {
          "internalType": "uint256",
          "name": "",
          "type": "uint256"
        }
      ],
      "stateMutability": "view",
      "type": "function"
    },
    {
      "inputs": [],
      "name": "decimals",
      "outputs": [
        {
          "internalType": "uint8",
          "name": "",
          "type": "uint8"
        }
      ],
      "stateMutability": "view",
      "type": "function"
    },
    {
      "inputs": [
        {
          "internalType": "address",
          "name": "spender",
          "type": "address"
        },
        {
          "internalType": "uint256",
          "name": "subtractedValue",
          "type": "uint256"
        }
      ],
      "name": "decreaseAllowance",
      "outputs": [
        {
          "internalType": "bool",
          "name": "",
          "type": "bool"
        }
      ],
      "stateMutability": "nonpayable",
      "type": "function"
    },
    {
      "inputs": [
        {
          "internalType": "uint256",
          "name": "amount",
          "type": "uint256"
        },
        {
          "internalType": "bool",
          "name": "earnFSD",
          "type": "bool"
        },
        {
          "internalType": "bool",
          "name": "earnFT",
          "type": "bool"
        }
      ],
      "name": "deposit",
      "outputs": [],
      "stateMutability": "nonpayable",
      "type": "function"
    },
    {
      "inputs": [],
      "name": "earn",
      "outputs": [],
      "stateMutability": "nonpayable",
      "type": "function"
    },
    {
      "inputs": [],
      "name": "harvest",
      "outputs": [],
      "stateMutability": "nonpayable",
      "type": "function"
    },
    {
      "inputs": [
        {
          "internalType": "address",
          "name": "spender",
          "type": "address"
        },
        {
          "internalType": "uint256",
          "name": "addedValue",
          "type": "uint256"
        }
      ],
      "name": "increaseAllowance",
      "outputs": [
        {
          "internalType": "bool",
          "name": "",
          "type": "bool"
        }
      ],
      "stateMutability": "nonpayable",
      "type": "function"
    },
    {
      "inputs": [
        {
          "internalType": "uint256",
          "name": "amount",
          "type": "uint256"
        }
      ],
      "name": "maxEarningToDate",
      "outputs": [
        {
          "internalType": "uint256",
          "name": "",
          "type": "uint256"
        }
      ],
      "stateMutability": "view",
      "type": "function"
    },
    {
      "inputs": [],
      "name": "maxYield",
      "outputs": [
        {
          "internalType": "uint256",
          "name": "",
          "type": "uint256"
        }
      ],
      "stateMutability": "view",
      "type": "function"
    },
    {
      "inputs": [],
      "name": "name",
      "outputs": [
        {
          "internalType": "string",
          "name": "",
          "type": "string"
        }
      ],
      "stateMutability": "view",
      "type": "function"
    },
    {
      "inputs": [],
      "name": "owner",
      "outputs": [
        {
          "internalType": "address",
          "name": "",
          "type": "address"
        }
      ],
      "stateMutability": "view",
      "type": "function"
    },
    {
      "inputs": [],
      "name": "pricePerShare",
      "outputs": [
        {
          "internalType": "uint256",
          "name": "",
          "type": "uint256"
        }
      ],
      "stateMutability": "view",
      "type": "function"
    },
    {
      "inputs": [],
      "name": "renounceOwnership",
      "outputs": [],
      "stateMutability": "nonpayable",
      "type": "function"
    },
    {
      "inputs": [
        {
          "internalType": "uint256",
          "name": "",
          "type": "uint256"
        }
      ],
      "name": "rewardTokens",
      "outputs": [
        {
          "internalType": "address",
          "name": "",
          "type": "address"
        }
      ],
      "stateMutability": "view",
      "type": "function"
    },
    {
      "inputs": [
        {
          "internalType": "uint256",
          "name": "newFee",
          "type": "uint256"
        }
      ],
      "name": "setFee",
      "outputs": [],
      "stateMutability": "nonpayable",
      "type": "function"
    },
    {
      "inputs": [
        {
          "internalType": "uint256",
          "name": "newYield",
          "type": "uint256"
        }
      ],
      "name": "setMaxYield",
      "outputs": [],
      "stateMutability": "nonpayable",
      "type": "function"
    },
    {
      "inputs": [],
      "name": "symbol",
      "outputs": [
        {
          "internalType": "string",
          "name": "",
          "type": "string"
        }
      ],
      "stateMutability": "view",
      "type": "function"
    },
    {
      "inputs": [],
      "name": "totalSupply",
      "outputs": [
        {
          "internalType": "uint256",
          "name": "",
          "type": "uint256"
        }
      ],
      "stateMutability": "view",
      "type": "function"
    },
    {
      "inputs": [
        {
          "internalType": "address",
          "name": "to",
          "type": "address"
        },
        {
          "internalType": "uint256",
          "name": "amount",
          "type": "uint256"
        }
      ],
      "name": "transfer",
      "outputs": [
        {
          "internalType": "bool",
          "name": "",
          "type": "bool"
        }
      ],
      "stateMutability": "nonpayable",
      "type": "function"
    },
    {
      "inputs": [
        {
          "internalType": "address",
          "name": "from",
          "type": "address"
        },
        {
          "internalType": "address",
          "name": "to",
          "type": "address"
        },
        {
          "internalType": "uint256",
          "name": "amount",
          "type": "uint256"
        }
      ],
      "name": "transferFrom",
      "outputs": [
        {
          "internalType": "bool",
          "name": "",
          "type": "bool"
        }
      ],
      "stateMutability": "nonpayable",
      "type": "function"
    },
    {
      "inputs": [
        {
          "internalType": "address",
          "name": "newOwner",
          "type": "address"
        }
      ],
      "name": "transferOwnership",
      "outputs": [],
      "stateMutability": "nonpayable",
      "type": "function"
    },
    {
      "inputs": [
        {
          "internalType": "uint256",
          "name": "shares",
          "type": "uint256"
        }
      ],
      "name": "withdraw",
      "outputs": [],
      "stateMutability": "nonpayable",
      "type": "function"
    }
  ],
  "bytecode": "0x60806040523480156200001157600080fd5b5060405162003c7838038062003c788339818101604052810190620000379190620004a9565b6040518060400160405280601081526020017f73616e465241585f4555525f46535452000000000000000000000000000000008152506040518060400160405280600681526020017f53464553545200000000000000000000000000000000000000000000000000008152508160039080519060200190620000bb9291906200038f565b508060049080519060200190620000d49291906200038f565b505050620000f7620000eb620002c160201b60201c565b620002c960201b60201c565b82600660006101000a81548173ffffffffffffffffffffffffffffffffffffffff021916908373ffffffffffffffffffffffffffffffffffffffff16021790555081600760006101000a81548173ffffffffffffffffffffffffffffffffffffffff021916908373ffffffffffffffffffffffffffffffffffffffff16021790555080600860006101000a81548173ffffffffffffffffffffffffffffffffffffffff021916908373ffffffffffffffffffffffffffffffffffffffff160217905550600a6009819055506050600b81905550600c7331429d1856ad1377a8a0079410b297e1a9e214c29080600181540180825580915050600190039060005260206000200160009091909190916101000a81548173ffffffffffffffffffffffffffffffffffffffff021916908373ffffffffffffffffffffffffffffffffffffffff160217905550600c7373968b9a57c6e53d41345fd57a6e6ae27d6cdb2f9080600181540180825580915050600190039060005260206000200160009091909190916101000a81548173ffffffffffffffffffffffffffffffffffffffff021916908373ffffffffffffffffffffffffffffffffffffffff1602179055505050506200056a565b600033905090565b6000600560009054906101000a900473ffffffffffffffffffffffffffffffffffffffff16905081600560006101000a81548173ffffffffffffffffffffffffffffffffffffffff021916908373ffffffffffffffffffffffffffffffffffffffff1602179055508173ffffffffffffffffffffffffffffffffffffffff168173ffffffffffffffffffffffffffffffffffffffff167f8be0079c531659141344cd1fd0a4f28419497f9722a3daafe3b4186f6b6457e060405160405180910390a35050565b8280546200039d9062000534565b90600052602060002090601f016020900481019282620003c157600085556200040d565b82601f10620003dc57805160ff19168380011785556200040d565b828001600101855582156200040d579182015b828111156200040c578251825591602001919060010190620003ef565b5b5090506200041c919062000420565b5090565b5b808211156200043b57600081600090555060010162000421565b5090565b600080fd5b600073ffffffffffffffffffffffffffffffffffffffff82169050919050565b6000620004718262000444565b9050919050565b620004838162000464565b81146200048f57600080fd5b50565b600081519050620004a38162000478565b92915050565b600080600060608486031215620004c557620004c46200043f565b5b6000620004d58682870162000492565b9350506020620004e88682870162000492565b9250506040620004fb8682870162000492565b9150509250925092565b7f4e487b7100000000000000000000000000000000000000000000000000000000600052602260045260246000fd5b600060028204905060018216806200054d57607f821691505b6020821081141562000564576200056362000505565b5b50919050565b6136fe806200057a6000396000f3fe608060405234801561001057600080fd5b50600436106101cf5760003560e01c80637bb7bed111610104578063a94072b6116100a2578063e165443311610071578063e165443314610520578063e811f50a1461053e578063f2fde38b1461055c578063fc0f372e14610578576101cf565b8063a94072b6146104ac578063ba32c619146104c8578063d389800f146104e6578063dd62ed3e146104f0576101cf565b806395fb5f83116100de57806395fb5f831461041257806399530b061461042e578063a457c2d71461044c578063a9059cbb1461047c576101cf565b80637bb7bed1146103a65780638da5cb5b146103d657806395d89b41146103f4576101cf565b8063301234e6116101715780634641257d1161014b5780634641257d1461034657806369fe0e2d1461035057806370a082311461036c578063715018a61461039c576101cf565b8063301234e6146102da578063313ce567146102f85780633950935114610316576101cf565b8063147ec25f116101ad578063147ec25f1461025257806318160ddd1461027057806323b872dd1461028e5780632e1a7d4d146102be576101cf565b806306fdde03146101d4578063095ea7b3146101f257806310698a4a14610222575b600080fd5b6101dc610596565b6040516101e99190612719565b60405180910390f35b61020c600480360381019061020791906127d4565b610628565b604051610219919061282f565b60405180910390f35b61023c6004803603810190610237919061284a565b61064b565b6040516102499190612886565b60405180910390f35b61025a6106e5565b6040516102679190612886565b60405180910390f35b610278610804565b6040516102859190612886565b60405180910390f35b6102a860048036038101906102a391906128a1565b61080e565b6040516102b5919061282f565b60405180910390f35b6102d860048036038101906102d3919061284a565b61083d565b005b6102e2610d22565b6040516102ef9190612903565b60405180910390f35b610300610d3a565b60405161030d919061293a565b60405180910390f35b610330600480360381019061032b91906127d4565b610d43565b60405161033d919061282f565b60405180910390f35b61034e610d7a565b005b61036a6004803603810190610365919061284a565b610e33565b005b61038660048036038101906103819190612955565b610e45565b6040516103939190612886565b60405180910390f35b6103a4610e8d565b005b6103c060048036038101906103bb919061284a565b610ea1565b6040516103cd9190612903565b60405180910390f35b6103de610ee0565b6040516103eb9190612903565b60405180910390f35b6103fc610f0a565b6040516104099190612719565b60405180910390f35b61042c600480360381019061042791906129ae565b610f9c565b005b610436611497565b6040516104439190612886565b60405180910390f35b610466600480360381019061046191906127d4565b61158b565b604051610473919061282f565b60405180910390f35b610496600480360381019061049191906127d4565b611602565b6040516104a3919061282f565b60405180910390f35b6104c660048036038101906104c1919061284a565b611625565b005b6104d0611637565b6040516104dd9190612903565b60405180910390f35b6104ee61164f565b005b61050a60048036038101906105059190612a01565b611872565b6040516105179190612886565b60405180910390f35b6105286118f9565b6040516105359190612886565b60405180910390f35b6105466118ff565b6040516105539190612886565b60405180910390f35b61057660048036038101906105719190612955565b611905565b005b610580611989565b60405161058d9190612886565b60405180910390f35b6060600380546105a590612a70565b80601f01602080910402602001604051908101604052809291908181526020018280546105d190612a70565b801561061e5780601f106105f35761010080835404028352916020019161061e565b820191906000526020600020905b81548152906001019060200180831161060157829003601f168201915b5050505050905090565b60008061063361198f565b9050610640818585611997565b600191505092915050565b600080600d60003373ffffffffffffffffffffffffffffffffffffffff1673ffffffffffffffffffffffffffffffffffffffff16815260200190815260200160002054426106999190612ad1565b90506103e86301e13380600b54836106b19190612b05565b6106bb9190612b8e565b6103e86106c89190612bbf565b846106d39190612b05565b6106dd9190612b8e565b915050919050565b600080600e60003373ffffffffffffffffffffffffffffffffffffffff1673ffffffffffffffffffffffffffffffffffffffff168152602001908152602001600020546103e8600e60003373ffffffffffffffffffffffffffffffffffffffff1673ffffffffffffffffffffffffffffffffffffffff16815260200190815260200160002054610773611497565b61077d9190612ad1565b6107879190612b05565b6107919190612b8e565b90506000600d60003373ffffffffffffffffffffffffffffffffffffffff1673ffffffffffffffffffffffffffffffffffffffff16815260200190815260200160002054426107e09190612ad1565b9050806301e13380836107f39190612b05565b6107fd9190612b8e565b9250505090565b6000600254905090565b60008061081961198f565b9050610826858285611b62565b610831858585611bee565b60019150509392505050565b8061084733610e45565b1015610888576040517f08c379a000000000000000000000000000000000000000000000000000000000815260040161087f90612c61565b60405180910390fd5b426276a700600d60003373ffffffffffffffffffffffffffffffffffffffff1673ffffffffffffffffffffffffffffffffffffffff168152602001908152602001600020546108d79190612bbf565b1115610918576040517f08c379a000000000000000000000000000000000000000000000000000000000815260040161090f90612ccd565b60405180910390fd5b6000670de0b6b3a764000061092b611497565b836109369190612b05565b6109409190612b8e565b905061094c3383611e6f565b600860009054906101000a900473ffffffffffffffffffffffffffffffffffffffff1673ffffffffffffffffffffffffffffffffffffffff166370a08231306040518263ffffffff1660e01b81526004016109a79190612903565b60206040518083038186803b1580156109bf57600080fd5b505afa1580156109d3573d6000803e3d6000fd5b505050506040513d601f19601f820116820180604052508101906109f79190612d02565b600a5482610a059190612bbf565b1115610b5b57600660009054906101000a900473ffffffffffffffffffffffffffffffffffffffff1673ffffffffffffffffffffffffffffffffffffffff16632e1a7d4d600860009054906101000a900473ffffffffffffffffffffffffffffffffffffffff1673ffffffffffffffffffffffffffffffffffffffff166370a08231306040518263ffffffff1660e01b8152600401610aa49190612903565b60206040518083038186803b158015610abc57600080fd5b505afa158015610ad0573d6000803e3d6000fd5b505050506040513d601f19601f82011682018060405250810190610af49190612d02565b600a5484610b029190612bbf565b610b0c9190612ad1565b6040518263ffffffff1660e01b8152600401610b289190612886565b600060405180830381600087803b158015610b4257600080fd5b505af1158015610b56573d6000803e3d6000fd5b505050505b6000610b6633610e45565b1415610bf357600e60003373ffffffffffffffffffffffffffffffffffffffff1673ffffffffffffffffffffffffffffffffffffffff16815260200190815260200160002060009055600d60003373ffffffffffffffffffffffffffffffffffffffff1673ffffffffffffffffffffffffffffffffffffffff168152602001908152602001600020600090555b600b54610bfe6106e5565b10610cd1576000610c6b670de0b6b3a7640000600e60003373ffffffffffffffffffffffffffffffffffffffff1673ffffffffffffffffffffffffffffffffffffffff1681526020019081526020016000205485610c5c9190612b05565b610c669190612b8e565b61064b565b9050610ccc610c78610ee0565b8284610c849190612ad1565b600860009054906101000a900473ffffffffffffffffffffffffffffffffffffffff1673ffffffffffffffffffffffffffffffffffffffff166120469092919063ffffffff16565b809150505b610d1e3382600860009054906101000a900473ffffffffffffffffffffffffffffffffffffffff1673ffffffffffffffffffffffffffffffffffffffff166120469092919063ffffffff16565b5050565b7331429d1856ad1377a8a0079410b297e1a9e214c281565b60006012905090565b600080610d4e61198f565b9050610d6f818585610d608589611872565b610d6a9190612bbf565b611997565b600191505092915050565b610d826120cc565b600760009054906101000a900473ffffffffffffffffffffffffffffffffffffffff1673ffffffffffffffffffffffffffffffffffffffff16631e83409a600860009054906101000a900473ffffffffffffffffffffffffffffffffffffffff166040518263ffffffff1660e01b8152600401610dff9190612903565b600060405180830381600087803b158015610e1957600080fd5b505af1158015610e2d573d6000803e3d6000fd5b50505050565b610e3b6120cc565b8060098190555050565b60008060008373ffffffffffffffffffffffffffffffffffffffff1673ffffffffffffffffffffffffffffffffffffffff168152602001908152602001600020549050919050565b610e956120cc565b610e9f600061214a565b565b600c8181548110610eb157600080fd5b906000526020600020016000915054906101000a900473ffffffffffffffffffffffffffffffffffffffff1681565b6000600560009054906101000a900473ffffffffffffffffffffffffffffffffffffffff16905090565b606060048054610f1990612a70565b80601f0160208091040260200160405190810160405280929190818152602001828054610f4590612a70565b8015610f925780601f10610f6757610100808354040283529160200191610f92565b820191906000526020600020905b815481529060010190602001808311610f7557829003601f168201915b5050505050905090565b6000600e60003373ffffffffffffffffffffffffffffffffffffffff1673ffffffffffffffffffffffffffffffffffffffff168152602001908152602001600020541461101e576040517f08c379a000000000000000000000000000000000000000000000000000000000815260040161101590612d7b565b60405180910390fd5b42600d60003373ffffffffffffffffffffffffffffffffffffffff1673ffffffffffffffffffffffffffffffffffffffff1681526020019081526020016000208190555061106a611497565b600e60003373ffffffffffffffffffffffffffffffffffffffff1673ffffffffffffffffffffffffffffffffffffffff168152602001908152602001600020819055506110fc333085600860009054906101000a900473ffffffffffffffffffffffffffffffffffffffff1673ffffffffffffffffffffffffffffffffffffffff16612210909392919063ffffffff16565b600860009054906101000a900473ffffffffffffffffffffffffffffffffffffffff1673ffffffffffffffffffffffffffffffffffffffff1663095ea7b3600660009054906101000a900473ffffffffffffffffffffffffffffffffffffffff16856040518363ffffffff1660e01b815260040161117b929190612d9b565b602060405180830381600087803b15801561119557600080fd5b505af11580156111a9573d6000803e3d6000fd5b505050506040513d601f19601f820116820180604052508101906111cd9190612dd9565b508061121f576000612710600954856111e69190612b05565b6111f09190612b8e565b905080846111fe9190612ad1565b935080600a60008282546112129190612bbf565b9250508190555050611238565b600a548361122d9190612bbf565b92506000600a819055505b6000600660009054906101000a900473ffffffffffffffffffffffffffffffffffffffff1673ffffffffffffffffffffffffffffffffffffffff166370a08231306040518263ffffffff1660e01b81526004016112959190612903565b60206040518083038186803b1580156112ad57600080fd5b505afa1580156112c1573d6000803e3d6000fd5b505050506040513d601f19601f820116820180604052508101906112e59190612d02565b9050600660009054906101000a900473ffffffffffffffffffffffffffffffffffffffff1673ffffffffffffffffffffffffffffffffffffffff16633edd11283086866040518463ffffffff1660e01b815260040161134693929190612e06565b600060405180830381600087803b15801561136057600080fd5b505af1158015611374573d6000803e3d6000fd5b50505050600081600660009054906101000a900473ffffffffffffffffffffffffffffffffffffffff1673ffffffffffffffffffffffffffffffffffffffff166370a08231306040518263ffffffff1660e01b81526004016113d69190612903565b60206040518083038186803b1580156113ee57600080fd5b505afa158015611402573d6000803e3d6000fd5b505050506040513d601f19601f820116820180604052508101906114269190612d02565b6114309190612ad1565b9050600061143c610804565b14156114515761144c3382612299565b611481565b6114803361145d611497565b670de0b6b3a7640000846114719190612b05565b61147b9190612b8e565b612299565b5b82156114905761148f61164f565b5b5050505050565b6000806114a2610804565b1461157c576114af610804565b670de0b6b3a7640000600660009054906101000a900473ffffffffffffffffffffffffffffffffffffffff1673ffffffffffffffffffffffffffffffffffffffff166370a08231306040518263ffffffff1660e01b81526004016115139190612903565b60206040518083038186803b15801561152b57600080fd5b505afa15801561153f573d6000803e3d6000fd5b505050506040513d601f19601f820116820180604052508101906115639190612d02565b61156d9190612b05565b6115779190612b8e565b611586565b670de0b6b3a76400005b905090565b60008061159661198f565b905060006115a48286611872565b9050838110156115e9576040517f08c379a00000000000000000000000000000000000000000000000000000000081526004016115e090612eaf565b60405180910390fd5b6115f68286868403611997565b60019250505092915050565b60008061160d61198f565b905061161a818585611bee565b600191505092915050565b61162d6120cc565b80600b8190555050565b7373968b9a57c6e53d41345fd57a6e6ae27d6cdb2f81565b6000600a54600860009054906101000a900473ffffffffffffffffffffffffffffffffffffffff1673ffffffffffffffffffffffffffffffffffffffff166370a08231306040518263ffffffff1660e01b81526004016116af9190612903565b60206040518083038186803b1580156116c757600080fd5b505afa1580156116db573d6000803e3d6000fd5b505050506040513d601f19601f820116820180604052508101906116ff9190612d02565b6117099190612ad1565b9050600860009054906101000a900473ffffffffffffffffffffffffffffffffffffffff1673ffffffffffffffffffffffffffffffffffffffff1663095ea7b3600660009054906101000a900473ffffffffffffffffffffffffffffffffffffffff16836040518363ffffffff1660e01b815260040161178a929190612d9b565b602060405180830381600087803b1580156117a457600080fd5b505af11580156117b8573d6000803e3d6000fd5b505050506040513d601f19601f820116820180604052508101906117dc9190612dd9565b50600660009054906101000a900473ffffffffffffffffffffffffffffffffffffffff1673ffffffffffffffffffffffffffffffffffffffff16633edd1128308360006040518463ffffffff1660e01b815260040161183d93929190612e06565b600060405180830381600087803b15801561185757600080fd5b505af115801561186b573d6000803e3d6000fd5b5050505050565b6000600160008473ffffffffffffffffffffffffffffffffffffffff1673ffffffffffffffffffffffffffffffffffffffff16815260200190815260200160002060008373ffffffffffffffffffffffffffffffffffffffff1673ffffffffffffffffffffffffffffffffffffffff16815260200190815260200160002054905092915050565b600b5481565b600a5481565b61190d6120cc565b600073ffffffffffffffffffffffffffffffffffffffff168173ffffffffffffffffffffffffffffffffffffffff16141561197d576040517f08c379a000000000000000000000000000000000000000000000000000000000815260040161197490612f41565b60405180910390fd5b6119868161214a565b50565b60095481565b600033905090565b600073ffffffffffffffffffffffffffffffffffffffff168373ffffffffffffffffffffffffffffffffffffffff161415611a07576040517f08c379a00000000000000000000000000000000000000000000000000000000081526004016119fe90612fd3565b60405180910390fd5b600073ffffffffffffffffffffffffffffffffffffffff168273ffffffffffffffffffffffffffffffffffffffff161415611a77576040517f08c379a0000000000000000000000000000000000000000000000000000000008152600401611a6e90613065565b60405180910390fd5b80600160008573ffffffffffffffffffffffffffffffffffffffff1673ffffffffffffffffffffffffffffffffffffffff16815260200190815260200160002060008473ffffffffffffffffffffffffffffffffffffffff1673ffffffffffffffffffffffffffffffffffffffff168152602001908152602001600020819055508173ffffffffffffffffffffffffffffffffffffffff168373ffffffffffffffffffffffffffffffffffffffff167f8c5be1e5ebec7d5bd14f71427d1e84f3dd0314c0f7b2291e5b200ac8c7c3b92583604051611b559190612886565b60405180910390a3505050565b6000611b6e8484611872565b90507fffffffffffffffffffffffffffffffffffffffffffffffffffffffffffffffff8114611be85781811015611bda576040517f08c379a0000000000000000000000000000000000000000000000000000000008152600401611bd1906130d1565b60405180910390fd5b611be78484848403611997565b5b50505050565b600073ffffffffffffffffffffffffffffffffffffffff168373ffffffffffffffffffffffffffffffffffffffff161415611c5e576040517f08c379a0000000000000000000000000000000000000000000000000000000008152600401611c5590613163565b60405180910390fd5b600073ffffffffffffffffffffffffffffffffffffffff168273ffffffffffffffffffffffffffffffffffffffff161415611cce576040517f08c379a0000000000000000000000000000000000000000000000000000000008152600401611cc5906131f5565b60405180910390fd5b611cd98383836123f9565b60008060008573ffffffffffffffffffffffffffffffffffffffff1673ffffffffffffffffffffffffffffffffffffffff16815260200190815260200160002054905081811015611d5f576040517f08c379a0000000000000000000000000000000000000000000000000000000008152600401611d5690613287565b60405180910390fd5b8181036000808673ffffffffffffffffffffffffffffffffffffffff1673ffffffffffffffffffffffffffffffffffffffff16815260200190815260200160002081905550816000808573ffffffffffffffffffffffffffffffffffffffff1673ffffffffffffffffffffffffffffffffffffffff1681526020019081526020016000206000828254611df29190612bbf565b925050819055508273ffffffffffffffffffffffffffffffffffffffff168473ffffffffffffffffffffffffffffffffffffffff167fddf252ad1be2c89b69c2b068fc378daa952ba7f163c4a11628f55a4df523b3ef84604051611e569190612886565b60405180910390a3611e698484846123fe565b50505050565b600073ffffffffffffffffffffffffffffffffffffffff168273ffffffffffffffffffffffffffffffffffffffff161415611edf576040517f08c379a0000000000000000000000000000000000000000000000000000000008152600401611ed690613319565b60405180910390fd5b611eeb826000836123f9565b60008060008473ffffffffffffffffffffffffffffffffffffffff1673ffffffffffffffffffffffffffffffffffffffff16815260200190815260200160002054905081811015611f71576040517f08c379a0000000000000000000000000000000000000000000000000000000008152600401611f68906133ab565b60405180910390fd5b8181036000808573ffffffffffffffffffffffffffffffffffffffff1673ffffffffffffffffffffffffffffffffffffffff168152602001908152602001600020819055508160026000828254611fc89190612ad1565b92505081905550600073ffffffffffffffffffffffffffffffffffffffff168373ffffffffffffffffffffffffffffffffffffffff167fddf252ad1be2c89b69c2b068fc378daa952ba7f163c4a11628f55a4df523b3ef8460405161202d9190612886565b60405180910390a3612041836000846123fe565b505050565b6120c78363a9059cbb60e01b8484604051602401612065929190612d9b565b604051602081830303815290604052907bffffffffffffffffffffffffffffffffffffffffffffffffffffffff19166020820180517bffffffffffffffffffffffffffffffffffffffffffffffffffffffff8381831617835250505050612403565b505050565b6120d461198f565b73ffffffffffffffffffffffffffffffffffffffff166120f2610ee0565b73ffffffffffffffffffffffffffffffffffffffff1614612148576040517f08c379a000000000000000000000000000000000000000000000000000000000815260040161213f90613417565b60405180910390fd5b565b6000600560009054906101000a900473ffffffffffffffffffffffffffffffffffffffff16905081600560006101000a81548173ffffffffffffffffffffffffffffffffffffffff021916908373ffffffffffffffffffffffffffffffffffffffff1602179055508173ffffffffffffffffffffffffffffffffffffffff168173ffffffffffffffffffffffffffffffffffffffff167f8be0079c531659141344cd1fd0a4f28419497f9722a3daafe3b4186f6b6457e060405160405180910390a35050565b612293846323b872dd60e01b85858560405160240161223193929190613437565b604051602081830303815290604052907bffffffffffffffffffffffffffffffffffffffffffffffffffffffff19166020820180517bffffffffffffffffffffffffffffffffffffffffffffffffffffffff8381831617835250505050612403565b50505050565b600073ffffffffffffffffffffffffffffffffffffffff168273ffffffffffffffffffffffffffffffffffffffff161415612309576040517f08c379a0000000000000000000000000000000000000000000000000000000008152600401612300906134ba565b60405180910390fd5b612315600083836123f9565b80600260008282546123279190612bbf565b92505081905550806000808473ffffffffffffffffffffffffffffffffffffffff1673ffffffffffffffffffffffffffffffffffffffff168152602001908152602001600020600082825461237c9190612bbf565b925050819055508173ffffffffffffffffffffffffffffffffffffffff16600073ffffffffffffffffffffffffffffffffffffffff167fddf252ad1be2c89b69c2b068fc378daa952ba7f163c4a11628f55a4df523b3ef836040516123e19190612886565b60405180910390a36123f5600083836123fe565b5050565b505050565b505050565b6000612465826040518060400160405280602081526020017f5361666545524332303a206c6f772d6c6576656c2063616c6c206661696c65648152508573ffffffffffffffffffffffffffffffffffffffff166124ca9092919063ffffffff16565b90506000815111156124c557808060200190518101906124859190612dd9565b6124c4576040517f08c379a00000000000000000000000000000000000000000000000000000000081526004016124bb9061354c565b60405180910390fd5b5b505050565b60606124d984846000856124e2565b90509392505050565b606082471015612527576040517f08c379a000000000000000000000000000000000000000000000000000000000815260040161251e906135de565b60405180910390fd5b612530856125f6565b61256f576040517f08c379a00000000000000000000000000000000000000000000000000000000081526004016125669061364a565b60405180910390fd5b6000808673ffffffffffffffffffffffffffffffffffffffff16858760405161259891906136b1565b60006040518083038185875af1925050503d80600081146125d5576040519150601f19603f3d011682016040523d82523d6000602084013e6125da565b606091505b50915091506125ea828286612619565b92505050949350505050565b6000808273ffffffffffffffffffffffffffffffffffffffff163b119050919050565b6060831561262957829050612679565b60008351111561263c5782518084602001fd5b816040517f08c379a00000000000000000000000000000000000000000000000000000000081526004016126709190612719565b60405180910390fd5b9392505050565b600081519050919050565b600082825260208201905092915050565b60005b838110156126ba57808201518184015260208101905061269f565b838111156126c9576000848401525b50505050565b6000601f19601f8301169050919050565b60006126eb82612680565b6126f5818561268b565b935061270581856020860161269c565b61270e816126cf565b840191505092915050565b6000602082019050818103600083015261273381846126e0565b905092915050565b600080fd5b600073ffffffffffffffffffffffffffffffffffffffff82169050919050565b600061276b82612740565b9050919050565b61277b81612760565b811461278657600080fd5b50565b60008135905061279881612772565b92915050565b6000819050919050565b6127b18161279e565b81146127bc57600080fd5b50565b6000813590506127ce816127a8565b92915050565b600080604083850312156127eb576127ea61273b565b5b60006127f985828601612789565b925050602061280a858286016127bf565b9150509250929050565b60008115159050919050565b61282981612814565b82525050565b60006020820190506128446000830184612820565b92915050565b6000602082840312156128605761285f61273b565b5b600061286e848285016127bf565b91505092915050565b6128808161279e565b82525050565b600060208201905061289b6000830184612877565b92915050565b6000806000606084860312156128ba576128b961273b565b5b60006128c886828701612789565b93505060206128d986828701612789565b92505060406128ea868287016127bf565b9150509250925092565b6128fd81612760565b82525050565b600060208201905061291860008301846128f4565b92915050565b600060ff82169050919050565b6129348161291e565b82525050565b600060208201905061294f600083018461292b565b92915050565b60006020828403121561296b5761296a61273b565b5b600061297984828501612789565b91505092915050565b61298b81612814565b811461299657600080fd5b50565b6000813590506129a881612982565b92915050565b6000806000606084860312156129c7576129c661273b565b5b60006129d5868287016127bf565b93505060206129e686828701612999565b92505060406129f786828701612999565b9150509250925092565b60008060408385031215612a1857612a1761273b565b5b6000612a2685828601612789565b9250506020612a3785828601612789565b9150509250929050565b7f4e487b7100000000000000000000000000000000000000000000000000000000600052602260045260246000fd5b60006002820490506001821680612a8857607f821691505b60208210811415612a9c57612a9b612a41565b5b50919050565b7f4e487b7100000000000000000000000000000000000000000000000000000000600052601160045260246000fd5b6000612adc8261279e565b9150612ae78361279e565b925082821015612afa57612af9612aa2565b5b828203905092915050565b6000612b108261279e565b9150612b1b8361279e565b9250817fffffffffffffffffffffffffffffffffffffffffffffffffffffffffffffffff0483118215151615612b5457612b53612aa2565b5b828202905092915050565b7f4e487b7100000000000000000000000000000000000000000000000000000000600052601260045260246000fd5b6000612b998261279e565b9150612ba48361279e565b925082612bb457612bb3612b5f565b5b828204905092915050565b6000612bca8261279e565b9150612bd58361279e565b9250827fffffffffffffffffffffffffffffffffffffffffffffffffffffffffffffffff03821115612c0a57612c09612aa2565b5b828201905092915050565b7f5b77697468647261775d20496e73756666696369656e742062616c616e636521600082015250565b6000612c4b60208361268b565b9150612c5682612c15565b602082019050919050565b60006020820190508181036000830152612c7a81612c3e565b9050919050565b7f5b77697468647261775d204561726c7920776974686472617721000000000000600082015250565b6000612cb7601a8361268b565b9150612cc282612c81565b602082019050919050565b60006020820190508181036000830152612ce681612caa565b9050919050565b600081519050612cfc816127a8565b92915050565b600060208284031215612d1857612d1761273b565b5b6000612d2684828501612ced565b91505092915050565b7f5b6465706f7369745d20416c7265616479206c6f636b65642100000000000000600082015250565b6000612d6560198361268b565b9150612d7082612d2f565b602082019050919050565b60006020820190508181036000830152612d9481612d58565b9050919050565b6000604082019050612db060008301856128f4565b612dbd6020830184612877565b9392505050565b600081519050612dd381612982565b92915050565b600060208284031215612def57612dee61273b565b5b6000612dfd84828501612dc4565b91505092915050565b6000606082019050612e1b60008301866128f4565b612e286020830185612877565b612e356040830184612820565b949350505050565b7f45524332303a2064656372656173656420616c6c6f77616e63652062656c6f7760008201527f207a65726f000000000000000000000000000000000000000000000000000000602082015250565b6000612e9960258361268b565b9150612ea482612e3d565b604082019050919050565b60006020820190508181036000830152612ec881612e8c565b9050919050565b7f4f776e61626c653a206e6577206f776e657220697320746865207a65726f206160008201527f6464726573730000000000000000000000000000000000000000000000000000602082015250565b6000612f2b60268361268b565b9150612f3682612ecf565b604082019050919050565b60006020820190508181036000830152612f5a81612f1e565b9050919050565b7f45524332303a20617070726f76652066726f6d20746865207a65726f2061646460008201527f7265737300000000000000000000000000000000000000000000000000000000602082015250565b6000612fbd60248361268b565b9150612fc882612f61565b604082019050919050565b60006020820190508181036000830152612fec81612fb0565b9050919050565b7f45524332303a20617070726f766520746f20746865207a65726f20616464726560008201527f7373000000000000000000000000000000000000000000000000000000000000602082015250565b600061304f60228361268b565b915061305a82612ff3565b604082019050919050565b6000602082019050818103600083015261307e81613042565b9050919050565b7f45524332303a20696e73756666696369656e7420616c6c6f77616e6365000000600082015250565b60006130bb601d8361268b565b91506130c682613085565b602082019050919050565b600060208201905081810360008301526130ea816130ae565b9050919050565b7f45524332303a207472616e736665722066726f6d20746865207a65726f20616460008201527f6472657373000000000000000000000000000000000000000000000000000000602082015250565b600061314d60258361268b565b9150613158826130f1565b604082019050919050565b6000602082019050818103600083015261317c81613140565b9050919050565b7f45524332303a207472616e7366657220746f20746865207a65726f206164647260008201527f6573730000000000000000000000000000000000000000000000000000000000602082015250565b60006131df60238361268b565b91506131ea82613183565b604082019050919050565b6000602082019050818103600083015261320e816131d2565b9050919050565b7f45524332303a207472616e7366657220616d6f756e742065786365656473206260008201527f616c616e63650000000000000000000000000000000000000000000000000000602082015250565b600061327160268361268b565b915061327c82613215565b604082019050919050565b600060208201905081810360008301526132a081613264565b9050919050565b7f45524332303a206275726e2066726f6d20746865207a65726f2061646472657360008201527f7300000000000000000000000000000000000000000000000000000000000000602082015250565b600061330360218361268b565b915061330e826132a7565b604082019050919050565b60006020820190508181036000830152613332816132f6565b9050919050565b7f45524332303a206275726e20616d6f756e7420657863656564732062616c616e60008201527f6365000000000000000000000000000000000000000000000000000000000000602082015250565b600061339560228361268b565b91506133a082613339565b604082019050919050565b600060208201905081810360008301526133c481613388565b9050919050565b7f4f776e61626c653a2063616c6c6572206973206e6f7420746865206f776e6572600082015250565b600061340160208361268b565b915061340c826133cb565b602082019050919050565b60006020820190508181036000830152613430816133f4565b9050919050565b600060608201905061344c60008301866128f4565b61345960208301856128f4565b6134666040830184612877565b949350505050565b7f45524332303a206d696e7420746f20746865207a65726f206164647265737300600082015250565b60006134a4601f8361268b565b91506134af8261346e565b602082019050919050565b600060208201905081810360008301526134d381613497565b9050919050565b7f5361666545524332303a204552433230206f7065726174696f6e20646964206e60008201527f6f74207375636365656400000000000000000000000000000000000000000000602082015250565b6000613536602a8361268b565b9150613541826134da565b604082019050919050565b6000602082019050818103600083015261356581613529565b9050919050565b7f416464726573733a20696e73756666696369656e742062616c616e636520666f60008201527f722063616c6c0000000000000000000000000000000000000000000000000000602082015250565b60006135c860268361268b565b91506135d38261356c565b604082019050919050565b600060208201905081810360008301526135f7816135bb565b9050919050565b7f416464726573733a2063616c6c20746f206e6f6e2d636f6e7472616374000000600082015250565b6000613634601d8361268b565b915061363f826135fe565b602082019050919050565b6000602082019050818103600083015261366381613627565b9050919050565b600081519050919050565b600081905092915050565b600061368b8261366a565b6136958185613675565b93506136a581856020860161269c565b80840191505092915050565b60006136bd8284613680565b91508190509291505056fea26469706673582212200139c81f87cb4f003a7b2268244ab47457011605f9be31002f795708c64e46df64736f6c63430008090033",
  "linkReferences": {},
  "deployedLinkReferences": {}
}