{
  "_format": "hh-sol-artifact-1",
  "contractName": "FixedStrategy",
  "sourceName": "contracts/FixedStrategy.sol",
  "abi": [
    {
      "inputs": [
        {
          "internalType": "address",
          "name": "angleVaultAddr",
          "type": "address"
        },
        {
          "internalType": "address",
          "name": "angleStratAddr",
          "type": "address"
        },
        {
          "internalType": "address",
          "name": "lockToken",
          "type": "address"
        }
      ],
      "stateMutability": "nonpayable",
      "type": "constructor"
    },
    {
      "anonymous": false,
      "inputs": [
        {
          "indexed": true,
          "internalType": "address",
          "name": "owner",
          "type": "address"
        },
        {
          "indexed": true,
          "internalType": "address",
          "name": "spender",
          "type": "address"
        },
        {
          "indexed": false,
          "internalType": "uint256",
          "name": "value",
          "type": "uint256"
        }
      ],
      "name": "Approval",
      "type": "event"
    },
    {
      "anonymous": false,
      "inputs": [
        {
          "indexed": true,
          "internalType": "address",
          "name": "previousOwner",
          "type": "address"
        },
        {
          "indexed": true,
          "internalType": "address",
          "name": "newOwner",
          "type": "address"
        }
      ],
      "name": "OwnershipTransferred",
      "type": "event"
    },
    {
      "anonymous": false,
      "inputs": [
        {
          "indexed": true,
          "internalType": "address",
          "name": "from",
          "type": "address"
        },
        {
          "indexed": true,
          "internalType": "address",
          "name": "to",
          "type": "address"
        },
        {
          "indexed": false,
          "internalType": "uint256",
          "name": "value",
          "type": "uint256"
        }
      ],
      "name": "Transfer",
      "type": "event"
    },
    {
      "inputs": [],
      "name": "ANGL",
      "outputs": [
        {
          "internalType": "address",
          "name": "",
          "type": "address"
        }
      ],
      "stateMutability": "view",
      "type": "function"
    },
    {
      "inputs": [],
      "name": "SDT",
      "outputs": [
        {
          "internalType": "address",
          "name": "",
          "type": "address"
        }
      ],
      "stateMutability": "view",
      "type": "function"
    },
    {
      "inputs": [
        {
          "internalType": "address",
          "name": "owner",
          "type": "address"
        },
        {
          "internalType": "address",
          "name": "spender",
          "type": "address"
        }
      ],
      "name": "allowance",
      "outputs": [
        {
          "internalType": "uint256",
          "name": "",
          "type": "uint256"
        }
      ],
      "stateMutability": "view",
      "type": "function"
    },
    {
      "inputs": [
        {
          "internalType": "address",
          "name": "spender",
          "type": "address"
        },
        {
          "internalType": "uint256",
          "name": "amount",
          "type": "uint256"
        }
      ],
      "name": "approve",
      "outputs": [
        {
          "internalType": "bool",
          "name": "",
          "type": "bool"
        }
      ],
      "stateMutability": "nonpayable",
      "type": "function"
    },
    {
      "inputs": [
        {
          "internalType": "address",
          "name": "account",
          "type": "address"
        }
      ],
      "name": "balanceOf",
      "outputs": [
        {
          "internalType": "uint256",
          "name": "",
          "type": "uint256"
        }
      ],
      "stateMutability": "view",
      "type": "function"
    },
    {
      "inputs": [],
      "name": "claimerFee",
      "outputs": [
        {
          "internalType": "uint256",
          "name": "",
          "type": "uint256"
        }
      ],
      "stateMutability": "view",
      "type": "function"
    },
    {
      "inputs": [],
      "name": "collectedFee",
      "outputs": [
        {
          "internalType": "uint256",
          "name": "",
          "type": "uint256"
        }
      ],
      "stateMutability": "view",
      "type": "function"
    },
    {
      "inputs": [],
      "name": "currentRatioForUser",
      "outputs": [
        {
          "internalType": "uint256",
          "name": "",
          "type": "uint256"
        }
      ],
      "stateMutability": "view",
      "type": "function"
    },
    {
      "inputs": [],
      "name": "decimals",
      "outputs": [
        {
          "internalType": "uint8",
          "name": "",
          "type": "uint8"
        }
      ],
      "stateMutability": "view",
      "type": "function"
    },
    {
      "inputs": [
        {
          "internalType": "address",
          "name": "spender",
          "type": "address"
        },
        {
          "internalType": "uint256",
          "name": "subtractedValue",
          "type": "uint256"
        }
      ],
      "name": "decreaseAllowance",
      "outputs": [
        {
          "internalType": "bool",
          "name": "",
          "type": "bool"
        }
      ],
      "stateMutability": "nonpayable",
      "type": "function"
    },
    {
      "inputs": [
        {
          "internalType": "uint256",
          "name": "amount",
          "type": "uint256"
        },
        {
          "internalType": "bool",
          "name": "earnFSD",
          "type": "bool"
        },
        {
          "internalType": "bool",
          "name": "earnFT",
          "type": "bool"
        }
      ],
      "name": "deposit",
      "outputs": [],
      "stateMutability": "nonpayable",
      "type": "function"
    },
    {
      "inputs": [],
      "name": "harvest",
      "outputs": [],
      "stateMutability": "nonpayable",
      "type": "function"
    },
    {
      "inputs": [
        {
          "internalType": "address",
          "name": "spender",
          "type": "address"
        },
        {
          "internalType": "uint256",
          "name": "addedValue",
          "type": "uint256"
        }
      ],
      "name": "increaseAllowance",
      "outputs": [
        {
          "internalType": "bool",
          "name": "",
          "type": "bool"
        }
      ],
      "stateMutability": "nonpayable",
      "type": "function"
    },
    {
      "inputs": [
        {
          "internalType": "uint256",
          "name": "amount",
          "type": "uint256"
        }
      ],
      "name": "maxEarningToDate",
      "outputs": [
        {
          "internalType": "uint256",
          "name": "",
          "type": "uint256"
        }
      ],
      "stateMutability": "view",
      "type": "function"
    },
    {
      "inputs": [],
      "name": "maxYield",
      "outputs": [
        {
          "internalType": "uint256",
          "name": "",
          "type": "uint256"
        }
      ],
      "stateMutability": "view",
      "type": "function"
    },
    {
      "inputs": [],
      "name": "name",
      "outputs": [
        {
          "internalType": "string",
          "name": "",
          "type": "string"
        }
      ],
      "stateMutability": "view",
      "type": "function"
    },
    {
      "inputs": [],
      "name": "owner",
      "outputs": [
        {
          "internalType": "address",
          "name": "",
          "type": "address"
        }
      ],
      "stateMutability": "view",
      "type": "function"
    },
    {
      "inputs": [],
      "name": "pricePerShare",
      "outputs": [
        {
          "internalType": "uint256",
          "name": "",
          "type": "uint256"
        }
      ],
      "stateMutability": "view",
      "type": "function"
    },
    {
      "inputs": [],
      "name": "renounceOwnership",
      "outputs": [],
      "stateMutability": "nonpayable",
      "type": "function"
    },
    {
      "inputs": [
        {
          "internalType": "uint256",
          "name": "",
          "type": "uint256"
        }
      ],
      "name": "rewardTokens",
      "outputs": [
        {
          "internalType": "address",
          "name": "",
          "type": "address"
        }
      ],
      "stateMutability": "view",
      "type": "function"
    },
    {
      "inputs": [
        {
          "internalType": "uint256",
          "name": "newFee",
          "type": "uint256"
        }
      ],
      "name": "setFee",
      "outputs": [],
      "stateMutability": "nonpayable",
      "type": "function"
    },
    {
      "inputs": [],
      "name": "symbol",
      "outputs": [
        {
          "internalType": "string",
          "name": "",
          "type": "string"
        }
      ],
      "stateMutability": "view",
      "type": "function"
    },
    {
      "inputs": [],
      "name": "totalSupply",
      "outputs": [
        {
          "internalType": "uint256",
          "name": "",
          "type": "uint256"
        }
      ],
      "stateMutability": "view",
      "type": "function"
    },
    {
      "inputs": [
        {
          "internalType": "address",
          "name": "to",
          "type": "address"
        },
        {
          "internalType": "uint256",
          "name": "amount",
          "type": "uint256"
        }
      ],
      "name": "transfer",
      "outputs": [
        {
          "internalType": "bool",
          "name": "",
          "type": "bool"
        }
      ],
      "stateMutability": "nonpayable",
      "type": "function"
    },
    {
      "inputs": [
        {
          "internalType": "address",
          "name": "from",
          "type": "address"
        },
        {
          "internalType": "address",
          "name": "to",
          "type": "address"
        },
        {
          "internalType": "uint256",
          "name": "amount",
          "type": "uint256"
        }
      ],
      "name": "transferFrom",
      "outputs": [
        {
          "internalType": "bool",
          "name": "",
          "type": "bool"
        }
      ],
      "stateMutability": "nonpayable",
      "type": "function"
    },
    {
      "inputs": [
        {
          "internalType": "address",
          "name": "newOwner",
          "type": "address"
        }
      ],
      "name": "transferOwnership",
      "outputs": [],
      "stateMutability": "nonpayable",
      "type": "function"
    },
    {
      "inputs": [
        {
          "internalType": "uint256",
          "name": "shares",
          "type": "uint256"
        }
      ],
      "name": "withdraw",
      "outputs": [],
      "stateMutability": "nonpayable",
      "type": "function"
    }
  ],
  "bytecode": "0x60806040523480156200001157600080fd5b5060405162003c2038038062003c208339818101604052810190620000379190620004a9565b6040518060400160405280601081526020017f73616e465241585f4555525f46535452000000000000000000000000000000008152506040518060400160405280600681526020017f53464553545200000000000000000000000000000000000000000000000000008152508160039080519060200190620000bb9291906200038f565b508060049080519060200190620000d49291906200038f565b505050620000f7620000eb620002c160201b60201c565b620002c960201b60201c565b82600660006101000a81548173ffffffffffffffffffffffffffffffffffffffff021916908373ffffffffffffffffffffffffffffffffffffffff16021790555081600760006101000a81548173ffffffffffffffffffffffffffffffffffffffff021916908373ffffffffffffffffffffffffffffffffffffffff16021790555080600860006101000a81548173ffffffffffffffffffffffffffffffffffffffff021916908373ffffffffffffffffffffffffffffffffffffffff160217905550600a6009819055506050600b81905550600c7331429d1856ad1377a8a0079410b297e1a9e214c29080600181540180825580915050600190039060005260206000200160009091909190916101000a81548173ffffffffffffffffffffffffffffffffffffffff021916908373ffffffffffffffffffffffffffffffffffffffff160217905550600c7373968b9a57c6e53d41345fd57a6e6ae27d6cdb2f9080600181540180825580915050600190039060005260206000200160009091909190916101000a81548173ffffffffffffffffffffffffffffffffffffffff021916908373ffffffffffffffffffffffffffffffffffffffff1602179055505050506200056a565b600033905090565b6000600560009054906101000a900473ffffffffffffffffffffffffffffffffffffffff16905081600560006101000a81548173ffffffffffffffffffffffffffffffffffffffff021916908373ffffffffffffffffffffffffffffffffffffffff1602179055508173ffffffffffffffffffffffffffffffffffffffff168173ffffffffffffffffffffffffffffffffffffffff167f8be0079c531659141344cd1fd0a4f28419497f9722a3daafe3b4186f6b6457e060405160405180910390a35050565b8280546200039d9062000534565b90600052602060002090601f016020900481019282620003c157600085556200040d565b82601f10620003dc57805160ff19168380011785556200040d565b828001600101855582156200040d579182015b828111156200040c578251825591602001919060010190620003ef565b5b5090506200041c919062000420565b5090565b5b808211156200043b57600081600090555060010162000421565b5090565b600080fd5b600073ffffffffffffffffffffffffffffffffffffffff82169050919050565b6000620004718262000444565b9050919050565b620004838162000464565b81146200048f57600080fd5b50565b600081519050620004a38162000478565b92915050565b600080600060608486031215620004c557620004c46200043f565b5b6000620004d58682870162000492565b9350506020620004e88682870162000492565b9250506040620004fb8682870162000492565b9150509250925092565b7f4e487b7100000000000000000000000000000000000000000000000000000000600052602260045260246000fd5b600060028204905060018216806200054d57607f821691505b6020821081141562000564576200056362000505565b5b50919050565b6136a6806200057a6000396000f3fe608060405234801561001057600080fd5b50600436106101a95760003560e01c8063715018a6116100f9578063a9059cbb11610097578063e165443311610071578063e1654433146104d4578063e811f50a146104f2578063f2fde38b14610510578063fc0f372e1461052c576101a9565b8063a9059cbb14610456578063ba32c61914610486578063dd62ed3e146104a4576101a9565b806395d89b41116100d357806395d89b41146103ce57806395fb5f83146103ec57806399530b0614610408578063a457c2d714610426576101a9565b8063715018a6146103765780637bb7bed1146103805780638da5cb5b146103b0576101a9565b80632e1a7d4d11610166578063395093511161014057806339509351146102f05780634641257d1461032057806369fe0e2d1461032a57806370a0823114610346576101a9565b80632e1a7d4d14610298578063301234e6146102b4578063313ce567146102d2576101a9565b806306fdde03146101ae578063095ea7b3146101cc57806310698a4a146101fc578063147ec25f1461022c57806318160ddd1461024a57806323b872dd14610268575b600080fd5b6101b661054a565b6040516101c391906126c1565b60405180910390f35b6101e660048036038101906101e1919061277c565b6105dc565b6040516101f391906127d7565b60405180910390f35b610216600480360381019061021191906127f2565b6105ff565b604051610223919061282e565b60405180910390f35b610234610699565b604051610241919061282e565b60405180910390f35b6102526107b8565b60405161025f919061282e565b60405180910390f35b610282600480360381019061027d9190612849565b6107c2565b60405161028f91906127d7565b60405180910390f35b6102b260048036038101906102ad91906127f2565b6107f1565b005b6102bc610cd6565b6040516102c991906128ab565b60405180910390f35b6102da610cee565b6040516102e791906128e2565b60405180910390f35b61030a6004803603810190610305919061277c565b610cf7565b60405161031791906127d7565b60405180910390f35b610328610d2e565b005b610344600480360381019061033f91906127f2565b610de7565b005b610360600480360381019061035b91906128fd565b610df9565b60405161036d919061282e565b60405180910390f35b61037e610e41565b005b61039a600480360381019061039591906127f2565b610e55565b6040516103a791906128ab565b60405180910390f35b6103b8610e94565b6040516103c591906128ab565b60405180910390f35b6103d6610ebe565b6040516103e391906126c1565b60405180910390f35b61040660048036038101906104019190612956565b610f50565b005b610410611451565b60405161041d919061282e565b60405180910390f35b610440600480360381019061043b919061277c565b611545565b60405161044d91906127d7565b60405180910390f35b610470600480360381019061046b919061277c565b6115bc565b60405161047d91906127d7565b60405180910390f35b61048e6115df565b60405161049b91906128ab565b60405180910390f35b6104be60048036038101906104b991906129a9565b6115f7565b6040516104cb919061282e565b60405180910390f35b6104dc61167e565b6040516104e9919061282e565b60405180910390f35b6104fa611684565b604051610507919061282e565b60405180910390f35b61052a600480360381019061052591906128fd565b61168a565b005b61053461170e565b604051610541919061282e565b60405180910390f35b60606003805461055990612a18565b80601f016020809104026020016040519081016040528092919081815260200182805461058590612a18565b80156105d25780601f106105a7576101008083540402835291602001916105d2565b820191906000526020600020905b8154815290600101906020018083116105b557829003601f168201915b5050505050905090565b6000806105e7611714565b90506105f481858561171c565b600191505092915050565b600080600d60003373ffffffffffffffffffffffffffffffffffffffff1673ffffffffffffffffffffffffffffffffffffffff168152602001908152602001600020544261064d9190612a79565b90506103e86301e13380600b54836106659190612aad565b61066f9190612b36565b6103e861067c9190612b67565b846106879190612aad565b6106919190612b36565b915050919050565b600080600e60003373ffffffffffffffffffffffffffffffffffffffff1673ffffffffffffffffffffffffffffffffffffffff168152602001908152602001600020546103e8600e60003373ffffffffffffffffffffffffffffffffffffffff1673ffffffffffffffffffffffffffffffffffffffff16815260200190815260200160002054610727611451565b6107319190612a79565b61073b9190612aad565b6107459190612b36565b90506000600d60003373ffffffffffffffffffffffffffffffffffffffff1673ffffffffffffffffffffffffffffffffffffffff16815260200190815260200160002054426107949190612a79565b9050806301e13380836107a79190612aad565b6107b19190612b36565b9250505090565b6000600254905090565b6000806107cd611714565b90506107da8582856118e7565b6107e5858585611973565b60019150509392505050565b806107fb33610df9565b101561083c576040517f08c379a000000000000000000000000000000000000000000000000000000000815260040161083390612c09565b60405180910390fd5b426276a700600d60003373ffffffffffffffffffffffffffffffffffffffff1673ffffffffffffffffffffffffffffffffffffffff1681526020019081526020016000205461088b9190612b67565b11156108cc576040517f08c379a00000000000000000000000000000000000000000000000000000000081526004016108c390612c75565b60405180910390fd5b6000670de0b6b3a76400006108df611451565b836108ea9190612aad565b6108f49190612b36565b90506109003383611bf4565b600860009054906101000a900473ffffffffffffffffffffffffffffffffffffffff1673ffffffffffffffffffffffffffffffffffffffff166370a08231306040518263ffffffff1660e01b815260040161095b91906128ab565b60206040518083038186803b15801561097357600080fd5b505afa158015610987573d6000803e3d6000fd5b505050506040513d601f19601f820116820180604052508101906109ab9190612caa565b600a54826109b99190612b67565b1115610b0f57600660009054906101000a900473ffffffffffffffffffffffffffffffffffffffff1673ffffffffffffffffffffffffffffffffffffffff16632e1a7d4d600860009054906101000a900473ffffffffffffffffffffffffffffffffffffffff1673ffffffffffffffffffffffffffffffffffffffff166370a08231306040518263ffffffff1660e01b8152600401610a5891906128ab565b60206040518083038186803b158015610a7057600080fd5b505afa158015610a84573d6000803e3d6000fd5b505050506040513d601f19601f82011682018060405250810190610aa89190612caa565b600a5484610ab69190612b67565b610ac09190612a79565b6040518263ffffffff1660e01b8152600401610adc919061282e565b600060405180830381600087803b158015610af657600080fd5b505af1158015610b0a573d6000803e3d6000fd5b505050505b6000610b1a33610df9565b1415610ba757600e60003373ffffffffffffffffffffffffffffffffffffffff1673ffffffffffffffffffffffffffffffffffffffff16815260200190815260200160002060009055600d60003373ffffffffffffffffffffffffffffffffffffffff1673ffffffffffffffffffffffffffffffffffffffff168152602001908152602001600020600090555b600b54610bb2610699565b10610c85576000610c1f670de0b6b3a7640000600e60003373ffffffffffffffffffffffffffffffffffffffff1673ffffffffffffffffffffffffffffffffffffffff1681526020019081526020016000205485610c109190612aad565b610c1a9190612b36565b6105ff565b9050610c80610c2c610e94565b8284610c389190612a79565b600860009054906101000a900473ffffffffffffffffffffffffffffffffffffffff1673ffffffffffffffffffffffffffffffffffffffff16611dcb9092919063ffffffff16565b809150505b610cd23382600860009054906101000a900473ffffffffffffffffffffffffffffffffffffffff1673ffffffffffffffffffffffffffffffffffffffff16611dcb9092919063ffffffff16565b5050565b7331429d1856ad1377a8a0079410b297e1a9e214c281565b60006012905090565b600080610d02611714565b9050610d23818585610d1485896115f7565b610d1e9190612b67565b61171c565b600191505092915050565b610d36611e51565b600760009054906101000a900473ffffffffffffffffffffffffffffffffffffffff1673ffffffffffffffffffffffffffffffffffffffff16631e83409a600860009054906101000a900473ffffffffffffffffffffffffffffffffffffffff166040518263ffffffff1660e01b8152600401610db391906128ab565b600060405180830381600087803b158015610dcd57600080fd5b505af1158015610de1573d6000803e3d6000fd5b50505050565b610def611e51565b8060098190555050565b60008060008373ffffffffffffffffffffffffffffffffffffffff1673ffffffffffffffffffffffffffffffffffffffff168152602001908152602001600020549050919050565b610e49611e51565b610e536000611ecf565b565b600c8181548110610e6557600080fd5b906000526020600020016000915054906101000a900473ffffffffffffffffffffffffffffffffffffffff1681565b6000600560009054906101000a900473ffffffffffffffffffffffffffffffffffffffff16905090565b606060048054610ecd90612a18565b80601f0160208091040260200160405190810160405280929190818152602001828054610ef990612a18565b8015610f465780601f10610f1b57610100808354040283529160200191610f46565b820191906000526020600020905b815481529060010190602001808311610f2957829003601f168201915b5050505050905090565b6000600e60003373ffffffffffffffffffffffffffffffffffffffff1673ffffffffffffffffffffffffffffffffffffffff1681526020019081526020016000205414610fd2576040517f08c379a0000000000000000000000000000000000000000000000000000000008152600401610fc990612d23565b60405180910390fd5b42600d60003373ffffffffffffffffffffffffffffffffffffffff1673ffffffffffffffffffffffffffffffffffffffff1681526020019081526020016000208190555061101e611451565b600e60003373ffffffffffffffffffffffffffffffffffffffff1673ffffffffffffffffffffffffffffffffffffffff168152602001908152602001600020819055506110b0333085600860009054906101000a900473ffffffffffffffffffffffffffffffffffffffff1673ffffffffffffffffffffffffffffffffffffffff16611f95909392919063ffffffff16565b600860009054906101000a900473ffffffffffffffffffffffffffffffffffffffff1673ffffffffffffffffffffffffffffffffffffffff1663095ea7b3600660009054906101000a900473ffffffffffffffffffffffffffffffffffffffff16856040518363ffffffff1660e01b815260040161112f929190612d43565b602060405180830381600087803b15801561114957600080fd5b505af115801561115d573d6000803e3d6000fd5b505050506040513d601f19601f820116820180604052508101906111819190612d81565b50806111d35760006127106009548561119a9190612aad565b6111a49190612b36565b905080846111b29190612a79565b935080600a60008282546111c69190612b67565b92505081905550506111ec565b600a54836111e19190612b67565b92506000600a819055505b6000600660009054906101000a900473ffffffffffffffffffffffffffffffffffffffff1673ffffffffffffffffffffffffffffffffffffffff166370a08231306040518263ffffffff1660e01b815260040161124991906128ab565b60206040518083038186803b15801561126157600080fd5b505afa158015611275573d6000803e3d6000fd5b505050506040513d601f19601f820116820180604052508101906112999190612caa565b9050600660009054906101000a900473ffffffffffffffffffffffffffffffffffffffff1673ffffffffffffffffffffffffffffffffffffffff16633edd11283086866040518463ffffffff1660e01b81526004016112fa93929190612dae565b600060405180830381600087803b15801561131457600080fd5b505af1158015611328573d6000803e3d6000fd5b505050506000600660009054906101000a900473ffffffffffffffffffffffffffffffffffffffff1673ffffffffffffffffffffffffffffffffffffffff166370a08231306040518263ffffffff1660e01b815260040161138991906128ab565b60206040518083038186803b1580156113a157600080fd5b505afa1580156113b5573d6000803e3d6000fd5b505050506040513d601f19601f820116820180604052508101906113d99190612caa565b9050600082826113e99190612a79565b905060006113f56107b8565b141561140a57611405338261201e565b61143a565b61143933611416611451565b670de0b6b3a76400008461142a9190612aad565b6114349190612b36565b61201e565b5b83156114495761144861217e565b5b505050505050565b60008061145c6107b8565b14611536576114696107b8565b670de0b6b3a7640000600660009054906101000a900473ffffffffffffffffffffffffffffffffffffffff1673ffffffffffffffffffffffffffffffffffffffff166370a08231306040518263ffffffff1660e01b81526004016114cd91906128ab565b60206040518083038186803b1580156114e557600080fd5b505afa1580156114f9573d6000803e3d6000fd5b505050506040513d601f19601f8201168201806040525081019061151d9190612caa565b6115279190612aad565b6115319190612b36565b611540565b670de0b6b3a76400005b905090565b600080611550611714565b9050600061155e82866115f7565b9050838110156115a3576040517f08c379a000000000000000000000000000000000000000000000000000000000815260040161159a90612e57565b60405180910390fd5b6115b0828686840361171c565b60019250505092915050565b6000806115c7611714565b90506115d4818585611973565b600191505092915050565b7373968b9a57c6e53d41345fd57a6e6ae27d6cdb2f81565b6000600160008473ffffffffffffffffffffffffffffffffffffffff1673ffffffffffffffffffffffffffffffffffffffff16815260200190815260200160002060008373ffffffffffffffffffffffffffffffffffffffff1673ffffffffffffffffffffffffffffffffffffffff16815260200190815260200160002054905092915050565b600b5481565b600a5481565b611692611e51565b600073ffffffffffffffffffffffffffffffffffffffff168173ffffffffffffffffffffffffffffffffffffffff161415611702576040517f08c379a00000000000000000000000000000000000000000000000000000000081526004016116f990612ee9565b60405180910390fd5b61170b81611ecf565b50565b60095481565b600033905090565b600073ffffffffffffffffffffffffffffffffffffffff168373ffffffffffffffffffffffffffffffffffffffff16141561178c576040517f08c379a000000000000000000000000000000000000000000000000000000000815260040161178390612f7b565b60405180910390fd5b600073ffffffffffffffffffffffffffffffffffffffff168273ffffffffffffffffffffffffffffffffffffffff1614156117fc576040517f08c379a00000000000000000000000000000000000000000000000000000000081526004016117f39061300d565b60405180910390fd5b80600160008573ffffffffffffffffffffffffffffffffffffffff1673ffffffffffffffffffffffffffffffffffffffff16815260200190815260200160002060008473ffffffffffffffffffffffffffffffffffffffff1673ffffffffffffffffffffffffffffffffffffffff168152602001908152602001600020819055508173ffffffffffffffffffffffffffffffffffffffff168373ffffffffffffffffffffffffffffffffffffffff167f8c5be1e5ebec7d5bd14f71427d1e84f3dd0314c0f7b2291e5b200ac8c7c3b925836040516118da919061282e565b60405180910390a3505050565b60006118f384846115f7565b90507fffffffffffffffffffffffffffffffffffffffffffffffffffffffffffffffff811461196d578181101561195f576040517f08c379a000000000000000000000000000000000000000000000000000000000815260040161195690613079565b60405180910390fd5b61196c848484840361171c565b5b50505050565b600073ffffffffffffffffffffffffffffffffffffffff168373ffffffffffffffffffffffffffffffffffffffff1614156119e3576040517f08c379a00000000000000000000000000000000000000000000000000000000081526004016119da9061310b565b60405180910390fd5b600073ffffffffffffffffffffffffffffffffffffffff168273ffffffffffffffffffffffffffffffffffffffff161415611a53576040517f08c379a0000000000000000000000000000000000000000000000000000000008152600401611a4a9061319d565b60405180910390fd5b611a5e8383836123a1565b60008060008573ffffffffffffffffffffffffffffffffffffffff1673ffffffffffffffffffffffffffffffffffffffff16815260200190815260200160002054905081811015611ae4576040517f08c379a0000000000000000000000000000000000000000000000000000000008152600401611adb9061322f565b60405180910390fd5b8181036000808673ffffffffffffffffffffffffffffffffffffffff1673ffffffffffffffffffffffffffffffffffffffff16815260200190815260200160002081905550816000808573ffffffffffffffffffffffffffffffffffffffff1673ffffffffffffffffffffffffffffffffffffffff1681526020019081526020016000206000828254611b779190612b67565b925050819055508273ffffffffffffffffffffffffffffffffffffffff168473ffffffffffffffffffffffffffffffffffffffff167fddf252ad1be2c89b69c2b068fc378daa952ba7f163c4a11628f55a4df523b3ef84604051611bdb919061282e565b60405180910390a3611bee8484846123a6565b50505050565b600073ffffffffffffffffffffffffffffffffffffffff168273ffffffffffffffffffffffffffffffffffffffff161415611c64576040517f08c379a0000000000000000000000000000000000000000000000000000000008152600401611c5b906132c1565b60405180910390fd5b611c70826000836123a1565b60008060008473ffffffffffffffffffffffffffffffffffffffff1673ffffffffffffffffffffffffffffffffffffffff16815260200190815260200160002054905081811015611cf6576040517f08c379a0000000000000000000000000000000000000000000000000000000008152600401611ced90613353565b60405180910390fd5b8181036000808573ffffffffffffffffffffffffffffffffffffffff1673ffffffffffffffffffffffffffffffffffffffff168152602001908152602001600020819055508160026000828254611d4d9190612a79565b92505081905550600073ffffffffffffffffffffffffffffffffffffffff168373ffffffffffffffffffffffffffffffffffffffff167fddf252ad1be2c89b69c2b068fc378daa952ba7f163c4a11628f55a4df523b3ef84604051611db2919061282e565b60405180910390a3611dc6836000846123a6565b505050565b611e4c8363a9059cbb60e01b8484604051602401611dea929190612d43565b604051602081830303815290604052907bffffffffffffffffffffffffffffffffffffffffffffffffffffffff19166020820180517bffffffffffffffffffffffffffffffffffffffffffffffffffffffff83818316178352505050506123ab565b505050565b611e59611714565b73ffffffffffffffffffffffffffffffffffffffff16611e77610e94565b73ffffffffffffffffffffffffffffffffffffffff1614611ecd576040517f08c379a0000000000000000000000000000000000000000000000000000000008152600401611ec4906133bf565b60405180910390fd5b565b6000600560009054906101000a900473ffffffffffffffffffffffffffffffffffffffff16905081600560006101000a81548173ffffffffffffffffffffffffffffffffffffffff021916908373ffffffffffffffffffffffffffffffffffffffff1602179055508173ffffffffffffffffffffffffffffffffffffffff168173ffffffffffffffffffffffffffffffffffffffff167f8be0079c531659141344cd1fd0a4f28419497f9722a3daafe3b4186f6b6457e060405160405180910390a35050565b612018846323b872dd60e01b858585604051602401611fb6939291906133df565b604051602081830303815290604052907bffffffffffffffffffffffffffffffffffffffffffffffffffffffff19166020820180517bffffffffffffffffffffffffffffffffffffffffffffffffffffffff83818316178352505050506123ab565b50505050565b600073ffffffffffffffffffffffffffffffffffffffff168273ffffffffffffffffffffffffffffffffffffffff16141561208e576040517f08c379a000000000000000000000000000000000000000000000000000000000815260040161208590613462565b60405180910390fd5b61209a600083836123a1565b80600260008282546120ac9190612b67565b92505081905550806000808473ffffffffffffffffffffffffffffffffffffffff1673ffffffffffffffffffffffffffffffffffffffff16815260200190815260200160002060008282546121019190612b67565b925050819055508173ffffffffffffffffffffffffffffffffffffffff16600073ffffffffffffffffffffffffffffffffffffffff167fddf252ad1be2c89b69c2b068fc378daa952ba7f163c4a11628f55a4df523b3ef83604051612166919061282e565b60405180910390a361217a600083836123a6565b5050565b6000600a54600860009054906101000a900473ffffffffffffffffffffffffffffffffffffffff1673ffffffffffffffffffffffffffffffffffffffff166370a08231306040518263ffffffff1660e01b81526004016121de91906128ab565b60206040518083038186803b1580156121f657600080fd5b505afa15801561220a573d6000803e3d6000fd5b505050506040513d601f19601f8201168201806040525081019061222e9190612caa565b6122389190612a79565b9050600860009054906101000a900473ffffffffffffffffffffffffffffffffffffffff1673ffffffffffffffffffffffffffffffffffffffff1663095ea7b3600660009054906101000a900473ffffffffffffffffffffffffffffffffffffffff16836040518363ffffffff1660e01b81526004016122b9929190612d43565b602060405180830381600087803b1580156122d357600080fd5b505af11580156122e7573d6000803e3d6000fd5b505050506040513d601f19601f8201168201806040525081019061230b9190612d81565b50600660009054906101000a900473ffffffffffffffffffffffffffffffffffffffff1673ffffffffffffffffffffffffffffffffffffffff16633edd1128308360006040518463ffffffff1660e01b815260040161236c93929190612dae565b600060405180830381600087803b15801561238657600080fd5b505af115801561239a573d6000803e3d6000fd5b5050505050565b505050565b505050565b600061240d826040518060400160405280602081526020017f5361666545524332303a206c6f772d6c6576656c2063616c6c206661696c65648152508573ffffffffffffffffffffffffffffffffffffffff166124729092919063ffffffff16565b905060008151111561246d578080602001905181019061242d9190612d81565b61246c576040517f08c379a0000000000000000000000000000000000000000000000000000000008152600401612463906134f4565b60405180910390fd5b5b505050565b6060612481848460008561248a565b90509392505050565b6060824710156124cf576040517f08c379a00000000000000000000000000000000000000000000000000000000081526004016124c690613586565b60405180910390fd5b6124d88561259e565b612517576040517f08c379a000000000000000000000000000000000000000000000000000000000815260040161250e906135f2565b60405180910390fd5b6000808673ffffffffffffffffffffffffffffffffffffffff1685876040516125409190613659565b60006040518083038185875af1925050503d806000811461257d576040519150601f19603f3d011682016040523d82523d6000602084013e612582565b606091505b50915091506125928282866125c1565b92505050949350505050565b6000808273ffffffffffffffffffffffffffffffffffffffff163b119050919050565b606083156125d157829050612621565b6000835111156125e45782518084602001fd5b816040517f08c379a000000000000000000000000000000000000000000000000000000000815260040161261891906126c1565b60405180910390fd5b9392505050565b600081519050919050565b600082825260208201905092915050565b60005b83811015612662578082015181840152602081019050612647565b83811115612671576000848401525b50505050565b6000601f19601f8301169050919050565b600061269382612628565b61269d8185612633565b93506126ad818560208601612644565b6126b681612677565b840191505092915050565b600060208201905081810360008301526126db8184612688565b905092915050565b600080fd5b600073ffffffffffffffffffffffffffffffffffffffff82169050919050565b6000612713826126e8565b9050919050565b61272381612708565b811461272e57600080fd5b50565b6000813590506127408161271a565b92915050565b6000819050919050565b61275981612746565b811461276457600080fd5b50565b60008135905061277681612750565b92915050565b60008060408385031215612793576127926126e3565b5b60006127a185828601612731565b92505060206127b285828601612767565b9150509250929050565b60008115159050919050565b6127d1816127bc565b82525050565b60006020820190506127ec60008301846127c8565b92915050565b600060208284031215612808576128076126e3565b5b600061281684828501612767565b91505092915050565b61282881612746565b82525050565b6000602082019050612843600083018461281f565b92915050565b600080600060608486031215612862576128616126e3565b5b600061287086828701612731565b935050602061288186828701612731565b925050604061289286828701612767565b9150509250925092565b6128a581612708565b82525050565b60006020820190506128c0600083018461289c565b92915050565b600060ff82169050919050565b6128dc816128c6565b82525050565b60006020820190506128f760008301846128d3565b92915050565b600060208284031215612913576129126126e3565b5b600061292184828501612731565b91505092915050565b612933816127bc565b811461293e57600080fd5b50565b6000813590506129508161292a565b92915050565b60008060006060848603121561296f5761296e6126e3565b5b600061297d86828701612767565b935050602061298e86828701612941565b925050604061299f86828701612941565b9150509250925092565b600080604083850312156129c0576129bf6126e3565b5b60006129ce85828601612731565b92505060206129df85828601612731565b9150509250929050565b7f4e487b7100000000000000000000000000000000000000000000000000000000600052602260045260246000fd5b60006002820490506001821680612a3057607f821691505b60208210811415612a4457612a436129e9565b5b50919050565b7f4e487b7100000000000000000000000000000000000000000000000000000000600052601160045260246000fd5b6000612a8482612746565b9150612a8f83612746565b925082821015612aa257612aa1612a4a565b5b828203905092915050565b6000612ab882612746565b9150612ac383612746565b9250817fffffffffffffffffffffffffffffffffffffffffffffffffffffffffffffffff0483118215151615612afc57612afb612a4a565b5b828202905092915050565b7f4e487b7100000000000000000000000000000000000000000000000000000000600052601260045260246000fd5b6000612b4182612746565b9150612b4c83612746565b925082612b5c57612b5b612b07565b5b828204905092915050565b6000612b7282612746565b9150612b7d83612746565b9250827fffffffffffffffffffffffffffffffffffffffffffffffffffffffffffffffff03821115612bb257612bb1612a4a565b5b828201905092915050565b7f5b77697468647261775d20496e73756666696369656e742062616c616e636521600082015250565b6000612bf3602083612633565b9150612bfe82612bbd565b602082019050919050565b60006020820190508181036000830152612c2281612be6565b9050919050565b7f5b77697468647261775d204561726c7920776974686472617721000000000000600082015250565b6000612c5f601a83612633565b9150612c6a82612c29565b602082019050919050565b60006020820190508181036000830152612c8e81612c52565b9050919050565b600081519050612ca481612750565b92915050565b600060208284031215612cc057612cbf6126e3565b5b6000612cce84828501612c95565b91505092915050565b7f5b6465706f7369745d20416c7265616479206c6f636b65642100000000000000600082015250565b6000612d0d601983612633565b9150612d1882612cd7565b602082019050919050565b60006020820190508181036000830152612d3c81612d00565b9050919050565b6000604082019050612d58600083018561289c565b612d65602083018461281f565b9392505050565b600081519050612d7b8161292a565b92915050565b600060208284031215612d9757612d966126e3565b5b6000612da584828501612d6c565b91505092915050565b6000606082019050612dc3600083018661289c565b612dd0602083018561281f565b612ddd60408301846127c8565b949350505050565b7f45524332303a2064656372656173656420616c6c6f77616e63652062656c6f7760008201527f207a65726f000000000000000000000000000000000000000000000000000000602082015250565b6000612e41602583612633565b9150612e4c82612de5565b604082019050919050565b60006020820190508181036000830152612e7081612e34565b9050919050565b7f4f776e61626c653a206e6577206f776e657220697320746865207a65726f206160008201527f6464726573730000000000000000000000000000000000000000000000000000602082015250565b6000612ed3602683612633565b9150612ede82612e77565b604082019050919050565b60006020820190508181036000830152612f0281612ec6565b9050919050565b7f45524332303a20617070726f76652066726f6d20746865207a65726f2061646460008201527f7265737300000000000000000000000000000000000000000000000000000000602082015250565b6000612f65602483612633565b9150612f7082612f09565b604082019050919050565b60006020820190508181036000830152612f9481612f58565b9050919050565b7f45524332303a20617070726f766520746f20746865207a65726f20616464726560008201527f7373000000000000000000000000000000000000000000000000000000000000602082015250565b6000612ff7602283612633565b915061300282612f9b565b604082019050919050565b6000602082019050818103600083015261302681612fea565b9050919050565b7f45524332303a20696e73756666696369656e7420616c6c6f77616e6365000000600082015250565b6000613063601d83612633565b915061306e8261302d565b602082019050919050565b6000602082019050818103600083015261309281613056565b9050919050565b7f45524332303a207472616e736665722066726f6d20746865207a65726f20616460008201527f6472657373000000000000000000000000000000000000000000000000000000602082015250565b60006130f5602583612633565b915061310082613099565b604082019050919050565b60006020820190508181036000830152613124816130e8565b9050919050565b7f45524332303a207472616e7366657220746f20746865207a65726f206164647260008201527f6573730000000000000000000000000000000000000000000000000000000000602082015250565b6000613187602383612633565b91506131928261312b565b604082019050919050565b600060208201905081810360008301526131b68161317a565b9050919050565b7f45524332303a207472616e7366657220616d6f756e742065786365656473206260008201527f616c616e63650000000000000000000000000000000000000000000000000000602082015250565b6000613219602683612633565b9150613224826131bd565b604082019050919050565b600060208201905081810360008301526132488161320c565b9050919050565b7f45524332303a206275726e2066726f6d20746865207a65726f2061646472657360008201527f7300000000000000000000000000000000000000000000000000000000000000602082015250565b60006132ab602183612633565b91506132b68261324f565b604082019050919050565b600060208201905081810360008301526132da8161329e565b9050919050565b7f45524332303a206275726e20616d6f756e7420657863656564732062616c616e60008201527f6365000000000000000000000000000000000000000000000000000000000000602082015250565b600061333d602283612633565b9150613348826132e1565b604082019050919050565b6000602082019050818103600083015261336c81613330565b9050919050565b7f4f776e61626c653a2063616c6c6572206973206e6f7420746865206f776e6572600082015250565b60006133a9602083612633565b91506133b482613373565b602082019050919050565b600060208201905081810360008301526133d88161339c565b9050919050565b60006060820190506133f4600083018661289c565b613401602083018561289c565b61340e604083018461281f565b949350505050565b7f45524332303a206d696e7420746f20746865207a65726f206164647265737300600082015250565b600061344c601f83612633565b915061345782613416565b602082019050919050565b6000602082019050818103600083015261347b8161343f565b9050919050565b7f5361666545524332303a204552433230206f7065726174696f6e20646964206e60008201527f6f74207375636365656400000000000000000000000000000000000000000000602082015250565b60006134de602a83612633565b91506134e982613482565b604082019050919050565b6000602082019050818103600083015261350d816134d1565b9050919050565b7f416464726573733a20696e73756666696369656e742062616c616e636520666f60008201527f722063616c6c0000000000000000000000000000000000000000000000000000602082015250565b6000613570602683612633565b915061357b82613514565b604082019050919050565b6000602082019050818103600083015261359f81613563565b9050919050565b7f416464726573733a2063616c6c20746f206e6f6e2d636f6e7472616374000000600082015250565b60006135dc601d83612633565b91506135e7826135a6565b602082019050919050565b6000602082019050818103600083015261360b816135cf565b9050919050565b600081519050919050565b600081905092915050565b600061363382613612565b61363d818561361d565b935061364d818560208601612644565b80840191505092915050565b60006136658284613628565b91508190509291505056fea26469706673582212200382449ee31d94d44c2104f895ecc843e65b0a581e446d0b2c0cf2bba9a0bbfe64736f6c63430008090033",
  "linkReferences": {},
  "deployedLinkReferences": {}
}