{
  "_format": "hh-sol-artifact-1",
  "contractName": "FixedStrategy",
  "sourceName": "contracts/FixedStrategy.sol",
  "abi": [
    {
      "inputs": [
        {
          "internalType": "address",
          "name": "angleVaultAddr",
          "type": "address"
        },
        {
          "internalType": "address",
          "name": "angleStratAddr",
          "type": "address"
        },
        {
          "internalType": "address",
          "name": "oneInchAddr",
          "type": "address"
        },
        {
          "internalType": "address",
          "name": "angleFrontAddr",
          "type": "address"
        },
        {
          "internalType": "address",
          "name": "gaugeAdd",
          "type": "address"
        },
        {
          "internalType": "address",
          "name": "lockToken",
          "type": "address"
        }
      ],
      "stateMutability": "nonpayable",
      "type": "constructor"
    },
    {
      "anonymous": false,
      "inputs": [
        {
          "indexed": false,
          "internalType": "address",
          "name": "compounder",
          "type": "address"
        },
        {
          "indexed": false,
          "internalType": "uint256",
          "name": "amount",
          "type": "uint256"
        }
      ],
      "name": "Compounded",
      "type": "event"
    },
    {
      "anonymous": false,
      "inputs": [
        {
          "indexed": false,
          "internalType": "address",
          "name": "locker",
          "type": "address"
        },
        {
          "indexed": false,
          "internalType": "uint256",
          "name": "amount",
          "type": "uint256"
        }
      ],
      "name": "Deposit",
      "type": "event"
    },
    {
      "anonymous": false,
      "inputs": [
        {
          "indexed": false,
          "internalType": "bool",
          "name": "newState",
          "type": "bool"
        }
      ],
      "name": "EmergencyChanged",
      "type": "event"
    },
    {
      "anonymous": false,
      "inputs": [
        {
          "indexed": false,
          "internalType": "address",
          "name": "locker",
          "type": "address"
        },
        {
          "indexed": false,
          "internalType": "uint256",
          "name": "amount",
          "type": "uint256"
        }
      ],
      "name": "EmergencyWithdraw",
      "type": "event"
    },
    {
      "anonymous": false,
      "inputs": [],
      "name": "Harvested",
      "type": "event"
    },
    {
      "anonymous": false,
      "inputs": [
        {
          "indexed": false,
          "internalType": "uint256",
          "name": "newYield",
          "type": "uint256"
        }
      ],
      "name": "MaxYieldChanged",
      "type": "event"
    },
    {
      "anonymous": false,
      "inputs": [
        {
          "indexed": true,
          "internalType": "address",
          "name": "previousOwner",
          "type": "address"
        },
        {
          "indexed": true,
          "internalType": "address",
          "name": "newOwner",
          "type": "address"
        }
      ],
      "name": "OwnershipTransferred",
      "type": "event"
    },
    {
      "anonymous": false,
      "inputs": [
        {
          "indexed": false,
          "internalType": "address",
          "name": "locker",
          "type": "address"
        },
        {
          "indexed": false,
          "internalType": "uint256",
          "name": "amount",
          "type": "uint256"
        }
      ],
      "name": "Withdraw",
      "type": "event"
    },
    {
      "inputs": [],
      "name": "ANGL",
      "outputs": [
        {
          "internalType": "address",
          "name": "",
          "type": "address"
        }
      ],
      "stateMutability": "view",
      "type": "function"
    },
    {
      "inputs": [],
      "name": "ANGLE_POOL_MANAGER",
      "outputs": [
        {
          "internalType": "address",
          "name": "",
          "type": "address"
        }
      ],
      "stateMutability": "view",
      "type": "function"
    },
    {
      "inputs": [],
      "name": "FRAX",
      "outputs": [
        {
          "internalType": "address",
          "name": "",
          "type": "address"
        }
      ],
      "stateMutability": "view",
      "type": "function"
    },
    {
      "inputs": [],
      "name": "SDT",
      "outputs": [
        {
          "internalType": "address",
          "name": "",
          "type": "address"
        }
      ],
      "stateMutability": "view",
      "type": "function"
    },
    {
      "inputs": [],
      "name": "claim",
      "outputs": [],
      "stateMutability": "nonpayable",
      "type": "function"
    },
    {
      "inputs": [
        {
          "internalType": "bool",
          "name": "isEarn",
          "type": "bool"
        }
      ],
      "name": "comp",
      "outputs": [],
      "stateMutability": "nonpayable",
      "type": "function"
    },
    {
      "inputs": [],
      "name": "currentRatioForUser",
      "outputs": [
        {
          "internalType": "uint256",
          "name": "",
          "type": "uint256"
        }
      ],
      "stateMutability": "view",
      "type": "function"
    },
    {
      "inputs": [
        {
          "internalType": "uint256",
          "name": "amount",
          "type": "uint256"
        }
      ],
      "name": "deposit",
      "outputs": [],
      "stateMutability": "nonpayable",
      "type": "function"
    },
    {
      "inputs": [],
      "name": "emergency",
      "outputs": [
        {
          "internalType": "bool",
          "name": "",
          "type": "bool"
        }
      ],
      "stateMutability": "view",
      "type": "function"
    },
    {
      "inputs": [],
      "name": "emergencyWithdraw",
      "outputs": [],
      "stateMutability": "nonpayable",
      "type": "function"
    },
    {
      "inputs": [],
      "name": "getBalanceInGauge",
      "outputs": [
        {
          "internalType": "uint256",
          "name": "",
          "type": "uint256"
        }
      ],
      "stateMutability": "view",
      "type": "function"
    },
    {
      "inputs": [
        {
          "internalType": "address",
          "name": "executor",
          "type": "address"
        },
        {
          "internalType": "uint256[]",
          "name": "minReturnAmounts",
          "type": "uint256[]"
        },
        {
          "internalType": "bytes[]",
          "name": "permits",
          "type": "bytes[]"
        },
        {
          "internalType": "bytes[]",
          "name": "datas",
          "type": "bytes[]"
        }
      ],
      "name": "harvest",
      "outputs": [],
      "stateMutability": "nonpayable",
      "type": "function"
    },
    {
      "inputs": [],
      "name": "harvestStake",
      "outputs": [],
      "stateMutability": "nonpayable",
      "type": "function"
    },
    {
      "inputs": [
        {
          "internalType": "address",
          "name": "",
          "type": "address"
        }
      ],
      "name": "initialPPS",
      "outputs": [
        {
          "internalType": "uint256",
          "name": "",
          "type": "uint256"
        }
      ],
      "stateMutability": "view",
      "type": "function"
    },
    {
      "inputs": [
        {
          "internalType": "uint256",
          "name": "shares",
          "type": "uint256"
        }
      ],
      "name": "maxEarningToDate",
      "outputs": [
        {
          "internalType": "uint256",
          "name": "",
          "type": "uint256"
        }
      ],
      "stateMutability": "view",
      "type": "function"
    },
    {
      "inputs": [],
      "name": "maxYield",
      "outputs": [
        {
          "internalType": "uint256",
          "name": "",
          "type": "uint256"
        }
      ],
      "stateMutability": "view",
      "type": "function"
    },
    {
      "inputs": [],
      "name": "owner",
      "outputs": [
        {
          "internalType": "address",
          "name": "",
          "type": "address"
        }
      ],
      "stateMutability": "view",
      "type": "function"
    },
    {
      "inputs": [],
      "name": "pricePerShare",
      "outputs": [
        {
          "internalType": "uint256",
          "name": "",
          "type": "uint256"
        }
      ],
      "stateMutability": "view",
      "type": "function"
    },
    {
      "inputs": [],
      "name": "renounceOwnership",
      "outputs": [],
      "stateMutability": "nonpayable",
      "type": "function"
    },
    {
      "inputs": [
        {
          "internalType": "uint256",
          "name": "",
          "type": "uint256"
        }
      ],
      "name": "rewardTokens",
      "outputs": [
        {
          "internalType": "address",
          "name": "",
          "type": "address"
        }
      ],
      "stateMutability": "view",
      "type": "function"
    },
    {
      "inputs": [
        {
          "internalType": "uint256",
          "name": "newYield",
          "type": "uint256"
        }
      ],
      "name": "setMaxYield",
      "outputs": [],
      "stateMutability": "nonpayable",
      "type": "function"
    },
    {
      "inputs": [
        {
          "internalType": "address",
          "name": "",
          "type": "address"
        }
      ],
      "name": "stakeTimestamps",
      "outputs": [
        {
          "internalType": "uint256",
          "name": "",
          "type": "uint256"
        }
      ],
      "stateMutability": "view",
      "type": "function"
    },
    {
      "inputs": [],
      "name": "toggleEmergency",
      "outputs": [],
      "stateMutability": "nonpayable",
      "type": "function"
    },
    {
      "inputs": [],
      "name": "totalSupply",
      "outputs": [
        {
          "internalType": "uint256",
          "name": "",
          "type": "uint256"
        }
      ],
      "stateMutability": "view",
      "type": "function"
    },
    {
      "inputs": [
        {
          "internalType": "address",
          "name": "newOwner",
          "type": "address"
        }
      ],
      "name": "transferOwnership",
      "outputs": [],
      "stateMutability": "nonpayable",
      "type": "function"
    },
    {
      "inputs": [
        {
          "internalType": "address",
          "name": "",
          "type": "address"
        }
      ],
      "name": "userToShare",
      "outputs": [
        {
          "internalType": "uint256",
          "name": "",
          "type": "uint256"
        }
      ],
      "stateMutability": "view",
      "type": "function"
    },
    {
      "inputs": [
        {
          "internalType": "uint256",
          "name": "shares",
          "type": "uint256"
        }
      ],
      "name": "withdraw",
      "outputs": [],
      "stateMutability": "nonpayable",
      "type": "function"
    }
  ],
  "bytecode": "0x60806040523480156200001157600080fd5b506040516200429038038062004290833981810160405281019062000037919062000415565b620000576200004b620002df60201b60201c565b620002e760201b60201c565b85600360006101000a81548173ffffffffffffffffffffffffffffffffffffffff021916908373ffffffffffffffffffffffffffffffffffffffff16021790555084600460006101000a81548173ffffffffffffffffffffffffffffffffffffffff021916908373ffffffffffffffffffffffffffffffffffffffff16021790555081600560006101000a81548173ffffffffffffffffffffffffffffffffffffffff021916908373ffffffffffffffffffffffffffffffffffffffff16021790555083600160006101000a81548173ffffffffffffffffffffffffffffffffffffffff021916908373ffffffffffffffffffffffffffffffffffffffff16021790555082600260006101000a81548173ffffffffffffffffffffffffffffffffffffffff021916908373ffffffffffffffffffffffffffffffffffffffff16021790555080600660006101000a81548173ffffffffffffffffffffffffffffffffffffffff021916908373ffffffffffffffffffffffffffffffffffffffff160217905550605060078190555060097331429d1856ad1377a8a0079410b297e1a9e214c29080600181540180825580915050600190039060005260206000200160009091909190916101000a81548173ffffffffffffffffffffffffffffffffffffffff021916908373ffffffffffffffffffffffffffffffffffffffff16021790555060097373968b9a57c6e53d41345fd57a6e6ae27d6cdb2f9080600181540180825580915050600190039060005260206000200160009091909190916101000a81548173ffffffffffffffffffffffffffffffffffffffff021916908373ffffffffffffffffffffffffffffffffffffffff160217905550505050505050620004b1565b600033905090565b60008060009054906101000a900473ffffffffffffffffffffffffffffffffffffffff169050816000806101000a81548173ffffffffffffffffffffffffffffffffffffffff021916908373ffffffffffffffffffffffffffffffffffffffff1602179055508173ffffffffffffffffffffffffffffffffffffffff168173ffffffffffffffffffffffffffffffffffffffff167f8be0079c531659141344cd1fd0a4f28419497f9722a3daafe3b4186f6b6457e060405160405180910390a35050565b600080fd5b600073ffffffffffffffffffffffffffffffffffffffff82169050919050565b6000620003dd82620003b0565b9050919050565b620003ef81620003d0565b8114620003fb57600080fd5b50565b6000815190506200040f81620003e4565b92915050565b60008060008060008060c08789031215620004355762000434620003ab565b5b60006200044589828a01620003fe565b96505060206200045889828a01620003fe565b95505060406200046b89828a01620003fe565b94505060606200047e89828a01620003fe565b93505060806200049189828a01620003fe565b92505060a0620004a489828a01620003fe565b9150509295509295509295565b613dcf80620004c16000396000f3fe608060405234801561001057600080fd5b50600436106101a95760003560e01c80637bb7bed1116100f9578063ba32c61911610097578063d64dcde111610071578063d64dcde11461044e578063db2e21bc1461047e578063e165443314610488578063f2fde38b146104a6576101a9565b8063ba32c619146103f6578063c47b457314610414578063caa6fea414610430576101a9565b806399f853a5116100d357806399f853a514610370578063a94072b6146103a0578063b0e4556f146103bc578063b6b55f25146103da576101a9565b80637bb7bed1146103045780638da5cb5b1461033457806399530b0614610352576101a9565b80632d1d274411610166578063441822ee11610140578063441822ee146102a45780634e71d92d146102c05780636d8dea87146102ca578063715018a6146102fa576101a9565b80632d1d2744146102605780632e1a7d4d1461026a578063301234e614610286576101a9565b8063018e8e84146101ae578063027c4279146101cc57806310698a4a146101d6578063147ec25f1461020657806317504e801461022457806318160ddd14610242575b600080fd5b6101b66104c2565b6040516101c39190612d4e565b60405180910390f35b6101d4610574565b005b6101f060048036038101906101eb9190612d9f565b61062d565b6040516101fd9190612d4e565b60405180910390f35b61020e610728565b60405161021b9190612d4e565b60405180910390f35b61022c610847565b6040516102399190612e0d565b60405180910390f35b61024a61085f565b6040516102579190612d4e565b60405180910390f35b610268610865565b005b610284600480360381019061027f9190612d9f565b6108df565b005b61028e610e5a565b60405161029b9190612e0d565b60405180910390f35b6102be60048036038101906102b99190612e60565b610e72565b005b6102c8611066565b005b6102e460048036038101906102df9190612eb9565b6110f2565b6040516102f19190612d4e565b60405180910390f35b61030261110a565b005b61031e60048036038101906103199190612d9f565b61111e565b60405161032b9190612e0d565b60405180910390f35b61033c61115d565b6040516103499190612e0d565b60405180910390f35b61035a611186565b6040516103679190612d4e565b60405180910390f35b61038a60048036038101906103859190612eb9565b611325565b6040516103979190612d4e565b60405180910390f35b6103ba60048036038101906103b59190612d9f565b61133d565b005b6103c4611386565b6040516103d19190612e0d565b60405180910390f35b6103f460048036038101906103ef9190612d9f565b61139e565b005b6103fe611663565b60405161040b9190612e0d565b60405180910390f35b61042e60048036038101906104299190612fa1565b61167b565b005b610438611fb3565b6040516104459190613079565b60405180910390f35b61046860048036038101906104639190612eb9565b611fc6565b6040516104759190612d4e565b60405180910390f35b610486611fde565b005b610490612556565b60405161049d9190612d4e565b60405180910390f35b6104c060048036038101906104bb9190612eb9565b61255c565b005b6000600560009054906101000a900473ffffffffffffffffffffffffffffffffffffffff1673ffffffffffffffffffffffffffffffffffffffff166370a08231306040518263ffffffff1660e01b815260040161051f9190612e0d565b60206040518083038186803b15801561053757600080fd5b505afa15801561054b573d6000803e3d6000fd5b505050506040513d601f19601f8201168201806040525081019061056f91906130a9565b905090565b61057c6125e0565b600460009054906101000a900473ffffffffffffffffffffffffffffffffffffffff1673ffffffffffffffffffffffffffffffffffffffff16631e83409a600660009054906101000a900473ffffffffffffffffffffffffffffffffffffffff166040518263ffffffff1660e01b81526004016105f99190612e0d565b600060405180830381600087803b15801561061357600080fd5b505af1158015610627573d6000803e3d6000fd5b50505050565b600080670de0b6b3a7640000600b60003373ffffffffffffffffffffffffffffffffffffffff1673ffffffffffffffffffffffffffffffffffffffff16815260200190815260200160002054846106849190613105565b61068e919061318e565b90506000600a60003373ffffffffffffffffffffffffffffffffffffffff1673ffffffffffffffffffffffffffffffffffffffff16815260200190815260200160002054426106dd91906131bf565b90506103e86301e1338060075483856106f69190613105565b6107009190613105565b61070a919061318e565b610714919061318e565b8261071f91906131f3565b92505050919050565b600080600b60003373ffffffffffffffffffffffffffffffffffffffff1673ffffffffffffffffffffffffffffffffffffffff168152602001908152602001600020546103e8600b60003373ffffffffffffffffffffffffffffffffffffffff1673ffffffffffffffffffffffffffffffffffffffff168152602001908152602001600020546107b6611186565b6107c091906131bf565b6107ca9190613105565b6107d4919061318e565b90506000600a60003373ffffffffffffffffffffffffffffffffffffffff1673ffffffffffffffffffffffffffffffffffffffff168152602001908152602001600020544261082391906131bf565b9050806301e13380836108369190613105565b610840919061318e565b9250505090565b736b4ee7352406707003bc6f6b96595fd35925af4881565b60085481565b61086d6125e0565b600660149054906101000a900460ff1615600660146101000a81548160ff0219169083151502179055507fb7b4acafd2ef8ea4a9b9b341e2cffabb2c5d1de97da9e505b53a164dac9cefe9600660149054906101000a900460ff166040516108d59190613079565b60405180910390a1565b80600c60003373ffffffffffffffffffffffffffffffffffffffff1673ffffffffffffffffffffffffffffffffffffffff168152602001908152602001600020541015610961576040517f08c379a0000000000000000000000000000000000000000000000000000000008152600401610958906132a6565b60405180910390fd5b426276a700600a60003373ffffffffffffffffffffffffffffffffffffffff1673ffffffffffffffffffffffffffffffffffffffff168152602001908152602001600020546109b091906131f3565b11156109f1576040517f08c379a00000000000000000000000000000000000000000000000000000000081526004016109e890613312565b60405180910390fd5b6000670de0b6b3a7640000610a04611186565b83610a0f9190613105565b610a19919061318e565b9050600660009054906101000a900473ffffffffffffffffffffffffffffffffffffffff1673ffffffffffffffffffffffffffffffffffffffff166370a08231306040518263ffffffff1660e01b8152600401610a769190612e0d565b60206040518083038186803b158015610a8e57600080fd5b505afa158015610aa2573d6000803e3d6000fd5b505050506040513d601f19601f82011682018060405250810190610ac691906130a9565b811115610c1057600360009054906101000a900473ffffffffffffffffffffffffffffffffffffffff1673ffffffffffffffffffffffffffffffffffffffff16632e1a7d4d600660009054906101000a900473ffffffffffffffffffffffffffffffffffffffff1673ffffffffffffffffffffffffffffffffffffffff166370a08231306040518263ffffffff1660e01b8152600401610b669190612e0d565b60206040518083038186803b158015610b7e57600080fd5b505afa158015610b92573d6000803e3d6000fd5b505050506040513d601f19601f82011682018060405250810190610bb691906130a9565b83610bc191906131bf565b6040518263ffffffff1660e01b8152600401610bdd9190612d4e565b600060405180830381600087803b158015610bf757600080fd5b505af1158015610c0b573d6000803e3d6000fd5b505050505b600754610c1b610728565b1115610c92576000610c2c8361062d565b9050610c8d610c3961115d565b8284610c4591906131bf565b600660009054906101000a900473ffffffffffffffffffffffffffffffffffffffff1673ffffffffffffffffffffffffffffffffffffffff1661265e9092919063ffffffff16565b809150505b81600c60003373ffffffffffffffffffffffffffffffffffffffff1673ffffffffffffffffffffffffffffffffffffffff1681526020019081526020016000206000828254610ce191906131bf565b925050819055508160086000828254610cfa91906131bf565b925050819055506000600c60003373ffffffffffffffffffffffffffffffffffffffff1673ffffffffffffffffffffffffffffffffffffffff168152602001908152602001600020541415610dd057600b60003373ffffffffffffffffffffffffffffffffffffffff1673ffffffffffffffffffffffffffffffffffffffff16815260200190815260200160002060009055600a60003373ffffffffffffffffffffffffffffffffffffffff1673ffffffffffffffffffffffffffffffffffffffff168152602001908152602001600020600090555b610e1d3382600660009054906101000a900473ffffffffffffffffffffffffffffffffffffffff1673ffffffffffffffffffffffffffffffffffffffff1661265e9092919063ffffffff16565b7f884edad9ce6fa2440d8a54cc123490eb96d2768479d49ff9c7366125a94243643382604051610e4e929190613332565b60405180910390a15050565b7331429d1856ad1377a8a0079410b297e1a9e214c281565b610e7a6125e0565b6000600660009054906101000a900473ffffffffffffffffffffffffffffffffffffffff1673ffffffffffffffffffffffffffffffffffffffff166370a08231306040518263ffffffff1660e01b8152600401610ed79190612e0d565b60206040518083038186803b158015610eef57600080fd5b505afa158015610f03573d6000803e3d6000fd5b505050506040513d601f19601f82011682018060405250810190610f2791906130a9565b9050610f98600360009054906101000a900473ffffffffffffffffffffffffffffffffffffffff1682600660009054906101000a900473ffffffffffffffffffffffffffffffffffffffff1673ffffffffffffffffffffffffffffffffffffffff166126e49092919063ffffffff16565b600360009054906101000a900473ffffffffffffffffffffffffffffffffffffffff1673ffffffffffffffffffffffffffffffffffffffff16633edd11283083856040518463ffffffff1660e01b8152600401610ff79392919061335b565b600060405180830381600087803b15801561101157600080fd5b505af1158015611025573d6000803e3d6000fd5b505050507fc16de066392da7e40ceccb739c331fc48a2e76bf147449613c48023d960eec32338260405161105a929190613332565b60405180910390a15050565b61106e6125e0565b600560009054906101000a900473ffffffffffffffffffffffffffffffffffffffff1673ffffffffffffffffffffffffffffffffffffffff1663e6f1daf26040518163ffffffff1660e01b8152600401600060405180830381600087803b1580156110d857600080fd5b505af11580156110ec573d6000803e3d6000fd5b50505050565b600c6020528060005260406000206000915090505481565b6111126125e0565b61111c6000612805565b565b6009818154811061112e57600080fd5b906000526020600020016000915054906101000a900473ffffffffffffffffffffffffffffffffffffffff1681565b60008060009054906101000a900473ffffffffffffffffffffffffffffffffffffffff16905090565b6000806008541461131657600854670de0b6b3a7640000600660009054906101000a900473ffffffffffffffffffffffffffffffffffffffff1673ffffffffffffffffffffffffffffffffffffffff166370a08231306040518263ffffffff1660e01b81526004016111f89190612e0d565b60206040518083038186803b15801561121057600080fd5b505afa158015611224573d6000803e3d6000fd5b505050506040513d601f19601f8201168201806040525081019061124891906130a9565b600560009054906101000a900473ffffffffffffffffffffffffffffffffffffffff1673ffffffffffffffffffffffffffffffffffffffff166370a08231306040518263ffffffff1660e01b81526004016112a39190612e0d565b60206040518083038186803b1580156112bb57600080fd5b505afa1580156112cf573d6000803e3d6000fd5b505050506040513d601f19601f820116820180604052508101906112f391906130a9565b6112fd91906131f3565b6113079190613105565b611311919061318e565b611320565b670de0b6b3a76400005b905090565b600a6020528060005260406000206000915090505481565b6113456125e0565b806007819055507f3b3a01f24e8e3bef91ca993c1cd79a3b6f78a26b78a3f0051cf751404dee28328160405161137b9190612d4e565b60405180910390a150565b73853d955acef822db058eb8505911ed77f175b99e81565b6000600b60003373ffffffffffffffffffffffffffffffffffffffff1673ffffffffffffffffffffffffffffffffffffffff1681526020019081526020016000205414611420576040517f08c379a0000000000000000000000000000000000000000000000000000000008152600401611417906133de565b60405180910390fd5b42600a60003373ffffffffffffffffffffffffffffffffffffffff1673ffffffffffffffffffffffffffffffffffffffff1681526020019081526020016000208190555061146c611186565b600b60003373ffffffffffffffffffffffffffffffffffffffff1673ffffffffffffffffffffffffffffffffffffffff168152602001908152602001600020819055506114fe333083600660009054906101000a900473ffffffffffffffffffffffffffffffffffffffff1673ffffffffffffffffffffffffffffffffffffffff166128c9909392919063ffffffff16565b600b60003373ffffffffffffffffffffffffffffffffffffffff1673ffffffffffffffffffffffffffffffffffffffff16815260200190815260200160002054670de0b6b3a7640000826115529190613105565b61155c919061318e565b600c60003373ffffffffffffffffffffffffffffffffffffffff1673ffffffffffffffffffffffffffffffffffffffff16815260200190815260200160002060008282546115aa91906131f3565b92505081905550600b60003373ffffffffffffffffffffffffffffffffffffffff1673ffffffffffffffffffffffffffffffffffffffff16815260200190815260200160002054670de0b6b3a7640000826116059190613105565b61160f919061318e565b6008600082825461162091906131f3565b925050819055507fe1fffcc4923d04b559f4d29a8bfc6cda04eb5b0d3c460751c2402c5c5cc9109c3382604051611658929190613332565b60405180910390a150565b7373968b9a57c6e53d41345fd57a6e6ae27d6cdb2f81565b6116836125e0565b60098054905082829050146116cd576040517f08c379a00000000000000000000000000000000000000000000000000000000081526004016116c490613470565b60405180910390fd5b6009805490508686905014611717576040517f08c379a000000000000000000000000000000000000000000000000000000000815260040161170e90613470565b60405180910390fd5b6009805490508484905014611761576040517f08c379a000000000000000000000000000000000000000000000000000000000815260040161175890613470565b60405180910390fd5b60005b600980549050811015611d3f5760006009828154811061178757611786613490565b5b9060005260206000200160009054906101000a900473ffffffffffffffffffffffffffffffffffffffff1673ffffffffffffffffffffffffffffffffffffffff166370a08231306040518263ffffffff1660e01b81526004016117ea9190612e0d565b60206040518083038186803b15801561180257600080fd5b505afa158015611816573d6000803e3d6000fd5b505050506040513d601f19601f8201168201806040525081019061183a91906130a9565b141561184557611d2c565b611996600160009054906101000a900473ffffffffffffffffffffffffffffffffffffffff166009838154811061187f5761187e613490565b5b9060005260206000200160009054906101000a900473ffffffffffffffffffffffffffffffffffffffff1673ffffffffffffffffffffffffffffffffffffffff166370a08231306040518263ffffffff1660e01b81526004016118e29190612e0d565b60206040518083038186803b1580156118fa57600080fd5b505afa15801561190e573d6000803e3d6000fd5b505050506040513d601f19601f8201168201806040525081019061193291906130a9565b6009848154811061194657611945613490565b5b9060005260206000200160009054906101000a900473ffffffffffffffffffffffffffffffffffffffff1673ffffffffffffffffffffffffffffffffffffffff166126e49092919063ffffffff16565b6000604051806101000160405280600984815481106119b8576119b7613490565b5b9060005260206000200160009054906101000a900473ffffffffffffffffffffffffffffffffffffffff1673ffffffffffffffffffffffffffffffffffffffff16815260200173853d955acef822db058eb8505911ed77f175b99e73ffffffffffffffffffffffffffffffffffffffff1681526020018a73ffffffffffffffffffffffffffffffffffffffff1681526020013073ffffffffffffffffffffffffffffffffffffffff16815260200160098481548110611a7a57611a79613490565b5b9060005260206000200160009054906101000a900473ffffffffffffffffffffffffffffffffffffffff1673ffffffffffffffffffffffffffffffffffffffff166370a08231306040518263ffffffff1660e01b8152600401611add9190612e0d565b60206040518083038186803b158015611af557600080fd5b505afa158015611b09573d6000803e3d6000fd5b505050506040513d601f19601f82011682018060405250810190611b2d91906130a9565b8152602001898985818110611b4557611b44613490565b5b90506020020135815260200160048152602001878785818110611b6b57611b6a613490565b5b9050602002810190611b7d91906134ce565b8080601f016020809104026020016040519081016040528093929190818152602001838380828437600081840152601f19601f820116905080830192505050505050508152509050600160009054906101000a900473ffffffffffffffffffffffffffffffffffffffff1673ffffffffffffffffffffffffffffffffffffffff16637c0252008a83878787818110611c1857611c17613490565b5b9050602002810190611c2a91906134ce565b6040518563ffffffff1660e01b8152600401611c499493929190613777565b606060405180830381600087803b158015611c6357600080fd5b505af1158015611c77573d6000803e3d6000fd5b505050506040513d601f19601f82011682018060405250810190611c9b91906137be565b505050611d2a600160009054906101000a900473ffffffffffffffffffffffffffffffffffffffff16600060098581548110611cda57611cd9613490565b5b9060005260206000200160009054906101000a900473ffffffffffffffffffffffffffffffffffffffff1673ffffffffffffffffffffffffffffffffffffffff166129529092919063ffffffff16565b505b8080611d3790613811565b915050611764565b50611e3d600260009054906101000a900473ffffffffffffffffffffffffffffffffffffffff1673853d955acef822db058eb8505911ed77f175b99e73ffffffffffffffffffffffffffffffffffffffff166370a08231306040518263ffffffff1660e01b8152600401611db39190612e0d565b60206040518083038186803b158015611dcb57600080fd5b505afa158015611ddf573d6000803e3d6000fd5b505050506040513d601f19601f82011682018060405250810190611e0391906130a9565b73853d955acef822db058eb8505911ed77f175b99e73ffffffffffffffffffffffffffffffffffffffff166126e49092919063ffffffff16565b600260009054906101000a900473ffffffffffffffffffffffffffffffffffffffff1673ffffffffffffffffffffffffffffffffffffffff16632e2d298473853d955acef822db058eb8505911ed77f175b99e73ffffffffffffffffffffffffffffffffffffffff166370a08231306040518263ffffffff1660e01b8152600401611ec89190612e0d565b60206040518083038186803b158015611ee057600080fd5b505afa158015611ef4573d6000803e3d6000fd5b505050506040513d601f19601f82011682018060405250810190611f1891906130a9565b30736b4ee7352406707003bc6f6b96595fd35925af486040518463ffffffff1660e01b8152600401611f4c9392919061387b565b600060405180830381600087803b158015611f6657600080fd5b505af1158015611f7a573d6000803e3d6000fd5b505050507f4d12401e4d6cc642454aedd27a02290e422f28dd21e629634f1beffacb705bf860405160405180910390a150505050505050565b600660149054906101000a900460ff1681565b600b6020528060005260406000206000915090505481565b6000600c60003373ffffffffffffffffffffffffffffffffffffffff1673ffffffffffffffffffffffffffffffffffffffff1681526020019081526020016000205411612060576040517f08c379a0000000000000000000000000000000000000000000000000000000008152600401612057906132a6565b60405180910390fd5b600660149054906101000a900460ff166120af576040517f08c379a00000000000000000000000000000000000000000000000000000000081526004016120a6906138fe565b60405180910390fd5b6000670de0b6b3a76400006120c2611186565b600c60003373ffffffffffffffffffffffffffffffffffffffff1673ffffffffffffffffffffffffffffffffffffffff1681526020019081526020016000205461210c9190613105565b612116919061318e565b9050600660009054906101000a900473ffffffffffffffffffffffffffffffffffffffff1673ffffffffffffffffffffffffffffffffffffffff166370a08231306040518263ffffffff1660e01b81526004016121739190612e0d565b60206040518083038186803b15801561218b57600080fd5b505afa15801561219f573d6000803e3d6000fd5b505050506040513d601f19601f820116820180604052508101906121c391906130a9565b81111561230d57600360009054906101000a900473ffffffffffffffffffffffffffffffffffffffff1673ffffffffffffffffffffffffffffffffffffffff16632e1a7d4d600660009054906101000a900473ffffffffffffffffffffffffffffffffffffffff1673ffffffffffffffffffffffffffffffffffffffff166370a08231306040518263ffffffff1660e01b81526004016122639190612e0d565b60206040518083038186803b15801561227b57600080fd5b505afa15801561228f573d6000803e3d6000fd5b505050506040513d601f19601f820116820180604052508101906122b391906130a9565b836122be91906131bf565b6040518263ffffffff1660e01b81526004016122da9190612d4e565b600060405180830381600087803b1580156122f457600080fd5b505af1158015612308573d6000803e3d6000fd5b505050505b600754612318610728565b106123eb576000612385670de0b6b3a7640000600b60003373ffffffffffffffffffffffffffffffffffffffff1673ffffffffffffffffffffffffffffffffffffffff16815260200190815260200160002054846123769190613105565b612380919061318e565b61062d565b90506123e661239261115d565b828461239e91906131bf565b600660009054906101000a900473ffffffffffffffffffffffffffffffffffffffff1673ffffffffffffffffffffffffffffffffffffffff1661265e9092919063ffffffff16565b809150505b600c60003373ffffffffffffffffffffffffffffffffffffffff1673ffffffffffffffffffffffffffffffffffffffff16815260200190815260200160002060009055806008600082825461244091906131bf565b92505081905550600b60003373ffffffffffffffffffffffffffffffffffffffff1673ffffffffffffffffffffffffffffffffffffffff16815260200190815260200160002060009055600a60003373ffffffffffffffffffffffffffffffffffffffff1673ffffffffffffffffffffffffffffffffffffffff1681526020019081526020016000206000905561251a3382600660009054906101000a900473ffffffffffffffffffffffffffffffffffffffff1673ffffffffffffffffffffffffffffffffffffffff1661265e9092919063ffffffff16565b7f5fafa99d0643513820be26656b45130b01e1c03062e1266bf36f88cbd3bd9695338260405161254b929190613332565b60405180910390a150565b60075481565b6125646125e0565b600073ffffffffffffffffffffffffffffffffffffffff168173ffffffffffffffffffffffffffffffffffffffff1614156125d4576040517f08c379a00000000000000000000000000000000000000000000000000000000081526004016125cb90613990565b60405180910390fd5b6125dd81612805565b50565b6125e8612ab0565b73ffffffffffffffffffffffffffffffffffffffff1661260661115d565b73ffffffffffffffffffffffffffffffffffffffff161461265c576040517f08c379a0000000000000000000000000000000000000000000000000000000008152600401612653906139fc565b60405180910390fd5b565b6126df8363a9059cbb60e01b848460405160240161267d929190613332565b604051602081830303815290604052907bffffffffffffffffffffffffffffffffffffffffffffffffffffffff19166020820180517bffffffffffffffffffffffffffffffffffffffffffffffffffffffff8381831617835250505050612ab8565b505050565b6000818473ffffffffffffffffffffffffffffffffffffffff1663dd62ed3e30866040518363ffffffff1660e01b8152600401612722929190613a1c565b60206040518083038186803b15801561273a57600080fd5b505afa15801561274e573d6000803e3d6000fd5b505050506040513d601f19601f8201168201806040525081019061277291906130a9565b61277c91906131f3565b90506127ff8463095ea7b360e01b858460405160240161279d929190613332565b604051602081830303815290604052907bffffffffffffffffffffffffffffffffffffffffffffffffffffffff19166020820180517bffffffffffffffffffffffffffffffffffffffffffffffffffffffff8381831617835250505050612ab8565b50505050565b60008060009054906101000a900473ffffffffffffffffffffffffffffffffffffffff169050816000806101000a81548173ffffffffffffffffffffffffffffffffffffffff021916908373ffffffffffffffffffffffffffffffffffffffff1602179055508173ffffffffffffffffffffffffffffffffffffffff168173ffffffffffffffffffffffffffffffffffffffff167f8be0079c531659141344cd1fd0a4f28419497f9722a3daafe3b4186f6b6457e060405160405180910390a35050565b61294c846323b872dd60e01b8585856040516024016128ea93929190613a45565b604051602081830303815290604052907bffffffffffffffffffffffffffffffffffffffffffffffffffffffff19166020820180517bffffffffffffffffffffffffffffffffffffffffffffffffffffffff8381831617835250505050612ab8565b50505050565b60008114806129eb575060008373ffffffffffffffffffffffffffffffffffffffff1663dd62ed3e30856040518363ffffffff1660e01b8152600401612999929190613a1c565b60206040518083038186803b1580156129b157600080fd5b505afa1580156129c5573d6000803e3d6000fd5b505050506040513d601f19601f820116820180604052508101906129e991906130a9565b145b612a2a576040517f08c379a0000000000000000000000000000000000000000000000000000000008152600401612a2190613aee565b60405180910390fd5b612aab8363095ea7b360e01b8484604051602401612a49929190613332565b604051602081830303815290604052907bffffffffffffffffffffffffffffffffffffffffffffffffffffffff19166020820180517bffffffffffffffffffffffffffffffffffffffffffffffffffffffff8381831617835250505050612ab8565b505050565b600033905090565b6000612b1a826040518060400160405280602081526020017f5361666545524332303a206c6f772d6c6576656c2063616c6c206661696c65648152508573ffffffffffffffffffffffffffffffffffffffff16612b7f9092919063ffffffff16565b9050600081511115612b7a5780806020019051810190612b3a9190613b23565b612b79576040517f08c379a0000000000000000000000000000000000000000000000000000000008152600401612b7090613bc2565b60405180910390fd5b5b505050565b6060612b8e8484600085612b97565b90509392505050565b606082471015612bdc576040517f08c379a0000000000000000000000000000000000000000000000000000000008152600401612bd390613c54565b60405180910390fd5b612be585612cab565b612c24576040517f08c379a0000000000000000000000000000000000000000000000000000000008152600401612c1b90613cc0565b60405180910390fd5b6000808673ffffffffffffffffffffffffffffffffffffffff168587604051612c4d9190613d1c565b60006040518083038185875af1925050503d8060008114612c8a576040519150601f19603f3d011682016040523d82523d6000602084013e612c8f565b606091505b5091509150612c9f828286612cce565b92505050949350505050565b6000808273ffffffffffffffffffffffffffffffffffffffff163b119050919050565b60608315612cde57829050612d2e565b600083511115612cf15782518084602001fd5b816040517f08c379a0000000000000000000000000000000000000000000000000000000008152600401612d259190613d77565b60405180910390fd5b9392505050565b6000819050919050565b612d4881612d35565b82525050565b6000602082019050612d636000830184612d3f565b92915050565b600080fd5b600080fd5b612d7c81612d35565b8114612d8757600080fd5b50565b600081359050612d9981612d73565b92915050565b600060208284031215612db557612db4612d69565b5b6000612dc384828501612d8a565b91505092915050565b600073ffffffffffffffffffffffffffffffffffffffff82169050919050565b6000612df782612dcc565b9050919050565b612e0781612dec565b82525050565b6000602082019050612e226000830184612dfe565b92915050565b60008115159050919050565b612e3d81612e28565b8114612e4857600080fd5b50565b600081359050612e5a81612e34565b92915050565b600060208284031215612e7657612e75612d69565b5b6000612e8484828501612e4b565b91505092915050565b612e9681612dec565b8114612ea157600080fd5b50565b600081359050612eb381612e8d565b92915050565b600060208284031215612ecf57612ece612d69565b5b6000612edd84828501612ea4565b91505092915050565b600080fd5b600080fd5b600080fd5b60008083601f840112612f0b57612f0a612ee6565b5b8235905067ffffffffffffffff811115612f2857612f27612eeb565b5b602083019150836020820283011115612f4457612f43612ef0565b5b9250929050565b60008083601f840112612f6157612f60612ee6565b5b8235905067ffffffffffffffff811115612f7e57612f7d612eeb565b5b602083019150836020820283011115612f9a57612f99612ef0565b5b9250929050565b60008060008060008060006080888a031215612fc057612fbf612d69565b5b6000612fce8a828b01612ea4565b975050602088013567ffffffffffffffff811115612fef57612fee612d6e565b5b612ffb8a828b01612ef5565b9650965050604088013567ffffffffffffffff81111561301e5761301d612d6e565b5b61302a8a828b01612f4b565b9450945050606088013567ffffffffffffffff81111561304d5761304c612d6e565b5b6130598a828b01612f4b565b925092505092959891949750929550565b61307381612e28565b82525050565b600060208201905061308e600083018461306a565b92915050565b6000815190506130a381612d73565b92915050565b6000602082840312156130bf576130be612d69565b5b60006130cd84828501613094565b91505092915050565b7f4e487b7100000000000000000000000000000000000000000000000000000000600052601160045260246000fd5b600061311082612d35565b915061311b83612d35565b9250817fffffffffffffffffffffffffffffffffffffffffffffffffffffffffffffffff0483118215151615613154576131536130d6565b5b828202905092915050565b7f4e487b7100000000000000000000000000000000000000000000000000000000600052601260045260246000fd5b600061319982612d35565b91506131a483612d35565b9250826131b4576131b361315f565b5b828204905092915050565b60006131ca82612d35565b91506131d583612d35565b9250828210156131e8576131e76130d6565b5b828203905092915050565b60006131fe82612d35565b915061320983612d35565b9250827fffffffffffffffffffffffffffffffffffffffffffffffffffffffffffffffff0382111561323e5761323d6130d6565b5b828201905092915050565b600082825260208201905092915050565b7f5b77697468647261775d20496e73756666696369656e742062616c616e636521600082015250565b6000613290602083613249565b915061329b8261325a565b602082019050919050565b600060208201905081810360008301526132bf81613283565b9050919050565b7f5b77697468647261775d204561726c7920776974686472617721000000000000600082015250565b60006132fc601a83613249565b9150613307826132c6565b602082019050919050565b6000602082019050818103600083015261332b816132ef565b9050919050565b60006040820190506133476000830185612dfe565b6133546020830184612d3f565b9392505050565b60006060820190506133706000830186612dfe565b61337d6020830185612d3f565b61338a604083018461306a565b949350505050565b7f5b6465706f7369745d20416c7265616479206c6f636b65642100000000000000600082015250565b60006133c8601983613249565b91506133d382613392565b602082019050919050565b600060208201905081810360008301526133f7816133bb565b9050919050565b7f5b686172766573745d20496e617070726f707269617465206461746120616d6f60008201527f756e742e00000000000000000000000000000000000000000000000000000000602082015250565b600061345a602483613249565b9150613465826133fe565b604082019050919050565b600060208201905081810360008301526134898161344d565b9050919050565b7f4e487b7100000000000000000000000000000000000000000000000000000000600052603260045260246000fd5b600080fd5b600080fd5b600080fd5b600080833560016020038436030381126134eb576134ea6134bf565b5b80840192508235915067ffffffffffffffff82111561350d5761350c6134c4565b5b602083019250600182023603831315613529576135286134c9565b5b509250929050565b6000819050919050565b600061355661355161354c84612dcc565b613531565b612dcc565b9050919050565b60006135688261353b565b9050919050565b600061357a8261355d565b9050919050565b61358a8161356f565b82525050565b600061359b8261355d565b9050919050565b6135ab81613590565b82525050565b60006135bc82612dcc565b9050919050565b6135cc816135b1565b82525050565b6135db81612d35565b82525050565b600081519050919050565b600082825260208201905092915050565b60005b8381101561361b578082015181840152602081019050613600565b8381111561362a576000848401525b50505050565b6000601f19601f8301169050919050565b600061364c826135e1565b61365681856135ec565b93506136668185602086016135fd565b61366f81613630565b840191505092915050565b60006101008301600083015161369360008601826135a2565b5060208301516136a660208601826135a2565b5060408301516136b960408601826135c3565b5060608301516136cc60608601826135c3565b5060808301516136df60808601826135d2565b5060a08301516136f260a08601826135d2565b5060c083015161370560c08601826135d2565b5060e083015184820360e086015261371d8282613641565b9150508091505092915050565b600082825260208201905092915050565b82818337600083830152505050565b6000613756838561372a565b935061376383858461373b565b61376c83613630565b840190509392505050565b600060608201905061378c6000830187613581565b818103602083015261379e818661367a565b905081810360408301526137b381848661374a565b905095945050505050565b6000806000606084860312156137d7576137d6612d69565b5b60006137e586828701613094565b93505060206137f686828701613094565b925050604061380786828701613094565b9150509250925092565b600061381c82612d35565b91507fffffffffffffffffffffffffffffffffffffffffffffffffffffffffffffffff82141561384f5761384e6130d6565b5b600182019050919050565b60006138658261355d565b9050919050565b6138758161385a565b82525050565b60006060820190506138906000830186612d3f565b61389d6020830185612dfe565b6138aa604083018461386c565b949350505050565b7f5b77697468647261775d204e6f7420456d657267656e63790000000000000000600082015250565b60006138e8601883613249565b91506138f3826138b2565b602082019050919050565b60006020820190508181036000830152613917816138db565b9050919050565b7f4f776e61626c653a206e6577206f776e657220697320746865207a65726f206160008201527f6464726573730000000000000000000000000000000000000000000000000000602082015250565b600061397a602683613249565b91506139858261391e565b604082019050919050565b600060208201905081810360008301526139a98161396d565b9050919050565b7f4f776e61626c653a2063616c6c6572206973206e6f7420746865206f776e6572600082015250565b60006139e6602083613249565b91506139f1826139b0565b602082019050919050565b60006020820190508181036000830152613a15816139d9565b9050919050565b6000604082019050613a316000830185612dfe565b613a3e6020830184612dfe565b9392505050565b6000606082019050613a5a6000830186612dfe565b613a676020830185612dfe565b613a746040830184612d3f565b949350505050565b7f5361666545524332303a20617070726f76652066726f6d206e6f6e2d7a65726f60008201527f20746f206e6f6e2d7a65726f20616c6c6f77616e636500000000000000000000602082015250565b6000613ad8603683613249565b9150613ae382613a7c565b604082019050919050565b60006020820190508181036000830152613b0781613acb565b9050919050565b600081519050613b1d81612e34565b92915050565b600060208284031215613b3957613b38612d69565b5b6000613b4784828501613b0e565b91505092915050565b7f5361666545524332303a204552433230206f7065726174696f6e20646964206e60008201527f6f74207375636365656400000000000000000000000000000000000000000000602082015250565b6000613bac602a83613249565b9150613bb782613b50565b604082019050919050565b60006020820190508181036000830152613bdb81613b9f565b9050919050565b7f416464726573733a20696e73756666696369656e742062616c616e636520666f60008201527f722063616c6c0000000000000000000000000000000000000000000000000000602082015250565b6000613c3e602683613249565b9150613c4982613be2565b604082019050919050565b60006020820190508181036000830152613c6d81613c31565b9050919050565b7f416464726573733a2063616c6c20746f206e6f6e2d636f6e7472616374000000600082015250565b6000613caa601d83613249565b9150613cb582613c74565b602082019050919050565b60006020820190508181036000830152613cd981613c9d565b9050919050565b600081905092915050565b6000613cf6826135e1565b613d008185613ce0565b9350613d108185602086016135fd565b80840191505092915050565b6000613d288284613ceb565b915081905092915050565b600081519050919050565b6000613d4982613d33565b613d538185613249565b9350613d638185602086016135fd565b613d6c81613630565b840191505092915050565b60006020820190508181036000830152613d918184613d3e565b90509291505056fea26469706673582212209d64c8c398ba2388e2f5e6ef7003cbef59d122fd4e7387f7647675ef8e0867b264736f6c63430008090033",
  "linkReferences": {},
  "deployedLinkReferences": {}
}