{
  "_format": "hh-sol-artifact-1",
  "contractName": "FixedStrategy",
  "sourceName": "contracts/FixedStrategy.sol",
  "abi": [
    {
      "inputs": [
        {
          "internalType": "address",
          "name": "oneInchAddr",
          "type": "address"
        },
        {
          "internalType": "address",
          "name": "angleVaultAddr",
          "type": "address"
        },
        {
          "internalType": "address",
          "name": "angleStratAddr",
          "type": "address"
        },
        {
          "internalType": "address",
          "name": "angleFrontAddr",
          "type": "address"
        },
        {
          "internalType": "address",
          "name": "gaugeAddr",
          "type": "address"
        },
        {
          "internalType": "address",
          "name": "lockTokenAddr",
          "type": "address"
        }
      ],
      "stateMutability": "nonpayable",
      "type": "constructor"
    },
    {
      "anonymous": false,
      "inputs": [
        {
          "indexed": false,
          "internalType": "address",
          "name": "compounder",
          "type": "address"
        },
        {
          "indexed": false,
          "internalType": "uint256",
          "name": "amount",
          "type": "uint256"
        }
      ],
      "name": "Compounded",
      "type": "event"
    },
    {
      "anonymous": false,
      "inputs": [
        {
          "indexed": false,
          "internalType": "address",
          "name": "locker",
          "type": "address"
        },
        {
          "indexed": false,
          "internalType": "uint256",
          "name": "amount",
          "type": "uint256"
        }
      ],
      "name": "Deposit",
      "type": "event"
    },
    {
      "anonymous": false,
      "inputs": [
        {
          "indexed": false,
          "internalType": "bool",
          "name": "newState",
          "type": "bool"
        }
      ],
      "name": "EmergencyChanged",
      "type": "event"
    },
    {
      "anonymous": false,
      "inputs": [
        {
          "indexed": false,
          "internalType": "address",
          "name": "locker",
          "type": "address"
        },
        {
          "indexed": false,
          "internalType": "uint256",
          "name": "amount",
          "type": "uint256"
        }
      ],
      "name": "EmergencyWithdraw",
      "type": "event"
    },
    {
      "anonymous": false,
      "inputs": [],
      "name": "Harvested",
      "type": "event"
    },
    {
      "anonymous": false,
      "inputs": [
        {
          "indexed": false,
          "internalType": "uint256",
          "name": "newYield",
          "type": "uint256"
        }
      ],
      "name": "MaxYieldChanged",
      "type": "event"
    },
    {
      "anonymous": false,
      "inputs": [
        {
          "indexed": true,
          "internalType": "address",
          "name": "previousOwner",
          "type": "address"
        },
        {
          "indexed": true,
          "internalType": "address",
          "name": "newOwner",
          "type": "address"
        }
      ],
      "name": "OwnershipTransferred",
      "type": "event"
    },
    {
      "anonymous": false,
      "inputs": [
        {
          "indexed": false,
          "internalType": "address",
          "name": "locker",
          "type": "address"
        },
        {
          "indexed": false,
          "internalType": "uint256",
          "name": "amount",
          "type": "uint256"
        }
      ],
      "name": "Withdraw",
      "type": "event"
    },
    {
      "stateMutability": "payable",
      "type": "fallback"
    },
    {
      "inputs": [],
      "name": "ANGL",
      "outputs": [
        {
          "internalType": "address",
          "name": "",
          "type": "address"
        }
      ],
      "stateMutability": "view",
      "type": "function"
    },
    {
      "inputs": [],
      "name": "ANGLE_POOL_MANAGER",
      "outputs": [
        {
          "internalType": "address",
          "name": "",
          "type": "address"
        }
      ],
      "stateMutability": "view",
      "type": "function"
    },
    {
      "inputs": [],
      "name": "FRAX",
      "outputs": [
        {
          "internalType": "address",
          "name": "",
          "type": "address"
        }
      ],
      "stateMutability": "view",
      "type": "function"
    },
    {
      "inputs": [],
      "name": "SDT",
      "outputs": [
        {
          "internalType": "address",
          "name": "",
          "type": "address"
        }
      ],
      "stateMutability": "view",
      "type": "function"
    },
    {
      "inputs": [],
      "name": "claim",
      "outputs": [],
      "stateMutability": "nonpayable",
      "type": "function"
    },
    {
      "inputs": [
        {
          "internalType": "bool",
          "name": "isEarn",
          "type": "bool"
        }
      ],
      "name": "comp",
      "outputs": [],
      "stateMutability": "nonpayable",
      "type": "function"
    },
    {
      "inputs": [],
      "name": "currentRatioForUser",
      "outputs": [
        {
          "internalType": "uint256",
          "name": "",
          "type": "uint256"
        }
      ],
      "stateMutability": "view",
      "type": "function"
    },
    {
      "inputs": [
        {
          "internalType": "uint256",
          "name": "amount",
          "type": "uint256"
        }
      ],
      "name": "deposit",
      "outputs": [],
      "stateMutability": "nonpayable",
      "type": "function"
    },
    {
      "inputs": [],
      "name": "emergency",
      "outputs": [
        {
          "internalType": "bool",
          "name": "",
          "type": "bool"
        }
      ],
      "stateMutability": "view",
      "type": "function"
    },
    {
      "inputs": [],
      "name": "emergencyWithdraw",
      "outputs": [],
      "stateMutability": "nonpayable",
      "type": "function"
    },
    {
      "inputs": [],
      "name": "getBalanceInGauge",
      "outputs": [
        {
          "internalType": "uint256",
          "name": "",
          "type": "uint256"
        }
      ],
      "stateMutability": "view",
      "type": "function"
    },
    {
      "inputs": [
        {
          "internalType": "address",
          "name": "executor",
          "type": "address"
        },
        {
          "internalType": "uint256[]",
          "name": "minReturnAmounts",
          "type": "uint256[]"
        },
        {
          "internalType": "bytes[]",
          "name": "permits",
          "type": "bytes[]"
        },
        {
          "internalType": "bytes[]",
          "name": "datas",
          "type": "bytes[]"
        }
      ],
      "name": "harvest",
      "outputs": [],
      "stateMutability": "nonpayable",
      "type": "function"
    },
    {
      "inputs": [],
      "name": "harvestStake",
      "outputs": [],
      "stateMutability": "nonpayable",
      "type": "function"
    },
    {
      "inputs": [
        {
          "internalType": "address",
          "name": "",
          "type": "address"
        }
      ],
      "name": "initialPPS",
      "outputs": [
        {
          "internalType": "uint256",
          "name": "",
          "type": "uint256"
        }
      ],
      "stateMutability": "view",
      "type": "function"
    },
    {
      "inputs": [
        {
          "internalType": "uint256",
          "name": "shares",
          "type": "uint256"
        }
      ],
      "name": "maxEarningToDate",
      "outputs": [
        {
          "internalType": "uint256",
          "name": "",
          "type": "uint256"
        }
      ],
      "stateMutability": "view",
      "type": "function"
    },
    {
      "inputs": [],
      "name": "maxYield",
      "outputs": [
        {
          "internalType": "uint256",
          "name": "",
          "type": "uint256"
        }
      ],
      "stateMutability": "view",
      "type": "function"
    },
    {
      "inputs": [],
      "name": "owner",
      "outputs": [
        {
          "internalType": "address",
          "name": "",
          "type": "address"
        }
      ],
      "stateMutability": "view",
      "type": "function"
    },
    {
      "inputs": [],
      "name": "pricePerShare",
      "outputs": [
        {
          "internalType": "uint256",
          "name": "",
          "type": "uint256"
        }
      ],
      "stateMutability": "view",
      "type": "function"
    },
    {
      "inputs": [],
      "name": "renounceOwnership",
      "outputs": [],
      "stateMutability": "nonpayable",
      "type": "function"
    },
    {
      "inputs": [
        {
          "internalType": "uint256",
          "name": "",
          "type": "uint256"
        }
      ],
      "name": "rewardTokens",
      "outputs": [
        {
          "internalType": "address",
          "name": "",
          "type": "address"
        }
      ],
      "stateMutability": "view",
      "type": "function"
    },
    {
      "inputs": [],
      "name": "rewardTokensLength",
      "outputs": [
        {
          "internalType": "uint256",
          "name": "",
          "type": "uint256"
        }
      ],
      "stateMutability": "view",
      "type": "function"
    },
    {
      "inputs": [
        {
          "internalType": "uint256",
          "name": "newYield",
          "type": "uint256"
        }
      ],
      "name": "setMaxYield",
      "outputs": [],
      "stateMutability": "nonpayable",
      "type": "function"
    },
    {
      "inputs": [
        {
          "internalType": "address",
          "name": "",
          "type": "address"
        }
      ],
      "name": "stakeTimestamps",
      "outputs": [
        {
          "internalType": "uint256",
          "name": "",
          "type": "uint256"
        }
      ],
      "stateMutability": "view",
      "type": "function"
    },
    {
      "inputs": [],
      "name": "toggleEmergency",
      "outputs": [],
      "stateMutability": "nonpayable",
      "type": "function"
    },
    {
      "inputs": [],
      "name": "totalSupply",
      "outputs": [
        {
          "internalType": "uint256",
          "name": "",
          "type": "uint256"
        }
      ],
      "stateMutability": "view",
      "type": "function"
    },
    {
      "inputs": [
        {
          "internalType": "address",
          "name": "newOwner",
          "type": "address"
        }
      ],
      "name": "transferOwnership",
      "outputs": [],
      "stateMutability": "nonpayable",
      "type": "function"
    },
    {
      "inputs": [
        {
          "internalType": "address",
          "name": "",
          "type": "address"
        }
      ],
      "name": "userToShare",
      "outputs": [
        {
          "internalType": "uint256",
          "name": "",
          "type": "uint256"
        }
      ],
      "stateMutability": "view",
      "type": "function"
    },
    {
      "inputs": [
        {
          "internalType": "uint256",
          "name": "shares",
          "type": "uint256"
        }
      ],
      "name": "withdraw",
      "outputs": [],
      "stateMutability": "nonpayable",
      "type": "function"
    },
    {
      "stateMutability": "payable",
      "type": "receive"
    }
  ],
  "bytecode": "0x60806040523480156200001157600080fd5b506040516200460938038062004609833981810160405281019062000037919062000415565b620000576200004b620002df60201b60201c565b620002e760201b60201c565b85600160006101000a81548173ffffffffffffffffffffffffffffffffffffffff021916908373ffffffffffffffffffffffffffffffffffffffff16021790555084600260006101000a81548173ffffffffffffffffffffffffffffffffffffffff021916908373ffffffffffffffffffffffffffffffffffffffff16021790555083600360006101000a81548173ffffffffffffffffffffffffffffffffffffffff021916908373ffffffffffffffffffffffffffffffffffffffff16021790555082600460006101000a81548173ffffffffffffffffffffffffffffffffffffffff021916908373ffffffffffffffffffffffffffffffffffffffff16021790555081600560006101000a81548173ffffffffffffffffffffffffffffffffffffffff021916908373ffffffffffffffffffffffffffffffffffffffff16021790555080600660006101000a81548173ffffffffffffffffffffffffffffffffffffffff021916908373ffffffffffffffffffffffffffffffffffffffff1602179055506050600781905550600d7331429d1856ad1377a8a0079410b297e1a9e214c29080600181540180825580915050600190039060005260206000200160009091909190916101000a81548173ffffffffffffffffffffffffffffffffffffffff021916908373ffffffffffffffffffffffffffffffffffffffff160217905550600d7373968b9a57c6e53d41345fd57a6e6ae27d6cdb2f9080600181540180825580915050600190039060005260206000200160009091909190916101000a81548173ffffffffffffffffffffffffffffffffffffffff021916908373ffffffffffffffffffffffffffffffffffffffff160217905550505050505050620004b1565b600033905090565b60008060009054906101000a900473ffffffffffffffffffffffffffffffffffffffff169050816000806101000a81548173ffffffffffffffffffffffffffffffffffffffff021916908373ffffffffffffffffffffffffffffffffffffffff1602179055508173ffffffffffffffffffffffffffffffffffffffff168173ffffffffffffffffffffffffffffffffffffffff167f8be0079c531659141344cd1fd0a4f28419497f9722a3daafe3b4186f6b6457e060405160405180910390a35050565b600080fd5b600073ffffffffffffffffffffffffffffffffffffffff82169050919050565b6000620003dd82620003b0565b9050919050565b620003ef81620003d0565b8114620003fb57600080fd5b50565b6000815190506200040f81620003e4565b92915050565b60008060008060008060c08789031215620004355762000434620003ab565b5b60006200044589828a01620003fe565b96505060206200045889828a01620003fe565b95505060406200046b89828a01620003fe565b94505060606200047e89828a01620003fe565b93505060806200049189828a01620003fe565b92505060a0620004a489828a01620003fe565b9150509295509295509295565b61414880620004c16000396000f3fe6080604052600436106101bb5760003560e01c80638da5cb5b116100ec578063bf199e621161008a578063d64dcde111610064578063d64dcde1146105c0578063db2e21bc146105fd578063e165443314610614578063f2fde38b1461063f576101c5565b8063bf199e6214610541578063c47b45731461056c578063caa6fea414610595576101c5565b8063a94072b6116100c6578063a94072b614610499578063b0e4556f146104c2578063b6b55f25146104ed578063ba32c61914610516576101c5565b80638da5cb5b1461040657806399530b061461043157806399f853a51461045c576101c5565b80632e1a7d4d116101595780634e71d92d116101335780634e71d92d1461035e5780636d8dea8714610375578063715018a6146103b25780637bb7bed1146103c9576101c5565b80632e1a7d4d146102e1578063301234e61461030a578063441822ee14610335576101c5565b8063147ec25f11610195578063147ec25f1461024957806317504e801461027457806318160ddd1461029f5780632d1d2744146102ca576101c5565b8063018e8e84146101ca578063027c4279146101f557806310698a4a1461020c576101c5565b366101c557600080fd5b600080fd5b3480156101d657600080fd5b506101df610668565b6040516101ec9190612fc9565b60405180910390f35b34801561020157600080fd5b5061020a61071a565b005b34801561021857600080fd5b50610233600480360381019061022e919061301a565b6107d3565b6040516102409190612fc9565b60405180910390f35b34801561025557600080fd5b5061025e6108ce565b60405161026b9190612fc9565b60405180910390f35b34801561028057600080fd5b506102896109ed565b6040516102969190613088565b60405180910390f35b3480156102ab57600080fd5b506102b4610a05565b6040516102c19190612fc9565b60405180910390f35b3480156102d657600080fd5b506102df610a0b565b005b3480156102ed57600080fd5b506103086004803603810190610303919061301a565b610a85565b005b34801561031657600080fd5b5061031f61104f565b60405161032c9190613088565b60405180910390f35b34801561034157600080fd5b5061035c600480360381019061035791906130db565b611067565b005b34801561036a57600080fd5b5061037361125b565b005b34801561038157600080fd5b5061039c60048036038101906103979190613134565b6112e7565b6040516103a99190612fc9565b60405180910390f35b3480156103be57600080fd5b506103c76112ff565b005b3480156103d557600080fd5b506103f060048036038101906103eb919061301a565b611313565b6040516103fd9190613088565b60405180910390f35b34801561041257600080fd5b5061041b611352565b6040516104289190613088565b60405180910390f35b34801561043d57600080fd5b5061044661137b565b6040516104539190612fc9565b60405180910390f35b34801561046857600080fd5b50610483600480360381019061047e9190613134565b61151a565b6040516104909190612fc9565b60405180910390f35b3480156104a557600080fd5b506104c060048036038101906104bb919061301a565b611532565b005b3480156104ce57600080fd5b506104d76115c2565b6040516104e49190613088565b60405180910390f35b3480156104f957600080fd5b50610514600480360381019061050f919061301a565b6115da565b005b34801561052257600080fd5b5061052b6118d1565b6040516105389190613088565b60405180910390f35b34801561054d57600080fd5b506105566118e9565b6040516105639190612fc9565b60405180910390f35b34801561057857600080fd5b50610593600480360381019061058e919061321c565b6118f6565b005b3480156105a157600080fd5b506105aa61222e565b6040516105b791906132f4565b60405180910390f35b3480156105cc57600080fd5b506105e760048036038101906105e29190613134565b612241565b6040516105f49190612fc9565b60405180910390f35b34801561060957600080fd5b50610612612259565b005b34801561062057600080fd5b506106296127d1565b6040516106369190612fc9565b60405180910390f35b34801561064b57600080fd5b5061066660048036038101906106619190613134565b6127d7565b005b6000600560009054906101000a900473ffffffffffffffffffffffffffffffffffffffff1673ffffffffffffffffffffffffffffffffffffffff166370a08231306040518263ffffffff1660e01b81526004016106c59190613088565b60206040518083038186803b1580156106dd57600080fd5b505afa1580156106f1573d6000803e3d6000fd5b505050506040513d601f19601f820116820180604052508101906107159190613324565b905090565b61072261285b565b600360009054906101000a900473ffffffffffffffffffffffffffffffffffffffff1673ffffffffffffffffffffffffffffffffffffffff16631e83409a600660009054906101000a900473ffffffffffffffffffffffffffffffffffffffff166040518263ffffffff1660e01b815260040161079f9190613088565b600060405180830381600087803b1580156107b957600080fd5b505af11580156107cd573d6000803e3d6000fd5b50505050565b600080670de0b6b3a7640000600b60003373ffffffffffffffffffffffffffffffffffffffff1673ffffffffffffffffffffffffffffffffffffffff168152602001908152602001600020548461082a9190613380565b6108349190613409565b90506000600a60003373ffffffffffffffffffffffffffffffffffffffff1673ffffffffffffffffffffffffffffffffffffffff1681526020019081526020016000205442610883919061343a565b90506103e86301e13380600754838561089c9190613380565b6108a69190613380565b6108b09190613409565b6108ba9190613409565b826108c5919061346e565b92505050919050565b600080600b60003373ffffffffffffffffffffffffffffffffffffffff1673ffffffffffffffffffffffffffffffffffffffff168152602001908152602001600020546103e8600b60003373ffffffffffffffffffffffffffffffffffffffff1673ffffffffffffffffffffffffffffffffffffffff1681526020019081526020016000205461095c61137b565b610966919061343a565b6109709190613380565b61097a9190613409565b90506000600a60003373ffffffffffffffffffffffffffffffffffffffff1673ffffffffffffffffffffffffffffffffffffffff16815260200190815260200160002054426109c9919061343a565b9050806301e13380836109dc9190613380565b6109e69190613409565b9250505090565b736b4ee7352406707003bc6f6b96595fd35925af4881565b60085481565b610a1361285b565b600960009054906101000a900460ff1615600960006101000a81548160ff0219169083151502179055507fb7b4acafd2ef8ea4a9b9b341e2cffabb2c5d1de97da9e505b53a164dac9cefe9600960009054906101000a900460ff16604051610a7b91906132f4565b60405180910390a1565b600960009054906101000a900460ff1615610ad5576040517f08c379a0000000000000000000000000000000000000000000000000000000008152600401610acc90613521565b60405180910390fd5b80600c60003373ffffffffffffffffffffffffffffffffffffffff1673ffffffffffffffffffffffffffffffffffffffff168152602001908152602001600020541015610b57576040517f08c379a0000000000000000000000000000000000000000000000000000000008152600401610b4e9061358d565b60405180910390fd5b426276a700600a60003373ffffffffffffffffffffffffffffffffffffffff1673ffffffffffffffffffffffffffffffffffffffff16815260200190815260200160002054610ba6919061346e565b1115610be7576040517f08c379a0000000000000000000000000000000000000000000000000000000008152600401610bde906135f9565b60405180910390fd5b6000670de0b6b3a7640000610bfa61137b565b83610c059190613380565b610c0f9190613409565b9050600660009054906101000a900473ffffffffffffffffffffffffffffffffffffffff1673ffffffffffffffffffffffffffffffffffffffff166370a08231306040518263ffffffff1660e01b8152600401610c6c9190613088565b60206040518083038186803b158015610c8457600080fd5b505afa158015610c98573d6000803e3d6000fd5b505050506040513d601f19601f82011682018060405250810190610cbc9190613324565b811115610e0657600260009054906101000a900473ffffffffffffffffffffffffffffffffffffffff1673ffffffffffffffffffffffffffffffffffffffff16632e1a7d4d600660009054906101000a900473ffffffffffffffffffffffffffffffffffffffff1673ffffffffffffffffffffffffffffffffffffffff166370a08231306040518263ffffffff1660e01b8152600401610d5c9190613088565b60206040518083038186803b158015610d7457600080fd5b505afa158015610d88573d6000803e3d6000fd5b505050506040513d601f19601f82011682018060405250810190610dac9190613324565b83610db7919061343a565b6040518263ffffffff1660e01b8152600401610dd39190612fc9565b600060405180830381600087803b158015610ded57600080fd5b505af1158015610e01573d6000803e3d6000fd5b505050505b600754610e116108ce565b10610e87576000610e21836107d3565b9050610e82610e2e611352565b8284610e3a919061343a565b600660009054906101000a900473ffffffffffffffffffffffffffffffffffffffff1673ffffffffffffffffffffffffffffffffffffffff166128d99092919063ffffffff16565b809150505b81600c60003373ffffffffffffffffffffffffffffffffffffffff1673ffffffffffffffffffffffffffffffffffffffff1681526020019081526020016000206000828254610ed6919061343a565b925050819055508160086000828254610eef919061343a565b925050819055506000600c60003373ffffffffffffffffffffffffffffffffffffffff1673ffffffffffffffffffffffffffffffffffffffff168152602001908152602001600020541415610fc557600b60003373ffffffffffffffffffffffffffffffffffffffff1673ffffffffffffffffffffffffffffffffffffffff16815260200190815260200160002060009055600a60003373ffffffffffffffffffffffffffffffffffffffff1673ffffffffffffffffffffffffffffffffffffffff168152602001908152602001600020600090555b6110123382600660009054906101000a900473ffffffffffffffffffffffffffffffffffffffff1673ffffffffffffffffffffffffffffffffffffffff166128d99092919063ffffffff16565b7f884edad9ce6fa2440d8a54cc123490eb96d2768479d49ff9c7366125a94243643382604051611043929190613619565b60405180910390a15050565b7331429d1856ad1377a8a0079410b297e1a9e214c281565b61106f61285b565b6000600660009054906101000a900473ffffffffffffffffffffffffffffffffffffffff1673ffffffffffffffffffffffffffffffffffffffff166370a08231306040518263ffffffff1660e01b81526004016110cc9190613088565b60206040518083038186803b1580156110e457600080fd5b505afa1580156110f8573d6000803e3d6000fd5b505050506040513d601f19601f8201168201806040525081019061111c9190613324565b905061118d600260009054906101000a900473ffffffffffffffffffffffffffffffffffffffff1682600660009054906101000a900473ffffffffffffffffffffffffffffffffffffffff1673ffffffffffffffffffffffffffffffffffffffff1661295f9092919063ffffffff16565b600260009054906101000a900473ffffffffffffffffffffffffffffffffffffffff1673ffffffffffffffffffffffffffffffffffffffff16633edd11283083856040518463ffffffff1660e01b81526004016111ec93929190613642565b600060405180830381600087803b15801561120657600080fd5b505af115801561121a573d6000803e3d6000fd5b505050507fc16de066392da7e40ceccb739c331fc48a2e76bf147449613c48023d960eec32338260405161124f929190613619565b60405180910390a15050565b61126361285b565b600560009054906101000a900473ffffffffffffffffffffffffffffffffffffffff1673ffffffffffffffffffffffffffffffffffffffff1663e6f1daf26040518163ffffffff1660e01b8152600401600060405180830381600087803b1580156112cd57600080fd5b505af11580156112e1573d6000803e3d6000fd5b50505050565b600c6020528060005260406000206000915090505481565b61130761285b565b6113116000612a80565b565b600d818154811061132357600080fd5b906000526020600020016000915054906101000a900473ffffffffffffffffffffffffffffffffffffffff1681565b60008060009054906101000a900473ffffffffffffffffffffffffffffffffffffffff16905090565b6000806008541461150b57600854670de0b6b3a7640000600660009054906101000a900473ffffffffffffffffffffffffffffffffffffffff1673ffffffffffffffffffffffffffffffffffffffff166370a08231306040518263ffffffff1660e01b81526004016113ed9190613088565b60206040518083038186803b15801561140557600080fd5b505afa158015611419573d6000803e3d6000fd5b505050506040513d601f19601f8201168201806040525081019061143d9190613324565b600560009054906101000a900473ffffffffffffffffffffffffffffffffffffffff1673ffffffffffffffffffffffffffffffffffffffff166370a08231306040518263ffffffff1660e01b81526004016114989190613088565b60206040518083038186803b1580156114b057600080fd5b505afa1580156114c4573d6000803e3d6000fd5b505050506040513d601f19601f820116820180604052508101906114e89190613324565b6114f2919061346e565b6114fc9190613380565b6115069190613409565b611515565b670de0b6b3a76400005b905090565b600a6020528060005260406000206000915090505481565b61153a61285b565b6103e86007541115611581576040517f08c379a0000000000000000000000000000000000000000000000000000000008152600401611578906136eb565b60405180910390fd5b806007819055507f3b3a01f24e8e3bef91ca993c1cd79a3b6f78a26b78a3f0051cf751404dee2832816040516115b79190612fc9565b60405180910390a150565b73853d955acef822db058eb8505911ed77f175b99e81565b600960009054906101000a900460ff161561162a576040517f08c379a000000000000000000000000000000000000000000000000000000000815260040161162190613521565b60405180910390fd5b6000600b60003373ffffffffffffffffffffffffffffffffffffffff1673ffffffffffffffffffffffffffffffffffffffff16815260200190815260200160002054146116ac576040517f08c379a00000000000000000000000000000000000000000000000000000000081526004016116a390613757565b60405180910390fd5b42600a60003373ffffffffffffffffffffffffffffffffffffffff1673ffffffffffffffffffffffffffffffffffffffff168152602001908152602001600020819055506116f861137b565b600b60003373ffffffffffffffffffffffffffffffffffffffff1673ffffffffffffffffffffffffffffffffffffffff1681526020019081526020016000208190555061178a333083600660009054906101000a900473ffffffffffffffffffffffffffffffffffffffff1673ffffffffffffffffffffffffffffffffffffffff16612b44909392919063ffffffff16565b600b60003373ffffffffffffffffffffffffffffffffffffffff1673ffffffffffffffffffffffffffffffffffffffff16815260200190815260200160002054670de0b6b3a7640000826117de9190613380565b6117e89190613409565b600c60003373ffffffffffffffffffffffffffffffffffffffff1673ffffffffffffffffffffffffffffffffffffffff1681526020019081526020016000206000828254611836919061346e565b92505081905550600c60003373ffffffffffffffffffffffffffffffffffffffff1673ffffffffffffffffffffffffffffffffffffffff168152602001908152602001600020546008600082825461188e919061346e565b925050819055507fe1fffcc4923d04b559f4d29a8bfc6cda04eb5b0d3c460751c2402c5c5cc9109c33826040516118c6929190613619565b60405180910390a150565b7373968b9a57c6e53d41345fd57a6e6ae27d6cdb2f81565b6000600d80549050905090565b6118fe61285b565b600d805490508686905014611948576040517f08c379a000000000000000000000000000000000000000000000000000000000815260040161193f906137e9565b60405180910390fd5b600d805490508484905014611992576040517f08c379a0000000000000000000000000000000000000000000000000000000008152600401611989906137e9565b60405180910390fd5b600d8054905082829050146119dc576040517f08c379a00000000000000000000000000000000000000000000000000000000081526004016119d3906137e9565b60405180910390fd5b60005b600d80549050811015611fba576000600d8281548110611a0257611a01613809565b5b9060005260206000200160009054906101000a900473ffffffffffffffffffffffffffffffffffffffff1673ffffffffffffffffffffffffffffffffffffffff166370a08231306040518263ffffffff1660e01b8152600401611a659190613088565b60206040518083038186803b158015611a7d57600080fd5b505afa158015611a91573d6000803e3d6000fd5b505050506040513d601f19601f82011682018060405250810190611ab59190613324565b1415611ac057611fa7565b611c11600160009054906101000a900473ffffffffffffffffffffffffffffffffffffffff16600d8381548110611afa57611af9613809565b5b9060005260206000200160009054906101000a900473ffffffffffffffffffffffffffffffffffffffff1673ffffffffffffffffffffffffffffffffffffffff166370a08231306040518263ffffffff1660e01b8152600401611b5d9190613088565b60206040518083038186803b158015611b7557600080fd5b505afa158015611b89573d6000803e3d6000fd5b505050506040513d601f19601f82011682018060405250810190611bad9190613324565b600d8481548110611bc157611bc0613809565b5b9060005260206000200160009054906101000a900473ffffffffffffffffffffffffffffffffffffffff1673ffffffffffffffffffffffffffffffffffffffff1661295f9092919063ffffffff16565b6000604051806101000160405280600d8481548110611c3357611c32613809565b5b9060005260206000200160009054906101000a900473ffffffffffffffffffffffffffffffffffffffff1673ffffffffffffffffffffffffffffffffffffffff16815260200173853d955acef822db058eb8505911ed77f175b99e73ffffffffffffffffffffffffffffffffffffffff1681526020018a73ffffffffffffffffffffffffffffffffffffffff1681526020013073ffffffffffffffffffffffffffffffffffffffff168152602001600d8481548110611cf557611cf4613809565b5b9060005260206000200160009054906101000a900473ffffffffffffffffffffffffffffffffffffffff1673ffffffffffffffffffffffffffffffffffffffff166370a08231306040518263ffffffff1660e01b8152600401611d589190613088565b60206040518083038186803b158015611d7057600080fd5b505afa158015611d84573d6000803e3d6000fd5b505050506040513d601f19601f82011682018060405250810190611da89190613324565b8152602001898985818110611dc057611dbf613809565b5b90506020020135815260200160048152602001878785818110611de657611de5613809565b5b9050602002810190611df89190613847565b8080601f016020809104026020016040519081016040528093929190818152602001838380828437600081840152601f19601f820116905080830192505050505050508152509050600160009054906101000a900473ffffffffffffffffffffffffffffffffffffffff1673ffffffffffffffffffffffffffffffffffffffff16637c0252008a83878787818110611e9357611e92613809565b5b9050602002810190611ea59190613847565b6040518563ffffffff1660e01b8152600401611ec49493929190613af0565b606060405180830381600087803b158015611ede57600080fd5b505af1158015611ef2573d6000803e3d6000fd5b505050506040513d601f19601f82011682018060405250810190611f169190613b37565b505050611fa5600160009054906101000a900473ffffffffffffffffffffffffffffffffffffffff166000600d8581548110611f5557611f54613809565b5b9060005260206000200160009054906101000a900473ffffffffffffffffffffffffffffffffffffffff1673ffffffffffffffffffffffffffffffffffffffff16612bcd9092919063ffffffff16565b505b8080611fb290613b8a565b9150506119df565b506120b8600460009054906101000a900473ffffffffffffffffffffffffffffffffffffffff1673853d955acef822db058eb8505911ed77f175b99e73ffffffffffffffffffffffffffffffffffffffff166370a08231306040518263ffffffff1660e01b815260040161202e9190613088565b60206040518083038186803b15801561204657600080fd5b505afa15801561205a573d6000803e3d6000fd5b505050506040513d601f19601f8201168201806040525081019061207e9190613324565b73853d955acef822db058eb8505911ed77f175b99e73ffffffffffffffffffffffffffffffffffffffff1661295f9092919063ffffffff16565b600460009054906101000a900473ffffffffffffffffffffffffffffffffffffffff1673ffffffffffffffffffffffffffffffffffffffff16632e2d298473853d955acef822db058eb8505911ed77f175b99e73ffffffffffffffffffffffffffffffffffffffff166370a08231306040518263ffffffff1660e01b81526004016121439190613088565b60206040518083038186803b15801561215b57600080fd5b505afa15801561216f573d6000803e3d6000fd5b505050506040513d601f19601f820116820180604052508101906121939190613324565b30736b4ee7352406707003bc6f6b96595fd35925af486040518463ffffffff1660e01b81526004016121c793929190613bf4565b600060405180830381600087803b1580156121e157600080fd5b505af11580156121f5573d6000803e3d6000fd5b505050507f4d12401e4d6cc642454aedd27a02290e422f28dd21e629634f1beffacb705bf860405160405180910390a150505050505050565b600960009054906101000a900460ff1681565b600b6020528060005260406000206000915090505481565b6000600c60003373ffffffffffffffffffffffffffffffffffffffff1673ffffffffffffffffffffffffffffffffffffffff16815260200190815260200160002054116122db576040517f08c379a00000000000000000000000000000000000000000000000000000000081526004016122d29061358d565b60405180910390fd5b600960009054906101000a900460ff1661232a576040517f08c379a000000000000000000000000000000000000000000000000000000000815260040161232190613c77565b60405180910390fd5b6000670de0b6b3a764000061233d61137b565b600c60003373ffffffffffffffffffffffffffffffffffffffff1673ffffffffffffffffffffffffffffffffffffffff168152602001908152602001600020546123879190613380565b6123919190613409565b9050600660009054906101000a900473ffffffffffffffffffffffffffffffffffffffff1673ffffffffffffffffffffffffffffffffffffffff166370a08231306040518263ffffffff1660e01b81526004016123ee9190613088565b60206040518083038186803b15801561240657600080fd5b505afa15801561241a573d6000803e3d6000fd5b505050506040513d601f19601f8201168201806040525081019061243e9190613324565b81111561258857600260009054906101000a900473ffffffffffffffffffffffffffffffffffffffff1673ffffffffffffffffffffffffffffffffffffffff16632e1a7d4d600660009054906101000a900473ffffffffffffffffffffffffffffffffffffffff1673ffffffffffffffffffffffffffffffffffffffff166370a08231306040518263ffffffff1660e01b81526004016124de9190613088565b60206040518083038186803b1580156124f657600080fd5b505afa15801561250a573d6000803e3d6000fd5b505050506040513d601f19601f8201168201806040525081019061252e9190613324565b83612539919061343a565b6040518263ffffffff1660e01b81526004016125559190612fc9565b600060405180830381600087803b15801561256f57600080fd5b505af1158015612583573d6000803e3d6000fd5b505050505b6007546125936108ce565b10612666576000612600670de0b6b3a7640000600b60003373ffffffffffffffffffffffffffffffffffffffff1673ffffffffffffffffffffffffffffffffffffffff16815260200190815260200160002054846125f19190613380565b6125fb9190613409565b6107d3565b905061266161260d611352565b8284612619919061343a565b600660009054906101000a900473ffffffffffffffffffffffffffffffffffffffff1673ffffffffffffffffffffffffffffffffffffffff166128d99092919063ffffffff16565b809150505b600c60003373ffffffffffffffffffffffffffffffffffffffff1673ffffffffffffffffffffffffffffffffffffffff1681526020019081526020016000206000905580600860008282546126bb919061343a565b92505081905550600b60003373ffffffffffffffffffffffffffffffffffffffff1673ffffffffffffffffffffffffffffffffffffffff16815260200190815260200160002060009055600a60003373ffffffffffffffffffffffffffffffffffffffff1673ffffffffffffffffffffffffffffffffffffffff168152602001908152602001600020600090556127953382600660009054906101000a900473ffffffffffffffffffffffffffffffffffffffff1673ffffffffffffffffffffffffffffffffffffffff166128d99092919063ffffffff16565b7f5fafa99d0643513820be26656b45130b01e1c03062e1266bf36f88cbd3bd969533826040516127c6929190613619565b60405180910390a150565b60075481565b6127df61285b565b600073ffffffffffffffffffffffffffffffffffffffff168173ffffffffffffffffffffffffffffffffffffffff16141561284f576040517f08c379a000000000000000000000000000000000000000000000000000000000815260040161284690613d09565b60405180910390fd5b61285881612a80565b50565b612863612d2b565b73ffffffffffffffffffffffffffffffffffffffff16612881611352565b73ffffffffffffffffffffffffffffffffffffffff16146128d7576040517f08c379a00000000000000000000000000000000000000000000000000000000081526004016128ce90613d75565b60405180910390fd5b565b61295a8363a9059cbb60e01b84846040516024016128f8929190613619565b604051602081830303815290604052907bffffffffffffffffffffffffffffffffffffffffffffffffffffffff19166020820180517bffffffffffffffffffffffffffffffffffffffffffffffffffffffff8381831617835250505050612d33565b505050565b6000818473ffffffffffffffffffffffffffffffffffffffff1663dd62ed3e30866040518363ffffffff1660e01b815260040161299d929190613d95565b60206040518083038186803b1580156129b557600080fd5b505afa1580156129c9573d6000803e3d6000fd5b505050506040513d601f19601f820116820180604052508101906129ed9190613324565b6129f7919061346e565b9050612a7a8463095ea7b360e01b8584604051602401612a18929190613619565b604051602081830303815290604052907bffffffffffffffffffffffffffffffffffffffffffffffffffffffff19166020820180517bffffffffffffffffffffffffffffffffffffffffffffffffffffffff8381831617835250505050612d33565b50505050565b60008060009054906101000a900473ffffffffffffffffffffffffffffffffffffffff169050816000806101000a81548173ffffffffffffffffffffffffffffffffffffffff021916908373ffffffffffffffffffffffffffffffffffffffff1602179055508173ffffffffffffffffffffffffffffffffffffffff168173ffffffffffffffffffffffffffffffffffffffff167f8be0079c531659141344cd1fd0a4f28419497f9722a3daafe3b4186f6b6457e060405160405180910390a35050565b612bc7846323b872dd60e01b858585604051602401612b6593929190613dbe565b604051602081830303815290604052907bffffffffffffffffffffffffffffffffffffffffffffffffffffffff19166020820180517bffffffffffffffffffffffffffffffffffffffffffffffffffffffff8381831617835250505050612d33565b50505050565b6000811480612c66575060008373ffffffffffffffffffffffffffffffffffffffff1663dd62ed3e30856040518363ffffffff1660e01b8152600401612c14929190613d95565b60206040518083038186803b158015612c2c57600080fd5b505afa158015612c40573d6000803e3d6000fd5b505050506040513d601f19601f82011682018060405250810190612c649190613324565b145b612ca5576040517f08c379a0000000000000000000000000000000000000000000000000000000008152600401612c9c90613e67565b60405180910390fd5b612d268363095ea7b360e01b8484604051602401612cc4929190613619565b604051602081830303815290604052907bffffffffffffffffffffffffffffffffffffffffffffffffffffffff19166020820180517bffffffffffffffffffffffffffffffffffffffffffffffffffffffff8381831617835250505050612d33565b505050565b600033905090565b6000612d95826040518060400160405280602081526020017f5361666545524332303a206c6f772d6c6576656c2063616c6c206661696c65648152508573ffffffffffffffffffffffffffffffffffffffff16612dfa9092919063ffffffff16565b9050600081511115612df55780806020019051810190612db59190613e9c565b612df4576040517f08c379a0000000000000000000000000000000000000000000000000000000008152600401612deb90613f3b565b60405180910390fd5b5b505050565b6060612e098484600085612e12565b90509392505050565b606082471015612e57576040517f08c379a0000000000000000000000000000000000000000000000000000000008152600401612e4e90613fcd565b60405180910390fd5b612e6085612f26565b612e9f576040517f08c379a0000000000000000000000000000000000000000000000000000000008152600401612e9690614039565b60405180910390fd5b6000808673ffffffffffffffffffffffffffffffffffffffff168587604051612ec89190614095565b60006040518083038185875af1925050503d8060008114612f05576040519150601f19603f3d011682016040523d82523d6000602084013e612f0a565b606091505b5091509150612f1a828286612f49565b92505050949350505050565b6000808273ffffffffffffffffffffffffffffffffffffffff163b119050919050565b60608315612f5957829050612fa9565b600083511115612f6c5782518084602001fd5b816040517f08c379a0000000000000000000000000000000000000000000000000000000008152600401612fa091906140f0565b60405180910390fd5b9392505050565b6000819050919050565b612fc381612fb0565b82525050565b6000602082019050612fde6000830184612fba565b92915050565b600080fd5b600080fd5b612ff781612fb0565b811461300257600080fd5b50565b60008135905061301481612fee565b92915050565b6000602082840312156130305761302f612fe4565b5b600061303e84828501613005565b91505092915050565b600073ffffffffffffffffffffffffffffffffffffffff82169050919050565b600061307282613047565b9050919050565b61308281613067565b82525050565b600060208201905061309d6000830184613079565b92915050565b60008115159050919050565b6130b8816130a3565b81146130c357600080fd5b50565b6000813590506130d5816130af565b92915050565b6000602082840312156130f1576130f0612fe4565b5b60006130ff848285016130c6565b91505092915050565b61311181613067565b811461311c57600080fd5b50565b60008135905061312e81613108565b92915050565b60006020828403121561314a57613149612fe4565b5b60006131588482850161311f565b91505092915050565b600080fd5b600080fd5b600080fd5b60008083601f84011261318657613185613161565b5b8235905067ffffffffffffffff8111156131a3576131a2613166565b5b6020830191508360208202830111156131bf576131be61316b565b5b9250929050565b60008083601f8401126131dc576131db613161565b5b8235905067ffffffffffffffff8111156131f9576131f8613166565b5b6020830191508360208202830111156132155761321461316b565b5b9250929050565b60008060008060008060006080888a03121561323b5761323a612fe4565b5b60006132498a828b0161311f565b975050602088013567ffffffffffffffff81111561326a57613269612fe9565b5b6132768a828b01613170565b9650965050604088013567ffffffffffffffff81111561329957613298612fe9565b5b6132a58a828b016131c6565b9450945050606088013567ffffffffffffffff8111156132c8576132c7612fe9565b5b6132d48a828b016131c6565b925092505092959891949750929550565b6132ee816130a3565b82525050565b600060208201905061330960008301846132e5565b92915050565b60008151905061331e81612fee565b92915050565b60006020828403121561333a57613339612fe4565b5b60006133488482850161330f565b91505092915050565b7f4e487b7100000000000000000000000000000000000000000000000000000000600052601160045260246000fd5b600061338b82612fb0565b915061339683612fb0565b9250817fffffffffffffffffffffffffffffffffffffffffffffffffffffffffffffffff04831182151516156133cf576133ce613351565b5b828202905092915050565b7f4e487b7100000000000000000000000000000000000000000000000000000000600052601260045260246000fd5b600061341482612fb0565b915061341f83612fb0565b92508261342f5761342e6133da565b5b828204905092915050565b600061344582612fb0565b915061345083612fb0565b92508282101561346357613462613351565b5b828203905092915050565b600061347982612fb0565b915061348483612fb0565b9250827fffffffffffffffffffffffffffffffffffffffffffffffffffffffffffffffff038211156134b9576134b8613351565b5b828201905092915050565b600082825260208201905092915050565b7f5b77697468647261775d20456d657267656e6379210000000000000000000000600082015250565b600061350b6015836134c4565b9150613516826134d5565b602082019050919050565b6000602082019050818103600083015261353a816134fe565b9050919050565b7f5b77697468647261775d20496e73756666696369656e742062616c616e636521600082015250565b60006135776020836134c4565b915061358282613541565b602082019050919050565b600060208201905081810360008301526135a68161356a565b9050919050565b7f5b77697468647261775d204561726c7920776974686472617721000000000000600082015250565b60006135e3601a836134c4565b91506135ee826135ad565b602082019050919050565b60006020820190508181036000830152613612816135d6565b9050919050565b600060408201905061362e6000830185613079565b61363b6020830184612fba565b9392505050565b60006060820190506136576000830186613079565b6136646020830185612fba565b61367160408301846132e5565b949350505050565b7f5b7365744d61785969656c645d20496e617070726f7072697465206e756d626560008201527f722e000000000000000000000000000000000000000000000000000000000000602082015250565b60006136d56022836134c4565b91506136e082613679565b604082019050919050565b60006020820190508181036000830152613704816136c8565b9050919050565b7f5b6465706f7369745d20416c7265616479206c6f636b65642100000000000000600082015250565b60006137416019836134c4565b915061374c8261370b565b602082019050919050565b6000602082019050818103600083015261377081613734565b9050919050565b7f5b686172766573745d20496e617070726f707269617465206461746120616d6f60008201527f756e742e00000000000000000000000000000000000000000000000000000000602082015250565b60006137d36024836134c4565b91506137de82613777565b604082019050919050565b60006020820190508181036000830152613802816137c6565b9050919050565b7f4e487b7100000000000000000000000000000000000000000000000000000000600052603260045260246000fd5b600080fd5b600080fd5b600080fd5b6000808335600160200384360303811261386457613863613838565b5b80840192508235915067ffffffffffffffff8211156138865761388561383d565b5b6020830192506001820236038313156138a2576138a1613842565b5b509250929050565b6000819050919050565b60006138cf6138ca6138c584613047565b6138aa565b613047565b9050919050565b60006138e1826138b4565b9050919050565b60006138f3826138d6565b9050919050565b613903816138e8565b82525050565b6000613914826138d6565b9050919050565b61392481613909565b82525050565b600061393582613047565b9050919050565b6139458161392a565b82525050565b61395481612fb0565b82525050565b600081519050919050565b600082825260208201905092915050565b60005b83811015613994578082015181840152602081019050613979565b838111156139a3576000848401525b50505050565b6000601f19601f8301169050919050565b60006139c58261395a565b6139cf8185613965565b93506139df818560208601613976565b6139e8816139a9565b840191505092915050565b600061010083016000830151613a0c600086018261391b565b506020830151613a1f602086018261391b565b506040830151613a32604086018261393c565b506060830151613a45606086018261393c565b506080830151613a58608086018261394b565b5060a0830151613a6b60a086018261394b565b5060c0830151613a7e60c086018261394b565b5060e083015184820360e0860152613a9682826139ba565b9150508091505092915050565b600082825260208201905092915050565b82818337600083830152505050565b6000613acf8385613aa3565b9350613adc838584613ab4565b613ae5836139a9565b840190509392505050565b6000606082019050613b0560008301876138fa565b8181036020830152613b1781866139f3565b90508181036040830152613b2c818486613ac3565b905095945050505050565b600080600060608486031215613b5057613b4f612fe4565b5b6000613b5e8682870161330f565b9350506020613b6f8682870161330f565b9250506040613b808682870161330f565b9150509250925092565b6000613b9582612fb0565b91507fffffffffffffffffffffffffffffffffffffffffffffffffffffffffffffffff821415613bc857613bc7613351565b5b600182019050919050565b6000613bde826138d6565b9050919050565b613bee81613bd3565b82525050565b6000606082019050613c096000830186612fba565b613c166020830185613079565b613c236040830184613be5565b949350505050565b7f5b77697468647261775d204e6f7420656d657267656e63792100000000000000600082015250565b6000613c616019836134c4565b9150613c6c82613c2b565b602082019050919050565b60006020820190508181036000830152613c9081613c54565b9050919050565b7f4f776e61626c653a206e6577206f776e657220697320746865207a65726f206160008201527f6464726573730000000000000000000000000000000000000000000000000000602082015250565b6000613cf36026836134c4565b9150613cfe82613c97565b604082019050919050565b60006020820190508181036000830152613d2281613ce6565b9050919050565b7f4f776e61626c653a2063616c6c6572206973206e6f7420746865206f776e6572600082015250565b6000613d5f6020836134c4565b9150613d6a82613d29565b602082019050919050565b60006020820190508181036000830152613d8e81613d52565b9050919050565b6000604082019050613daa6000830185613079565b613db76020830184613079565b9392505050565b6000606082019050613dd36000830186613079565b613de06020830185613079565b613ded6040830184612fba565b949350505050565b7f5361666545524332303a20617070726f76652066726f6d206e6f6e2d7a65726f60008201527f20746f206e6f6e2d7a65726f20616c6c6f77616e636500000000000000000000602082015250565b6000613e516036836134c4565b9150613e5c82613df5565b604082019050919050565b60006020820190508181036000830152613e8081613e44565b9050919050565b600081519050613e96816130af565b92915050565b600060208284031215613eb257613eb1612fe4565b5b6000613ec084828501613e87565b91505092915050565b7f5361666545524332303a204552433230206f7065726174696f6e20646964206e60008201527f6f74207375636365656400000000000000000000000000000000000000000000602082015250565b6000613f25602a836134c4565b9150613f3082613ec9565b604082019050919050565b60006020820190508181036000830152613f5481613f18565b9050919050565b7f416464726573733a20696e73756666696369656e742062616c616e636520666f60008201527f722063616c6c0000000000000000000000000000000000000000000000000000602082015250565b6000613fb76026836134c4565b9150613fc282613f5b565b604082019050919050565b60006020820190508181036000830152613fe681613faa565b9050919050565b7f416464726573733a2063616c6c20746f206e6f6e2d636f6e7472616374000000600082015250565b6000614023601d836134c4565b915061402e82613fed565b602082019050919050565b6000602082019050818103600083015261405281614016565b9050919050565b600081905092915050565b600061406f8261395a565b6140798185614059565b9350614089818560208601613976565b80840191505092915050565b60006140a18284614064565b915081905092915050565b600081519050919050565b60006140c2826140ac565b6140cc81856134c4565b93506140dc818560208601613976565b6140e5816139a9565b840191505092915050565b6000602082019050818103600083015261410a81846140b7565b90509291505056fea26469706673582212206aad575f79c66c41a5243dad4186783770176beff5b98afe2f4d9f572d769e5864736f6c63430008090033",
  "linkReferences": {},
  "deployedLinkReferences": {}
}