{
  "_format": "hh-sol-artifact-1",
  "contractName": "FixedStrategy",
  "sourceName": "contracts/FixedStrategy.sol",
  "abi": [
    {
      "inputs": [
        {
          "internalType": "address",
          "name": "angleVaultAddr",
          "type": "address"
        },
        {
          "internalType": "address",
          "name": "angleStratAddr",
          "type": "address"
        },
        {
          "internalType": "address",
          "name": "oneInchAddr",
          "type": "address"
        },
        {
          "internalType": "address",
          "name": "angleFrontAddr",
          "type": "address"
        },
        {
          "internalType": "address",
          "name": "gaugeAdd",
          "type": "address"
        },
        {
          "internalType": "address",
          "name": "lockToken",
          "type": "address"
        }
      ],
      "stateMutability": "nonpayable",
      "type": "constructor"
    },
    {
      "anonymous": false,
      "inputs": [
        {
          "indexed": false,
          "internalType": "address",
          "name": "compounder",
          "type": "address"
        },
        {
          "indexed": false,
          "internalType": "uint256",
          "name": "amount",
          "type": "uint256"
        }
      ],
      "name": "Compounded",
      "type": "event"
    },
    {
      "anonymous": false,
      "inputs": [
        {
          "indexed": false,
          "internalType": "address",
          "name": "locker",
          "type": "address"
        },
        {
          "indexed": false,
          "internalType": "uint256",
          "name": "amount",
          "type": "uint256"
        }
      ],
      "name": "Deposit",
      "type": "event"
    },
    {
      "anonymous": false,
      "inputs": [],
      "name": "Harvested",
      "type": "event"
    },
    {
      "anonymous": false,
      "inputs": [
        {
          "indexed": false,
          "internalType": "uint256",
          "name": "newYield",
          "type": "uint256"
        }
      ],
      "name": "MaxYieldChanged",
      "type": "event"
    },
    {
      "anonymous": false,
      "inputs": [
        {
          "indexed": true,
          "internalType": "address",
          "name": "previousOwner",
          "type": "address"
        },
        {
          "indexed": true,
          "internalType": "address",
          "name": "newOwner",
          "type": "address"
        }
      ],
      "name": "OwnershipTransferred",
      "type": "event"
    },
    {
      "anonymous": false,
      "inputs": [
        {
          "indexed": false,
          "internalType": "address",
          "name": "locker",
          "type": "address"
        },
        {
          "indexed": false,
          "internalType": "uint256",
          "name": "amount",
          "type": "uint256"
        }
      ],
      "name": "Withdraw",
      "type": "event"
    },
    {
      "inputs": [],
      "name": "ANGL",
      "outputs": [
        {
          "internalType": "address",
          "name": "",
          "type": "address"
        }
      ],
      "stateMutability": "view",
      "type": "function"
    },
    {
      "inputs": [],
      "name": "ANGLE_POOL_MANAGER",
      "outputs": [
        {
          "internalType": "address",
          "name": "",
          "type": "address"
        }
      ],
      "stateMutability": "view",
      "type": "function"
    },
    {
      "inputs": [],
      "name": "FRAX",
      "outputs": [
        {
          "internalType": "address",
          "name": "",
          "type": "address"
        }
      ],
      "stateMutability": "view",
      "type": "function"
    },
    {
      "inputs": [],
      "name": "SDT",
      "outputs": [
        {
          "internalType": "address",
          "name": "",
          "type": "address"
        }
      ],
      "stateMutability": "view",
      "type": "function"
    },
    {
      "inputs": [],
      "name": "claim",
      "outputs": [],
      "stateMutability": "nonpayable",
      "type": "function"
    },
    {
      "inputs": [
        {
          "internalType": "bool",
          "name": "isEarn",
          "type": "bool"
        }
      ],
      "name": "comp",
      "outputs": [],
      "stateMutability": "nonpayable",
      "type": "function"
    },
    {
      "inputs": [],
      "name": "currentRatioForUser",
      "outputs": [
        {
          "internalType": "uint256",
          "name": "",
          "type": "uint256"
        }
      ],
      "stateMutability": "view",
      "type": "function"
    },
    {
      "inputs": [
        {
          "internalType": "uint256",
          "name": "amount",
          "type": "uint256"
        }
      ],
      "name": "deposit",
      "outputs": [],
      "stateMutability": "nonpayable",
      "type": "function"
    },
    {
      "inputs": [
        {
          "internalType": "address",
          "name": "executor",
          "type": "address"
        },
        {
          "internalType": "uint256[]",
          "name": "minReturnAmounts",
          "type": "uint256[]"
        },
        {
          "internalType": "bytes[]",
          "name": "permits",
          "type": "bytes[]"
        },
        {
          "internalType": "bytes[]",
          "name": "datas",
          "type": "bytes[]"
        }
      ],
      "name": "harvest",
      "outputs": [],
      "stateMutability": "nonpayable",
      "type": "function"
    },
    {
      "inputs": [
        {
          "internalType": "address",
          "name": "",
          "type": "address"
        }
      ],
      "name": "initialPPS",
      "outputs": [
        {
          "internalType": "uint256",
          "name": "",
          "type": "uint256"
        }
      ],
      "stateMutability": "view",
      "type": "function"
    },
    {
      "inputs": [
        {
          "internalType": "uint256",
          "name": "amount",
          "type": "uint256"
        }
      ],
      "name": "maxEarningToDate",
      "outputs": [
        {
          "internalType": "uint256",
          "name": "",
          "type": "uint256"
        }
      ],
      "stateMutability": "view",
      "type": "function"
    },
    {
      "inputs": [],
      "name": "maxYield",
      "outputs": [
        {
          "internalType": "uint256",
          "name": "",
          "type": "uint256"
        }
      ],
      "stateMutability": "view",
      "type": "function"
    },
    {
      "inputs": [],
      "name": "owner",
      "outputs": [
        {
          "internalType": "address",
          "name": "",
          "type": "address"
        }
      ],
      "stateMutability": "view",
      "type": "function"
    },
    {
      "inputs": [],
      "name": "pricePerShare",
      "outputs": [
        {
          "internalType": "uint256",
          "name": "",
          "type": "uint256"
        }
      ],
      "stateMutability": "view",
      "type": "function"
    },
    {
      "inputs": [],
      "name": "renounceOwnership",
      "outputs": [],
      "stateMutability": "nonpayable",
      "type": "function"
    },
    {
      "inputs": [
        {
          "internalType": "uint256",
          "name": "",
          "type": "uint256"
        }
      ],
      "name": "rewardTokens",
      "outputs": [
        {
          "internalType": "address",
          "name": "",
          "type": "address"
        }
      ],
      "stateMutability": "view",
      "type": "function"
    },
    {
      "inputs": [
        {
          "internalType": "uint256",
          "name": "newYield",
          "type": "uint256"
        }
      ],
      "name": "setMaxYield",
      "outputs": [],
      "stateMutability": "nonpayable",
      "type": "function"
    },
    {
      "inputs": [
        {
          "internalType": "address",
          "name": "",
          "type": "address"
        }
      ],
      "name": "stakeTimestamps",
      "outputs": [
        {
          "internalType": "uint256",
          "name": "",
          "type": "uint256"
        }
      ],
      "stateMutability": "view",
      "type": "function"
    },
    {
      "inputs": [],
      "name": "totalSupply",
      "outputs": [
        {
          "internalType": "uint256",
          "name": "",
          "type": "uint256"
        }
      ],
      "stateMutability": "view",
      "type": "function"
    },
    {
      "inputs": [
        {
          "internalType": "address",
          "name": "newOwner",
          "type": "address"
        }
      ],
      "name": "transferOwnership",
      "outputs": [],
      "stateMutability": "nonpayable",
      "type": "function"
    },
    {
      "inputs": [
        {
          "internalType": "address",
          "name": "",
          "type": "address"
        }
      ],
      "name": "userToShare",
      "outputs": [
        {
          "internalType": "uint256",
          "name": "",
          "type": "uint256"
        }
      ],
      "stateMutability": "view",
      "type": "function"
    },
    {
      "inputs": [
        {
          "internalType": "uint256",
          "name": "shares",
          "type": "uint256"
        }
      ],
      "name": "withdraw",
      "outputs": [],
      "stateMutability": "nonpayable",
      "type": "function"
    }
  ],
  "bytecode": "0x60806040523480156200001157600080fd5b506040516200396338038062003963833981810160405281019062000037919062000415565b620000576200004b620002df60201b60201c565b620002e760201b60201c565b85600360006101000a81548173ffffffffffffffffffffffffffffffffffffffff021916908373ffffffffffffffffffffffffffffffffffffffff16021790555084600460006101000a81548173ffffffffffffffffffffffffffffffffffffffff021916908373ffffffffffffffffffffffffffffffffffffffff16021790555081600560006101000a81548173ffffffffffffffffffffffffffffffffffffffff021916908373ffffffffffffffffffffffffffffffffffffffff16021790555083600160006101000a81548173ffffffffffffffffffffffffffffffffffffffff021916908373ffffffffffffffffffffffffffffffffffffffff16021790555082600260006101000a81548173ffffffffffffffffffffffffffffffffffffffff021916908373ffffffffffffffffffffffffffffffffffffffff16021790555080600660006101000a81548173ffffffffffffffffffffffffffffffffffffffff021916908373ffffffffffffffffffffffffffffffffffffffff160217905550605060078190555060097331429d1856ad1377a8a0079410b297e1a9e214c29080600181540180825580915050600190039060005260206000200160009091909190916101000a81548173ffffffffffffffffffffffffffffffffffffffff021916908373ffffffffffffffffffffffffffffffffffffffff16021790555060097373968b9a57c6e53d41345fd57a6e6ae27d6cdb2f9080600181540180825580915050600190039060005260206000200160009091909190916101000a81548173ffffffffffffffffffffffffffffffffffffffff021916908373ffffffffffffffffffffffffffffffffffffffff160217905550505050505050620004b1565b600033905090565b60008060009054906101000a900473ffffffffffffffffffffffffffffffffffffffff169050816000806101000a81548173ffffffffffffffffffffffffffffffffffffffff021916908373ffffffffffffffffffffffffffffffffffffffff1602179055508173ffffffffffffffffffffffffffffffffffffffff168173ffffffffffffffffffffffffffffffffffffffff167f8be0079c531659141344cd1fd0a4f28419497f9722a3daafe3b4186f6b6457e060405160405180910390a35050565b600080fd5b600073ffffffffffffffffffffffffffffffffffffffff82169050919050565b6000620003dd82620003b0565b9050919050565b620003ef81620003d0565b8114620003fb57600080fd5b50565b6000815190506200040f81620003e4565b92915050565b60008060008060008060c08789031215620004355762000434620003ab565b5b60006200044589828a01620003fe565b96505060206200045889828a01620003fe565b95505060406200046b89828a01620003fe565b94505060606200047e89828a01620003fe565b93505060806200049189828a01620003fe565b92505060a0620004a489828a01620003fe565b9150509295509295509295565b6134a280620004c16000396000f3fe608060405234801561001057600080fd5b50600436106101425760003560e01c80638da5cb5b116100b8578063b6b55f251161007c578063b6b55f2514610341578063ba32c6191461035d578063c47b45731461037b578063d64dcde114610397578063e1654433146103c7578063f2fde38b146103e557610142565b80638da5cb5b1461029b57806399530b06146102b957806399f853a5146102d7578063a94072b614610307578063b0e4556f1461032357610142565b8063301234e61161010a578063301234e6146101ed578063441822ee1461020b5780634e71d92d146102275780636d8dea8714610231578063715018a6146102615780637bb7bed11461026b57610142565b806310698a4a14610147578063147ec25f1461017757806317504e801461019557806318160ddd146101b35780632e1a7d4d146101d1575b600080fd5b610161600480360381019061015c91906124cf565b610401565b60405161016e919061250b565b60405180910390f35b61017f61049b565b60405161018c919061250b565b60405180910390f35b61019d6105ba565b6040516101aa9190612567565b60405180910390f35b6101bb6105d2565b6040516101c8919061250b565b60405180910390f35b6101eb60048036038101906101e691906124cf565b6105d8565b005b6101f5610baf565b6040516102029190612567565b60405180910390f35b610225600480360381019061022091906125ba565b610bc7565b005b61022f610dbb565b005b61024b60048036038101906102469190612613565b610e47565b604051610258919061250b565b60405180910390f35b610269610e5f565b005b610285600480360381019061028091906124cf565b610e73565b6040516102929190612567565b60405180910390f35b6102a3610eb2565b6040516102b09190612567565b60405180910390f35b6102c1610edb565b6040516102ce919061250b565b60405180910390f35b6102f160048036038101906102ec9190612613565b61107a565b6040516102fe919061250b565b60405180910390f35b610321600480360381019061031c91906124cf565b611092565b005b61032b6110db565b6040516103389190612567565b60405180910390f35b61035b600480360381019061035691906124cf565b6110f3565b005b610365611348565b6040516103729190612567565b60405180910390f35b610395600480360381019061039091906126fb565b611360565b005b6103b160048036038101906103ac9190612613565b611c98565b6040516103be919061250b565b60405180910390f35b6103cf611cb0565b6040516103dc919061250b565b60405180910390f35b6103ff60048036038101906103fa9190612613565b611cb6565b005b600080600a60003373ffffffffffffffffffffffffffffffffffffffff1673ffffffffffffffffffffffffffffffffffffffff168152602001908152602001600020544261044f91906127f3565b90506103e86301e13380600754836104679190612827565b61047191906128b0565b6103e861047e91906128e1565b846104899190612827565b61049391906128b0565b915050919050565b600080600b60003373ffffffffffffffffffffffffffffffffffffffff1673ffffffffffffffffffffffffffffffffffffffff168152602001908152602001600020546103e8600b60003373ffffffffffffffffffffffffffffffffffffffff1673ffffffffffffffffffffffffffffffffffffffff16815260200190815260200160002054610529610edb565b61053391906127f3565b61053d9190612827565b61054791906128b0565b90506000600a60003373ffffffffffffffffffffffffffffffffffffffff1673ffffffffffffffffffffffffffffffffffffffff168152602001908152602001600020544261059691906127f3565b9050806301e13380836105a99190612827565b6105b391906128b0565b9250505090565b736b4ee7352406707003bc6f6b96595fd35925af4881565b60085481565b80600c60003373ffffffffffffffffffffffffffffffffffffffff1673ffffffffffffffffffffffffffffffffffffffff16815260200190815260200160002054101561065a576040517f08c379a000000000000000000000000000000000000000000000000000000000815260040161065190612994565b60405180910390fd5b426276a700600a60003373ffffffffffffffffffffffffffffffffffffffff1673ffffffffffffffffffffffffffffffffffffffff168152602001908152602001600020546106a991906128e1565b11156106ea576040517f08c379a00000000000000000000000000000000000000000000000000000000081526004016106e190612a00565b60405180910390fd5b6000670de0b6b3a76400006106fd610edb565b836107089190612827565b61071291906128b0565b905081600c60003373ffffffffffffffffffffffffffffffffffffffff1673ffffffffffffffffffffffffffffffffffffffff168152602001908152602001600020600082825461076391906127f3565b92505081905550816008600082825461077c91906127f3565b92505081905550600660009054906101000a900473ffffffffffffffffffffffffffffffffffffffff1673ffffffffffffffffffffffffffffffffffffffff166370a08231306040518263ffffffff1660e01b81526004016107de9190612567565b60206040518083038186803b1580156107f657600080fd5b505afa15801561080a573d6000803e3d6000fd5b505050506040513d601f19601f8201168201806040525081019061082e9190612a35565b81111561097857600360009054906101000a900473ffffffffffffffffffffffffffffffffffffffff1673ffffffffffffffffffffffffffffffffffffffff16632e1a7d4d600660009054906101000a900473ffffffffffffffffffffffffffffffffffffffff1673ffffffffffffffffffffffffffffffffffffffff166370a08231306040518263ffffffff1660e01b81526004016108ce9190612567565b60206040518083038186803b1580156108e657600080fd5b505afa1580156108fa573d6000803e3d6000fd5b505050506040513d601f19601f8201168201806040525081019061091e9190612a35565b8361092991906127f3565b6040518263ffffffff1660e01b8152600401610945919061250b565b600060405180830381600087803b15801561095f57600080fd5b505af1158015610973573d6000803e3d6000fd5b505050505b6000600c60003373ffffffffffffffffffffffffffffffffffffffff1673ffffffffffffffffffffffffffffffffffffffff168152602001908152602001600020541415610a4757600b60003373ffffffffffffffffffffffffffffffffffffffff1673ffffffffffffffffffffffffffffffffffffffff16815260200190815260200160002060009055600a60003373ffffffffffffffffffffffffffffffffffffffff1673ffffffffffffffffffffffffffffffffffffffff168152602001908152602001600020600090555b600754610a5261049b565b10610b25576000610abf670de0b6b3a7640000600b60003373ffffffffffffffffffffffffffffffffffffffff1673ffffffffffffffffffffffffffffffffffffffff1681526020019081526020016000205485610ab09190612827565b610aba91906128b0565b610401565b9050610b20610acc610eb2565b8284610ad891906127f3565b600660009054906101000a900473ffffffffffffffffffffffffffffffffffffffff1673ffffffffffffffffffffffffffffffffffffffff16611d3a9092919063ffffffff16565b809150505b610b723382600660009054906101000a900473ffffffffffffffffffffffffffffffffffffffff1673ffffffffffffffffffffffffffffffffffffffff16611d3a9092919063ffffffff16565b7f884edad9ce6fa2440d8a54cc123490eb96d2768479d49ff9c7366125a94243643382604051610ba3929190612a62565b60405180910390a15050565b7331429d1856ad1377a8a0079410b297e1a9e214c281565b610bcf611dc0565b6000600660009054906101000a900473ffffffffffffffffffffffffffffffffffffffff1673ffffffffffffffffffffffffffffffffffffffff166370a08231306040518263ffffffff1660e01b8152600401610c2c9190612567565b60206040518083038186803b158015610c4457600080fd5b505afa158015610c58573d6000803e3d6000fd5b505050506040513d601f19601f82011682018060405250810190610c7c9190612a35565b9050610ced600360009054906101000a900473ffffffffffffffffffffffffffffffffffffffff1682600660009054906101000a900473ffffffffffffffffffffffffffffffffffffffff1673ffffffffffffffffffffffffffffffffffffffff16611e3e9092919063ffffffff16565b600360009054906101000a900473ffffffffffffffffffffffffffffffffffffffff1673ffffffffffffffffffffffffffffffffffffffff16633edd11283083856040518463ffffffff1660e01b8152600401610d4c93929190612a9a565b600060405180830381600087803b158015610d6657600080fd5b505af1158015610d7a573d6000803e3d6000fd5b505050507fc16de066392da7e40ceccb739c331fc48a2e76bf147449613c48023d960eec323382604051610daf929190612a62565b60405180910390a15050565b610dc3611dc0565b600560009054906101000a900473ffffffffffffffffffffffffffffffffffffffff1673ffffffffffffffffffffffffffffffffffffffff1663e6f1daf26040518163ffffffff1660e01b8152600401600060405180830381600087803b158015610e2d57600080fd5b505af1158015610e41573d6000803e3d6000fd5b50505050565b600c6020528060005260406000206000915090505481565b610e67611dc0565b610e716000611f5f565b565b60098181548110610e8357600080fd5b906000526020600020016000915054906101000a900473ffffffffffffffffffffffffffffffffffffffff1681565b60008060009054906101000a900473ffffffffffffffffffffffffffffffffffffffff16905090565b6000806008541461106b57600854670de0b6b3a7640000600660009054906101000a900473ffffffffffffffffffffffffffffffffffffffff1673ffffffffffffffffffffffffffffffffffffffff166370a08231306040518263ffffffff1660e01b8152600401610f4d9190612567565b60206040518083038186803b158015610f6557600080fd5b505afa158015610f79573d6000803e3d6000fd5b505050506040513d601f19601f82011682018060405250810190610f9d9190612a35565b600560009054906101000a900473ffffffffffffffffffffffffffffffffffffffff1673ffffffffffffffffffffffffffffffffffffffff166370a08231306040518263ffffffff1660e01b8152600401610ff89190612567565b60206040518083038186803b15801561101057600080fd5b505afa158015611024573d6000803e3d6000fd5b505050506040513d601f19601f820116820180604052508101906110489190612a35565b61105291906128e1565b61105c9190612827565b61106691906128b0565b611075565b670de0b6b3a76400005b905090565b600a6020528060005260406000206000915090505481565b61109a611dc0565b806007819055507f3b3a01f24e8e3bef91ca993c1cd79a3b6f78a26b78a3f0051cf751404dee2832816040516110d0919061250b565b60405180910390a150565b73853d955acef822db058eb8505911ed77f175b99e81565b6000600b60003373ffffffffffffffffffffffffffffffffffffffff1673ffffffffffffffffffffffffffffffffffffffff1681526020019081526020016000205414611175576040517f08c379a000000000000000000000000000000000000000000000000000000000815260040161116c90612b1d565b60405180910390fd5b42600a60003373ffffffffffffffffffffffffffffffffffffffff1673ffffffffffffffffffffffffffffffffffffffff168152602001908152602001600020819055506111c1610edb565b600b60003373ffffffffffffffffffffffffffffffffffffffff1673ffffffffffffffffffffffffffffffffffffffff16815260200190815260200160002081905550611253333083600660009054906101000a900473ffffffffffffffffffffffffffffffffffffffff1673ffffffffffffffffffffffffffffffffffffffff16612023909392919063ffffffff16565b61125b610edb565b670de0b6b3a76400008261126f9190612827565b61127991906128b0565b600c60003373ffffffffffffffffffffffffffffffffffffffff1673ffffffffffffffffffffffffffffffffffffffff16815260200190815260200160002060008282546112c791906128e1565b925050819055506112d6610edb565b670de0b6b3a7640000826112ea9190612827565b6112f491906128b0565b6008600082825461130591906128e1565b925050819055507fe1fffcc4923d04b559f4d29a8bfc6cda04eb5b0d3c460751c2402c5c5cc9109c338260405161133d929190612a62565b60405180910390a150565b7373968b9a57c6e53d41345fd57a6e6ae27d6cdb2f81565b611368611dc0565b60098054905082829050146113b2576040517f08c379a00000000000000000000000000000000000000000000000000000000081526004016113a990612baf565b60405180910390fd5b60098054905086869050146113fc576040517f08c379a00000000000000000000000000000000000000000000000000000000081526004016113f390612baf565b60405180910390fd5b6009805490508484905014611446576040517f08c379a000000000000000000000000000000000000000000000000000000000815260040161143d90612baf565b60405180910390fd5b60005b600980549050811015611a245760006009828154811061146c5761146b612bcf565b5b9060005260206000200160009054906101000a900473ffffffffffffffffffffffffffffffffffffffff1673ffffffffffffffffffffffffffffffffffffffff166370a08231306040518263ffffffff1660e01b81526004016114cf9190612567565b60206040518083038186803b1580156114e757600080fd5b505afa1580156114fb573d6000803e3d6000fd5b505050506040513d601f19601f8201168201806040525081019061151f9190612a35565b141561152a57611a11565b61167b600160009054906101000a900473ffffffffffffffffffffffffffffffffffffffff166009838154811061156457611563612bcf565b5b9060005260206000200160009054906101000a900473ffffffffffffffffffffffffffffffffffffffff1673ffffffffffffffffffffffffffffffffffffffff166370a08231306040518263ffffffff1660e01b81526004016115c79190612567565b60206040518083038186803b1580156115df57600080fd5b505afa1580156115f3573d6000803e3d6000fd5b505050506040513d601f19601f820116820180604052508101906116179190612a35565b6009848154811061162b5761162a612bcf565b5b9060005260206000200160009054906101000a900473ffffffffffffffffffffffffffffffffffffffff1673ffffffffffffffffffffffffffffffffffffffff16611e3e9092919063ffffffff16565b60006040518061010001604052806009848154811061169d5761169c612bcf565b5b9060005260206000200160009054906101000a900473ffffffffffffffffffffffffffffffffffffffff1673ffffffffffffffffffffffffffffffffffffffff16815260200173853d955acef822db058eb8505911ed77f175b99e73ffffffffffffffffffffffffffffffffffffffff1681526020018a73ffffffffffffffffffffffffffffffffffffffff1681526020013073ffffffffffffffffffffffffffffffffffffffff1681526020016009848154811061175f5761175e612bcf565b5b9060005260206000200160009054906101000a900473ffffffffffffffffffffffffffffffffffffffff1673ffffffffffffffffffffffffffffffffffffffff166370a08231306040518263ffffffff1660e01b81526004016117c29190612567565b60206040518083038186803b1580156117da57600080fd5b505afa1580156117ee573d6000803e3d6000fd5b505050506040513d601f19601f820116820180604052508101906118129190612a35565b815260200189898581811061182a57611829612bcf565b5b905060200201358152602001600481526020018787858181106118505761184f612bcf565b5b90506020028101906118629190612c0d565b8080601f016020809104026020016040519081016040528093929190818152602001838380828437600081840152601f19601f820116905080830192505050505050508152509050600160009054906101000a900473ffffffffffffffffffffffffffffffffffffffff1673ffffffffffffffffffffffffffffffffffffffff16637c0252008a838787878181106118fd576118fc612bcf565b5b905060200281019061190f9190612c0d565b6040518563ffffffff1660e01b815260040161192e9493929190612eb6565b606060405180830381600087803b15801561194857600080fd5b505af115801561195c573d6000803e3d6000fd5b505050506040513d601f19601f820116820180604052508101906119809190612efd565b505050611a0f600160009054906101000a900473ffffffffffffffffffffffffffffffffffffffff166000600985815481106119bf576119be612bcf565b5b9060005260206000200160009054906101000a900473ffffffffffffffffffffffffffffffffffffffff1673ffffffffffffffffffffffffffffffffffffffff166120ac9092919063ffffffff16565b505b8080611a1c90612f50565b915050611449565b50611b22600260009054906101000a900473ffffffffffffffffffffffffffffffffffffffff1673853d955acef822db058eb8505911ed77f175b99e73ffffffffffffffffffffffffffffffffffffffff166370a08231306040518263ffffffff1660e01b8152600401611a989190612567565b60206040518083038186803b158015611ab057600080fd5b505afa158015611ac4573d6000803e3d6000fd5b505050506040513d601f19601f82011682018060405250810190611ae89190612a35565b73853d955acef822db058eb8505911ed77f175b99e73ffffffffffffffffffffffffffffffffffffffff16611e3e9092919063ffffffff16565b600260009054906101000a900473ffffffffffffffffffffffffffffffffffffffff1673ffffffffffffffffffffffffffffffffffffffff16632e2d298473853d955acef822db058eb8505911ed77f175b99e73ffffffffffffffffffffffffffffffffffffffff166370a08231306040518263ffffffff1660e01b8152600401611bad9190612567565b60206040518083038186803b158015611bc557600080fd5b505afa158015611bd9573d6000803e3d6000fd5b505050506040513d601f19601f82011682018060405250810190611bfd9190612a35565b30736b4ee7352406707003bc6f6b96595fd35925af486040518463ffffffff1660e01b8152600401611c3193929190612fba565b600060405180830381600087803b158015611c4b57600080fd5b505af1158015611c5f573d6000803e3d6000fd5b505050507f4d12401e4d6cc642454aedd27a02290e422f28dd21e629634f1beffacb705bf860405160405180910390a150505050505050565b600b6020528060005260406000206000915090505481565b60075481565b611cbe611dc0565b600073ffffffffffffffffffffffffffffffffffffffff168173ffffffffffffffffffffffffffffffffffffffff161415611d2e576040517f08c379a0000000000000000000000000000000000000000000000000000000008152600401611d2590613063565b60405180910390fd5b611d3781611f5f565b50565b611dbb8363a9059cbb60e01b8484604051602401611d59929190612a62565b604051602081830303815290604052907bffffffffffffffffffffffffffffffffffffffffffffffffffffffff19166020820180517bffffffffffffffffffffffffffffffffffffffffffffffffffffffff838183161783525050505061220a565b505050565b611dc86122d1565b73ffffffffffffffffffffffffffffffffffffffff16611de6610eb2565b73ffffffffffffffffffffffffffffffffffffffff1614611e3c576040517f08c379a0000000000000000000000000000000000000000000000000000000008152600401611e33906130cf565b60405180910390fd5b565b6000818473ffffffffffffffffffffffffffffffffffffffff1663dd62ed3e30866040518363ffffffff1660e01b8152600401611e7c9291906130ef565b60206040518083038186803b158015611e9457600080fd5b505afa158015611ea8573d6000803e3d6000fd5b505050506040513d601f19601f82011682018060405250810190611ecc9190612a35565b611ed691906128e1565b9050611f598463095ea7b360e01b8584604051602401611ef7929190612a62565b604051602081830303815290604052907bffffffffffffffffffffffffffffffffffffffffffffffffffffffff19166020820180517bffffffffffffffffffffffffffffffffffffffffffffffffffffffff838183161783525050505061220a565b50505050565b60008060009054906101000a900473ffffffffffffffffffffffffffffffffffffffff169050816000806101000a81548173ffffffffffffffffffffffffffffffffffffffff021916908373ffffffffffffffffffffffffffffffffffffffff1602179055508173ffffffffffffffffffffffffffffffffffffffff168173ffffffffffffffffffffffffffffffffffffffff167f8be0079c531659141344cd1fd0a4f28419497f9722a3daafe3b4186f6b6457e060405160405180910390a35050565b6120a6846323b872dd60e01b85858560405160240161204493929190613118565b604051602081830303815290604052907bffffffffffffffffffffffffffffffffffffffffffffffffffffffff19166020820180517bffffffffffffffffffffffffffffffffffffffffffffffffffffffff838183161783525050505061220a565b50505050565b6000811480612145575060008373ffffffffffffffffffffffffffffffffffffffff1663dd62ed3e30856040518363ffffffff1660e01b81526004016120f39291906130ef565b60206040518083038186803b15801561210b57600080fd5b505afa15801561211f573d6000803e3d6000fd5b505050506040513d601f19601f820116820180604052508101906121439190612a35565b145b612184576040517f08c379a000000000000000000000000000000000000000000000000000000000815260040161217b906131c1565b60405180910390fd5b6122058363095ea7b360e01b84846040516024016121a3929190612a62565b604051602081830303815290604052907bffffffffffffffffffffffffffffffffffffffffffffffffffffffff19166020820180517bffffffffffffffffffffffffffffffffffffffffffffffffffffffff838183161783525050505061220a565b505050565b600061226c826040518060400160405280602081526020017f5361666545524332303a206c6f772d6c6576656c2063616c6c206661696c65648152508573ffffffffffffffffffffffffffffffffffffffff166122d99092919063ffffffff16565b90506000815111156122cc578080602001905181019061228c91906131f6565b6122cb576040517f08c379a00000000000000000000000000000000000000000000000000000000081526004016122c290613295565b60405180910390fd5b5b505050565b600033905090565b60606122e884846000856122f1565b90509392505050565b606082471015612336576040517f08c379a000000000000000000000000000000000000000000000000000000000815260040161232d90613327565b60405180910390fd5b61233f85612405565b61237e576040517f08c379a000000000000000000000000000000000000000000000000000000000815260040161237590613393565b60405180910390fd5b6000808673ffffffffffffffffffffffffffffffffffffffff1685876040516123a791906133ef565b60006040518083038185875af1925050503d80600081146123e4576040519150601f19603f3d011682016040523d82523d6000602084013e6123e9565b606091505b50915091506123f9828286612428565b92505050949350505050565b6000808273ffffffffffffffffffffffffffffffffffffffff163b119050919050565b6060831561243857829050612488565b60008351111561244b5782518084602001fd5b816040517f08c379a000000000000000000000000000000000000000000000000000000000815260040161247f919061344a565b60405180910390fd5b9392505050565b600080fd5b600080fd5b6000819050919050565b6124ac81612499565b81146124b757600080fd5b50565b6000813590506124c9816124a3565b92915050565b6000602082840312156124e5576124e461248f565b5b60006124f3848285016124ba565b91505092915050565b61250581612499565b82525050565b600060208201905061252060008301846124fc565b92915050565b600073ffffffffffffffffffffffffffffffffffffffff82169050919050565b600061255182612526565b9050919050565b61256181612546565b82525050565b600060208201905061257c6000830184612558565b92915050565b60008115159050919050565b61259781612582565b81146125a257600080fd5b50565b6000813590506125b48161258e565b92915050565b6000602082840312156125d0576125cf61248f565b5b60006125de848285016125a5565b91505092915050565b6125f081612546565b81146125fb57600080fd5b50565b60008135905061260d816125e7565b92915050565b6000602082840312156126295761262861248f565b5b6000612637848285016125fe565b91505092915050565b600080fd5b600080fd5b600080fd5b60008083601f84011261266557612664612640565b5b8235905067ffffffffffffffff81111561268257612681612645565b5b60208301915083602082028301111561269e5761269d61264a565b5b9250929050565b60008083601f8401126126bb576126ba612640565b5b8235905067ffffffffffffffff8111156126d8576126d7612645565b5b6020830191508360208202830111156126f4576126f361264a565b5b9250929050565b60008060008060008060006080888a03121561271a5761271961248f565b5b60006127288a828b016125fe565b975050602088013567ffffffffffffffff81111561274957612748612494565b5b6127558a828b0161264f565b9650965050604088013567ffffffffffffffff81111561277857612777612494565b5b6127848a828b016126a5565b9450945050606088013567ffffffffffffffff8111156127a7576127a6612494565b5b6127b38a828b016126a5565b925092505092959891949750929550565b7f4e487b7100000000000000000000000000000000000000000000000000000000600052601160045260246000fd5b60006127fe82612499565b915061280983612499565b92508282101561281c5761281b6127c4565b5b828203905092915050565b600061283282612499565b915061283d83612499565b9250817fffffffffffffffffffffffffffffffffffffffffffffffffffffffffffffffff0483118215151615612876576128756127c4565b5b828202905092915050565b7f4e487b7100000000000000000000000000000000000000000000000000000000600052601260045260246000fd5b60006128bb82612499565b91506128c683612499565b9250826128d6576128d5612881565b5b828204905092915050565b60006128ec82612499565b91506128f783612499565b9250827fffffffffffffffffffffffffffffffffffffffffffffffffffffffffffffffff0382111561292c5761292b6127c4565b5b828201905092915050565b600082825260208201905092915050565b7f5b77697468647261775d20496e73756666696369656e742062616c616e636521600082015250565b600061297e602083612937565b915061298982612948565b602082019050919050565b600060208201905081810360008301526129ad81612971565b9050919050565b7f5b77697468647261775d204561726c7920776974686472617721000000000000600082015250565b60006129ea601a83612937565b91506129f5826129b4565b602082019050919050565b60006020820190508181036000830152612a19816129dd565b9050919050565b600081519050612a2f816124a3565b92915050565b600060208284031215612a4b57612a4a61248f565b5b6000612a5984828501612a20565b91505092915050565b6000604082019050612a776000830185612558565b612a8460208301846124fc565b9392505050565b612a9481612582565b82525050565b6000606082019050612aaf6000830186612558565b612abc60208301856124fc565b612ac96040830184612a8b565b949350505050565b7f5b6465706f7369745d20416c7265616479206c6f636b65642100000000000000600082015250565b6000612b07601983612937565b9150612b1282612ad1565b602082019050919050565b60006020820190508181036000830152612b3681612afa565b9050919050565b7f5b686172766573745d20496e617070726f707269617465206461746120616d6f60008201527f756e742e00000000000000000000000000000000000000000000000000000000602082015250565b6000612b99602483612937565b9150612ba482612b3d565b604082019050919050565b60006020820190508181036000830152612bc881612b8c565b9050919050565b7f4e487b7100000000000000000000000000000000000000000000000000000000600052603260045260246000fd5b600080fd5b600080fd5b600080fd5b60008083356001602003843603038112612c2a57612c29612bfe565b5b80840192508235915067ffffffffffffffff821115612c4c57612c4b612c03565b5b602083019250600182023603831315612c6857612c67612c08565b5b509250929050565b6000819050919050565b6000612c95612c90612c8b84612526565b612c70565b612526565b9050919050565b6000612ca782612c7a565b9050919050565b6000612cb982612c9c565b9050919050565b612cc981612cae565b82525050565b6000612cda82612c9c565b9050919050565b612cea81612ccf565b82525050565b6000612cfb82612526565b9050919050565b612d0b81612cf0565b82525050565b612d1a81612499565b82525050565b600081519050919050565b600082825260208201905092915050565b60005b83811015612d5a578082015181840152602081019050612d3f565b83811115612d69576000848401525b50505050565b6000601f19601f8301169050919050565b6000612d8b82612d20565b612d958185612d2b565b9350612da5818560208601612d3c565b612dae81612d6f565b840191505092915050565b600061010083016000830151612dd26000860182612ce1565b506020830151612de56020860182612ce1565b506040830151612df86040860182612d02565b506060830151612e0b6060860182612d02565b506080830151612e1e6080860182612d11565b5060a0830151612e3160a0860182612d11565b5060c0830151612e4460c0860182612d11565b5060e083015184820360e0860152612e5c8282612d80565b9150508091505092915050565b600082825260208201905092915050565b82818337600083830152505050565b6000612e958385612e69565b9350612ea2838584612e7a565b612eab83612d6f565b840190509392505050565b6000606082019050612ecb6000830187612cc0565b8181036020830152612edd8186612db9565b90508181036040830152612ef2818486612e89565b905095945050505050565b600080600060608486031215612f1657612f1561248f565b5b6000612f2486828701612a20565b9350506020612f3586828701612a20565b9250506040612f4686828701612a20565b9150509250925092565b6000612f5b82612499565b91507fffffffffffffffffffffffffffffffffffffffffffffffffffffffffffffffff821415612f8e57612f8d6127c4565b5b600182019050919050565b6000612fa482612c9c565b9050919050565b612fb481612f99565b82525050565b6000606082019050612fcf60008301866124fc565b612fdc6020830185612558565b612fe96040830184612fab565b949350505050565b7f4f776e61626c653a206e6577206f776e657220697320746865207a65726f206160008201527f6464726573730000000000000000000000000000000000000000000000000000602082015250565b600061304d602683612937565b915061305882612ff1565b604082019050919050565b6000602082019050818103600083015261307c81613040565b9050919050565b7f4f776e61626c653a2063616c6c6572206973206e6f7420746865206f776e6572600082015250565b60006130b9602083612937565b91506130c482613083565b602082019050919050565b600060208201905081810360008301526130e8816130ac565b9050919050565b60006040820190506131046000830185612558565b6131116020830184612558565b9392505050565b600060608201905061312d6000830186612558565b61313a6020830185612558565b61314760408301846124fc565b949350505050565b7f5361666545524332303a20617070726f76652066726f6d206e6f6e2d7a65726f60008201527f20746f206e6f6e2d7a65726f20616c6c6f77616e636500000000000000000000602082015250565b60006131ab603683612937565b91506131b68261314f565b604082019050919050565b600060208201905081810360008301526131da8161319e565b9050919050565b6000815190506131f08161258e565b92915050565b60006020828403121561320c5761320b61248f565b5b600061321a848285016131e1565b91505092915050565b7f5361666545524332303a204552433230206f7065726174696f6e20646964206e60008201527f6f74207375636365656400000000000000000000000000000000000000000000602082015250565b600061327f602a83612937565b915061328a82613223565b604082019050919050565b600060208201905081810360008301526132ae81613272565b9050919050565b7f416464726573733a20696e73756666696369656e742062616c616e636520666f60008201527f722063616c6c0000000000000000000000000000000000000000000000000000602082015250565b6000613311602683612937565b915061331c826132b5565b604082019050919050565b6000602082019050818103600083015261334081613304565b9050919050565b7f416464726573733a2063616c6c20746f206e6f6e2d636f6e7472616374000000600082015250565b600061337d601d83612937565b915061338882613347565b602082019050919050565b600060208201905081810360008301526133ac81613370565b9050919050565b600081905092915050565b60006133c982612d20565b6133d381856133b3565b93506133e3818560208601612d3c565b80840191505092915050565b60006133fb82846133be565b915081905092915050565b600081519050919050565b600061341c82613406565b6134268185612937565b9350613436818560208601612d3c565b61343f81612d6f565b840191505092915050565b600060208201905081810360008301526134648184613411565b90509291505056fea2646970667358221220b74f8af4831e2c89a01465a00bf1909348a0c404a4b985ef68140e64b72f2c4f64736f6c63430008090033",
  "linkReferences": {},
  "deployedLinkReferences": {}
}