{
  "_format": "hh-sol-artifact-1",
  "contractName": "MockOneInch",
  "sourceName": "contracts/MockOneInch.sol",
  "abi": [
    {
      "inputs": [
        {
          "internalType": "contract IAggregationExecutor",
          "name": "caller",
          "type": "address"
        },
        {
          "components": [
            {
              "internalType": "contract IERC20",
              "name": "srcToken",
              "type": "address"
            },
            {
              "internalType": "contract IERC20",
              "name": "dstToken",
              "type": "address"
            },
            {
              "internalType": "address payable",
              "name": "srcReceiver",
              "type": "address"
            },
            {
              "internalType": "address payable",
              "name": "dstReceiver",
              "type": "address"
            },
            {
              "internalType": "uint256",
              "name": "amount",
              "type": "uint256"
            },
            {
              "internalType": "uint256",
              "name": "minReturnAmount",
              "type": "uint256"
            },
            {
              "internalType": "uint256",
              "name": "flags",
              "type": "uint256"
            },
            {
              "internalType": "bytes",
              "name": "permit",
              "type": "bytes"
            }
          ],
          "internalType": "struct SwapDescription",
          "name": "desc",
          "type": "tuple"
        },
        {
          "internalType": "bytes",
          "name": "data",
          "type": "bytes"
        }
      ],
      "name": "swap",
      "outputs": [
        {
          "internalType": "uint256",
          "name": "returnAmount",
          "type": "uint256"
        },
        {
          "internalType": "uint256",
          "name": "spentAmount",
          "type": "uint256"
        },
        {
          "internalType": "uint256",
          "name": "gasLeft",
          "type": "uint256"
        }
      ],
      "stateMutability": "nonpayable",
      "type": "function"
    }
  ],
  "bytecode": "0x608060405234801561001057600080fd5b5061028b806100206000396000f3fe608060405234801561001057600080fd5b506004361061002b5760003560e01c80637c02520014610030575b600080fd5b61004a60048036038101906100459190610175565b610062565b6040516100599392919061021e565b60405180910390f35b60008060009450945094915050565b600080fd5b600080fd5b600073ffffffffffffffffffffffffffffffffffffffff82169050919050565b60006100a68261007b565b9050919050565b60006100b88261009b565b9050919050565b6100c8816100ad565b81146100d357600080fd5b50565b6000813590506100e5816100bf565b92915050565b600080fd5b60006101008284031215610107576101066100eb565b5b81905092915050565b600080fd5b600080fd5b600080fd5b60008083601f84011261013557610134610110565b5b8235905067ffffffffffffffff81111561015257610151610115565b5b60208301915083600182028301111561016e5761016d61011a565b5b9250929050565b6000806000806060858703121561018f5761018e610071565b5b600061019d878288016100d6565b945050602085013567ffffffffffffffff8111156101be576101bd610076565b5b6101ca878288016100f0565b935050604085013567ffffffffffffffff8111156101eb576101ea610076565b5b6101f78782880161011f565b925092505092959194509250565b6000819050919050565b61021881610205565b82525050565b6000606082019050610233600083018661020f565b610240602083018561020f565b61024d604083018461020f565b94935050505056fea2646970667358221220c6f9e5743fa1a62a4de6f4f171bd97232aeb205a42e7adf8f67cd4471d49af0464736f6c63430008090033",
  "linkReferences": {},
  "deployedLinkReferences": {}
}