{
  "_format": "hh-sol-artifact-1",
  "contractName": "MockOneInch",
  "sourceName": "contracts/MockOneInch.sol",
  "abi": [
    {
      "inputs": [],
      "stateMutability": "nonpayable",
      "type": "constructor"
    },
    {
      "inputs": [],
      "name": "ANGL",
      "outputs": [
        {
          "internalType": "address",
          "name": "",
          "type": "address"
        }
      ],
      "stateMutability": "view",
      "type": "function"
    },
    {
      "inputs": [],
      "name": "FRAX",
      "outputs": [
        {
          "internalType": "address",
          "name": "",
          "type": "address"
        }
      ],
      "stateMutability": "view",
      "type": "function"
    },
    {
      "inputs": [],
      "name": "SDT",
      "outputs": [
        {
          "internalType": "address",
          "name": "",
          "type": "address"
        }
      ],
      "stateMutability": "view",
      "type": "function"
    },
    {
      "inputs": [
        {
          "internalType": "address",
          "name": "",
          "type": "address"
        }
      ],
      "name": "mockRatios",
      "outputs": [
        {
          "internalType": "bool",
          "name": "registered",
          "type": "bool"
        },
        {
          "internalType": "address",
          "name": "dstToken",
          "type": "address"
        },
        {
          "internalType": "uint256",
          "name": "ratio",
          "type": "uint256"
        }
      ],
      "stateMutability": "view",
      "type": "function"
    },
    {
      "inputs": [
        {
          "internalType": "contract IAggregationExecutor",
          "name": "caller",
          "type": "address"
        },
        {
          "components": [
            {
              "internalType": "contract IERC20",
              "name": "srcToken",
              "type": "address"
            },
            {
              "internalType": "contract IERC20",
              "name": "dstToken",
              "type": "address"
            },
            {
              "internalType": "address payable",
              "name": "srcReceiver",
              "type": "address"
            },
            {
              "internalType": "address payable",
              "name": "dstReceiver",
              "type": "address"
            },
            {
              "internalType": "uint256",
              "name": "amount",
              "type": "uint256"
            },
            {
              "internalType": "uint256",
              "name": "minReturnAmount",
              "type": "uint256"
            },
            {
              "internalType": "uint256",
              "name": "flags",
              "type": "uint256"
            },
            {
              "internalType": "bytes",
              "name": "permit",
              "type": "bytes"
            }
          ],
          "internalType": "struct SwapDescription",
          "name": "desc",
          "type": "tuple"
        },
        {
          "internalType": "bytes",
          "name": "data",
          "type": "bytes"
        }
      ],
      "name": "swap",
      "outputs": [
        {
          "internalType": "uint256",
          "name": "returnAmount",
          "type": "uint256"
        },
        {
          "internalType": "uint256",
          "name": "spentAmount",
          "type": "uint256"
        },
        {
          "internalType": "uint256",
          "name": "gasLeft",
          "type": "uint256"
        }
      ],
      "stateMutability": "payable",
      "type": "function"
    }
  ],
  "bytecode": "0x608060405234801561001057600080fd5b50604051806060016040528060011515815260200173853d955acef822db058eb8505911ed77f175b99e73ffffffffffffffffffffffffffffffffffffffff16815260200160028152506000807331429d1856ad1377a8a0079410b297e1a9e214c273ffffffffffffffffffffffffffffffffffffffff1673ffffffffffffffffffffffffffffffffffffffff16815260200190815260200160002060008201518160000160006101000a81548160ff02191690831515021790555060208201518160000160016101000a81548173ffffffffffffffffffffffffffffffffffffffff021916908373ffffffffffffffffffffffffffffffffffffffff16021790555060408201518160010155905050604051806060016040528060011515815260200173853d955acef822db058eb8505911ed77f175b99e73ffffffffffffffffffffffffffffffffffffffff16815260200160048152506000807373968b9a57c6e53d41345fd57a6e6ae27d6cdb2f73ffffffffffffffffffffffffffffffffffffffff1673ffffffffffffffffffffffffffffffffffffffff16815260200190815260200160002060008201518160000160006101000a81548160ff02191690831515021790555060208201518160000160016101000a81548173ffffffffffffffffffffffffffffffffffffffff021916908373ffffffffffffffffffffffffffffffffffffffff160217905550604082015181600101559050506112f98061023e6000396000f3fe60806040526004361061004a5760003560e01c8063301234e61461004f5780637c0252001461007a5780638362dbce146100ac578063b0e4556f146100eb578063ba32c61914610116575b600080fd5b34801561005b57600080fd5b50610064610141565b604051610071919061097b565b60405180910390f35b610094600480360381019061008f9190610a68565b610159565b6040516100a393929190610b11565b60405180910390f35b3480156100b857600080fd5b506100d360048036038101906100ce9190610b74565b610527565b6040516100e293929190610bbc565b60405180910390f35b3480156100f757600080fd5b5061010061057e565b60405161010d919061097b565b60405180910390f35b34801561012257600080fd5b5061012b610596565b604051610138919061097b565b60405180910390f35b7331429d1856ad1377a8a0079410b297e1a9e214c281565b60008060008060008760000160208101906101749190610c31565b73ffffffffffffffffffffffffffffffffffffffff1673ffffffffffffffffffffffffffffffffffffffff1681526020019081526020016000206001015486608001356101c19190610c8d565b9250856080013591506000808760000160208101906101e09190610c31565b73ffffffffffffffffffffffffffffffffffffffff1673ffffffffffffffffffffffffffffffffffffffff16815260200190815260200160002060000160009054906101000a900460ff1661026a576040517f08c379a000000000000000000000000000000000000000000000000000000000815260040161026190610d6a565b60405180910390fd5b6000808760000160208101906102809190610c31565b73ffffffffffffffffffffffffffffffffffffffff1673ffffffffffffffffffffffffffffffffffffffff16815260200190815260200160002060000160019054906101000a900473ffffffffffffffffffffffffffffffffffffffff1673ffffffffffffffffffffffffffffffffffffffff168660200160208101906103079190610c31565b73ffffffffffffffffffffffffffffffffffffffff161461035d576040517f08c379a000000000000000000000000000000000000000000000000000000000815260040161035490610dfc565b60405180910390fd5b828660200160208101906103719190610c31565b73ffffffffffffffffffffffffffffffffffffffff166370a08231306040518263ffffffff1660e01b81526004016103a9919061097b565b60206040518083038186803b1580156103c157600080fd5b505afa1580156103d5573d6000803e3d6000fd5b505050506040513d601f19601f820116820180604052508101906103f99190610e48565b101561043a576040517f08c379a000000000000000000000000000000000000000000000000000000000815260040161043190610ee7565b60405180910390fd5b6104793330848960000160208101906104539190610c31565b73ffffffffffffffffffffffffffffffffffffffff166105ae909392919063ffffffff16565b60008073ffffffffffffffffffffffffffffffffffffffff168760600160208101906104a59190610f45565b73ffffffffffffffffffffffffffffffffffffffff16146104d8578660600160208101906104d39190610f45565b6104da565b335b905061051981858960200160208101906104f49190610c31565b73ffffffffffffffffffffffffffffffffffffffff166106379092919063ffffffff16565b5a9150509450945094915050565b60006020528060005260406000206000915090508060000160009054906101000a900460ff16908060000160019054906101000a900473ffffffffffffffffffffffffffffffffffffffff16908060010154905083565b73853d955acef822db058eb8505911ed77f175b99e81565b7373968b9a57c6e53d41345fd57a6e6ae27d6cdb2f81565b610631846323b872dd60e01b8585856040516024016105cf93929190610f72565b604051602081830303815290604052907bffffffffffffffffffffffffffffffffffffffffffffffffffffffff19166020820180517bffffffffffffffffffffffffffffffffffffffffffffffffffffffff83818316178352505050506106bd565b50505050565b6106b88363a9059cbb60e01b8484604051602401610656929190610fa9565b604051602081830303815290604052907bffffffffffffffffffffffffffffffffffffffffffffffffffffffff19166020820180517bffffffffffffffffffffffffffffffffffffffffffffffffffffffff83818316178352505050506106bd565b505050565b600061071f826040518060400160405280602081526020017f5361666545524332303a206c6f772d6c6576656c2063616c6c206661696c65648152508573ffffffffffffffffffffffffffffffffffffffff166107849092919063ffffffff16565b905060008151111561077f578080602001905181019061073f9190610ffe565b61077e576040517f08c379a00000000000000000000000000000000000000000000000000000000081526004016107759061109d565b60405180910390fd5b5b505050565b6060610793848460008561079c565b90509392505050565b6060824710156107e1576040517f08c379a00000000000000000000000000000000000000000000000000000000081526004016107d89061112f565b60405180910390fd5b6107ea856108b0565b610829576040517f08c379a00000000000000000000000000000000000000000000000000000000081526004016108209061119b565b60405180910390fd5b6000808673ffffffffffffffffffffffffffffffffffffffff1685876040516108529190611235565b60006040518083038185875af1925050503d806000811461088f576040519150601f19603f3d011682016040523d82523d6000602084013e610894565b606091505b50915091506108a48282866108d3565b92505050949350505050565b6000808273ffffffffffffffffffffffffffffffffffffffff163b119050919050565b606083156108e357829050610933565b6000835111156108f65782518084602001fd5b816040517f08c379a000000000000000000000000000000000000000000000000000000000815260040161092a91906112a1565b60405180910390fd5b9392505050565b600073ffffffffffffffffffffffffffffffffffffffff82169050919050565b60006109658261093a565b9050919050565b6109758161095a565b82525050565b6000602082019050610990600083018461096c565b92915050565b600080fd5b600080fd5b60006109ab8261095a565b9050919050565b6109bb816109a0565b81146109c657600080fd5b50565b6000813590506109d8816109b2565b92915050565b600080fd5b600061010082840312156109fa576109f96109de565b5b81905092915050565b600080fd5b600080fd5b600080fd5b60008083601f840112610a2857610a27610a03565b5b8235905067ffffffffffffffff811115610a4557610a44610a08565b5b602083019150836001820283011115610a6157610a60610a0d565b5b9250929050565b60008060008060608587031215610a8257610a81610996565b5b6000610a90878288016109c9565b945050602085013567ffffffffffffffff811115610ab157610ab061099b565b5b610abd878288016109e3565b935050604085013567ffffffffffffffff811115610ade57610add61099b565b5b610aea87828801610a12565b925092505092959194509250565b6000819050919050565b610b0b81610af8565b82525050565b6000606082019050610b266000830186610b02565b610b336020830185610b02565b610b406040830184610b02565b949350505050565b610b518161095a565b8114610b5c57600080fd5b50565b600081359050610b6e81610b48565b92915050565b600060208284031215610b8a57610b89610996565b5b6000610b9884828501610b5f565b91505092915050565b60008115159050919050565b610bb681610ba1565b82525050565b6000606082019050610bd16000830186610bad565b610bde602083018561096c565b610beb6040830184610b02565b949350505050565b6000610bfe8261095a565b9050919050565b610c0e81610bf3565b8114610c1957600080fd5b50565b600081359050610c2b81610c05565b92915050565b600060208284031215610c4757610c46610996565b5b6000610c5584828501610c1c565b91505092915050565b7f4e487b7100000000000000000000000000000000000000000000000000000000600052601160045260246000fd5b6000610c9882610af8565b9150610ca383610af8565b9250817fffffffffffffffffffffffffffffffffffffffffffffffffffffffffffffffff0483118215151615610cdc57610cdb610c5e565b5b828202905092915050565b600082825260208201905092915050565b7f5b4d4f434b5d5b737761705d20496e617661696c61626c6520696e206d6f636b60008201527f2e00000000000000000000000000000000000000000000000000000000000000602082015250565b6000610d54602183610ce7565b9150610d5f82610cf8565b604082019050919050565b60006020820190508181036000830152610d8381610d47565b9050919050565b7f5b4d4f434b5d5b737761705d20496e617070726f707269617465206f7574707560008201527f742e000000000000000000000000000000000000000000000000000000000000602082015250565b6000610de6602283610ce7565b9150610df182610d8a565b604082019050919050565b60006020820190508181036000830152610e1581610dd9565b9050919050565b610e2581610af8565b8114610e3057600080fd5b50565b600081519050610e4281610e1c565b92915050565b600060208284031215610e5e57610e5d610996565b5b6000610e6c84828501610e33565b91505092915050565b7f5b4d4f434b5d5b737761705d204e6f7420656e6f756768206f7574707574207460008201527f6f6b656e2e000000000000000000000000000000000000000000000000000000602082015250565b6000610ed1602583610ce7565b9150610edc82610e75565b604082019050919050565b60006020820190508181036000830152610f0081610ec4565b9050919050565b6000610f128261093a565b9050919050565b610f2281610f07565b8114610f2d57600080fd5b50565b600081359050610f3f81610f19565b92915050565b600060208284031215610f5b57610f5a610996565b5b6000610f6984828501610f30565b91505092915050565b6000606082019050610f87600083018661096c565b610f94602083018561096c565b610fa16040830184610b02565b949350505050565b6000604082019050610fbe600083018561096c565b610fcb6020830184610b02565b9392505050565b610fdb81610ba1565b8114610fe657600080fd5b50565b600081519050610ff881610fd2565b92915050565b60006020828403121561101457611013610996565b5b600061102284828501610fe9565b91505092915050565b7f5361666545524332303a204552433230206f7065726174696f6e20646964206e60008201527f6f74207375636365656400000000000000000000000000000000000000000000602082015250565b6000611087602a83610ce7565b91506110928261102b565b604082019050919050565b600060208201905081810360008301526110b68161107a565b9050919050565b7f416464726573733a20696e73756666696369656e742062616c616e636520666f60008201527f722063616c6c0000000000000000000000000000000000000000000000000000602082015250565b6000611119602683610ce7565b9150611124826110bd565b604082019050919050565b600060208201905081810360008301526111488161110c565b9050919050565b7f416464726573733a2063616c6c20746f206e6f6e2d636f6e7472616374000000600082015250565b6000611185601d83610ce7565b91506111908261114f565b602082019050919050565b600060208201905081810360008301526111b481611178565b9050919050565b600081519050919050565b600081905092915050565b60005b838110156111ef5780820151818401526020810190506111d4565b838111156111fe576000848401525b50505050565b600061120f826111bb565b61121981856111c6565b93506112298185602086016111d1565b80840191505092915050565b60006112418284611204565b915081905092915050565b600081519050919050565b6000601f19601f8301169050919050565b60006112738261124c565b61127d8185610ce7565b935061128d8185602086016111d1565b61129681611257565b840191505092915050565b600060208201905081810360008301526112bb8184611268565b90509291505056fea264697066735822122013fc8b98cf778b042f12d2c8542e67059ad143072a2915004c6e4246a11c5f2a64736f6c63430008090033",
  "linkReferences": {},
  "deployedLinkReferences": {}
}