{
  "_format": "hh-sol-artifact-1",
  "contractName": "MockOneInch",
  "sourceName": "contracts/MockOneInch.sol",
  "abi": [
    {
      "inputs": [],
      "stateMutability": "nonpayable",
      "type": "constructor"
    },
    {
      "inputs": [],
      "name": "ANGL",
      "outputs": [
        {
          "internalType": "address",
          "name": "",
          "type": "address"
        }
      ],
      "stateMutability": "view",
      "type": "function"
    },
    {
      "inputs": [],
      "name": "FRAX",
      "outputs": [
        {
          "internalType": "address",
          "name": "",
          "type": "address"
        }
      ],
      "stateMutability": "view",
      "type": "function"
    },
    {
      "inputs": [],
      "name": "SDT",
      "outputs": [
        {
          "internalType": "address",
          "name": "",
          "type": "address"
        }
      ],
      "stateMutability": "view",
      "type": "function"
    },
    {
      "inputs": [
        {
          "internalType": "address",
          "name": "",
          "type": "address"
        }
      ],
      "name": "mockRatios",
      "outputs": [
        {
          "internalType": "bool",
          "name": "registered",
          "type": "bool"
        },
        {
          "internalType": "address",
          "name": "dstToken",
          "type": "address"
        },
        {
          "internalType": "uint256",
          "name": "ratio",
          "type": "uint256"
        }
      ],
      "stateMutability": "view",
      "type": "function"
    },
    {
      "inputs": [
        {
          "internalType": "contract IAggregationExecutor",
          "name": "caller",
          "type": "address"
        },
        {
          "components": [
            {
              "internalType": "contract IERC20",
              "name": "srcToken",
              "type": "address"
            },
            {
              "internalType": "contract IERC20",
              "name": "dstToken",
              "type": "address"
            },
            {
              "internalType": "address payable",
              "name": "srcReceiver",
              "type": "address"
            },
            {
              "internalType": "address payable",
              "name": "dstReceiver",
              "type": "address"
            },
            {
              "internalType": "uint256",
              "name": "amount",
              "type": "uint256"
            },
            {
              "internalType": "uint256",
              "name": "minReturnAmount",
              "type": "uint256"
            },
            {
              "internalType": "uint256",
              "name": "flags",
              "type": "uint256"
            },
            {
              "internalType": "bytes",
              "name": "permit",
              "type": "bytes"
            }
          ],
          "internalType": "struct SwapDescription",
          "name": "desc",
          "type": "tuple"
        },
        {
          "internalType": "bytes",
          "name": "data",
          "type": "bytes"
        }
      ],
      "name": "swap",
      "outputs": [
        {
          "internalType": "uint256",
          "name": "returnAmount",
          "type": "uint256"
        },
        {
          "internalType": "uint256",
          "name": "spentAmount",
          "type": "uint256"
        },
        {
          "internalType": "uint256",
          "name": "gasLeft",
          "type": "uint256"
        }
      ],
      "stateMutability": "payable",
      "type": "function"
    }
  ],
  "bytecode": "0x608060405234801561001057600080fd5b50604051806060016040528060011515815260200173853d955acef822db058eb8505911ed77f175b99e73ffffffffffffffffffffffffffffffffffffffff1681526020016671afd498d000008152506000807331429d1856ad1377a8a0079410b297e1a9e214c273ffffffffffffffffffffffffffffffffffffffff1673ffffffffffffffffffffffffffffffffffffffff16815260200190815260200160002060008201518160000160006101000a81548160ff02191690831515021790555060208201518160000160016101000a81548173ffffffffffffffffffffffffffffffffffffffff021916908373ffffffffffffffffffffffffffffffffffffffff16021790555060408201518160010155905050604051806060016040528060011515815260200173853d955acef822db058eb8505911ed77f175b99e73ffffffffffffffffffffffffffffffffffffffff1681526020016706f05b59d3b200008152506000807373968b9a57c6e53d41345fd57a6e6ae27d6cdb2f73ffffffffffffffffffffffffffffffffffffffff1673ffffffffffffffffffffffffffffffffffffffff16815260200190815260200160002060008201518160000160006101000a81548160ff02191690831515021790555060208201518160000160016101000a81548173ffffffffffffffffffffffffffffffffffffffff021916908373ffffffffffffffffffffffffffffffffffffffff1602179055506040820151816001015590505061136c8061024b6000396000f3fe60806040526004361061004a5760003560e01c8063301234e61461004f5780637c0252001461007a5780638362dbce146100ac578063b0e4556f146100eb578063ba32c61914610116575b600080fd5b34801561005b57600080fd5b50610064610141565b604051610071919061098e565b60405180910390f35b610094600480360381019061008f9190610a7b565b610159565b6040516100a393929190610b24565b60405180910390f35b3480156100b857600080fd5b506100d360048036038101906100ce9190610b87565b61053a565b6040516100e293929190610bcf565b60405180910390f35b3480156100f757600080fd5b50610100610591565b60405161010d919061098e565b60405180910390f35b34801561012257600080fd5b5061012b6105a9565b604051610138919061098e565b60405180910390f35b7331429d1856ad1377a8a0079410b297e1a9e214c281565b6000806000670de0b6b3a764000060008088600001602081019061017d9190610c44565b73ffffffffffffffffffffffffffffffffffffffff1673ffffffffffffffffffffffffffffffffffffffff1681526020019081526020016000206001015487608001356101ca9190610ca0565b6101d49190610d29565b9250856080013591506000808760000160208101906101f39190610c44565b73ffffffffffffffffffffffffffffffffffffffff1673ffffffffffffffffffffffffffffffffffffffff16815260200190815260200160002060000160009054906101000a900460ff1661027d576040517f08c379a000000000000000000000000000000000000000000000000000000000815260040161027490610ddd565b60405180910390fd5b6000808760000160208101906102939190610c44565b73ffffffffffffffffffffffffffffffffffffffff1673ffffffffffffffffffffffffffffffffffffffff16815260200190815260200160002060000160019054906101000a900473ffffffffffffffffffffffffffffffffffffffff1673ffffffffffffffffffffffffffffffffffffffff1686602001602081019061031a9190610c44565b73ffffffffffffffffffffffffffffffffffffffff1614610370576040517f08c379a000000000000000000000000000000000000000000000000000000000815260040161036790610e6f565b60405180910390fd5b828660200160208101906103849190610c44565b73ffffffffffffffffffffffffffffffffffffffff166370a08231306040518263ffffffff1660e01b81526004016103bc919061098e565b60206040518083038186803b1580156103d457600080fd5b505afa1580156103e8573d6000803e3d6000fd5b505050506040513d601f19601f8201168201806040525081019061040c9190610ebb565b101561044d576040517f08c379a000000000000000000000000000000000000000000000000000000000815260040161044490610f5a565b60405180910390fd5b61048c3330848960000160208101906104669190610c44565b73ffffffffffffffffffffffffffffffffffffffff166105c1909392919063ffffffff16565b60008073ffffffffffffffffffffffffffffffffffffffff168760600160208101906104b89190610fb8565b73ffffffffffffffffffffffffffffffffffffffff16146104eb578660600160208101906104e69190610fb8565b6104ed565b335b905061052c81858960200160208101906105079190610c44565b73ffffffffffffffffffffffffffffffffffffffff1661064a9092919063ffffffff16565b5a9150509450945094915050565b60006020528060005260406000206000915090508060000160009054906101000a900460ff16908060000160019054906101000a900473ffffffffffffffffffffffffffffffffffffffff16908060010154905083565b73853d955acef822db058eb8505911ed77f175b99e81565b7373968b9a57c6e53d41345fd57a6e6ae27d6cdb2f81565b610644846323b872dd60e01b8585856040516024016105e293929190610fe5565b604051602081830303815290604052907bffffffffffffffffffffffffffffffffffffffffffffffffffffffff19166020820180517bffffffffffffffffffffffffffffffffffffffffffffffffffffffff83818316178352505050506106d0565b50505050565b6106cb8363a9059cbb60e01b848460405160240161066992919061101c565b604051602081830303815290604052907bffffffffffffffffffffffffffffffffffffffffffffffffffffffff19166020820180517bffffffffffffffffffffffffffffffffffffffffffffffffffffffff83818316178352505050506106d0565b505050565b6000610732826040518060400160405280602081526020017f5361666545524332303a206c6f772d6c6576656c2063616c6c206661696c65648152508573ffffffffffffffffffffffffffffffffffffffff166107979092919063ffffffff16565b905060008151111561079257808060200190518101906107529190611071565b610791576040517f08c379a000000000000000000000000000000000000000000000000000000000815260040161078890611110565b60405180910390fd5b5b505050565b60606107a684846000856107af565b90509392505050565b6060824710156107f4576040517f08c379a00000000000000000000000000000000000000000000000000000000081526004016107eb906111a2565b60405180910390fd5b6107fd856108c3565b61083c576040517f08c379a00000000000000000000000000000000000000000000000000000000081526004016108339061120e565b60405180910390fd5b6000808673ffffffffffffffffffffffffffffffffffffffff16858760405161086591906112a8565b60006040518083038185875af1925050503d80600081146108a2576040519150601f19603f3d011682016040523d82523d6000602084013e6108a7565b606091505b50915091506108b78282866108e6565b92505050949350505050565b6000808273ffffffffffffffffffffffffffffffffffffffff163b119050919050565b606083156108f657829050610946565b6000835111156109095782518084602001fd5b816040517f08c379a000000000000000000000000000000000000000000000000000000000815260040161093d9190611314565b60405180910390fd5b9392505050565b600073ffffffffffffffffffffffffffffffffffffffff82169050919050565b60006109788261094d565b9050919050565b6109888161096d565b82525050565b60006020820190506109a3600083018461097f565b92915050565b600080fd5b600080fd5b60006109be8261096d565b9050919050565b6109ce816109b3565b81146109d957600080fd5b50565b6000813590506109eb816109c5565b92915050565b600080fd5b60006101008284031215610a0d57610a0c6109f1565b5b81905092915050565b600080fd5b600080fd5b600080fd5b60008083601f840112610a3b57610a3a610a16565b5b8235905067ffffffffffffffff811115610a5857610a57610a1b565b5b602083019150836001820283011115610a7457610a73610a20565b5b9250929050565b60008060008060608587031215610a9557610a946109a9565b5b6000610aa3878288016109dc565b945050602085013567ffffffffffffffff811115610ac457610ac36109ae565b5b610ad0878288016109f6565b935050604085013567ffffffffffffffff811115610af157610af06109ae565b5b610afd87828801610a25565b925092505092959194509250565b6000819050919050565b610b1e81610b0b565b82525050565b6000606082019050610b396000830186610b15565b610b466020830185610b15565b610b536040830184610b15565b949350505050565b610b648161096d565b8114610b6f57600080fd5b50565b600081359050610b8181610b5b565b92915050565b600060208284031215610b9d57610b9c6109a9565b5b6000610bab84828501610b72565b91505092915050565b60008115159050919050565b610bc981610bb4565b82525050565b6000606082019050610be46000830186610bc0565b610bf1602083018561097f565b610bfe6040830184610b15565b949350505050565b6000610c118261096d565b9050919050565b610c2181610c06565b8114610c2c57600080fd5b50565b600081359050610c3e81610c18565b92915050565b600060208284031215610c5a57610c596109a9565b5b6000610c6884828501610c2f565b91505092915050565b7f4e487b7100000000000000000000000000000000000000000000000000000000600052601160045260246000fd5b6000610cab82610b0b565b9150610cb683610b0b565b9250817fffffffffffffffffffffffffffffffffffffffffffffffffffffffffffffffff0483118215151615610cef57610cee610c71565b5b828202905092915050565b7f4e487b7100000000000000000000000000000000000000000000000000000000600052601260045260246000fd5b6000610d3482610b0b565b9150610d3f83610b0b565b925082610d4f57610d4e610cfa565b5b828204905092915050565b600082825260208201905092915050565b7f5b4d4f434b5d5b737761705d20496e617661696c61626c6520696e206d6f636b60008201527f2e00000000000000000000000000000000000000000000000000000000000000602082015250565b6000610dc7602183610d5a565b9150610dd282610d6b565b604082019050919050565b60006020820190508181036000830152610df681610dba565b9050919050565b7f5b4d4f434b5d5b737761705d20496e617070726f707269617465206f7574707560008201527f742e000000000000000000000000000000000000000000000000000000000000602082015250565b6000610e59602283610d5a565b9150610e6482610dfd565b604082019050919050565b60006020820190508181036000830152610e8881610e4c565b9050919050565b610e9881610b0b565b8114610ea357600080fd5b50565b600081519050610eb581610e8f565b92915050565b600060208284031215610ed157610ed06109a9565b5b6000610edf84828501610ea6565b91505092915050565b7f5b4d4f434b5d5b737761705d204e6f7420656e6f756768206f7574707574207460008201527f6f6b656e2e000000000000000000000000000000000000000000000000000000602082015250565b6000610f44602583610d5a565b9150610f4f82610ee8565b604082019050919050565b60006020820190508181036000830152610f7381610f37565b9050919050565b6000610f858261094d565b9050919050565b610f9581610f7a565b8114610fa057600080fd5b50565b600081359050610fb281610f8c565b92915050565b600060208284031215610fce57610fcd6109a9565b5b6000610fdc84828501610fa3565b91505092915050565b6000606082019050610ffa600083018661097f565b611007602083018561097f565b6110146040830184610b15565b949350505050565b6000604082019050611031600083018561097f565b61103e6020830184610b15565b9392505050565b61104e81610bb4565b811461105957600080fd5b50565b60008151905061106b81611045565b92915050565b600060208284031215611087576110866109a9565b5b60006110958482850161105c565b91505092915050565b7f5361666545524332303a204552433230206f7065726174696f6e20646964206e60008201527f6f74207375636365656400000000000000000000000000000000000000000000602082015250565b60006110fa602a83610d5a565b91506111058261109e565b604082019050919050565b60006020820190508181036000830152611129816110ed565b9050919050565b7f416464726573733a20696e73756666696369656e742062616c616e636520666f60008201527f722063616c6c0000000000000000000000000000000000000000000000000000602082015250565b600061118c602683610d5a565b915061119782611130565b604082019050919050565b600060208201905081810360008301526111bb8161117f565b9050919050565b7f416464726573733a2063616c6c20746f206e6f6e2d636f6e7472616374000000600082015250565b60006111f8601d83610d5a565b9150611203826111c2565b602082019050919050565b60006020820190508181036000830152611227816111eb565b9050919050565b600081519050919050565b600081905092915050565b60005b83811015611262578082015181840152602081019050611247565b83811115611271576000848401525b50505050565b60006112828261122e565b61128c8185611239565b935061129c818560208601611244565b80840191505092915050565b60006112b48284611277565b915081905092915050565b600081519050919050565b6000601f19601f8301169050919050565b60006112e6826112bf565b6112f08185610d5a565b9350611300818560208601611244565b611309816112ca565b840191505092915050565b6000602082019050818103600083015261132e81846112db565b90509291505056fea26469706673582212204f2e89ee5f6b8d95550135a8f24df10700a97ae5dc4a0badab310293830b3f9d64736f6c63430008090033",
  "linkReferences": {},
  "deployedLinkReferences": {}
}