{
  "_format": "hh-sol-artifact-1",
  "contractName": "MockOneInch",
  "sourceName": "contracts/MockOneInch.sol",
  "abi": [
    {
      "inputs": [
        {
          "internalType": "contract IAggregationExecutor",
          "name": "caller",
          "type": "address"
        },
        {
          "components": [
            {
              "internalType": "contract IERC20",
              "name": "srcToken",
              "type": "address"
            },
            {
              "internalType": "contract IERC20",
              "name": "dstToken",
              "type": "address"
            },
            {
              "internalType": "address payable",
              "name": "srcReceiver",
              "type": "address"
            },
            {
              "internalType": "address payable",
              "name": "dstReceiver",
              "type": "address"
            },
            {
              "internalType": "uint256",
              "name": "amount",
              "type": "uint256"
            },
            {
              "internalType": "uint256",
              "name": "minReturnAmount",
              "type": "uint256"
            },
            {
              "internalType": "uint256",
              "name": "flags",
              "type": "uint256"
            },
            {
              "internalType": "bytes",
              "name": "permit",
              "type": "bytes"
            }
          ],
          "internalType": "struct SwapDescription",
          "name": "desc",
          "type": "tuple"
        },
        {
          "internalType": "bytes",
          "name": "data",
          "type": "bytes"
        }
      ],
      "name": "swap",
      "outputs": [
        {
          "internalType": "uint256",
          "name": "returnAmount",
          "type": "uint256"
        },
        {
          "internalType": "uint256",
          "name": "spentAmount",
          "type": "uint256"
        },
        {
          "internalType": "uint256",
          "name": "gasLeft",
          "type": "uint256"
        }
      ],
      "stateMutability": "payable",
      "type": "function"
    }
  ],
  "bytecode": "0x608060405234801561001057600080fd5b5061027e806100206000396000f3fe60806040526004361061001e5760003560e01c80637c02520014610023575b600080fd5b61003d60048036038101906100389190610168565b610055565b60405161004c93929190610211565b60405180910390f35b60008060009450945094915050565b600080fd5b600080fd5b600073ffffffffffffffffffffffffffffffffffffffff82169050919050565b60006100998261006e565b9050919050565b60006100ab8261008e565b9050919050565b6100bb816100a0565b81146100c657600080fd5b50565b6000813590506100d8816100b2565b92915050565b600080fd5b600061010082840312156100fa576100f96100de565b5b81905092915050565b600080fd5b600080fd5b600080fd5b60008083601f84011261012857610127610103565b5b8235905067ffffffffffffffff81111561014557610144610108565b5b6020830191508360018202830111156101615761016061010d565b5b9250929050565b6000806000806060858703121561018257610181610064565b5b6000610190878288016100c9565b945050602085013567ffffffffffffffff8111156101b1576101b0610069565b5b6101bd878288016100e3565b935050604085013567ffffffffffffffff8111156101de576101dd610069565b5b6101ea87828801610112565b925092505092959194509250565b6000819050919050565b61020b816101f8565b82525050565b60006060820190506102266000830186610202565b6102336020830185610202565b6102406040830184610202565b94935050505056fea264697066735822122042d8d1a92b810680c63f6e1d1badba0a543150cc098c03dcac3706087de3720d64736f6c63430008090033",
  "linkReferences": {},
  "deployedLinkReferences": {}
}